{
  "_format": "hh-sol-artifact-1",
  "contractName": "Anna",
  "sourceName": "contracts/Anna.sol",
  "abi": [
    {
      "inputs": [
        {
          "internalType": "address",
          "name": "_LOVE",
          "type": "address"
        }
      ],
      "stateMutability": "nonpayable",
      "type": "constructor"
    },
    {
      "anonymous": false,
      "inputs": [
        {
          "indexed": true,
          "internalType": "address",
          "name": "owner",
          "type": "address"
        },
        {
          "indexed": true,
          "internalType": "address",
          "name": "spender",
          "type": "address"
        },
        {
          "indexed": false,
          "internalType": "uint256",
          "name": "value",
          "type": "uint256"
        }
      ],
      "name": "Approval",
      "type": "event"
    },
    {
      "anonymous": false,
      "inputs": [
        {
          "indexed": true,
          "internalType": "address",
          "name": "to",
          "type": "address"
        },
        {
          "indexed": false,
          "internalType": "uint256",
          "name": "amount",
          "type": "uint256"
        },
        {
          "indexed": false,
          "internalType": "uint256",
          "name": "time",
          "type": "uint256"
        }
      ],
      "name": "Minted",
      "type": "event"
    },
    {
      "anonymous": false,
      "inputs": [
        {
          "indexed": true,
          "internalType": "address",
          "name": "to",
          "type": "address"
        },
        {
          "indexed": false,
          "internalType": "uint256",
          "name": "time",
          "type": "uint256"
        }
      ],
      "name": "OwnerChanged",
      "type": "event"
    },
    {
      "anonymous": false,
      "inputs": [
        {
          "indexed": true,
          "internalType": "address",
          "name": "previousOwner",
          "type": "address"
        },
        {
          "indexed": true,
          "internalType": "address",
          "name": "newOwner",
          "type": "address"
        }
      ],
      "name": "OwnershipTransferred",
      "type": "event"
    },
    {
      "anonymous": false,
      "inputs": [
        {
          "indexed": true,
          "internalType": "address",
          "name": "from",
          "type": "address"
        },
        {
          "indexed": true,
          "internalType": "address",
          "name": "to",
          "type": "address"
        },
        {
          "indexed": false,
          "internalType": "uint256",
          "name": "value",
          "type": "uint256"
        }
      ],
      "name": "Transfer",
      "type": "event"
    },
    {
      "anonymous": false,
      "inputs": [
        {
          "indexed": true,
          "internalType": "address",
          "name": "to",
          "type": "address"
        },
        {
          "indexed": false,
          "internalType": "uint256",
          "name": "amount",
          "type": "uint256"
        },
        {
          "indexed": false,
          "internalType": "uint256",
          "name": "time",
          "type": "uint256"
        }
      ],
      "name": "WithdrawalDone",
      "type": "event"
    },
    {
      "stateMutability": "payable",
      "type": "fallback"
    },
    {
      "inputs": [],
      "name": "LOVE",
      "outputs": [
        {
          "internalType": "contract ERC20",
          "name": "",
          "type": "address"
        }
      ],
      "stateMutability": "view",
      "type": "function"
    },
    {
      "inputs": [
        {
          "internalType": "address",
          "name": "owner",
          "type": "address"
        },
        {
          "internalType": "address",
          "name": "spender",
          "type": "address"
        }
      ],
      "name": "allowance",
      "outputs": [
        {
          "internalType": "uint256",
          "name": "",
          "type": "uint256"
        }
      ],
      "stateMutability": "view",
      "type": "function"
    },
    {
      "inputs": [
        {
          "internalType": "address",
          "name": "spender",
          "type": "address"
        },
        {
          "internalType": "uint256",
          "name": "amount",
          "type": "uint256"
        }
      ],
      "name": "approve",
      "outputs": [
        {
          "internalType": "bool",
          "name": "",
          "type": "bool"
        }
      ],
      "stateMutability": "nonpayable",
      "type": "function"
    },
    {
      "inputs": [
        {
          "internalType": "address",
          "name": "account",
          "type": "address"
        }
      ],
      "name": "balanceOf",
      "outputs": [
        {
          "internalType": "uint256",
          "name": "",
          "type": "uint256"
        }
      ],
      "stateMutability": "view",
      "type": "function"
    },
    {
      "inputs": [
        {
          "internalType": "uint256",
          "name": "_amount",
          "type": "uint256"
        }
      ],
      "name": "buyAnna",
      "outputs": [],
      "stateMutability": "payable",
      "type": "function"
    },
    {
      "inputs": [],
      "name": "claimOwner",
      "outputs": [],
      "stateMutability": "nonpayable",
      "type": "function"
    },
    {
      "inputs": [],
      "name": "decimals",
      "outputs": [
        {
          "internalType": "uint8",
          "name": "",
          "type": "uint8"
        }
      ],
      "stateMutability": "view",
      "type": "function"
    },
    {
      "inputs": [
        {
          "internalType": "address",
          "name": "spender",
          "type": "address"
        },
        {
          "internalType": "uint256",
          "name": "subtractedValue",
          "type": "uint256"
        }
      ],
      "name": "decreaseAllowance",
      "outputs": [
        {
          "internalType": "bool",
          "name": "",
          "type": "bool"
        }
      ],
      "stateMutability": "nonpayable",
      "type": "function"
    },
    {
      "inputs": [],
      "name": "destruct",
      "outputs": [],
      "stateMutability": "nonpayable",
      "type": "function"
    },
    {
      "inputs": [
        {
          "internalType": "address",
          "name": "spender",
          "type": "address"
        },
        {
          "internalType": "uint256",
          "name": "addedValue",
          "type": "uint256"
        }
      ],
      "name": "increaseAllowance",
      "outputs": [
        {
          "internalType": "bool",
          "name": "",
          "type": "bool"
        }
      ],
      "stateMutability": "nonpayable",
      "type": "function"
    },
    {
      "inputs": [],
      "name": "isLocked",
      "outputs": [
        {
          "internalType": "bool",
          "name": "",
          "type": "bool"
        }
      ],
      "stateMutability": "view",
      "type": "function"
    },
    {
      "inputs": [
        {
          "internalType": "address",
          "name": "to",
          "type": "address"
        },
        {
          "internalType": "uint256",
          "name": "amount",
          "type": "uint256"
        }
      ],
      "name": "mint",
      "outputs": [],
      "stateMutability": "nonpayable",
      "type": "function"
    },
    {
      "inputs": [],
      "name": "name",
      "outputs": [
        {
          "internalType": "string",
          "name": "",
          "type": "string"
        }
      ],
      "stateMutability": "view",
      "type": "function"
    },
    {
      "inputs": [],
      "name": "owner",
      "outputs": [
        {
          "internalType": "address",
          "name": "",
          "type": "address"
        }
      ],
      "stateMutability": "view",
      "type": "function"
    },
    {
      "inputs": [],
      "name": "price",
      "outputs": [
        {
          "internalType": "uint256",
          "name": "",
          "type": "uint256"
        }
      ],
      "stateMutability": "view",
      "type": "function"
    },
    {
      "inputs": [],
      "name": "renounceOwnership",
      "outputs": [],
      "stateMutability": "nonpayable",
      "type": "function"
    },
    {
      "inputs": [
        {
          "internalType": "uint256",
          "name": "_price",
          "type": "uint256"
        }
      ],
      "name": "setPrice",
      "outputs": [],
      "stateMutability": "nonpayable",
      "type": "function"
    },
    {
      "inputs": [],
      "name": "symbol",
      "outputs": [
        {
          "internalType": "string",
          "name": "",
          "type": "string"
        }
      ],
      "stateMutability": "view",
      "type": "function"
    },
    {
      "inputs": [],
      "name": "totalSupply",
      "outputs": [
        {
          "internalType": "uint256",
          "name": "",
          "type": "uint256"
        }
      ],
      "stateMutability": "view",
      "type": "function"
    },
    {
      "inputs": [
        {
          "internalType": "address",
          "name": "to",
          "type": "address"
        },
        {
          "internalType": "uint256",
          "name": "amount",
          "type": "uint256"
        }
      ],
      "name": "transfer",
      "outputs": [
        {
          "internalType": "bool",
          "name": "",
          "type": "bool"
        }
      ],
      "stateMutability": "nonpayable",
      "type": "function"
    },
    {
      "inputs": [
        {
          "internalType": "address",
          "name": "from",
          "type": "address"
        },
        {
          "internalType": "address",
          "name": "to",
          "type": "address"
        },
        {
          "internalType": "uint256",
          "name": "amount",
          "type": "uint256"
        }
      ],
      "name": "transferFrom",
      "outputs": [
        {
          "internalType": "bool",
          "name": "",
          "type": "bool"
        }
      ],
      "stateMutability": "nonpayable",
      "type": "function"
    },
    {
      "inputs": [
        {
          "internalType": "address",
          "name": "newOwner",
          "type": "address"
        }
      ],
      "name": "transferOwnership",
      "outputs": [],
      "stateMutability": "nonpayable",
      "type": "function"
    },
    {
      "inputs": [],
      "name": "unlock",
      "outputs": [],
      "stateMutability": "nonpayable",
      "type": "function"
    },
    {
      "inputs": [],
      "name": "withdraw",
      "outputs": [],
      "stateMutability": "nonpayable",
      "type": "function"
    },
    {
      "stateMutability": "payable",
      "type": "receive"
    }
  ],
  "bytecode": "0x608060405267016345785d8a00006006556000600760006101000a81548160ff0219169083151502179055503480156200003857600080fd5b50604051620031493803806200314983398181016040528101906200005e919062000488565b6040518060400160405280600481526020017f416e6e61000000000000000000000000000000000000000000000000000000008152506040518060400160405280600481526020017f414e4e41000000000000000000000000000000000000000000000000000000008152508160039081620000db919062000734565b508060049081620000ed919062000734565b5050506200011062000104620001a660201b60201c565b620001ae60201b60201c565b6200015e620001246200027460201b60201c565b620001346200029e60201b60201c565b600a620001429190620009ab565b620f4240620001529190620009fc565b620002a760201b60201c565b80600760016101000a81548173ffffffffffffffffffffffffffffffffffffffff021916908373ffffffffffffffffffffffffffffffffffffffff1602179055505062000b33565b600033905090565b6000600560009054906101000a900473ffffffffffffffffffffffffffffffffffffffff16905081600560006101000a81548173ffffffffffffffffffffffffffffffffffffffff021916908373ffffffffffffffffffffffffffffffffffffffff1602179055508173ffffffffffffffffffffffffffffffffffffffff168173ffffffffffffffffffffffffffffffffffffffff167f8be0079c531659141344cd1fd0a4f28419497f9722a3daafe3b4186f6b6457e060405160405180910390a35050565b6000600560009054906101000a900473ffffffffffffffffffffffffffffffffffffffff16905090565b60006012905090565b600073ffffffffffffffffffffffffffffffffffffffff168273ffffffffffffffffffffffffffffffffffffffff160362000319576040517f08c379a0000000000000000000000000000000000000000000000000000000008152600401620003109062000aa8565b60405180910390fd5b6200032d600083836200041460201b60201c565b806002600082825462000341919062000aca565b92505081905550806000808473ffffffffffffffffffffffffffffffffffffffff1673ffffffffffffffffffffffffffffffffffffffff168152602001908152602001600020600082825401925050819055508173ffffffffffffffffffffffffffffffffffffffff16600073ffffffffffffffffffffffffffffffffffffffff167fddf252ad1be2c89b69c2b068fc378daa952ba7f163c4a11628f55a4df523b3ef83604051620003f4919062000b16565b60405180910390a362000410600083836200041960201b60201c565b5050565b505050565b505050565b600080fd5b600073ffffffffffffffffffffffffffffffffffffffff82169050919050565b6000620004508262000423565b9050919050565b620004628162000443565b81146200046e57600080fd5b50565b600081519050620004828162000457565b92915050565b600060208284031215620004a157620004a06200041e565b5b6000620004b18482850162000471565b91505092915050565b600081519050919050565b7f4e487b7100000000000000000000000000000000000000000000000000000000600052604160045260246000fd5b7f4e487b7100000000000000000000000000000000000000000000000000000000600052602260045260246000fd5b600060028204905060018216806200053c57607f821691505b602082108103620005525762000551620004f4565b5b50919050565b60008190508160005260206000209050919050565b60006020601f8301049050919050565b600082821b905092915050565b600060088302620005bc7fffffffffffffffffffffffffffffffffffffffffffffffffffffffffffffffff826200057d565b620005c886836200057d565b95508019841693508086168417925050509392505050565b6000819050919050565b6000819050919050565b6000620006156200060f6200060984620005e0565b620005ea565b620005e0565b9050919050565b6000819050919050565b6200063183620005f4565b6200064962000640826200061c565b8484546200058a565b825550505050565b600090565b6200066062000651565b6200066d81848462000626565b505050565b5b8181101562000695576200068960008262000656565b60018101905062000673565b5050565b601f821115620006e457620006ae8162000558565b620006b9846200056d565b81016020851015620006c9578190505b620006e1620006d8856200056d565b83018262000672565b50505b505050565b600082821c905092915050565b60006200070960001984600802620006e9565b1980831691505092915050565b6000620007248383620006f6565b9150826002028217905092915050565b6200073f82620004ba565b67ffffffffffffffff8111156200075b576200075a620004c5565b5b62000767825462000523565b6200077482828562000699565b600060209050601f831160018114620007ac576000841562000797578287015190505b620007a3858262000716565b86555062000813565b601f198416620007bc8662000558565b60005b82811015620007e657848901518255600182019150602085019450602081019050620007bf565b8683101562000806578489015162000802601f891682620006f6565b8355505b6001600288020188555050505b505050505050565b7f4e487b7100000000000000000000000000000000000000000000000000000000600052601160045260246000fd5b60008160011c9050919050565b6000808291508390505b6001851115620008a9578086048111156200088157620008806200081b565b5b6001851615620008915780820291505b8081029050620008a1856200084a565b945062000861565b94509492505050565b600082620008c4576001905062000997565b81620008d4576000905062000997565b8160018114620008ed5760028114620008f8576200092e565b600191505062000997565b60ff8411156200090d576200090c6200081b565b5b8360020a9150848211156200092757620009266200081b565b5b5062000997565b5060208310610133831016604e8410600b8410161715620009685782820a9050838111156200096257620009616200081b565b5b62000997565b62000977848484600162000857565b925090508184048111156200099157620009906200081b565b5b81810290505b9392505050565b600060ff82169050919050565b6000620009b882620005e0565b9150620009c5836200099e565b9250620009f47fffffffffffffffffffffffffffffffffffffffffffffffffffffffffffffffff8484620008b2565b905092915050565b600062000a0982620005e0565b915062000a1683620005e0565b925082820262000a2681620005e0565b9150828204841483151762000a405762000a3f6200081b565b5b5092915050565b600082825260208201905092915050565b7f45524332303a206d696e7420746f20746865207a65726f206164647265737300600082015250565b600062000a90601f8362000a47565b915062000a9d8262000a58565b602082019050919050565b6000602082019050818103600083015262000ac38162000a81565b9050919050565b600062000ad782620005e0565b915062000ae483620005e0565b925082820190508082111562000aff5762000afe6200081b565b5b92915050565b62000b1081620005e0565b82525050565b600060208201905062000b2d600083018462000b05565b92915050565b6126068062000b436000396000f3fe60806040526004361061014f5760003560e01c806370a08231116100b6578063a457c2d71161006f578063a457c2d714610443578063a4e2d63414610480578063a69df4b5146104ab578063a9059cbb146104c2578063dd62ed3e146104ff578063f2fde38b1461053c57610156565b806370a0823114610345578063715018a6146103825780638da5cb5b1461039957806391b7f5ed146103c457806395d89b41146103ed578063a035b1fe1461041857610156565b8063313ce56711610108578063313ce5671461026a57806339509351146102955780633bd1adec146102d25780633ccfd60b146102e957806340c10f1914610300578063575a784a1461032957610156565b806306fdde0314610158578063095ea7b31461018357806318160ddd146101c057806320b69898146101eb57806323b872dd146102165780632b68b9c61461025357610156565b3661015657005b005b34801561016457600080fd5b5061016d610565565b60405161017a9190611797565b60405180910390f35b34801561018f57600080fd5b506101aa60048036038101906101a59190611852565b6105f7565b6040516101b791906118ad565b60405180910390f35b3480156101cc57600080fd5b506101d561061a565b6040516101e291906118d7565b60405180910390f35b3480156101f757600080fd5b50610200610624565b60405161020d9190611951565b60405180910390f35b34801561022257600080fd5b5061023d6004803603810190610238919061196c565b61064a565b60405161024a91906118ad565b60405180910390f35b34801561025f57600080fd5b50610268610679565b005b34801561027657600080fd5b5061027f6106a1565b60405161028c91906119db565b60405180910390f35b3480156102a157600080fd5b506102bc60048036038101906102b79190611852565b6106aa565b6040516102c991906118ad565b60405180910390f35b3480156102de57600080fd5b506102e76106e1565b005b3480156102f557600080fd5b506102fe610893565b005b34801561030c57600080fd5b5061032760048036038101906103229190611852565b6109e3565b005b610343600480360381019061033e91906119f6565b610a49565b005b34801561035157600080fd5b5061036c60048036038101906103679190611a23565b610b95565b60405161037991906118d7565b60405180910390f35b34801561038e57600080fd5b50610397610bdd565b005b3480156103a557600080fd5b506103ae610bf1565b6040516103bb9190611a5f565b60405180910390f35b3480156103d057600080fd5b506103eb60048036038101906103e691906119f6565b610c1b565b005b3480156103f957600080fd5b50610402610c2d565b60405161040f9190611797565b60405180910390f35b34801561042457600080fd5b5061042d610cbf565b60405161043a91906118d7565b60405180910390f35b34801561044f57600080fd5b5061046a60048036038101906104659190611852565b610cc5565b60405161047791906118ad565b60405180910390f35b34801561048c57600080fd5b50610495610d3c565b6040516104a291906118ad565b60405180910390f35b3480156104b757600080fd5b506104c0610d4f565b005b3480156104ce57600080fd5b506104e960048036038101906104e49190611852565b610e63565b6040516104f691906118ad565b60405180910390f35b34801561050b57600080fd5b5061052660048036038101906105219190611a7a565b610e86565b60405161053391906118d7565b60405180910390f35b34801561054857600080fd5b50610563600480360381019061055e9190611a23565b610f0d565b005b60606003805461057490611ae9565b80601f01602080910402602001604051908101604052809291908181526020018280546105a090611ae9565b80156105ed5780601f106105c2576101008083540402835291602001916105ed565b820191906000526020600020905b8154815290600101906020018083116105d057829003601f168201915b5050505050905090565b600080610602610f90565b905061060f818585610f98565b600191505092915050565b6000600254905090565b600760019054906101000a900473ffffffffffffffffffffffffffffffffffffffff1681565b600080610655610f90565b9050610662858285611161565b61066d8585856111ed565b60019150509392505050565b610681611463565b610689610bf1565b73ffffffffffffffffffffffffffffffffffffffff16ff5b60006012905090565b6000806106b5610f90565b90506106d68185856106c78589610e86565b6106d19190611b49565b610f98565b600191505092915050565b69021e19e0c9bab2400000600760019054906101000a900473ffffffffffffffffffffffffffffffffffffffff1673ffffffffffffffffffffffffffffffffffffffff166370a08231336040518263ffffffff1660e01b81526004016107479190611a5f565b602060405180830381865afa158015610764573d6000803e3d6000fd5b505050506040513d601f19601f820116820180604052508101906107889190611b92565b10156107c9576040517f08c379a00000000000000000000000000000000000000000000000000000000081526004016107c090611c31565b60405180910390fd5b60001515600760009054906101000a900460ff1615151461081f576040517f08c379a000000000000000000000000000000000000000000000000000000000815260040161081690611cc3565b60405180910390fd5b610828336114e1565b6001600760006101000a81548160ff0219169083151502179055503373ffffffffffffffffffffffffffffffffffffffff167f0f17057c058227955304580e8ad3305c4fff882badabd5340cdc5eb55933f3014260405161088991906118d7565b60405180910390a2565b61089b611463565b6000479050600081116108e3576040517f08c379a00000000000000000000000000000000000000000000000000000000081526004016108da90611d55565b60405180910390fd5b60003373ffffffffffffffffffffffffffffffffffffffff168260405161090990611da6565b60006040518083038185875af1925050503d8060008114610946576040519150601f19603f3d011682016040523d82523d6000602084013e61094b565b606091505b505090508061098f576040517f08c379a000000000000000000000000000000000000000000000000000000000815260040161098690611e07565b60405180910390fd5b3373ffffffffffffffffffffffffffffffffffffffff167f05de6288c7d47933a7195ba55a4ebbbdeb6c7ddbc12c83e70d2842254db165c283426040516109d7929190611e27565b60405180910390a25050565b6109eb611463565b6109f582826115a7565b8173ffffffffffffffffffffffffffffffffffffffff167f25b428dfde728ccfaddad7e29e4ac23c24ed7fd1a6e3e3f91894a9a073f5dfff8242604051610a3d929190611e27565b60405180910390a25050565b60008111610a8c576040517f08c379a0000000000000000000000000000000000000000000000000000000008152600401610a8390611ec2565b60405180910390fd5b600081600654610a9c9190611ee2565b905080341015610ae1576040517f08c379a0000000000000000000000000000000000000000000000000000000008152600401610ad890611f70565b60405180910390fd5b34471015610b24576040517f08c379a0000000000000000000000000000000000000000000000000000000008152600401610b1b90611fdc565b60405180910390fd5b610b4133670de0b6b3a764000084610b3c9190611ee2565b6115a7565b3373ffffffffffffffffffffffffffffffffffffffff167f25b428dfde728ccfaddad7e29e4ac23c24ed7fd1a6e3e3f91894a9a073f5dfff8342604051610b89929190611e27565b60405180910390a25050565b60008060008373ffffffffffffffffffffffffffffffffffffffff1673ffffffffffffffffffffffffffffffffffffffff168152602001908152602001600020549050919050565b610be5611463565b610bef60006114e1565b565b6000600560009054906101000a900473ffffffffffffffffffffffffffffffffffffffff16905090565b610c23611463565b8060068190555050565b606060048054610c3c90611ae9565b80601f0160208091040260200160405190810160405280929190818152602001828054610c6890611ae9565b8015610cb55780601f10610c8a57610100808354040283529160200191610cb5565b820191906000526020600020905b815481529060010190602001808311610c9857829003601f168201915b5050505050905090565b60065481565b600080610cd0610f90565b90506000610cde8286610e86565b905083811015610d23576040517f08c379a0000000000000000000000000000000000000000000000000000000008152600401610d1a9061206e565b60405180910390fd5b610d308286868403610f98565b60019250505092915050565b600760009054906101000a900460ff1681565b69032d26d12e980b600000600760019054906101000a900473ffffffffffffffffffffffffffffffffffffffff1673ffffffffffffffffffffffffffffffffffffffff166370a08231336040518263ffffffff1660e01b8152600401610db59190611a5f565b602060405180830381865afa158015610dd2573d6000803e3d6000fd5b505050506040513d601f19601f82011682018060405250810190610df69190611b92565b1015610e37576040517f08c379a0000000000000000000000000000000000000000000000000000000008152600401610e2e90612100565b60405180910390fd5b600760009054906101000a900460ff1615600760006101000a81548160ff021916908315150217905550565b600080610e6e610f90565b9050610e7b8185856111ed565b600191505092915050565b6000600160008473ffffffffffffffffffffffffffffffffffffffff1673ffffffffffffffffffffffffffffffffffffffff16815260200190815260200160002060008373ffffffffffffffffffffffffffffffffffffffff1673ffffffffffffffffffffffffffffffffffffffff16815260200190815260200160002054905092915050565b610f15611463565b600073ffffffffffffffffffffffffffffffffffffffff168173ffffffffffffffffffffffffffffffffffffffff1603610f84576040517f08c379a0000000000000000000000000000000000000000000000000000000008152600401610f7b90612192565b60405180910390fd5b610f8d816114e1565b50565b600033905090565b600073ffffffffffffffffffffffffffffffffffffffff168373ffffffffffffffffffffffffffffffffffffffff1603611007576040517f08c379a0000000000000000000000000000000000000000000000000000000008152600401610ffe90612224565b60405180910390fd5b600073ffffffffffffffffffffffffffffffffffffffff168273ffffffffffffffffffffffffffffffffffffffff1603611076576040517f08c379a000000000000000000000000000000000000000000000000000000000815260040161106d906122b6565b60405180910390fd5b80600160008573ffffffffffffffffffffffffffffffffffffffff1673ffffffffffffffffffffffffffffffffffffffff16815260200190815260200160002060008473ffffffffffffffffffffffffffffffffffffffff1673ffffffffffffffffffffffffffffffffffffffff168152602001908152602001600020819055508173ffffffffffffffffffffffffffffffffffffffff168373ffffffffffffffffffffffffffffffffffffffff167f8c5be1e5ebec7d5bd14f71427d1e84f3dd0314c0f7b2291e5b200ac8c7c3b9258360405161115491906118d7565b60405180910390a3505050565b600061116d8484610e86565b90507fffffffffffffffffffffffffffffffffffffffffffffffffffffffffffffffff81146111e757818110156111d9576040517f08c379a00000000000000000000000000000000000000000000000000000000081526004016111d090612322565b60405180910390fd5b6111e68484848403610f98565b5b50505050565b600073ffffffffffffffffffffffffffffffffffffffff168373ffffffffffffffffffffffffffffffffffffffff160361125c576040517f08c379a0000000000000000000000000000000000000000000000000000000008152600401611253906123b4565b60405180910390fd5b600073ffffffffffffffffffffffffffffffffffffffff168273ffffffffffffffffffffffffffffffffffffffff16036112cb576040517f08c379a00000000000000000000000000000000000000000000000000000000081526004016112c290612446565b60405180910390fd5b6112d68383836116fd565b60008060008573ffffffffffffffffffffffffffffffffffffffff1673ffffffffffffffffffffffffffffffffffffffff1681526020019081526020016000205490508181101561135c576040517f08c379a0000000000000000000000000000000000000000000000000000000008152600401611353906124d8565b60405180910390fd5b8181036000808673ffffffffffffffffffffffffffffffffffffffff1673ffffffffffffffffffffffffffffffffffffffff16815260200190815260200160002081905550816000808573ffffffffffffffffffffffffffffffffffffffff1673ffffffffffffffffffffffffffffffffffffffff168152602001908152602001600020600082825401925050819055508273ffffffffffffffffffffffffffffffffffffffff168473ffffffffffffffffffffffffffffffffffffffff167fddf252ad1be2c89b69c2b068fc378daa952ba7f163c4a11628f55a4df523b3ef8460405161144a91906118d7565b60405180910390a361145d848484611702565b50505050565b61146b610f90565b73ffffffffffffffffffffffffffffffffffffffff16611489610bf1565b73ffffffffffffffffffffffffffffffffffffffff16146114df576040517f08c379a00000000000000000000000000000000000000000000000000000000081526004016114d690612544565b60405180910390fd5b565b6000600560009054906101000a900473ffffffffffffffffffffffffffffffffffffffff16905081600560006101000a81548173ffffffffffffffffffffffffffffffffffffffff021916908373ffffffffffffffffffffffffffffffffffffffff1602179055508173ffffffffffffffffffffffffffffffffffffffff168173ffffffffffffffffffffffffffffffffffffffff167f8be0079c531659141344cd1fd0a4f28419497f9722a3daafe3b4186f6b6457e060405160405180910390a35050565b600073ffffffffffffffffffffffffffffffffffffffff168273ffffffffffffffffffffffffffffffffffffffff1603611616576040517f08c379a000000000000000000000000000000000000000000000000000000000815260040161160d906125b0565b60405180910390fd5b611622600083836116fd565b80600260008282546116349190611b49565b92505081905550806000808473ffffffffffffffffffffffffffffffffffffffff1673ffffffffffffffffffffffffffffffffffffffff168152602001908152602001600020600082825401925050819055508173ffffffffffffffffffffffffffffffffffffffff16600073ffffffffffffffffffffffffffffffffffffffff167fddf252ad1be2c89b69c2b068fc378daa952ba7f163c4a11628f55a4df523b3ef836040516116e591906118d7565b60405180910390a36116f960008383611702565b5050565b505050565b505050565b600081519050919050565b600082825260208201905092915050565b60005b83811015611741578082015181840152602081019050611726565b60008484015250505050565b6000601f19601f8301169050919050565b600061176982611707565b6117738185611712565b9350611783818560208601611723565b61178c8161174d565b840191505092915050565b600060208201905081810360008301526117b1818461175e565b905092915050565b600080fd5b600073ffffffffffffffffffffffffffffffffffffffff82169050919050565b60006117e9826117be565b9050919050565b6117f9816117de565b811461180457600080fd5b50565b600081359050611816816117f0565b92915050565b6000819050919050565b61182f8161181c565b811461183a57600080fd5b50565b60008135905061184c81611826565b92915050565b60008060408385031215611869576118686117b9565b5b600061187785828601611807565b92505060206118888582860161183d565b9150509250929050565b60008115159050919050565b6118a781611892565b82525050565b60006020820190506118c2600083018461189e565b92915050565b6118d18161181c565b82525050565b60006020820190506118ec60008301846118c8565b92915050565b6000819050919050565b600061191761191261190d846117be565b6118f2565b6117be565b9050919050565b6000611929826118fc565b9050919050565b600061193b8261191e565b9050919050565b61194b81611930565b82525050565b60006020820190506119666000830184611942565b92915050565b600080600060608486031215611985576119846117b9565b5b600061199386828701611807565b93505060206119a486828701611807565b92505060406119b58682870161183d565b9150509250925092565b600060ff82169050919050565b6119d5816119bf565b82525050565b60006020820190506119f060008301846119cc565b92915050565b600060208284031215611a0c57611a0b6117b9565b5b6000611a1a8482850161183d565b91505092915050565b600060208284031215611a3957611a386117b9565b5b6000611a4784828501611807565b91505092915050565b611a59816117de565b82525050565b6000602082019050611a746000830184611a50565b92915050565b60008060408385031215611a9157611a906117b9565b5b6000611a9f85828601611807565b9250506020611ab085828601611807565b9150509250929050565b7f4e487b7100000000000000000000000000000000000000000000000000000000600052602260045260246000fd5b60006002820490506001821680611b0157607f821691505b602082108103611b1457611b13611aba565b5b50919050565b7f4e487b7100000000000000000000000000000000000000000000000000000000600052601160045260246000fd5b6000611b548261181c565b9150611b5f8361181c565b9250828201905080821115611b7757611b76611b1a565b5b92915050565b600081519050611b8c81611826565b92915050565b600060208284031215611ba857611ba76117b9565b5b6000611bb684828501611b7d565b91505092915050565b7f596f75206e656564206174206c656173742031306b204c4f564520746f20646f60008201527f2074686973000000000000000000000000000000000000000000000000000000602082015250565b6000611c1b602583611712565b9150611c2682611bbf565b604082019050919050565b60006020820190508181036000830152611c4a81611c0e565b9050919050565b7f54686520636f6e7472616374206973206c6f636b65642c20706c65617365207560008201527f6e6c6f636b000000000000000000000000000000000000000000000000000000602082015250565b6000611cad602583611712565b9150611cb882611c51565b604082019050919050565b60006020820190508181036000830152611cdc81611ca0565b9050919050565b7f4e6f7468696e6720746f2077697468647261773a2074686520636f6e7472616360008201527f742062616c616e636520656d7074790000000000000000000000000000000000602082015250565b6000611d3f602f83611712565b9150611d4a82611ce3565b604082019050919050565b60006020820190508181036000830152611d6e81611d32565b9050919050565b600081905092915050565b50565b6000611d90600083611d75565b9150611d9b82611d80565b600082019050919050565b6000611db182611d83565b9150819050919050565b7f4661696c656420746f2077697468647261772066756e64730000000000000000600082015250565b6000611df1601883611712565b9150611dfc82611dbb565b602082019050919050565b60006020820190508181036000830152611e2081611de4565b9050919050565b6000604082019050611e3c60008301856118c8565b611e4960208301846118c8565b9392505050565b7f506c6561736520696e73657274206120706f73697469766520616d6f756e742060008201527f6f6620746f6b656e20746f206265207075726368617365640000000000000000602082015250565b6000611eac603883611712565b9150611eb782611e50565b604082019050919050565b60006020820190508181036000830152611edb81611e9f565b9050919050565b6000611eed8261181c565b9150611ef88361181c565b9250828202611f068161181c565b91508282048414831517611f1d57611f1c611b1a565b5b5092915050565b7f506c65617365206d616b6520612073756666696369656e74207061796d656e74600082015250565b6000611f5a602083611712565b9150611f6582611f24565b602082019050919050565b60006020820190508181036000830152611f8981611f4d565b9050919050565b7f4d6f6e6579206e6f742079657420726563696576656400000000000000000000600082015250565b6000611fc6601683611712565b9150611fd182611f90565b602082019050919050565b60006020820190508181036000830152611ff581611fb9565b9050919050565b7f45524332303a2064656372656173656420616c6c6f77616e63652062656c6f7760008201527f207a65726f000000000000000000000000000000000000000000000000000000602082015250565b6000612058602583611712565b915061206382611ffc565b604082019050919050565b600060208201905081810360008301526120878161204b565b9050919050565b7f596f75206e656564206174206c656173742031356b204c4f564520746f20646f60008201527f2074686973000000000000000000000000000000000000000000000000000000602082015250565b60006120ea602583611712565b91506120f58261208e565b604082019050919050565b60006020820190508181036000830152612119816120dd565b9050919050565b7f4f776e61626c653a206e6577206f776e657220697320746865207a65726f206160008201527f6464726573730000000000000000000000000000000000000000000000000000602082015250565b600061217c602683611712565b915061218782612120565b604082019050919050565b600060208201905081810360008301526121ab8161216f565b9050919050565b7f45524332303a20617070726f76652066726f6d20746865207a65726f2061646460008201527f7265737300000000000000000000000000000000000000000000000000000000602082015250565b600061220e602483611712565b9150612219826121b2565b604082019050919050565b6000602082019050818103600083015261223d81612201565b9050919050565b7f45524332303a20617070726f766520746f20746865207a65726f20616464726560008201527f7373000000000000000000000000000000000000000000000000000000000000602082015250565b60006122a0602283611712565b91506122ab82612244565b604082019050919050565b600060208201905081810360008301526122cf81612293565b9050919050565b7f45524332303a20696e73756666696369656e7420616c6c6f77616e6365000000600082015250565b600061230c601d83611712565b9150612317826122d6565b602082019050919050565b6000602082019050818103600083015261233b816122ff565b9050919050565b7f45524332303a207472616e736665722066726f6d20746865207a65726f20616460008201527f6472657373000000000000000000000000000000000000000000000000000000602082015250565b600061239e602583611712565b91506123a982612342565b604082019050919050565b600060208201905081810360008301526123cd81612391565b9050919050565b7f45524332303a207472616e7366657220746f20746865207a65726f206164647260008201527f6573730000000000000000000000000000000000000000000000000000000000602082015250565b6000612430602383611712565b915061243b826123d4565b604082019050919050565b6000602082019050818103600083015261245f81612423565b9050919050565b7f45524332303a207472616e7366657220616d6f756e742065786365656473206260008201527f616c616e63650000000000000000000000000000000000000000000000000000602082015250565b60006124c2602683611712565b91506124cd82612466565b604082019050919050565b600060208201905081810360008301526124f1816124b5565b9050919050565b7f4f776e61626c653a2063616c6c6572206973206e6f7420746865206f776e6572600082015250565b600061252e602083611712565b9150612539826124f8565b602082019050919050565b6000602082019050818103600083015261255d81612521565b9050919050565b7f45524332303a206d696e7420746f20746865207a65726f206164647265737300600082015250565b600061259a601f83611712565b91506125a582612564565b602082019050919050565b600060208201905081810360008301526125c98161258d565b905091905056fea26469706673582212204d82bc7c4d854aaeb22def80e10c0ad9358f83d5a8994519409319bd1fb5c28d64736f6c63430008110033",
  "linkReferences": {},
  "deployedLinkReferences": {}
}