{
  "_format": "hh-sol-artifact-1",
  "contractName": "Anna",
  "sourceName": "contracts/Anna.sol",
  "abi": [
    {
      "inputs": [
        {
          "internalType": "address",
          "name": "_LOVE",
          "type": "address"
        }
      ],
      "stateMutability": "nonpayable",
      "type": "constructor"
    },
    {
      "anonymous": false,
      "inputs": [
        {
          "indexed": true,
          "internalType": "address",
          "name": "owner",
          "type": "address"
        },
        {
          "indexed": true,
          "internalType": "address",
          "name": "spender",
          "type": "address"
        },
        {
          "indexed": false,
          "internalType": "uint256",
          "name": "value",
          "type": "uint256"
        }
      ],
      "name": "Approval",
      "type": "event"
    },
    {
      "anonymous": false,
      "inputs": [
        {
          "indexed": true,
          "internalType": "address",
          "name": "to",
          "type": "address"
        },
        {
          "indexed": false,
          "internalType": "uint256",
          "name": "amount",
          "type": "uint256"
        },
        {
          "indexed": false,
          "internalType": "uint256",
          "name": "time",
          "type": "uint256"
        }
      ],
      "name": "Minted",
      "type": "event"
    },
    {
      "anonymous": false,
      "inputs": [
        {
          "indexed": true,
          "internalType": "address",
          "name": "to",
          "type": "address"
        },
        {
          "indexed": false,
          "internalType": "uint256",
          "name": "time",
          "type": "uint256"
        }
      ],
      "name": "OwnerChanged",
      "type": "event"
    },
    {
      "anonymous": false,
      "inputs": [
        {
          "indexed": true,
          "internalType": "address",
          "name": "previousOwner",
          "type": "address"
        },
        {
          "indexed": true,
          "internalType": "address",
          "name": "newOwner",
          "type": "address"
        }
      ],
      "name": "OwnershipTransferred",
      "type": "event"
    },
    {
      "anonymous": false,
      "inputs": [
        {
          "indexed": true,
          "internalType": "address",
          "name": "from",
          "type": "address"
        },
        {
          "indexed": true,
          "internalType": "address",
          "name": "to",
          "type": "address"
        },
        {
          "indexed": false,
          "internalType": "uint256",
          "name": "value",
          "type": "uint256"
        }
      ],
      "name": "Transfer",
      "type": "event"
    },
    {
      "anonymous": false,
      "inputs": [
        {
          "indexed": true,
          "internalType": "address",
          "name": "to",
          "type": "address"
        },
        {
          "indexed": false,
          "internalType": "uint256",
          "name": "amount",
          "type": "uint256"
        },
        {
          "indexed": false,
          "internalType": "uint256",
          "name": "time",
          "type": "uint256"
        }
      ],
      "name": "WithdrawalDone",
      "type": "event"
    },
    {
      "stateMutability": "payable",
      "type": "fallback"
    },
    {
      "inputs": [],
      "name": "LOVE",
      "outputs": [
        {
          "internalType": "contract ERC20",
          "name": "",
          "type": "address"
        }
      ],
      "stateMutability": "view",
      "type": "function"
    },
    {
      "inputs": [
        {
          "internalType": "address",
          "name": "owner",
          "type": "address"
        },
        {
          "internalType": "address",
          "name": "spender",
          "type": "address"
        }
      ],
      "name": "allowance",
      "outputs": [
        {
          "internalType": "uint256",
          "name": "",
          "type": "uint256"
        }
      ],
      "stateMutability": "view",
      "type": "function"
    },
    {
      "inputs": [
        {
          "internalType": "address",
          "name": "spender",
          "type": "address"
        },
        {
          "internalType": "uint256",
          "name": "amount",
          "type": "uint256"
        }
      ],
      "name": "approve",
      "outputs": [
        {
          "internalType": "bool",
          "name": "",
          "type": "bool"
        }
      ],
      "stateMutability": "nonpayable",
      "type": "function"
    },
    {
      "inputs": [
        {
          "internalType": "address",
          "name": "account",
          "type": "address"
        }
      ],
      "name": "balanceOf",
      "outputs": [
        {
          "internalType": "uint256",
          "name": "",
          "type": "uint256"
        }
      ],
      "stateMutability": "view",
      "type": "function"
    },
    {
      "inputs": [
        {
          "internalType": "uint256",
          "name": "_amount",
          "type": "uint256"
        }
      ],
      "name": "buyAnna",
      "outputs": [],
      "stateMutability": "payable",
      "type": "function"
    },
    {
      "inputs": [],
      "name": "claimOwner",
      "outputs": [],
      "stateMutability": "nonpayable",
      "type": "function"
    },
    {
      "inputs": [],
      "name": "decimals",
      "outputs": [
        {
          "internalType": "uint8",
          "name": "",
          "type": "uint8"
        }
      ],
      "stateMutability": "view",
      "type": "function"
    },
    {
      "inputs": [
        {
          "internalType": "address",
          "name": "spender",
          "type": "address"
        },
        {
          "internalType": "uint256",
          "name": "subtractedValue",
          "type": "uint256"
        }
      ],
      "name": "decreaseAllowance",
      "outputs": [
        {
          "internalType": "bool",
          "name": "",
          "type": "bool"
        }
      ],
      "stateMutability": "nonpayable",
      "type": "function"
    },
    {
      "inputs": [],
      "name": "destruct",
      "outputs": [],
      "stateMutability": "nonpayable",
      "type": "function"
    },
    {
      "inputs": [
        {
          "internalType": "address",
          "name": "spender",
          "type": "address"
        },
        {
          "internalType": "uint256",
          "name": "addedValue",
          "type": "uint256"
        }
      ],
      "name": "increaseAllowance",
      "outputs": [
        {
          "internalType": "bool",
          "name": "",
          "type": "bool"
        }
      ],
      "stateMutability": "nonpayable",
      "type": "function"
    },
    {
      "inputs": [],
      "name": "isLocked",
      "outputs": [
        {
          "internalType": "bool",
          "name": "",
          "type": "bool"
        }
      ],
      "stateMutability": "view",
      "type": "function"
    },
    {
      "inputs": [
        {
          "internalType": "address",
          "name": "to",
          "type": "address"
        },
        {
          "internalType": "uint256",
          "name": "amount",
          "type": "uint256"
        }
      ],
      "name": "mint",
      "outputs": [],
      "stateMutability": "nonpayable",
      "type": "function"
    },
    {
      "inputs": [],
      "name": "name",
      "outputs": [
        {
          "internalType": "string",
          "name": "",
          "type": "string"
        }
      ],
      "stateMutability": "view",
      "type": "function"
    },
    {
      "inputs": [],
      "name": "owner",
      "outputs": [
        {
          "internalType": "address",
          "name": "",
          "type": "address"
        }
      ],
      "stateMutability": "view",
      "type": "function"
    },
    {
      "inputs": [],
      "name": "price",
      "outputs": [
        {
          "internalType": "uint256",
          "name": "",
          "type": "uint256"
        }
      ],
      "stateMutability": "view",
      "type": "function"
    },
    {
      "inputs": [],
      "name": "renounceOwnership",
      "outputs": [],
      "stateMutability": "nonpayable",
      "type": "function"
    },
    {
      "inputs": [
        {
          "internalType": "uint256",
          "name": "_price",
          "type": "uint256"
        }
      ],
      "name": "setPrice",
      "outputs": [],
      "stateMutability": "nonpayable",
      "type": "function"
    },
    {
      "inputs": [],
      "name": "symbol",
      "outputs": [
        {
          "internalType": "string",
          "name": "",
          "type": "string"
        }
      ],
      "stateMutability": "view",
      "type": "function"
    },
    {
      "inputs": [],
      "name": "totalSupply",
      "outputs": [
        {
          "internalType": "uint256",
          "name": "",
          "type": "uint256"
        }
      ],
      "stateMutability": "view",
      "type": "function"
    },
    {
      "inputs": [
        {
          "internalType": "address",
          "name": "to",
          "type": "address"
        },
        {
          "internalType": "uint256",
          "name": "amount",
          "type": "uint256"
        }
      ],
      "name": "transfer",
      "outputs": [
        {
          "internalType": "bool",
          "name": "",
          "type": "bool"
        }
      ],
      "stateMutability": "nonpayable",
      "type": "function"
    },
    {
      "inputs": [
        {
          "internalType": "address",
          "name": "from",
          "type": "address"
        },
        {
          "internalType": "address",
          "name": "to",
          "type": "address"
        },
        {
          "internalType": "uint256",
          "name": "amount",
          "type": "uint256"
        }
      ],
      "name": "transferFrom",
      "outputs": [
        {
          "internalType": "bool",
          "name": "",
          "type": "bool"
        }
      ],
      "stateMutability": "nonpayable",
      "type": "function"
    },
    {
      "inputs": [
        {
          "internalType": "address",
          "name": "newOwner",
          "type": "address"
        }
      ],
      "name": "transferOwnership",
      "outputs": [],
      "stateMutability": "nonpayable",
      "type": "function"
    },
    {
      "inputs": [],
      "name": "unlock",
      "outputs": [],
      "stateMutability": "nonpayable",
      "type": "function"
    },
    {
      "inputs": [],
      "name": "withdraw",
      "outputs": [],
      "stateMutability": "nonpayable",
      "type": "function"
    },
    {
      "stateMutability": "payable",
      "type": "receive"
    }
  ],
  "bytecode": "0x608060405260646006556000600760006101000a81548160ff0219169083151502179055503480156200003157600080fd5b50604051620031af380380620031af833981810160405281019062000057919062000481565b6040518060400160405280600481526020017f416e6e61000000000000000000000000000000000000000000000000000000008152506040518060400160405280600481526020017f414e4e41000000000000000000000000000000000000000000000000000000008152508160039081620000d491906200072d565b508060049081620000e691906200072d565b50505062000109620000fd6200019f60201b60201c565b620001a760201b60201c565b620001576200011d6200026d60201b60201c565b6200012d6200029760201b60201c565b600a6200013b9190620009a4565b620f42406200014b9190620009f5565b620002a060201b60201c565b80600760016101000a81548173ffffffffffffffffffffffffffffffffffffffff021916908373ffffffffffffffffffffffffffffffffffffffff1602179055505062000b2c565b600033905090565b6000600560009054906101000a900473ffffffffffffffffffffffffffffffffffffffff16905081600560006101000a81548173ffffffffffffffffffffffffffffffffffffffff021916908373ffffffffffffffffffffffffffffffffffffffff1602179055508173ffffffffffffffffffffffffffffffffffffffff168173ffffffffffffffffffffffffffffffffffffffff167f8be0079c531659141344cd1fd0a4f28419497f9722a3daafe3b4186f6b6457e060405160405180910390a35050565b6000600560009054906101000a900473ffffffffffffffffffffffffffffffffffffffff16905090565b60006012905090565b600073ffffffffffffffffffffffffffffffffffffffff168273ffffffffffffffffffffffffffffffffffffffff160362000312576040517f08c379a0000000000000000000000000000000000000000000000000000000008152600401620003099062000aa1565b60405180910390fd5b62000326600083836200040d60201b60201c565b80600260008282546200033a919062000ac3565b92505081905550806000808473ffffffffffffffffffffffffffffffffffffffff1673ffffffffffffffffffffffffffffffffffffffff168152602001908152602001600020600082825401925050819055508173ffffffffffffffffffffffffffffffffffffffff16600073ffffffffffffffffffffffffffffffffffffffff167fddf252ad1be2c89b69c2b068fc378daa952ba7f163c4a11628f55a4df523b3ef83604051620003ed919062000b0f565b60405180910390a362000409600083836200041260201b60201c565b5050565b505050565b505050565b600080fd5b600073ffffffffffffffffffffffffffffffffffffffff82169050919050565b600062000449826200041c565b9050919050565b6200045b816200043c565b81146200046757600080fd5b50565b6000815190506200047b8162000450565b92915050565b6000602082840312156200049a576200049962000417565b5b6000620004aa848285016200046a565b91505092915050565b600081519050919050565b7f4e487b7100000000000000000000000000000000000000000000000000000000600052604160045260246000fd5b7f4e487b7100000000000000000000000000000000000000000000000000000000600052602260045260246000fd5b600060028204905060018216806200053557607f821691505b6020821081036200054b576200054a620004ed565b5b50919050565b60008190508160005260206000209050919050565b60006020601f8301049050919050565b600082821b905092915050565b600060088302620005b57fffffffffffffffffffffffffffffffffffffffffffffffffffffffffffffffff8262000576565b620005c1868362000576565b95508019841693508086168417925050509392505050565b6000819050919050565b6000819050919050565b60006200060e620006086200060284620005d9565b620005e3565b620005d9565b9050919050565b6000819050919050565b6200062a83620005ed565b62000642620006398262000615565b84845462000583565b825550505050565b600090565b620006596200064a565b620006668184846200061f565b505050565b5b818110156200068e57620006826000826200064f565b6001810190506200066c565b5050565b601f821115620006dd57620006a78162000551565b620006b28462000566565b81016020851015620006c2578190505b620006da620006d18562000566565b8301826200066b565b50505b505050565b600082821c905092915050565b60006200070260001984600802620006e2565b1980831691505092915050565b60006200071d8383620006ef565b9150826002028217905092915050565b6200073882620004b3565b67ffffffffffffffff811115620007545762000753620004be565b5b6200076082546200051c565b6200076d82828562000692565b600060209050601f831160018114620007a5576000841562000790578287015190505b6200079c85826200070f565b8655506200080c565b601f198416620007b58662000551565b60005b82811015620007df57848901518255600182019150602085019450602081019050620007b8565b86831015620007ff5784890151620007fb601f891682620006ef565b8355505b6001600288020188555050505b505050505050565b7f4e487b7100000000000000000000000000000000000000000000000000000000600052601160045260246000fd5b60008160011c9050919050565b6000808291508390505b6001851115620008a2578086048111156200087a576200087962000814565b5b60018516156200088a5780820291505b80810290506200089a8562000843565b94506200085a565b94509492505050565b600082620008bd576001905062000990565b81620008cd576000905062000990565b8160018114620008e65760028114620008f15762000927565b600191505062000990565b60ff84111562000906576200090562000814565b5b8360020a91508482111562000920576200091f62000814565b5b5062000990565b5060208310610133831016604e8410600b8410161715620009615782820a9050838111156200095b576200095a62000814565b5b62000990565b62000970848484600162000850565b925090508184048111156200098a576200098962000814565b5b81810290505b9392505050565b600060ff82169050919050565b6000620009b182620005d9565b9150620009be8362000997565b9250620009ed7fffffffffffffffffffffffffffffffffffffffffffffffffffffffffffffffff8484620008ab565b905092915050565b600062000a0282620005d9565b915062000a0f83620005d9565b925082820262000a1f81620005d9565b9150828204841483151762000a395762000a3862000814565b5b5092915050565b600082825260208201905092915050565b7f45524332303a206d696e7420746f20746865207a65726f206164647265737300600082015250565b600062000a89601f8362000a40565b915062000a968262000a51565b602082019050919050565b6000602082019050818103600083015262000abc8162000a7a565b9050919050565b600062000ad082620005d9565b915062000add83620005d9565b925082820190508082111562000af85762000af762000814565b5b92915050565b62000b0981620005d9565b82525050565b600060208201905062000b26600083018462000afe565b92915050565b6126738062000b3c6000396000f3fe60806040526004361061014f5760003560e01c806370a08231116100b6578063a457c2d71161006f578063a457c2d714610443578063a4e2d63414610480578063a69df4b5146104ab578063a9059cbb146104c2578063dd62ed3e146104ff578063f2fde38b1461053c57610156565b806370a0823114610345578063715018a6146103825780638da5cb5b1461039957806391b7f5ed146103c457806395d89b41146103ed578063a035b1fe1461041857610156565b8063313ce56711610108578063313ce5671461026a57806339509351146102955780633bd1adec146102d25780633ccfd60b146102e957806340c10f1914610300578063575a784a1461032957610156565b806306fdde0314610158578063095ea7b31461018357806318160ddd146101c057806320b69898146101eb57806323b872dd146102165780632b68b9c61461025357610156565b3661015657005b005b34801561016457600080fd5b5061016d610565565b60405161017a91906117a4565b60405180910390f35b34801561018f57600080fd5b506101aa60048036038101906101a5919061185f565b6105f7565b6040516101b791906118ba565b60405180910390f35b3480156101cc57600080fd5b506101d561061a565b6040516101e291906118e4565b60405180910390f35b3480156101f757600080fd5b50610200610624565b60405161020d919061195e565b60405180910390f35b34801561022257600080fd5b5061023d60048036038101906102389190611979565b61064a565b60405161024a91906118ba565b60405180910390f35b34801561025f57600080fd5b50610268610679565b005b34801561027657600080fd5b5061027f6106a1565b60405161028c91906119e8565b60405180910390f35b3480156102a157600080fd5b506102bc60048036038101906102b7919061185f565b6106aa565b6040516102c991906118ba565b60405180910390f35b3480156102de57600080fd5b506102e76106e1565b005b3480156102f557600080fd5b506102fe610893565b005b34801561030c57600080fd5b506103276004803603810190610322919061185f565b6109e3565b005b610343600480360381019061033e9190611a03565b610a49565b005b34801561035157600080fd5b5061036c60048036038101906103679190611a30565b610ba2565b60405161037991906118e4565b60405180910390f35b34801561038e57600080fd5b50610397610bea565b005b3480156103a557600080fd5b506103ae610bfe565b6040516103bb9190611a6c565b60405180910390f35b3480156103d057600080fd5b506103eb60048036038101906103e69190611a03565b610c28565b005b3480156103f957600080fd5b50610402610c3a565b60405161040f91906117a4565b60405180910390f35b34801561042457600080fd5b5061042d610ccc565b60405161043a91906118e4565b60405180910390f35b34801561044f57600080fd5b5061046a6004803603810190610465919061185f565b610cd2565b60405161047791906118ba565b60405180910390f35b34801561048c57600080fd5b50610495610d49565b6040516104a291906118ba565b60405180910390f35b3480156104b757600080fd5b506104c0610d5c565b005b3480156104ce57600080fd5b506104e960048036038101906104e4919061185f565b610e70565b6040516104f691906118ba565b60405180910390f35b34801561050b57600080fd5b5061052660048036038101906105219190611a87565b610e93565b60405161053391906118e4565b60405180910390f35b34801561054857600080fd5b50610563600480360381019061055e9190611a30565b610f1a565b005b60606003805461057490611af6565b80601f01602080910402602001604051908101604052809291908181526020018280546105a090611af6565b80156105ed5780601f106105c2576101008083540402835291602001916105ed565b820191906000526020600020905b8154815290600101906020018083116105d057829003601f168201915b5050505050905090565b600080610602610f9d565b905061060f818585610fa5565b600191505092915050565b6000600254905090565b600760019054906101000a900473ffffffffffffffffffffffffffffffffffffffff1681565b600080610655610f9d565b905061066285828561116e565b61066d8585856111fa565b60019150509392505050565b610681611470565b610689610bfe565b73ffffffffffffffffffffffffffffffffffffffff16ff5b60006012905090565b6000806106b5610f9d565b90506106d68185856106c78589610e93565b6106d19190611b56565b610fa5565b600191505092915050565b69021e19e0c9bab2400000600760019054906101000a900473ffffffffffffffffffffffffffffffffffffffff1673ffffffffffffffffffffffffffffffffffffffff166370a08231336040518263ffffffff1660e01b81526004016107479190611a6c565b602060405180830381865afa158015610764573d6000803e3d6000fd5b505050506040513d601f19601f820116820180604052508101906107889190611b9f565b10156107c9576040517f08c379a00000000000000000000000000000000000000000000000000000000081526004016107c090611c3e565b60405180910390fd5b60001515600760009054906101000a900460ff1615151461081f576040517f08c379a000000000000000000000000000000000000000000000000000000000815260040161081690611cd0565b60405180910390fd5b610828336114ee565b6001600760006101000a81548160ff0219169083151502179055503373ffffffffffffffffffffffffffffffffffffffff167f0f17057c058227955304580e8ad3305c4fff882badabd5340cdc5eb55933f3014260405161088991906118e4565b60405180910390a2565b61089b611470565b6000479050600081116108e3576040517f08c379a00000000000000000000000000000000000000000000000000000000081526004016108da90611d62565b60405180910390fd5b60003373ffffffffffffffffffffffffffffffffffffffff168260405161090990611db3565b60006040518083038185875af1925050503d8060008114610946576040519150601f19603f3d011682016040523d82523d6000602084013e61094b565b606091505b505090508061098f576040517f08c379a000000000000000000000000000000000000000000000000000000000815260040161098690611e14565b60405180910390fd5b3373ffffffffffffffffffffffffffffffffffffffff167f05de6288c7d47933a7195ba55a4ebbbdeb6c7ddbc12c83e70d2842254db165c283426040516109d7929190611e34565b60405180910390a25050565b6109eb611470565b6109f582826115b4565b8173ffffffffffffffffffffffffffffffffffffffff167f25b428dfde728ccfaddad7e29e4ac23c24ed7fd1a6e3e3f91894a9a073f5dfff8242604051610a3d929190611e34565b60405180910390a25050565b60008111610a8c576040517f08c379a0000000000000000000000000000000000000000000000000000000008152600401610a8390611ecf565b60405180910390fd5b60006103e882600654610a9f9190611eef565b610aa99190611f60565b905080341015610aee576040517f08c379a0000000000000000000000000000000000000000000000000000000008152600401610ae590611fdd565b60405180910390fd5b34471015610b31576040517f08c379a0000000000000000000000000000000000000000000000000000000008152600401610b2890612049565b60405180910390fd5b610b4e33670de0b6b3a764000084610b499190611eef565b6115b4565b3373ffffffffffffffffffffffffffffffffffffffff167f25b428dfde728ccfaddad7e29e4ac23c24ed7fd1a6e3e3f91894a9a073f5dfff8342604051610b96929190611e34565b60405180910390a25050565b60008060008373ffffffffffffffffffffffffffffffffffffffff1673ffffffffffffffffffffffffffffffffffffffff168152602001908152602001600020549050919050565b610bf2611470565b610bfc60006114ee565b565b6000600560009054906101000a900473ffffffffffffffffffffffffffffffffffffffff16905090565b610c30611470565b8060068190555050565b606060048054610c4990611af6565b80601f0160208091040260200160405190810160405280929190818152602001828054610c7590611af6565b8015610cc25780601f10610c9757610100808354040283529160200191610cc2565b820191906000526020600020905b815481529060010190602001808311610ca557829003601f168201915b5050505050905090565b60065481565b600080610cdd610f9d565b90506000610ceb8286610e93565b905083811015610d30576040517f08c379a0000000000000000000000000000000000000000000000000000000008152600401610d27906120db565b60405180910390fd5b610d3d8286868403610fa5565b60019250505092915050565b600760009054906101000a900460ff1681565b69032d26d12e980b600000600760019054906101000a900473ffffffffffffffffffffffffffffffffffffffff1673ffffffffffffffffffffffffffffffffffffffff166370a08231336040518263ffffffff1660e01b8152600401610dc29190611a6c565b602060405180830381865afa158015610ddf573d6000803e3d6000fd5b505050506040513d601f19601f82011682018060405250810190610e039190611b9f565b1015610e44576040517f08c379a0000000000000000000000000000000000000000000000000000000008152600401610e3b9061216d565b60405180910390fd5b600760009054906101000a900460ff1615600760006101000a81548160ff021916908315150217905550565b600080610e7b610f9d565b9050610e888185856111fa565b600191505092915050565b6000600160008473ffffffffffffffffffffffffffffffffffffffff1673ffffffffffffffffffffffffffffffffffffffff16815260200190815260200160002060008373ffffffffffffffffffffffffffffffffffffffff1673ffffffffffffffffffffffffffffffffffffffff16815260200190815260200160002054905092915050565b610f22611470565b600073ffffffffffffffffffffffffffffffffffffffff168173ffffffffffffffffffffffffffffffffffffffff1603610f91576040517f08c379a0000000000000000000000000000000000000000000000000000000008152600401610f88906121ff565b60405180910390fd5b610f9a816114ee565b50565b600033905090565b600073ffffffffffffffffffffffffffffffffffffffff168373ffffffffffffffffffffffffffffffffffffffff1603611014576040517f08c379a000000000000000000000000000000000000000000000000000000000815260040161100b90612291565b60405180910390fd5b600073ffffffffffffffffffffffffffffffffffffffff168273ffffffffffffffffffffffffffffffffffffffff1603611083576040517f08c379a000000000000000000000000000000000000000000000000000000000815260040161107a90612323565b60405180910390fd5b80600160008573ffffffffffffffffffffffffffffffffffffffff1673ffffffffffffffffffffffffffffffffffffffff16815260200190815260200160002060008473ffffffffffffffffffffffffffffffffffffffff1673ffffffffffffffffffffffffffffffffffffffff168152602001908152602001600020819055508173ffffffffffffffffffffffffffffffffffffffff168373ffffffffffffffffffffffffffffffffffffffff167f8c5be1e5ebec7d5bd14f71427d1e84f3dd0314c0f7b2291e5b200ac8c7c3b9258360405161116191906118e4565b60405180910390a3505050565b600061117a8484610e93565b90507fffffffffffffffffffffffffffffffffffffffffffffffffffffffffffffffff81146111f457818110156111e6576040517f08c379a00000000000000000000000000000000000000000000000000000000081526004016111dd9061238f565b60405180910390fd5b6111f38484848403610fa5565b5b50505050565b600073ffffffffffffffffffffffffffffffffffffffff168373ffffffffffffffffffffffffffffffffffffffff1603611269576040517f08c379a000000000000000000000000000000000000000000000000000000000815260040161126090612421565b60405180910390fd5b600073ffffffffffffffffffffffffffffffffffffffff168273ffffffffffffffffffffffffffffffffffffffff16036112d8576040517f08c379a00000000000000000000000000000000000000000000000000000000081526004016112cf906124b3565b60405180910390fd5b6112e383838361170a565b60008060008573ffffffffffffffffffffffffffffffffffffffff1673ffffffffffffffffffffffffffffffffffffffff16815260200190815260200160002054905081811015611369576040517f08c379a000000000000000000000000000000000000000000000000000000000815260040161136090612545565b60405180910390fd5b8181036000808673ffffffffffffffffffffffffffffffffffffffff1673ffffffffffffffffffffffffffffffffffffffff16815260200190815260200160002081905550816000808573ffffffffffffffffffffffffffffffffffffffff1673ffffffffffffffffffffffffffffffffffffffff168152602001908152602001600020600082825401925050819055508273ffffffffffffffffffffffffffffffffffffffff168473ffffffffffffffffffffffffffffffffffffffff167fddf252ad1be2c89b69c2b068fc378daa952ba7f163c4a11628f55a4df523b3ef8460405161145791906118e4565b60405180910390a361146a84848461170f565b50505050565b611478610f9d565b73ffffffffffffffffffffffffffffffffffffffff16611496610bfe565b73ffffffffffffffffffffffffffffffffffffffff16146114ec576040517f08c379a00000000000000000000000000000000000000000000000000000000081526004016114e3906125b1565b60405180910390fd5b565b6000600560009054906101000a900473ffffffffffffffffffffffffffffffffffffffff16905081600560006101000a81548173ffffffffffffffffffffffffffffffffffffffff021916908373ffffffffffffffffffffffffffffffffffffffff1602179055508173ffffffffffffffffffffffffffffffffffffffff168173ffffffffffffffffffffffffffffffffffffffff167f8be0079c531659141344cd1fd0a4f28419497f9722a3daafe3b4186f6b6457e060405160405180910390a35050565b600073ffffffffffffffffffffffffffffffffffffffff168273ffffffffffffffffffffffffffffffffffffffff1603611623576040517f08c379a000000000000000000000000000000000000000000000000000000000815260040161161a9061261d565b60405180910390fd5b61162f6000838361170a565b80600260008282546116419190611b56565b92505081905550806000808473ffffffffffffffffffffffffffffffffffffffff1673ffffffffffffffffffffffffffffffffffffffff168152602001908152602001600020600082825401925050819055508173ffffffffffffffffffffffffffffffffffffffff16600073ffffffffffffffffffffffffffffffffffffffff167fddf252ad1be2c89b69c2b068fc378daa952ba7f163c4a11628f55a4df523b3ef836040516116f291906118e4565b60405180910390a36117066000838361170f565b5050565b505050565b505050565b600081519050919050565b600082825260208201905092915050565b60005b8381101561174e578082015181840152602081019050611733565b60008484015250505050565b6000601f19601f8301169050919050565b600061177682611714565b611780818561171f565b9350611790818560208601611730565b6117998161175a565b840191505092915050565b600060208201905081810360008301526117be818461176b565b905092915050565b600080fd5b600073ffffffffffffffffffffffffffffffffffffffff82169050919050565b60006117f6826117cb565b9050919050565b611806816117eb565b811461181157600080fd5b50565b600081359050611823816117fd565b92915050565b6000819050919050565b61183c81611829565b811461184757600080fd5b50565b60008135905061185981611833565b92915050565b60008060408385031215611876576118756117c6565b5b600061188485828601611814565b92505060206118958582860161184a565b9150509250929050565b60008115159050919050565b6118b48161189f565b82525050565b60006020820190506118cf60008301846118ab565b92915050565b6118de81611829565b82525050565b60006020820190506118f960008301846118d5565b92915050565b6000819050919050565b600061192461191f61191a846117cb565b6118ff565b6117cb565b9050919050565b600061193682611909565b9050919050565b60006119488261192b565b9050919050565b6119588161193d565b82525050565b6000602082019050611973600083018461194f565b92915050565b600080600060608486031215611992576119916117c6565b5b60006119a086828701611814565b93505060206119b186828701611814565b92505060406119c28682870161184a565b9150509250925092565b600060ff82169050919050565b6119e2816119cc565b82525050565b60006020820190506119fd60008301846119d9565b92915050565b600060208284031215611a1957611a186117c6565b5b6000611a278482850161184a565b91505092915050565b600060208284031215611a4657611a456117c6565b5b6000611a5484828501611814565b91505092915050565b611a66816117eb565b82525050565b6000602082019050611a816000830184611a5d565b92915050565b60008060408385031215611a9e57611a9d6117c6565b5b6000611aac85828601611814565b9250506020611abd85828601611814565b9150509250929050565b7f4e487b7100000000000000000000000000000000000000000000000000000000600052602260045260246000fd5b60006002820490506001821680611b0e57607f821691505b602082108103611b2157611b20611ac7565b5b50919050565b7f4e487b7100000000000000000000000000000000000000000000000000000000600052601160045260246000fd5b6000611b6182611829565b9150611b6c83611829565b9250828201905080821115611b8457611b83611b27565b5b92915050565b600081519050611b9981611833565b92915050565b600060208284031215611bb557611bb46117c6565b5b6000611bc384828501611b8a565b91505092915050565b7f596f75206e656564206174206c656173742031306b204c4f564520746f20646f60008201527f2074686973000000000000000000000000000000000000000000000000000000602082015250565b6000611c2860258361171f565b9150611c3382611bcc565b604082019050919050565b60006020820190508181036000830152611c5781611c1b565b9050919050565b7f54686520636f6e7472616374206973206c6f636b65642c20706c65617365207560008201527f6e6c6f636b000000000000000000000000000000000000000000000000000000602082015250565b6000611cba60258361171f565b9150611cc582611c5e565b604082019050919050565b60006020820190508181036000830152611ce981611cad565b9050919050565b7f4e6f7468696e6720746f2077697468647261773a2074686520636f6e7472616360008201527f742062616c616e636520656d7074790000000000000000000000000000000000602082015250565b6000611d4c602f8361171f565b9150611d5782611cf0565b604082019050919050565b60006020820190508181036000830152611d7b81611d3f565b9050919050565b600081905092915050565b50565b6000611d9d600083611d82565b9150611da882611d8d565b600082019050919050565b6000611dbe82611d90565b9150819050919050565b7f4661696c656420746f2077697468647261772066756e64730000000000000000600082015250565b6000611dfe60188361171f565b9150611e0982611dc8565b602082019050919050565b60006020820190508181036000830152611e2d81611df1565b9050919050565b6000604082019050611e4960008301856118d5565b611e5660208301846118d5565b9392505050565b7f506c6561736520696e73657274206120706f73697469766520616d6f756e742060008201527f6f6620746f6b656e20746f206265207075726368617365640000000000000000602082015250565b6000611eb960388361171f565b9150611ec482611e5d565b604082019050919050565b60006020820190508181036000830152611ee881611eac565b9050919050565b6000611efa82611829565b9150611f0583611829565b9250828202611f1381611829565b91508282048414831517611f2a57611f29611b27565b5b5092915050565b7f4e487b7100000000000000000000000000000000000000000000000000000000600052601260045260246000fd5b6000611f6b82611829565b9150611f7683611829565b925082611f8657611f85611f31565b5b828204905092915050565b7f506c65617365206d616b6520612073756666696369656e74207061796d656e74600082015250565b6000611fc760208361171f565b9150611fd282611f91565b602082019050919050565b60006020820190508181036000830152611ff681611fba565b9050919050565b7f4d6f6e6579206e6f742079657420726563696576656400000000000000000000600082015250565b600061203360168361171f565b915061203e82611ffd565b602082019050919050565b6000602082019050818103600083015261206281612026565b9050919050565b7f45524332303a2064656372656173656420616c6c6f77616e63652062656c6f7760008201527f207a65726f000000000000000000000000000000000000000000000000000000602082015250565b60006120c560258361171f565b91506120d082612069565b604082019050919050565b600060208201905081810360008301526120f4816120b8565b9050919050565b7f596f75206e656564206174206c656173742031356b204c4f564520746f20646f60008201527f2074686973000000000000000000000000000000000000000000000000000000602082015250565b600061215760258361171f565b9150612162826120fb565b604082019050919050565b600060208201905081810360008301526121868161214a565b9050919050565b7f4f776e61626c653a206e6577206f776e657220697320746865207a65726f206160008201527f6464726573730000000000000000000000000000000000000000000000000000602082015250565b60006121e960268361171f565b91506121f48261218d565b604082019050919050565b60006020820190508181036000830152612218816121dc565b9050919050565b7f45524332303a20617070726f76652066726f6d20746865207a65726f2061646460008201527f7265737300000000000000000000000000000000000000000000000000000000602082015250565b600061227b60248361171f565b91506122868261221f565b604082019050919050565b600060208201905081810360008301526122aa8161226e565b9050919050565b7f45524332303a20617070726f766520746f20746865207a65726f20616464726560008201527f7373000000000000000000000000000000000000000000000000000000000000602082015250565b600061230d60228361171f565b9150612318826122b1565b604082019050919050565b6000602082019050818103600083015261233c81612300565b9050919050565b7f45524332303a20696e73756666696369656e7420616c6c6f77616e6365000000600082015250565b6000612379601d8361171f565b915061238482612343565b602082019050919050565b600060208201905081810360008301526123a88161236c565b9050919050565b7f45524332303a207472616e736665722066726f6d20746865207a65726f20616460008201527f6472657373000000000000000000000000000000000000000000000000000000602082015250565b600061240b60258361171f565b9150612416826123af565b604082019050919050565b6000602082019050818103600083015261243a816123fe565b9050919050565b7f45524332303a207472616e7366657220746f20746865207a65726f206164647260008201527f6573730000000000000000000000000000000000000000000000000000000000602082015250565b600061249d60238361171f565b91506124a882612441565b604082019050919050565b600060208201905081810360008301526124cc81612490565b9050919050565b7f45524332303a207472616e7366657220616d6f756e742065786365656473206260008201527f616c616e63650000000000000000000000000000000000000000000000000000602082015250565b600061252f60268361171f565b915061253a826124d3565b604082019050919050565b6000602082019050818103600083015261255e81612522565b9050919050565b7f4f776e61626c653a2063616c6c6572206973206e6f7420746865206f776e6572600082015250565b600061259b60208361171f565b91506125a682612565565b602082019050919050565b600060208201905081810360008301526125ca8161258e565b9050919050565b7f45524332303a206d696e7420746f20746865207a65726f206164647265737300600082015250565b6000612607601f8361171f565b9150612612826125d1565b602082019050919050565b60006020820190508181036000830152612636816125fa565b905091905056fea2646970667358221220e202ad0f919000ca73091ddd4947935afa145cbc051d02e5e0a9054889efa9f564736f6c63430008110033",
  "linkReferences": {},
  "deployedLinkReferences": {}
}