{
    "_format": "hh-sol-artifact-1",
    "contractName": "Anna",
    "sourceName": "contracts/Anna.sol",
    "abi": [
        {
            "inputs": [
                {
                    "internalType": "address",
                    "name": "_GANNA",
                    "type": "address"
                }
            ],
            "stateMutability": "nonpayable",
            "type": "constructor"
        },
        {
            "anonymous": false,
            "inputs": [
                {
                    "indexed": true,
                    "internalType": "address",
                    "name": "owner",
                    "type": "address"
                },
                {
                    "indexed": true,
                    "internalType": "address",
                    "name": "spender",
                    "type": "address"
                },
                {
                    "indexed": false,
                    "internalType": "uint256",
                    "name": "value",
                    "type": "uint256"
                }
            ],
            "name": "Approval",
            "type": "event"
        },
        {
            "anonymous": false,
            "inputs": [
                {
                    "indexed": true,
                    "internalType": "address",
                    "name": "to",
                    "type": "address"
                },
                {
                    "indexed": false,
                    "internalType": "uint256",
                    "name": "amount",
                    "type": "uint256"
                },
                {
                    "indexed": false,
                    "internalType": "uint256",
                    "name": "time",
                    "type": "uint256"
                }
            ],
            "name": "Minted",
            "type": "event"
        },
        {
            "anonymous": false,
            "inputs": [
                {
                    "indexed": true,
                    "internalType": "address",
                    "name": "to",
                    "type": "address"
                },
                {
                    "indexed": false,
                    "internalType": "uint256",
                    "name": "time",
                    "type": "uint256"
                }
            ],
            "name": "OwnerChanged",
            "type": "event"
        },
        {
            "anonymous": false,
            "inputs": [
                {
                    "indexed": true,
                    "internalType": "address",
                    "name": "previousOwner",
                    "type": "address"
                },
                {
                    "indexed": true,
                    "internalType": "address",
                    "name": "newOwner",
                    "type": "address"
                }
            ],
            "name": "OwnershipTransferred",
            "type": "event"
        },
        {
            "anonymous": false,
            "inputs": [
                {
                    "indexed": true,
                    "internalType": "address",
                    "name": "from",
                    "type": "address"
                },
                {
                    "indexed": true,
                    "internalType": "address",
                    "name": "to",
                    "type": "address"
                },
                {
                    "indexed": false,
                    "internalType": "uint256",
                    "name": "value",
                    "type": "uint256"
                }
            ],
            "name": "Transfer",
            "type": "event"
        },
        {
            "anonymous": false,
            "inputs": [
                {
                    "indexed": true,
                    "internalType": "address",
                    "name": "to",
                    "type": "address"
                },
                {
                    "indexed": false,
                    "internalType": "uint256",
                    "name": "amount",
                    "type": "uint256"
                },
                {
                    "indexed": false,
                    "internalType": "uint256",
                    "name": "time",
                    "type": "uint256"
                }
            ],
            "name": "WithdrawalDone",
            "type": "event"
        },
        {
            "stateMutability": "payable",
            "type": "fallback"
        },
        {
            "inputs": [
                {
                    "internalType": "address",
                    "name": "owner",
                    "type": "address"
                },
                {
                    "internalType": "address",
                    "name": "spender",
                    "type": "address"
                }
            ],
            "name": "allowance",
            "outputs": [
                {
                    "internalType": "uint256",
                    "name": "",
                    "type": "uint256"
                }
            ],
            "stateMutability": "view",
            "type": "function"
        },
        {
            "inputs": [
                {
                    "internalType": "address",
                    "name": "spender",
                    "type": "address"
                },
                {
                    "internalType": "uint256",
                    "name": "amount",
                    "type": "uint256"
                }
            ],
            "name": "approve",
            "outputs": [
                {
                    "internalType": "bool",
                    "name": "",
                    "type": "bool"
                }
            ],
            "stateMutability": "nonpayable",
            "type": "function"
        },
        {
            "inputs": [
                {
                    "internalType": "address",
                    "name": "account",
                    "type": "address"
                }
            ],
            "name": "balanceOf",
            "outputs": [
                {
                    "internalType": "uint256",
                    "name": "",
                    "type": "uint256"
                }
            ],
            "stateMutability": "view",
            "type": "function"
        },
        {
            "inputs": [
                {
                    "internalType": "uint256",
                    "name": "_amount",
                    "type": "uint256"
                }
            ],
            "name": "buyAnna",
            "outputs": [],
            "stateMutability": "payable",
            "type": "function"
        },
        {
            "inputs": [],
            "name": "claimOwner",
            "outputs": [],
            "stateMutability": "nonpayable",
            "type": "function"
        },
        {
            "inputs": [],
            "name": "decimals",
            "outputs": [
                {
                    "internalType": "uint8",
                    "name": "",
                    "type": "uint8"
                }
            ],
            "stateMutability": "view",
            "type": "function"
        },
        {
            "inputs": [
                {
                    "internalType": "address",
                    "name": "spender",
                    "type": "address"
                },
                {
                    "internalType": "uint256",
                    "name": "subtractedValue",
                    "type": "uint256"
                }
            ],
            "name": "decreaseAllowance",
            "outputs": [
                {
                    "internalType": "bool",
                    "name": "",
                    "type": "bool"
                }
            ],
            "stateMutability": "nonpayable",
            "type": "function"
        },
        {
            "inputs": [],
            "name": "destruct",
            "outputs": [],
            "stateMutability": "nonpayable",
            "type": "function"
        },
        {
            "inputs": [],
            "name": "getPrice",
            "outputs": [
                {
                    "internalType": "uint256",
                    "name": "",
                    "type": "uint256"
                }
            ],
            "stateMutability": "view",
            "type": "function"
        },
        {
            "inputs": [
                {
                    "internalType": "address",
                    "name": "spender",
                    "type": "address"
                },
                {
                    "internalType": "uint256",
                    "name": "addedValue",
                    "type": "uint256"
                }
            ],
            "name": "increaseAllowance",
            "outputs": [
                {
                    "internalType": "bool",
                    "name": "",
                    "type": "bool"
                }
            ],
            "stateMutability": "nonpayable",
            "type": "function"
        },
        {
            "inputs": [],
            "name": "isLocked",
            "outputs": [
                {
                    "internalType": "bool",
                    "name": "",
                    "type": "bool"
                }
            ],
            "stateMutability": "view",
            "type": "function"
        },
        {
            "inputs": [
                {
                    "internalType": "address",
                    "name": "to",
                    "type": "address"
                },
                {
                    "internalType": "uint256",
                    "name": "amount",
                    "type": "uint256"
                }
            ],
            "name": "mint",
            "outputs": [],
            "stateMutability": "nonpayable",
            "type": "function"
        },
        {
            "inputs": [],
            "name": "name",
            "outputs": [
                {
                    "internalType": "string",
                    "name": "",
                    "type": "string"
                }
            ],
            "stateMutability": "view",
            "type": "function"
        },
        {
            "inputs": [],
            "name": "owner",
            "outputs": [
                {
                    "internalType": "address",
                    "name": "",
                    "type": "address"
                }
            ],
            "stateMutability": "view",
            "type": "function"
        },
        {
            "inputs": [],
            "name": "price",
            "outputs": [
                {
                    "internalType": "uint128",
                    "name": "",
                    "type": "uint128"
                }
            ],
            "stateMutability": "view",
            "type": "function"
        },
        {
            "inputs": [],
            "name": "renounceOwnership",
            "outputs": [],
            "stateMutability": "nonpayable",
            "type": "function"
        },
        {
            "inputs": [],
            "name": "symbol",
            "outputs": [
                {
                    "internalType": "string",
                    "name": "",
                    "type": "string"
                }
            ],
            "stateMutability": "view",
            "type": "function"
        },
        {
            "inputs": [],
            "name": "totalSupply",
            "outputs": [
                {
                    "internalType": "uint256",
                    "name": "",
                    "type": "uint256"
                }
            ],
            "stateMutability": "view",
            "type": "function"
        },
        {
            "inputs": [
                {
                    "internalType": "address",
                    "name": "to",
                    "type": "address"
                },
                {
                    "internalType": "uint256",
                    "name": "amount",
                    "type": "uint256"
                }
            ],
            "name": "transfer",
            "outputs": [
                {
                    "internalType": "bool",
                    "name": "",
                    "type": "bool"
                }
            ],
            "stateMutability": "nonpayable",
            "type": "function"
        },
        {
            "inputs": [
                {
                    "internalType": "address",
                    "name": "from",
                    "type": "address"
                },
                {
                    "internalType": "address",
                    "name": "to",
                    "type": "address"
                },
                {
                    "internalType": "uint256",
                    "name": "amount",
                    "type": "uint256"
                }
            ],
            "name": "transferFrom",
            "outputs": [
                {
                    "internalType": "bool",
                    "name": "",
                    "type": "bool"
                }
            ],
            "stateMutability": "nonpayable",
            "type": "function"
        },
        {
            "inputs": [
                {
                    "internalType": "address",
                    "name": "newOwner",
                    "type": "address"
                }
            ],
            "name": "transferOwnership",
            "outputs": [],
            "stateMutability": "nonpayable",
            "type": "function"
        },
        {
            "inputs": [],
            "name": "unlock",
            "outputs": [],
            "stateMutability": "nonpayable",
            "type": "function"
        },
        {
            "inputs": [],
            "name": "withdraw",
            "outputs": [],
            "stateMutability": "nonpayable",
            "type": "function"
        },
        {
            "stateMutability": "payable",
            "type": "receive"
        }
    ],
    "bytecode": "0x608060405267016345785d8a0000600660006101000a8154816fffffffffffffffffffffffffffffffff02191690836fffffffffffffffffffffffffffffffff1602179055506000600660106101000a81548160ff0219169083151502179055503480156200006d57600080fd5b506040516200314d3803806200314d8339818101604052810190620000939190620004bd565b6040518060400160405280600481526020017f416e6e61000000000000000000000000000000000000000000000000000000008152506040518060400160405280600481526020017f414e4e4100000000000000000000000000000000000000000000000000000000815250816003908162000110919062000769565b50806004908162000122919062000769565b5050506200014562000139620001db60201b60201c565b620001e360201b60201c565b6200019362000159620002a960201b60201c565b62000169620002d360201b60201c565b600a620001779190620009e0565b620f424062000187919062000a31565b620002dc60201b60201c565b80600760006101000a81548173ffffffffffffffffffffffffffffffffffffffff021916908373ffffffffffffffffffffffffffffffffffffffff1602179055505062000b68565b600033905090565b6000600560009054906101000a900473ffffffffffffffffffffffffffffffffffffffff16905081600560006101000a81548173ffffffffffffffffffffffffffffffffffffffff021916908373ffffffffffffffffffffffffffffffffffffffff1602179055508173ffffffffffffffffffffffffffffffffffffffff168173ffffffffffffffffffffffffffffffffffffffff167f8be0079c531659141344cd1fd0a4f28419497f9722a3daafe3b4186f6b6457e060405160405180910390a35050565b6000600560009054906101000a900473ffffffffffffffffffffffffffffffffffffffff16905090565b60006012905090565b600073ffffffffffffffffffffffffffffffffffffffff168273ffffffffffffffffffffffffffffffffffffffff16036200034e576040517f08c379a0000000000000000000000000000000000000000000000000000000008152600401620003459062000add565b60405180910390fd5b62000362600083836200044960201b60201c565b806002600082825462000376919062000aff565b92505081905550806000808473ffffffffffffffffffffffffffffffffffffffff1673ffffffffffffffffffffffffffffffffffffffff168152602001908152602001600020600082825401925050819055508173ffffffffffffffffffffffffffffffffffffffff16600073ffffffffffffffffffffffffffffffffffffffff167fddf252ad1be2c89b69c2b068fc378daa952ba7f163c4a11628f55a4df523b3ef8360405162000429919062000b4b565b60405180910390a362000445600083836200044e60201b60201c565b5050565b505050565b505050565b600080fd5b600073ffffffffffffffffffffffffffffffffffffffff82169050919050565b6000620004858262000458565b9050919050565b620004978162000478565b8114620004a357600080fd5b50565b600081519050620004b7816200048c565b92915050565b600060208284031215620004d657620004d562000453565b5b6000620004e684828501620004a6565b91505092915050565b600081519050919050565b7f4e487b7100000000000000000000000000000000000000000000000000000000600052604160045260246000fd5b7f4e487b7100000000000000000000000000000000000000000000000000000000600052602260045260246000fd5b600060028204905060018216806200057157607f821691505b60208210810362000587576200058662000529565b5b50919050565b60008190508160005260206000209050919050565b60006020601f8301049050919050565b600082821b905092915050565b600060088302620005f17fffffffffffffffffffffffffffffffffffffffffffffffffffffffffffffffff82620005b2565b620005fd8683620005b2565b95508019841693508086168417925050509392505050565b6000819050919050565b6000819050919050565b60006200064a620006446200063e8462000615565b6200061f565b62000615565b9050919050565b6000819050919050565b620006668362000629565b6200067e620006758262000651565b848454620005bf565b825550505050565b600090565b6200069562000686565b620006a28184846200065b565b505050565b5b81811015620006ca57620006be6000826200068b565b600181019050620006a8565b5050565b601f8211156200071957620006e3816200058d565b620006ee84620005a2565b81016020851015620006fe578190505b620007166200070d85620005a2565b830182620006a7565b50505b505050565b600082821c905092915050565b60006200073e600019846008026200071e565b1980831691505092915050565b60006200075983836200072b565b9150826002028217905092915050565b6200077482620004ef565b67ffffffffffffffff81111562000790576200078f620004fa565b5b6200079c825462000558565b620007a9828285620006ce565b600060209050601f831160018114620007e15760008415620007cc578287015190505b620007d885826200074b565b86555062000848565b601f198416620007f1866200058d565b60005b828110156200081b57848901518255600182019150602085019450602081019050620007f4565b868310156200083b578489015162000837601f8916826200072b565b8355505b6001600288020188555050505b505050505050565b7f4e487b7100000000000000000000000000000000000000000000000000000000600052601160045260246000fd5b60008160011c9050919050565b6000808291508390505b6001851115620008de57808604811115620008b657620008b562000850565b5b6001851615620008c65780820291505b8081029050620008d6856200087f565b945062000896565b94509492505050565b600082620008f95760019050620009cc565b81620009095760009050620009cc565b81600181146200092257600281146200092d5762000963565b6001915050620009cc565b60ff84111562000942576200094162000850565b5b8360020a9150848211156200095c576200095b62000850565b5b50620009cc565b5060208310610133831016604e8410600b84101617156200099d5782820a90508381111562000997576200099662000850565b5b620009cc565b620009ac84848460016200088c565b92509050818404811115620009c657620009c562000850565b5b81810290505b9392505050565b600060ff82169050919050565b6000620009ed8262000615565b9150620009fa83620009d3565b925062000a297fffffffffffffffffffffffffffffffffffffffffffffffffffffffffffffffff8484620008e7565b905092915050565b600062000a3e8262000615565b915062000a4b8362000615565b925082820262000a5b8162000615565b9150828204841483151762000a755762000a7462000850565b5b5092915050565b600082825260208201905092915050565b7f45524332303a206d696e7420746f20746865207a65726f206164647265737300600082015250565b600062000ac5601f8362000a7c565b915062000ad28262000a8d565b602082019050919050565b6000602082019050818103600083015262000af88162000ab6565b9050919050565b600062000b0c8262000615565b915062000b198362000615565b925082820190508082111562000b345762000b3362000850565b5b92915050565b62000b458162000615565b82525050565b600060208201905062000b62600083018462000b3a565b92915050565b6125d58062000b786000396000f3fe6080604052600436106101445760003560e01c806370a08231116100b6578063a457c2d71161006f578063a457c2d71461040f578063a4e2d6341461044c578063a69df4b514610477578063a9059cbb1461048e578063dd62ed3e146104cb578063f2fde38b146105085761014b565b806370a082311461030f578063715018a61461034c5780638da5cb5b1461036357806395d89b411461038e57806398d5fdca146103b9578063a035b1fe146103e45761014b565b8063313ce56711610108578063313ce56714610234578063395093511461025f5780633bd1adec1461029c5780633ccfd60b146102b357806340c10f19146102ca578063575a784a146102f35761014b565b806306fdde031461014d578063095ea7b31461017857806318160ddd146101b557806323b872dd146101e05780632b68b9c61461021d5761014b565b3661014b57005b005b34801561015957600080fd5b50610162610531565b60405161016f919061179a565b60405180910390f35b34801561018457600080fd5b5061019f600480360381019061019a9190611855565b6105c3565b6040516101ac91906118b0565b60405180910390f35b3480156101c157600080fd5b506101ca6105e6565b6040516101d791906118da565b60405180910390f35b3480156101ec57600080fd5b50610207600480360381019061020291906118f5565b6105f0565b60405161021491906118b0565b60405180910390f35b34801561022957600080fd5b5061023261061f565b005b34801561024057600080fd5b50610249610647565b6040516102569190611964565b60405180910390f35b34801561026b57600080fd5b5061028660048036038101906102819190611855565b610650565b60405161029391906118b0565b60405180910390f35b3480156102a857600080fd5b506102b1610687565b005b3480156102bf57600080fd5b506102c8610839565b005b3480156102d657600080fd5b506102f160048036038101906102ec9190611855565b610989565b005b61030d6004803603810190610308919061197f565b6109ef565b005b34801561031b57600080fd5b50610336600480360381019061033191906119ac565b610b56565b60405161034391906118da565b60405180910390f35b34801561035857600080fd5b50610361610b9e565b005b34801561036f57600080fd5b50610378610bb2565b60405161038591906119e8565b60405180910390f35b34801561039a57600080fd5b506103a3610bdc565b6040516103b0919061179a565b60405180910390f35b3480156103c557600080fd5b506103ce610c6e565b6040516103db91906118da565b60405180910390f35b3480156103f057600080fd5b506103f9610ca6565b6040516104069190611a2e565b60405180910390f35b34801561041b57600080fd5b5061043660048036038101906104319190611855565b610cc8565b60405161044391906118b0565b60405180910390f35b34801561045857600080fd5b50610461610d3f565b60405161046e91906118b0565b60405180910390f35b34801561048357600080fd5b5061048c610d52565b005b34801561049a57600080fd5b506104b560048036038101906104b09190611855565b610e66565b6040516104c291906118b0565b60405180910390f35b3480156104d757600080fd5b506104f260048036038101906104ed9190611a49565b610e89565b6040516104ff91906118da565b60405180910390f35b34801561051457600080fd5b5061052f600480360381019061052a91906119ac565b610f10565b005b60606003805461054090611ab8565b80601f016020809104026020016040519081016040528092919081815260200182805461056c90611ab8565b80156105b95780601f1061058e576101008083540402835291602001916105b9565b820191906000526020600020905b81548152906001019060200180831161059c57829003601f168201915b5050505050905090565b6000806105ce610f93565b90506105db818585610f9b565b600191505092915050565b6000600254905090565b6000806105fb610f93565b9050610608858285611164565b6106138585856111f0565b60019150509392505050565b610627611466565b61062f610bb2565b73ffffffffffffffffffffffffffffffffffffffff16ff5b60006012905090565b60008061065b610f93565b905061067c81858561066d8589610e89565b6106779190611b18565b610f9b565b600191505092915050565b69021e19e0c9bab2400000600760009054906101000a900473ffffffffffffffffffffffffffffffffffffffff1673ffffffffffffffffffffffffffffffffffffffff166370a08231336040518263ffffffff1660e01b81526004016106ed91906119e8565b602060405180830381865afa15801561070a573d6000803e3d6000fd5b505050506040513d601f19601f8201168201806040525081019061072e9190611b61565b101561076f576040517f08c379a000000000000000000000000000000000000000000000000000000000815260040161076690611c00565b60405180910390fd5b60001515600660109054906101000a900460ff161515146107c5576040517f08c379a00000000000000000000000000000000000000000000000000000000081526004016107bc90611c92565b60405180910390fd5b6107ce336114e4565b6001600660106101000a81548160ff0219169083151502179055503373ffffffffffffffffffffffffffffffffffffffff167f0f17057c058227955304580e8ad3305c4fff882badabd5340cdc5eb55933f3014260405161082f91906118da565b60405180910390a2565b610841611466565b600047905060008111610889576040517f08c379a000000000000000000000000000000000000000000000000000000000815260040161088090611d24565b60405180910390fd5b60003373ffffffffffffffffffffffffffffffffffffffff16826040516108af90611d75565b60006040518083038185875af1925050503d80600081146108ec576040519150601f19603f3d011682016040523d82523d6000602084013e6108f1565b606091505b5050905080610935576040517f08c379a000000000000000000000000000000000000000000000000000000000815260040161092c90611dd6565b60405180910390fd5b3373ffffffffffffffffffffffffffffffffffffffff167f05de6288c7d47933a7195ba55a4ebbbdeb6c7ddbc12c83e70d2842254db165c2834260405161097d929190611df6565b60405180910390a25050565b610991611466565b61099b82826115aa565b8173ffffffffffffffffffffffffffffffffffffffff167f25b428dfde728ccfaddad7e29e4ac23c24ed7fd1a6e3e3f91894a9a073f5dfff82426040516109e3929190611df6565b60405180910390a25050565b60008111610a32576040517f08c379a0000000000000000000000000000000000000000000000000000000008152600401610a2990611e91565b60405180910390fd5b600081600660009054906101000a90046fffffffffffffffffffffffffffffffff166fffffffffffffffffffffffffffffffff16610a709190611eb1565b905080341015610ab5576040517f08c379a0000000000000000000000000000000000000000000000000000000008152600401610aac90611f3f565b60405180910390fd5b34471015610af8576040517f08c379a0000000000000000000000000000000000000000000000000000000008152600401610aef90611fab565b60405180910390fd5b610b0233836115aa565b3373ffffffffffffffffffffffffffffffffffffffff167f25b428dfde728ccfaddad7e29e4ac23c24ed7fd1a6e3e3f91894a9a073f5dfff8342604051610b4a929190611df6565b60405180910390a25050565b60008060008373ffffffffffffffffffffffffffffffffffffffff1673ffffffffffffffffffffffffffffffffffffffff168152602001908152602001600020549050919050565b610ba6611466565b610bb060006114e4565b565b6000600560009054906101000a900473ffffffffffffffffffffffffffffffffffffffff16905090565b606060048054610beb90611ab8565b80601f0160208091040260200160405190810160405280929190818152602001828054610c1790611ab8565b8015610c645780601f10610c3957610100808354040283529160200191610c64565b820191906000526020600020905b815481529060010190602001808311610c4757829003601f168201915b5050505050905090565b6000600660009054906101000a90046fffffffffffffffffffffffffffffffff166fffffffffffffffffffffffffffffffff16905090565b600660009054906101000a90046fffffffffffffffffffffffffffffffff1681565b600080610cd3610f93565b90506000610ce18286610e89565b905083811015610d26576040517f08c379a0000000000000000000000000000000000000000000000000000000008152600401610d1d9061203d565b60405180910390fd5b610d338286868403610f9b565b60019250505092915050565b600660109054906101000a900460ff1681565b69032d26d12e980b600000600760009054906101000a900473ffffffffffffffffffffffffffffffffffffffff1673ffffffffffffffffffffffffffffffffffffffff166370a08231336040518263ffffffff1660e01b8152600401610db891906119e8565b602060405180830381865afa158015610dd5573d6000803e3d6000fd5b505050506040513d601f19601f82011682018060405250810190610df99190611b61565b1015610e3a576040517f08c379a0000000000000000000000000000000000000000000000000000000008152600401610e31906120cf565b60405180910390fd5b600660109054906101000a900460ff1615600660106101000a81548160ff021916908315150217905550565b600080610e71610f93565b9050610e7e8185856111f0565b600191505092915050565b6000600160008473ffffffffffffffffffffffffffffffffffffffff1673ffffffffffffffffffffffffffffffffffffffff16815260200190815260200160002060008373ffffffffffffffffffffffffffffffffffffffff1673ffffffffffffffffffffffffffffffffffffffff16815260200190815260200160002054905092915050565b610f18611466565b600073ffffffffffffffffffffffffffffffffffffffff168173ffffffffffffffffffffffffffffffffffffffff1603610f87576040517f08c379a0000000000000000000000000000000000000000000000000000000008152600401610f7e90612161565b60405180910390fd5b610f90816114e4565b50565b600033905090565b600073ffffffffffffffffffffffffffffffffffffffff168373ffffffffffffffffffffffffffffffffffffffff160361100a576040517f08c379a0000000000000000000000000000000000000000000000000000000008152600401611001906121f3565b60405180910390fd5b600073ffffffffffffffffffffffffffffffffffffffff168273ffffffffffffffffffffffffffffffffffffffff1603611079576040517f08c379a000000000000000000000000000000000000000000000000000000000815260040161107090612285565b60405180910390fd5b80600160008573ffffffffffffffffffffffffffffffffffffffff1673ffffffffffffffffffffffffffffffffffffffff16815260200190815260200160002060008473ffffffffffffffffffffffffffffffffffffffff1673ffffffffffffffffffffffffffffffffffffffff168152602001908152602001600020819055508173ffffffffffffffffffffffffffffffffffffffff168373ffffffffffffffffffffffffffffffffffffffff167f8c5be1e5ebec7d5bd14f71427d1e84f3dd0314c0f7b2291e5b200ac8c7c3b9258360405161115791906118da565b60405180910390a3505050565b60006111708484610e89565b90507fffffffffffffffffffffffffffffffffffffffffffffffffffffffffffffffff81146111ea57818110156111dc576040517f08c379a00000000000000000000000000000000000000000000000000000000081526004016111d3906122f1565b60405180910390fd5b6111e98484848403610f9b565b5b50505050565b600073ffffffffffffffffffffffffffffffffffffffff168373ffffffffffffffffffffffffffffffffffffffff160361125f576040517f08c379a000000000000000000000000000000000000000000000000000000000815260040161125690612383565b60405180910390fd5b600073ffffffffffffffffffffffffffffffffffffffff168273ffffffffffffffffffffffffffffffffffffffff16036112ce576040517f08c379a00000000000000000000000000000000000000000000000000000000081526004016112c590612415565b60405180910390fd5b6112d9838383611700565b60008060008573ffffffffffffffffffffffffffffffffffffffff1673ffffffffffffffffffffffffffffffffffffffff1681526020019081526020016000205490508181101561135f576040517f08c379a0000000000000000000000000000000000000000000000000000000008152600401611356906124a7565b60405180910390fd5b8181036000808673ffffffffffffffffffffffffffffffffffffffff1673ffffffffffffffffffffffffffffffffffffffff16815260200190815260200160002081905550816000808573ffffffffffffffffffffffffffffffffffffffff1673ffffffffffffffffffffffffffffffffffffffff168152602001908152602001600020600082825401925050819055508273ffffffffffffffffffffffffffffffffffffffff168473ffffffffffffffffffffffffffffffffffffffff167fddf252ad1be2c89b69c2b068fc378daa952ba7f163c4a11628f55a4df523b3ef8460405161144d91906118da565b60405180910390a3611460848484611705565b50505050565b61146e610f93565b73ffffffffffffffffffffffffffffffffffffffff1661148c610bb2565b73ffffffffffffffffffffffffffffffffffffffff16146114e2576040517f08c379a00000000000000000000000000000000000000000000000000000000081526004016114d990612513565b60405180910390fd5b565b6000600560009054906101000a900473ffffffffffffffffffffffffffffffffffffffff16905081600560006101000a81548173ffffffffffffffffffffffffffffffffffffffff021916908373ffffffffffffffffffffffffffffffffffffffff1602179055508173ffffffffffffffffffffffffffffffffffffffff168173ffffffffffffffffffffffffffffffffffffffff167f8be0079c531659141344cd1fd0a4f28419497f9722a3daafe3b4186f6b6457e060405160405180910390a35050565b600073ffffffffffffffffffffffffffffffffffffffff168273ffffffffffffffffffffffffffffffffffffffff1603611619576040517f08c379a00000000000000000000000000000000000000000000000000000000081526004016116109061257f565b60405180910390fd5b61162560008383611700565b80600260008282546116379190611b18565b92505081905550806000808473ffffffffffffffffffffffffffffffffffffffff1673ffffffffffffffffffffffffffffffffffffffff168152602001908152602001600020600082825401925050819055508173ffffffffffffffffffffffffffffffffffffffff16600073ffffffffffffffffffffffffffffffffffffffff167fddf252ad1be2c89b69c2b068fc378daa952ba7f163c4a11628f55a4df523b3ef836040516116e891906118da565b60405180910390a36116fc60008383611705565b5050565b505050565b505050565b600081519050919050565b600082825260208201905092915050565b60005b83811015611744578082015181840152602081019050611729565b60008484015250505050565b6000601f19601f8301169050919050565b600061176c8261170a565b6117768185611715565b9350611786818560208601611726565b61178f81611750565b840191505092915050565b600060208201905081810360008301526117b48184611761565b905092915050565b600080fd5b600073ffffffffffffffffffffffffffffffffffffffff82169050919050565b60006117ec826117c1565b9050919050565b6117fc816117e1565b811461180757600080fd5b50565b600081359050611819816117f3565b92915050565b6000819050919050565b6118328161181f565b811461183d57600080fd5b50565b60008135905061184f81611829565b92915050565b6000806040838503121561186c5761186b6117bc565b5b600061187a8582860161180a565b925050602061188b85828601611840565b9150509250929050565b60008115159050919050565b6118aa81611895565b82525050565b60006020820190506118c560008301846118a1565b92915050565b6118d48161181f565b82525050565b60006020820190506118ef60008301846118cb565b92915050565b60008060006060848603121561190e5761190d6117bc565b5b600061191c8682870161180a565b935050602061192d8682870161180a565b925050604061193e86828701611840565b9150509250925092565b600060ff82169050919050565b61195e81611948565b82525050565b60006020820190506119796000830184611955565b92915050565b600060208284031215611995576119946117bc565b5b60006119a384828501611840565b91505092915050565b6000602082840312156119c2576119c16117bc565b5b60006119d08482850161180a565b91505092915050565b6119e2816117e1565b82525050565b60006020820190506119fd60008301846119d9565b92915050565b60006fffffffffffffffffffffffffffffffff82169050919050565b611a2881611a03565b82525050565b6000602082019050611a436000830184611a1f565b92915050565b60008060408385031215611a6057611a5f6117bc565b5b6000611a6e8582860161180a565b9250506020611a7f8582860161180a565b9150509250929050565b7f4e487b7100000000000000000000000000000000000000000000000000000000600052602260045260246000fd5b60006002820490506001821680611ad057607f821691505b602082108103611ae357611ae2611a89565b5b50919050565b7f4e487b7100000000000000000000000000000000000000000000000000000000600052601160045260246000fd5b6000611b238261181f565b9150611b2e8361181f565b9250828201905080821115611b4657611b45611ae9565b5b92915050565b600081519050611b5b81611829565b92915050565b600060208284031215611b7757611b766117bc565b5b6000611b8584828501611b4c565b91505092915050565b7f596f75206e656564206174206c656173742031306b2067414e4e4120746f206460008201527f6f20746869730000000000000000000000000000000000000000000000000000602082015250565b6000611bea602683611715565b9150611bf582611b8e565b604082019050919050565b60006020820190508181036000830152611c1981611bdd565b9050919050565b7f54686520636f6e7472616374206973206c6f636b65642c20706c65617365207560008201527f6e6c6f636b000000000000000000000000000000000000000000000000000000602082015250565b6000611c7c602583611715565b9150611c8782611c20565b604082019050919050565b60006020820190508181036000830152611cab81611c6f565b9050919050565b7f4e6f7468696e6720746f2077697468647261773a2074686520636f6e7472616360008201527f742062616c616e636520656d7074790000000000000000000000000000000000602082015250565b6000611d0e602f83611715565b9150611d1982611cb2565b604082019050919050565b60006020820190508181036000830152611d3d81611d01565b9050919050565b600081905092915050565b50565b6000611d5f600083611d44565b9150611d6a82611d4f565b600082019050919050565b6000611d8082611d52565b9150819050919050565b7f4661696c656420746f2077697468647261772066756e64730000000000000000600082015250565b6000611dc0601883611715565b9150611dcb82611d8a565b602082019050919050565b60006020820190508181036000830152611def81611db3565b9050919050565b6000604082019050611e0b60008301856118cb565b611e1860208301846118cb565b9392505050565b7f506c6561736520696e73657274206120706f73697469766520616d6f756e742060008201527f6f6620746f6b656e20746f206265207075726368617365640000000000000000602082015250565b6000611e7b603883611715565b9150611e8682611e1f565b604082019050919050565b60006020820190508181036000830152611eaa81611e6e565b9050919050565b6000611ebc8261181f565b9150611ec78361181f565b9250828202611ed58161181f565b91508282048414831517611eec57611eeb611ae9565b5b5092915050565b7f506c65617365206d616b6520612073756666696369656e74207061796d656e74600082015250565b6000611f29602083611715565b9150611f3482611ef3565b602082019050919050565b60006020820190508181036000830152611f5881611f1c565b9050919050565b7f4d6f6e6579206e6f742079657420726563696576656400000000000000000000600082015250565b6000611f95601683611715565b9150611fa082611f5f565b602082019050919050565b60006020820190508181036000830152611fc481611f88565b9050919050565b7f45524332303a2064656372656173656420616c6c6f77616e63652062656c6f7760008201527f207a65726f000000000000000000000000000000000000000000000000000000602082015250565b6000612027602583611715565b915061203282611fcb565b604082019050919050565b600060208201905081810360008301526120568161201a565b9050919050565b7f596f75206e656564206174206c656173742031356b2067414e4e4120746f206460008201527f6f20746869730000000000000000000000000000000000000000000000000000602082015250565b60006120b9602683611715565b91506120c48261205d565b604082019050919050565b600060208201905081810360008301526120e8816120ac565b9050919050565b7f4f776e61626c653a206e6577206f776e657220697320746865207a65726f206160008201527f6464726573730000000000000000000000000000000000000000000000000000602082015250565b600061214b602683611715565b9150612156826120ef565b604082019050919050565b6000602082019050818103600083015261217a8161213e565b9050919050565b7f45524332303a20617070726f76652066726f6d20746865207a65726f2061646460008201527f7265737300000000000000000000000000000000000000000000000000000000602082015250565b60006121dd602483611715565b91506121e882612181565b604082019050919050565b6000602082019050818103600083015261220c816121d0565b9050919050565b7f45524332303a20617070726f766520746f20746865207a65726f20616464726560008201527f7373000000000000000000000000000000000000000000000000000000000000602082015250565b600061226f602283611715565b915061227a82612213565b604082019050919050565b6000602082019050818103600083015261229e81612262565b9050919050565b7f45524332303a20696e73756666696369656e7420616c6c6f77616e6365000000600082015250565b60006122db601d83611715565b91506122e6826122a5565b602082019050919050565b6000602082019050818103600083015261230a816122ce565b9050919050565b7f45524332303a207472616e736665722066726f6d20746865207a65726f20616460008201527f6472657373000000000000000000000000000000000000000000000000000000602082015250565b600061236d602583611715565b915061237882612311565b604082019050919050565b6000602082019050818103600083015261239c81612360565b9050919050565b7f45524332303a207472616e7366657220746f20746865207a65726f206164647260008201527f6573730000000000000000000000000000000000000000000000000000000000602082015250565b60006123ff602383611715565b915061240a826123a3565b604082019050919050565b6000602082019050818103600083015261242e816123f2565b9050919050565b7f45524332303a207472616e7366657220616d6f756e742065786365656473206260008201527f616c616e63650000000000000000000000000000000000000000000000000000602082015250565b6000612491602683611715565b915061249c82612435565b604082019050919050565b600060208201905081810360008301526124c081612484565b9050919050565b7f4f776e61626c653a2063616c6c6572206973206e6f7420746865206f776e6572600082015250565b60006124fd602083611715565b9150612508826124c7565b602082019050919050565b6000602082019050818103600083015261252c816124f0565b9050919050565b7f45524332303a206d696e7420746f20746865207a65726f206164647265737300600082015250565b6000612569601f83611715565b915061257482612533565b602082019050919050565b600060208201905081810360008301526125988161255c565b905091905056fea2646970667358221220e2665187ea8ed64003ce2db465d34e02043fff409eb5c89e99930079223e404564736f6c63430008110033",
    "linkReferences": {},
    "deployedLinkReferences": {}
}