{
  "_format": "hh-sol-artifact-1",
  "contractName": "ExchangeFactory",
  "sourceName": "contracts/ExchangeFactory.sol",
  "abi": [
    {
      "anonymous": false,
      "inputs": [
        {
          "indexed": false,
          "internalType": "address",
          "name": "exchange",
          "type": "address"
        },
        {
          "indexed": false,
          "internalType": "string",
          "name": "token1",
          "type": "string"
        },
        {
          "indexed": false,
          "internalType": "string",
          "name": "token2",
          "type": "string"
        },
        {
          "indexed": false,
          "internalType": "uint256",
          "name": "time",
          "type": "uint256"
        }
      ],
      "name": "ExchangeCreated",
      "type": "event"
    },
    {
      "anonymous": false,
      "inputs": [
        {
          "indexed": false,
          "internalType": "bool",
          "name": "isDone",
          "type": "bool"
        },
        {
          "indexed": false,
          "internalType": "string",
          "name": "token1",
          "type": "string"
        },
        {
          "indexed": false,
          "internalType": "string",
          "name": "token2",
          "type": "string"
        },
        {
          "indexed": false,
          "internalType": "uint256",
          "name": "time",
          "type": "uint256"
        }
      ],
      "name": "ExchangeRemoved",
      "type": "event"
    },
    {
      "anonymous": false,
      "inputs": [
        {
          "indexed": true,
          "internalType": "address",
          "name": "previousOwner",
          "type": "address"
        },
        {
          "indexed": true,
          "internalType": "address",
          "name": "newOwner",
          "type": "address"
        }
      ],
      "name": "OwnershipTransferred",
      "type": "event"
    },
    {
      "inputs": [
        {
          "internalType": "string",
          "name": "_token",
          "type": "string"
        },
        {
          "internalType": "address",
          "name": "_address",
          "type": "address"
        }
      ],
      "name": "addTokenMapping",
      "outputs": [],
      "stateMutability": "nonpayable",
      "type": "function"
    },
    {
      "inputs": [
        {
          "internalType": "string",
          "name": "_token",
          "type": "string"
        }
      ],
      "name": "checkMapping",
      "outputs": [
        {
          "internalType": "address",
          "name": "",
          "type": "address"
        }
      ],
      "stateMutability": "view",
      "type": "function"
    },
    {
      "inputs": [],
      "name": "claimOwner",
      "outputs": [],
      "stateMutability": "nonpayable",
      "type": "function"
    },
    {
      "inputs": [
        {
          "internalType": "string",
          "name": "_token1",
          "type": "string"
        },
        {
          "internalType": "address",
          "name": "_token1Address",
          "type": "address"
        },
        {
          "internalType": "string",
          "name": "_token2",
          "type": "string"
        },
        {
          "internalType": "address",
          "name": "_token2Address",
          "type": "address"
        }
      ],
      "name": "createExchangeBySymbol",
      "outputs": [
        {
          "internalType": "address",
          "name": "exchangeAddress",
          "type": "address"
        }
      ],
      "stateMutability": "nonpayable",
      "type": "function"
    },
    {
      "inputs": [],
      "name": "destruct",
      "outputs": [],
      "stateMutability": "nonpayable",
      "type": "function"
    },
    {
      "inputs": [
        {
          "internalType": "string",
          "name": "_token1",
          "type": "string"
        },
        {
          "internalType": "string",
          "name": "_token2",
          "type": "string"
        }
      ],
      "name": "getExchangeBySymbol",
      "outputs": [
        {
          "internalType": "address",
          "name": "exchange1Address",
          "type": "address"
        },
        {
          "internalType": "address",
          "name": "exchange2Address",
          "type": "address"
        }
      ],
      "stateMutability": "view",
      "type": "function"
    },
    {
      "inputs": [],
      "name": "getTotalExchanges",
      "outputs": [
        {
          "internalType": "uint256",
          "name": "",
          "type": "uint256"
        }
      ],
      "stateMutability": "view",
      "type": "function"
    },
    {
      "inputs": [],
      "name": "owner",
      "outputs": [
        {
          "internalType": "address",
          "name": "",
          "type": "address"
        }
      ],
      "stateMutability": "view",
      "type": "function"
    },
    {
      "inputs": [
        {
          "internalType": "string",
          "name": "_token1",
          "type": "string"
        },
        {
          "internalType": "string",
          "name": "_token2",
          "type": "string"
        }
      ],
      "name": "removeExchangeBySymbol",
      "outputs": [
        {
          "internalType": "bool",
          "name": "isDone",
          "type": "bool"
        }
      ],
      "stateMutability": "nonpayable",
      "type": "function"
    },
    {
      "inputs": [
        {
          "internalType": "string",
          "name": "_token",
          "type": "string"
        }
      ],
      "name": "removeTokenMapping",
      "outputs": [],
      "stateMutability": "nonpayable",
      "type": "function"
    },
    {
      "inputs": [],
      "name": "renounceOwnership",
      "outputs": [],
      "stateMutability": "nonpayable",
      "type": "function"
    },
    {
      "inputs": [
        {
          "internalType": "address",
          "name": "",
          "type": "address"
        },
        {
          "internalType": "address",
          "name": "",
          "type": "address"
        }
      ],
      "name": "tokenAddressToExchanges",
      "outputs": [
        {
          "internalType": "address",
          "name": "",
          "type": "address"
        }
      ],
      "stateMutability": "view",
      "type": "function"
    },
    {
      "inputs": [
        {
          "internalType": "string",
          "name": "",
          "type": "string"
        }
      ],
      "name": "tokenToAdress",
      "outputs": [
        {
          "internalType": "address",
          "name": "",
          "type": "address"
        }
      ],
      "stateMutability": "view",
      "type": "function"
    },
    {
      "inputs": [
        {
          "internalType": "address",
          "name": "newOwner",
          "type": "address"
        }
      ],
      "name": "transferOwnership",
      "outputs": [],
      "stateMutability": "nonpayable",
      "type": "function"
    }
  ],
  "bytecode": "0x60806040523480156200001157600080fd5b5062000032620000266200003860201b60201c565b6200004060201b60201c565b62000104565b600033905090565b60008060009054906101000a900473ffffffffffffffffffffffffffffffffffffffff169050816000806101000a81548173ffffffffffffffffffffffffffffffffffffffff021916908373ffffffffffffffffffffffffffffffffffffffff1602179055508173ffffffffffffffffffffffffffffffffffffffff168173ffffffffffffffffffffffffffffffffffffffff167f8be0079c531659141344cd1fd0a4f28419497f9722a3daafe3b4186f6b6457e060405160405180910390a35050565b615ecb80620001146000396000f3fe60806040523480156200001157600080fd5b5060043610620001005760003560e01c8063715018a61162000099578063be82d485116200006f578063be82d4851462000264578063ca848e55146200029a578063f2fde38b14620002bc578063f823f9a114620002dc5762000100565b8063715018a614620002005780638da5cb5b146200020c5780639413a5c8146200022e5762000100565b80632b68b9c611620000db5780632b68b9c614620001925780633bd1adec146200019e57806351870c4c14620001aa5780636a79258814620001e05762000100565b806303e30f40146200010557806311dac1c4146200013b5780631ba80337146200015b575b600080fd5b6200012360048036038101906200011d9190620019c1565b62000312565b60405162000132919062001a19565b60405180910390f35b62000159600480360381019062000153919062001b98565b62000354565b005b62000179600480360381019062000173919062001bfe565b62000473565b6040516200018992919062001c83565b60405180910390f35b6200019c620007ec565b005b620001a862000818565b005b620001c86004803603810190620001c2919062001cb0565b62000907565b604051620001d7919062001a19565b60405180910390f35b620001fe6004803603810190620001f8919062001cb0565b62000950565b005b6200020a620009bd565b005b62000216620009d5565b60405162000225919062001a19565b60405180910390f35b6200024c600480360381019062000246919062001bfe565b620009fe565b6040516200025b919062001d1e565b60405180910390f35b6200028260048036038101906200027c919062001d3b565b62000c0e565b60405162000291919062001a19565b60405180910390f35b620002a462001031565b604051620002b3919062001e06565b60405180910390f35b620002da6004803603810190620002d4919062001e23565b6200103b565b005b620002fa6004803603810190620002f4919062001cb0565b620010c5565b60405162000309919062001a19565b60405180910390f35b60016020528160005260406000206020528060005260406000206000915091509054906101000a900473ffffffffffffffffffffffffffffffffffffffff1681565b6200035e6200110f565b600073ffffffffffffffffffffffffffffffffffffffff1660038360405162000388919062001ece565b908152602001604051809103902060009054906101000a900473ffffffffffffffffffffffffffffffffffffffff1673ffffffffffffffffffffffffffffffffffffffff161462000410576040517f08c379a0000000000000000000000000000000000000000000000000000000008152600401620004079062001f48565b60405180910390fd5b8060038360405162000423919062001ece565b908152602001604051809103902060006101000a81548173ffffffffffffffffffffffffffffffffffffffff021916908373ffffffffffffffffffffffffffffffffffffffff1602179055505050565b6000808383600073ffffffffffffffffffffffffffffffffffffffff16600383604051620004a2919062001ece565b908152602001604051809103902060009054906101000a900473ffffffffffffffffffffffffffffffffffffffff1673ffffffffffffffffffffffffffffffffffffffff1614158015620005635750600073ffffffffffffffffffffffffffffffffffffffff166003826040516200051b919062001ece565b908152602001604051809103902060009054906101000a900473ffffffffffffffffffffffffffffffffffffffff1673ffffffffffffffffffffffffffffffffffffffff1614155b620005a5576040517f08c379a00000000000000000000000000000000000000000000000000000000081526004016200059c9062001fba565b60405180910390fd5b60016000600388604051620005bb919062001ece565b908152602001604051809103902060009054906101000a900473ffffffffffffffffffffffffffffffffffffffff1673ffffffffffffffffffffffffffffffffffffffff1673ffffffffffffffffffffffffffffffffffffffff168152602001908152602001600020600060038760405162000638919062001ece565b908152602001604051809103902060009054906101000a900473ffffffffffffffffffffffffffffffffffffffff1673ffffffffffffffffffffffffffffffffffffffff1673ffffffffffffffffffffffffffffffffffffffff16815260200190815260200160002060009054906101000a900473ffffffffffffffffffffffffffffffffffffffff16935060016000600387604051620006da919062001ece565b908152602001604051809103902060009054906101000a900473ffffffffffffffffffffffffffffffffffffffff1673ffffffffffffffffffffffffffffffffffffffff1673ffffffffffffffffffffffffffffffffffffffff168152602001908152602001600020600060038860405162000757919062001ece565b908152602001604051809103902060009054906101000a900473ffffffffffffffffffffffffffffffffffffffff1673ffffffffffffffffffffffffffffffffffffffff1673ffffffffffffffffffffffffffffffffffffffff16815260200190815260200160002060009054906101000a900473ffffffffffffffffffffffffffffffffffffffff16925050509250929050565b620007f66200110f565b62000800620009d5565b73ffffffffffffffffffffffffffffffffffffffff16ff5b69032d26d12e980b60000073e145ac17716770f178abcacf68e633bbbab4cdab73ffffffffffffffffffffffffffffffffffffffff166370a08231336040518263ffffffff1660e01b815260040162000872919062001a19565b602060405180830381865afa15801562000890573d6000803e3d6000fd5b505050506040513d601f19601f82011682018060405250810190620008b691906200200d565b1015620008fa576040517f08c379a0000000000000000000000000000000000000000000000000000000008152600401620008f1906200208f565b60405180910390fd5b620009053362001194565b565b6003818051602081018201805184825260208301602085012081835280955050505050506000915054906101000a900473ffffffffffffffffffffffffffffffffffffffff1681565b6200095a6200110f565b60006003826040516200096e919062001ece565b908152602001604051809103902060006101000a81548173ffffffffffffffffffffffffffffffffffffffff021916908373ffffffffffffffffffffffffffffffffffffffff16021790555050565b620009c76200110f565b620009d3600062001194565b565b60008060009054906101000a900473ffffffffffffffffffffffffffffffffffffffff16905090565b60008282600073ffffffffffffffffffffffffffffffffffffffff1660038360405162000a2c919062001ece565b908152602001604051809103902060009054906101000a900473ffffffffffffffffffffffffffffffffffffffff1673ffffffffffffffffffffffffffffffffffffffff161415801562000aed5750600073ffffffffffffffffffffffffffffffffffffffff1660038260405162000aa5919062001ece565b908152602001604051809103902060009054906101000a900473ffffffffffffffffffffffffffffffffffffffff1673ffffffffffffffffffffffffffffffffffffffff1614155b62000b2f576040517f08c379a000000000000000000000000000000000000000000000000000000000815260040162000b269062001fba565b60405180910390fd5b62000b396200110f565b62000bc560038660405162000b4f919062001ece565b908152602001604051809103902060009054906101000a900473ffffffffffffffffffffffffffffffffffffffff1660038660405162000b90919062001ece565b908152602001604051809103902060009054906101000a900473ffffffffffffffffffffffffffffffffffffffff1662001258565b92507fec8966094c42603a5bbf6d3995dc8b29dceee5bb636528df4c191cc49f1c94318386864260405162000bfe9493929190620020f2565b60405180910390a1505092915050565b60008073ffffffffffffffffffffffffffffffffffffffff168473ffffffffffffffffffffffffffffffffffffffff161415801562000c7a5750600073ffffffffffffffffffffffffffffffffffffffff168273ffffffffffffffffffffffffffffffffffffffff1614155b62000cbc576040517f08c379a000000000000000000000000000000000000000000000000000000000815260040162000cb3906200219d565b60405180910390fd5b600073ffffffffffffffffffffffffffffffffffffffff16600160008673ffffffffffffffffffffffffffffffffffffffff1673ffffffffffffffffffffffffffffffffffffffff16815260200190815260200160002060008473ffffffffffffffffffffffffffffffffffffffff1673ffffffffffffffffffffffffffffffffffffffff16815260200190815260200160002060009054906101000a900473ffffffffffffffffffffffffffffffffffffffff1673ffffffffffffffffffffffffffffffffffffffff16148062000e5c5750600073ffffffffffffffffffffffffffffffffffffffff16600160008473ffffffffffffffffffffffffffffffffffffffff1673ffffffffffffffffffffffffffffffffffffffff16815260200190815260200160002060008673ffffffffffffffffffffffffffffffffffffffff1673ffffffffffffffffffffffffffffffffffffffff16815260200190815260200160002060009054906101000a900473ffffffffffffffffffffffffffffffffffffffff1673ffffffffffffffffffffffffffffffffffffffff16145b62000e9e576040517f08c379a000000000000000000000000000000000000000000000000000000000815260040162000e95906200220f565b60405180910390fd5b8360038660405162000eb1919062001ece565b908152602001604051809103902060006101000a81548173ffffffffffffffffffffffffffffffffffffffff021916908373ffffffffffffffffffffffffffffffffffffffff1602179055508160038460405162000f10919062001ece565b908152602001604051809103902060006101000a81548173ffffffffffffffffffffffffffffffffffffffff021916908373ffffffffffffffffffffffffffffffffffffffff16021790555062000fe860038660405162000f72919062001ece565b908152602001604051809103902060009054906101000a900473ffffffffffffffffffffffffffffffffffffffff1660038560405162000fb3919062001ece565b908152602001604051809103902060009054906101000a900473ffffffffffffffffffffffffffffffffffffffff166200174b565b90507f2b6caea2ff173448c4294a72d405dafd803e08b4094172b65a0b3f6958e51b448186854260405162001021949392919062002231565b60405180910390a1949350505050565b6000600254905090565b620010456200110f565b600073ffffffffffffffffffffffffffffffffffffffff168173ffffffffffffffffffffffffffffffffffffffff1603620010b7576040517f08c379a0000000000000000000000000000000000000000000000000000000008152600401620010ae9062002302565b60405180910390fd5b620010c28162001194565b50565b6000600382604051620010d9919062001ece565b908152602001604051809103902060009054906101000a900473ffffffffffffffffffffffffffffffffffffffff169050919050565b6200111962001932565b73ffffffffffffffffffffffffffffffffffffffff1662001139620009d5565b73ffffffffffffffffffffffffffffffffffffffff161462001192576040517f08c379a0000000000000000000000000000000000000000000000000000000008152600401620011899062002374565b60405180910390fd5b565b60008060009054906101000a900473ffffffffffffffffffffffffffffffffffffffff169050816000806101000a81548173ffffffffffffffffffffffffffffffffffffffff021916908373ffffffffffffffffffffffffffffffffffffffff1602179055508173ffffffffffffffffffffffffffffffffffffffff168173ffffffffffffffffffffffffffffffffffffffff167f8be0079c531659141344cd1fd0a4f28419497f9722a3daafe3b4186f6b6457e060405160405180910390a35050565b60008073ffffffffffffffffffffffffffffffffffffffff168373ffffffffffffffffffffffffffffffffffffffff1614158015620012c45750600073ffffffffffffffffffffffffffffffffffffffff168273ffffffffffffffffffffffffffffffffffffffff1614155b62001306576040517f08c379a0000000000000000000000000000000000000000000000000000000008152600401620012fd906200219d565b60405180910390fd5b600073ffffffffffffffffffffffffffffffffffffffff16600160008573ffffffffffffffffffffffffffffffffffffffff1673ffffffffffffffffffffffffffffffffffffffff16815260200190815260200160002060008473ffffffffffffffffffffffffffffffffffffffff1673ffffffffffffffffffffffffffffffffffffffff16815260200190815260200160002060009054906101000a900473ffffffffffffffffffffffffffffffffffffffff1673ffffffffffffffffffffffffffffffffffffffff1614158015620014a95750600073ffffffffffffffffffffffffffffffffffffffff16600160008473ffffffffffffffffffffffffffffffffffffffff1673ffffffffffffffffffffffffffffffffffffffff16815260200190815260200160002060008573ffffffffffffffffffffffffffffffffffffffff1673ffffffffffffffffffffffffffffffffffffffff16815260200190815260200160002060009054906101000a900473ffffffffffffffffffffffffffffffffffffffff1673ffffffffffffffffffffffffffffffffffffffff1614155b620014eb576040517f08c379a0000000000000000000000000000000000000000000000000000000008152600401620014e290620023e6565b60405180910390fd5b600160008473ffffffffffffffffffffffffffffffffffffffff1673ffffffffffffffffffffffffffffffffffffffff16815260200190815260200160002060008373ffffffffffffffffffffffffffffffffffffffff1673ffffffffffffffffffffffffffffffffffffffff16815260200190815260200160002060009054906101000a900473ffffffffffffffffffffffffffffffffffffffff1673ffffffffffffffffffffffffffffffffffffffff16632b68b9c66040518163ffffffff1660e01b8152600401600060405180830381600087803b158015620015d057600080fd5b505af1158015620015e5573d6000803e3d6000fd5b5050505060026000815480929190620015fe9062002437565b9190505550600160008473ffffffffffffffffffffffffffffffffffffffff1673ffffffffffffffffffffffffffffffffffffffff16815260200190815260200160002060008373ffffffffffffffffffffffffffffffffffffffff1673ffffffffffffffffffffffffffffffffffffffff16815260200190815260200160002060006101000a81549073ffffffffffffffffffffffffffffffffffffffff0219169055600160008373ffffffffffffffffffffffffffffffffffffffff1673ffffffffffffffffffffffffffffffffffffffff16815260200190815260200160002060008473ffffffffffffffffffffffffffffffffffffffff1673ffffffffffffffffffffffffffffffffffffffff16815260200190815260200160002060006101000a81549073ffffffffffffffffffffffffffffffffffffffff02191690556001905092915050565b60008083836200175a620009d5565b3060405162001769906200193a565b62001778949392919062002465565b604051809103906000f08015801562001795573d6000803e3d6000fd5b50905080915081600160008673ffffffffffffffffffffffffffffffffffffffff1673ffffffffffffffffffffffffffffffffffffffff16815260200190815260200160002060008573ffffffffffffffffffffffffffffffffffffffff1673ffffffffffffffffffffffffffffffffffffffff16815260200190815260200160002060006101000a81548173ffffffffffffffffffffffffffffffffffffffff021916908373ffffffffffffffffffffffffffffffffffffffff16021790555081600160008573ffffffffffffffffffffffffffffffffffffffff1673ffffffffffffffffffffffffffffffffffffffff16815260200190815260200160002060008673ffffffffffffffffffffffffffffffffffffffff1673ffffffffffffffffffffffffffffffffffffffff16815260200190815260200160002060006101000a81548173ffffffffffffffffffffffffffffffffffffffff021916908373ffffffffffffffffffffffffffffffffffffffff160217905550600260008154809291906200192690620024b2565b91905055505092915050565b600033905090565b613996806200250083390190565b6000604051905090565b600080fd5b600080fd5b600073ffffffffffffffffffffffffffffffffffffffff82169050919050565b600062001989826200195c565b9050919050565b6200199b816200197c565b8114620019a757600080fd5b50565b600081359050620019bb8162001990565b92915050565b60008060408385031215620019db57620019da62001952565b5b6000620019eb85828601620019aa565b9250506020620019fe85828601620019aa565b9150509250929050565b62001a13816200197c565b82525050565b600060208201905062001a30600083018462001a08565b92915050565b600080fd5b600080fd5b6000601f19601f8301169050919050565b7f4e487b7100000000000000000000000000000000000000000000000000000000600052604160045260246000fd5b62001a8b8262001a40565b810181811067ffffffffffffffff8211171562001aad5762001aac62001a51565b5b80604052505050565b600062001ac262001948565b905062001ad0828262001a80565b919050565b600067ffffffffffffffff82111562001af35762001af262001a51565b5b62001afe8262001a40565b9050602081019050919050565b82818337600083830152505050565b600062001b3162001b2b8462001ad5565b62001ab6565b90508281526020810184848401111562001b505762001b4f62001a3b565b5b62001b5d84828562001b0b565b509392505050565b600082601f83011262001b7d5762001b7c62001a36565b5b813562001b8f84826020860162001b1a565b91505092915050565b6000806040838503121562001bb25762001bb162001952565b5b600083013567ffffffffffffffff81111562001bd35762001bd262001957565b5b62001be18582860162001b65565b925050602062001bf485828601620019aa565b9150509250929050565b6000806040838503121562001c185762001c1762001952565b5b600083013567ffffffffffffffff81111562001c395762001c3862001957565b5b62001c478582860162001b65565b925050602083013567ffffffffffffffff81111562001c6b5762001c6a62001957565b5b62001c798582860162001b65565b9150509250929050565b600060408201905062001c9a600083018562001a08565b62001ca9602083018462001a08565b9392505050565b60006020828403121562001cc95762001cc862001952565b5b600082013567ffffffffffffffff81111562001cea5762001ce962001957565b5b62001cf88482850162001b65565b91505092915050565b60008115159050919050565b62001d188162001d01565b82525050565b600060208201905062001d35600083018462001d0d565b92915050565b6000806000806080858703121562001d585762001d5762001952565b5b600085013567ffffffffffffffff81111562001d795762001d7862001957565b5b62001d878782880162001b65565b945050602062001d9a87828801620019aa565b935050604085013567ffffffffffffffff81111562001dbe5762001dbd62001957565b5b62001dcc8782880162001b65565b925050606062001ddf87828801620019aa565b91505092959194509250565b6000819050919050565b62001e008162001deb565b82525050565b600060208201905062001e1d600083018462001df5565b92915050565b60006020828403121562001e3c5762001e3b62001952565b5b600062001e4c84828501620019aa565b91505092915050565b600081519050919050565b600081905092915050565b60005b8381101562001e8b57808201518184015260208101905062001e6e565b60008484015250505050565b600062001ea48262001e55565b62001eb0818562001e60565b935062001ec281856020860162001e6b565b80840191505092915050565b600062001edc828462001e97565b915081905092915050565b600082825260208201905092915050565b7f4d617070696e6720657869737473000000000000000000000000000000000000600082015250565b600062001f30600e8362001ee7565b915062001f3d8262001ef8565b602082019050919050565b6000602082019050818103600083015262001f638162001f21565b9050919050565b7f496e76616c6964206d617070696e670000000000000000000000000000000000600082015250565b600062001fa2600f8362001ee7565b915062001faf8262001f6a565b602082019050919050565b6000602082019050818103600083015262001fd58162001f93565b9050919050565b62001fe78162001deb565b811462001ff357600080fd5b50565b600081519050620020078162001fdc565b92915050565b60006020828403121562002026576200202562001952565b5b6000620020368482850162001ff6565b91505092915050565b7f4e656564206174206c656173742031356b2067414e4e41000000000000000000600082015250565b60006200207760178362001ee7565b915062002084826200203f565b602082019050919050565b60006020820190508181036000830152620020aa8162002068565b9050919050565b6000620020be8262001e55565b620020ca818562001ee7565b9350620020dc81856020860162001e6b565b620020e78162001a40565b840191505092915050565b600060808201905062002109600083018762001d0d565b81810360208301526200211d8186620020b1565b90508181036040830152620021338185620020b1565b905062002144606083018462001df5565b95945050505050565b7f496e76616c696420616464726573730000000000000000000000000000000000600082015250565b600062002185600f8362001ee7565b915062002192826200214d565b602082019050919050565b60006020820190508181036000830152620021b88162002176565b9050919050565b7f5468652070616972206578697374730000000000000000000000000000000000600082015250565b6000620021f7600f8362001ee7565b91506200220482620021bf565b602082019050919050565b600060208201905081810360008301526200222a81620021e8565b9050919050565b600060808201905062002248600083018762001a08565b81810360208301526200225c8186620020b1565b90508181036040830152620022728185620020b1565b905062002283606083018462001df5565b95945050505050565b7f4f776e61626c653a206e6577206f776e657220697320746865207a65726f206160008201527f6464726573730000000000000000000000000000000000000000000000000000602082015250565b6000620022ea60268362001ee7565b9150620022f7826200228c565b604082019050919050565b600060208201905081810360008301526200231d81620022db565b9050919050565b7f4f776e61626c653a2063616c6c6572206973206e6f7420746865206f776e6572600082015250565b60006200235c60208362001ee7565b9150620023698262002324565b602082019050919050565b600060208201905081810360008301526200238f816200234d565b9050919050565b7f496e76616c69642065786368616e676500000000000000000000000000000000600082015250565b6000620023ce60108362001ee7565b9150620023db8262002396565b602082019050919050565b600060208201905081810360008301526200240181620023bf565b9050919050565b7f4e487b7100000000000000000000000000000000000000000000000000000000600052601160045260246000fd5b6000620024448262001deb565b9150600082036200245a576200245962002408565b5b600182039050919050565b60006080820190506200247c600083018762001a08565b6200248b602083018662001a08565b6200249a604083018562001a08565b620024a9606083018462001a08565b95945050505050565b6000620024bf8262001deb565b91507fffffffffffffffffffffffffffffffffffffffffffffffffffffffffffffffff8203620024f457620024f362002408565b5b60018201905091905056fe60c06040526103de6007553480156200001757600080fd5b50604051620039963803806200399683398181016040528101906200003d9190620002da565b6040518060400160405280600781526020017f4c5020414e4e41000000000000000000000000000000000000000000000000008152506040518060400160405280600681526020017f6c70414e4e4100000000000000000000000000000000000000000000000000008152508160039081620000ba9190620005c6565b508060049081620000cc9190620005c6565b505050600073ffffffffffffffffffffffffffffffffffffffff168473ffffffffffffffffffffffffffffffffffffffff16141580156200013a5750600073ffffffffffffffffffffffffffffffffffffffff168373ffffffffffffffffffffffffffffffffffffffff1614155b6200017c576040517f08c379a000000000000000000000000000000000000000000000000000000000815260040162000173906200070e565b60405180910390fd5b8373ffffffffffffffffffffffffffffffffffffffff1660808173ffffffffffffffffffffffffffffffffffffffff16815250508273ffffffffffffffffffffffffffffffffffffffff1660a08173ffffffffffffffffffffffffffffffffffffffff168152505081600660006101000a81548173ffffffffffffffffffffffffffffffffffffffff021916908373ffffffffffffffffffffffffffffffffffffffff16021790555080600560006101000a81548173ffffffffffffffffffffffffffffffffffffffff021916908373ffffffffffffffffffffffffffffffffffffffff1602179055505050505062000730565b600080fd5b600073ffffffffffffffffffffffffffffffffffffffff82169050919050565b6000620002a28262000275565b9050919050565b620002b48162000295565b8114620002c057600080fd5b50565b600081519050620002d481620002a9565b92915050565b60008060008060808587031215620002f757620002f662000270565b5b60006200030787828801620002c3565b94505060206200031a87828801620002c3565b93505060406200032d87828801620002c3565b92505060606200034087828801620002c3565b91505092959194509250565b600081519050919050565b7f4e487b7100000000000000000000000000000000000000000000000000000000600052604160045260246000fd5b7f4e487b7100000000000000000000000000000000000000000000000000000000600052602260045260246000fd5b60006002820490506001821680620003ce57607f821691505b602082108103620003e457620003e362000386565b5b50919050565b60008190508160005260206000209050919050565b60006020601f8301049050919050565b600082821b905092915050565b6000600883026200044e7fffffffffffffffffffffffffffffffffffffffffffffffffffffffffffffffff826200040f565b6200045a86836200040f565b95508019841693508086168417925050509392505050565b6000819050919050565b6000819050919050565b6000620004a7620004a16200049b8462000472565b6200047c565b62000472565b9050919050565b6000819050919050565b620004c38362000486565b620004db620004d282620004ae565b8484546200041c565b825550505050565b600090565b620004f2620004e3565b620004ff818484620004b8565b505050565b5b8181101562000527576200051b600082620004e8565b60018101905062000505565b5050565b601f82111562000576576200054081620003ea565b6200054b84620003ff565b810160208510156200055b578190505b620005736200056a85620003ff565b83018262000504565b50505b505050565b600082821c905092915050565b60006200059b600019846008026200057b565b1980831691505092915050565b6000620005b6838362000588565b9150826002028217905092915050565b620005d1826200034c565b67ffffffffffffffff811115620005ed57620005ec62000357565b5b620005f98254620003b5565b620006068282856200052b565b600060209050601f8311600181146200063e576000841562000629578287015190505b620006358582620005a8565b865550620006a5565b601f1984166200064e86620003ea565b60005b82811015620006785784890151825560018201915060208501945060208101905062000651565b8683101562000698578489015162000694601f89168262000588565b8355505b6001600288020188555050505b505050505050565b600082825260208201905092915050565b7f496e76616c696420616464726573736573000000000000000000000000000000600082015250565b6000620006f6601183620006ad565b91506200070382620006be565b602082019050919050565b600060208201905081810360008301526200072981620006e7565b9050919050565b60805160a0516131de620007b860003960008181610635015281816109280152818161098701528181610b5f01528181610d80015281816111eb0152818161143301526117bf01526000818161059b015281816107ce0152818161082d01528181610c0301528181610cdf0152818161114c01528181611392015261186001526131de6000f3fe608060405234801561001057600080fd5b50600436106101585760003560e01c806395d89b41116100c3578063b32440411161007c578063b3244041146103f4578063b34cb6f614610425578063ca90777514610455578063d778d42614610485578063dc805b17146104b6578063dd62ed3e146104d257610158565b806395d89b411461030b578063966dae0e146103295780639c8f9f2314610347578063a457c2d714610378578063a9059cbb146103a8578063ab7e2058146103d857610158565b8063313ce56711610115578063313ce56714610223578063395093511461024157806351c6590a1461027157806369fe0e2d146102a157806370a08231146102bd5780638da5cb5b146102ed57610158565b806306fdde031461015d5780630902f1ac1461017b578063095ea7b31461019b57806318160ddd146101cb57806323b872dd146101e95780632b68b9c614610219575b600080fd5b610165610502565b604051610172919061230c565b60405180910390f35b610183610594565b60405161019293929190612347565b60405180910390f35b6101b560048036038101906101b0919061240d565b6106e0565b6040516101c29190612468565b60405180910390f35b6101d3610703565b6040516101e09190612483565b60405180910390f35b61020360048036038101906101fe919061249e565b61070d565b6040516102109190612468565b60405180910390f35b61022161073c565b005b61022b610abb565b604051610238919061250d565b60405180910390f35b61025b6004803603810190610256919061240d565b610ac4565b6040516102689190612468565b60405180910390f35b61028b60048036038101906102869190612528565b610afb565b6040516102989190612483565b60405180910390f35b6102bb60048036038101906102b69190612528565b610eca565b005b6102d760048036038101906102d29190612555565b611007565b6040516102e49190612483565b60405180910390f35b6102f561104f565b6040516103029190612591565b60405180910390f35b610313611075565b604051610320919061230c565b60405180910390f35b610331611107565b60405161033e9190612591565b60405180910390f35b610361600480360381019061035c9190612528565b61112d565b60405161036f9291906125ac565b60405180910390f35b610392600480360381019061038d919061240d565b6112e9565b60405161039f9190612468565b60405180910390f35b6103c260048036038101906103bd919061240d565b611360565b6040516103cf9190612468565b60405180910390f35b6103f260048036038101906103ed9190612528565b611383565b005b61040e60048036038101906104099190612528565b611526565b60405161041c9291906125ac565b60405180910390f35b61043f600480360381019061043a9190612528565b611619565b60405161044c9190612483565b60405180910390f35b61046f600480360381019061046a9190612528565b61168b565b60405161047c9190612483565b60405180910390f35b61049f600480360381019061049a9190612528565b6116fd565b6040516104ad9291906125ac565b60405180910390f35b6104d060048036038101906104cb9190612528565b6117b0565b005b6104ec60048036038101906104e791906125d5565b611953565b6040516104f99190612483565b60405180910390f35b60606003805461051190612644565b80601f016020809104026020016040519081016040528092919081815260200182805461053d90612644565b801561058a5780601f1061055f5761010080835404028352916020019161058a565b820191906000526020600020905b81548152906001019060200180831161056d57829003601f168201915b5050505050905090565b60008060007f000000000000000000000000000000000000000000000000000000000000000073ffffffffffffffffffffffffffffffffffffffff166370a08231306040518263ffffffff1660e01b81526004016105f29190612591565b602060405180830381865afa15801561060f573d6000803e3d6000fd5b505050506040513d601f19601f82011682018060405250810190610633919061268a565b7f000000000000000000000000000000000000000000000000000000000000000073ffffffffffffffffffffffffffffffffffffffff166370a08231306040518263ffffffff1660e01b815260040161068c9190612591565b602060405180830381865afa1580156106a9573d6000803e3d6000fd5b505050506040513d601f19601f820116820180604052508101906106cd919061268a565b6106d5610703565b925092509250909192565b6000806106eb6119da565b90506106f88185856119e2565b600191505092915050565b6000600254905090565b6000806107186119da565b9050610725858285611bab565b610730858585611c37565b60019150509392505050565b600560009054906101000a900473ffffffffffffffffffffffffffffffffffffffff1673ffffffffffffffffffffffffffffffffffffffff163373ffffffffffffffffffffffffffffffffffffffff16146107cc576040517f08c379a00000000000000000000000000000000000000000000000000000000081526004016107c390612703565b60405180910390fd5b7f000000000000000000000000000000000000000000000000000000000000000073ffffffffffffffffffffffffffffffffffffffff1663a9059cbb600660009054906101000a900473ffffffffffffffffffffffffffffffffffffffff167f000000000000000000000000000000000000000000000000000000000000000073ffffffffffffffffffffffffffffffffffffffff166370a08231306040518263ffffffff1660e01b81526004016108849190612591565b602060405180830381865afa1580156108a1573d6000803e3d6000fd5b505050506040513d601f19601f820116820180604052508101906108c5919061268a565b6040518363ffffffff1660e01b81526004016108e2929190612723565b6020604051808303816000875af1158015610901573d6000803e3d6000fd5b505050506040513d601f19601f820116820180604052508101906109259190612778565b507f000000000000000000000000000000000000000000000000000000000000000073ffffffffffffffffffffffffffffffffffffffff1663a9059cbb600660009054906101000a900473ffffffffffffffffffffffffffffffffffffffff167f000000000000000000000000000000000000000000000000000000000000000073ffffffffffffffffffffffffffffffffffffffff166370a08231306040518263ffffffff1660e01b81526004016109de9190612591565b602060405180830381865afa1580156109fb573d6000803e3d6000fd5b505050506040513d601f19601f82011682018060405250810190610a1f919061268a565b6040518363ffffffff1660e01b8152600401610a3c929190612723565b6020604051808303816000875af1158015610a5b573d6000803e3d6000fd5b505050506040513d601f19601f82011682018060405250810190610a7f9190612778565b50600660009054906101000a900473ffffffffffffffffffffffffffffffffffffffff1673ffffffffffffffffffffffffffffffffffffffff16ff5b60006012905090565b600080610acf6119da565b9050610af0818585610ae18589611953565b610aeb91906127d4565b6119e2565b600191505092915050565b6000806000610b09846116fd565b91509150600084118015610b1d5750600082115b610b5c576040517f08c379a0000000000000000000000000000000000000000000000000000000008152600401610b5390612854565b60405180910390fd5b817f000000000000000000000000000000000000000000000000000000000000000073ffffffffffffffffffffffffffffffffffffffff166370a08231336040518263ffffffff1660e01b8152600401610bb69190612591565b602060405180830381865afa158015610bd3573d6000803e3d6000fd5b505050506040513d601f19601f82011682018060405250810190610bf7919061268a565b10158015610c9e5750837f000000000000000000000000000000000000000000000000000000000000000073ffffffffffffffffffffffffffffffffffffffff166370a08231336040518263ffffffff1660e01b8152600401610c5a9190612591565b602060405180830381865afa158015610c77573d6000803e3d6000fd5b505050506040513d601f19601f82011682018060405250810190610c9b919061268a565b10155b610cdd576040517f08c379a0000000000000000000000000000000000000000000000000000000008152600401610cd4906128c0565b60405180910390fd5b7f000000000000000000000000000000000000000000000000000000000000000073ffffffffffffffffffffffffffffffffffffffff166323b872dd3330876040518463ffffffff1660e01b8152600401610d3a939291906128e0565b6020604051808303816000875af1158015610d59573d6000803e3d6000fd5b505050506040513d601f19601f82011682018060405250810190610d7d9190612778565b507f000000000000000000000000000000000000000000000000000000000000000073ffffffffffffffffffffffffffffffffffffffff166323b872dd3330856040518463ffffffff1660e01b8152600401610ddb939291906128e0565b6020604051808303816000875af1158015610dfa573d6000803e3d6000fd5b505050506040513d601f19601f82011682018060405250810190610e1e9190612778565b5060008111610e62576040517f08c379a0000000000000000000000000000000000000000000000000000000008152600401610e5990612854565b60405180910390fd5b610e6c3382611ead565b3373ffffffffffffffffffffffffffffffffffffffff167fcafc425af80b5c3cc42df3bcd7a80be8864e530e91080220b0927a2e8738633785848442604051610eb89493929190612917565b60405180910390a28092505050919050565b6103848110158015610ede57506103e88111155b610f1d576040517f08c379a0000000000000000000000000000000000000000000000000000000008152600401610f14906129ce565b60405180910390fd5b600660009054906101000a900473ffffffffffffffffffffffffffffffffffffffff1673ffffffffffffffffffffffffffffffffffffffff163373ffffffffffffffffffffffffffffffffffffffff1614610fad576040517f08c379a0000000000000000000000000000000000000000000000000000000008152600401610fa490612703565b60405180910390fd5b806007819055503373ffffffffffffffffffffffffffffffffffffffff167ff98c81ad0a5eb3551c3561de8dc9d1512e8680fb77425ea138ebfe9a9c0065ff8242604051610ffc9291906125ac565b60405180910390a250565b60008060008373ffffffffffffffffffffffffffffffffffffffff1673ffffffffffffffffffffffffffffffffffffffff168152602001908152602001600020549050919050565b600660009054906101000a900473ffffffffffffffffffffffffffffffffffffffff1681565b60606004805461108490612644565b80601f01602080910402602001604051908101604052809291908181526020018280546110b090612644565b80156110fd5780601f106110d2576101008083540402835291602001916110fd565b820191906000526020600020905b8154815290600101906020018083116110e057829003601f168201915b5050505050905090565b600560009054906101000a900473ffffffffffffffffffffffffffffffffffffffff1681565b60008060008061113c85611526565b9150915061114a3386612003565b7f000000000000000000000000000000000000000000000000000000000000000073ffffffffffffffffffffffffffffffffffffffff1663a9059cbb33846040518363ffffffff1660e01b81526004016111a5929190612723565b6020604051808303816000875af11580156111c4573d6000803e3d6000fd5b505050506040513d601f19601f820116820180604052508101906111e89190612778565b507f000000000000000000000000000000000000000000000000000000000000000073ffffffffffffffffffffffffffffffffffffffff1663a9059cbb33836040518363ffffffff1660e01b8152600401611244929190612723565b6020604051808303816000875af1158015611263573d6000803e3d6000fd5b505050506040513d601f19601f820116820180604052508101906112879190612778565b503373ffffffffffffffffffffffffffffffffffffffff167fb4b85360dd062bff16e260f0f39a75d05d0a80b492dd7dad17efe99a862a250c838388426040516112d49493929190612917565b60405180910390a28181935093505050915091565b6000806112f46119da565b905060006113028286611953565b905083811015611347576040517f08c379a000000000000000000000000000000000000000000000000000000000815260040161133e90612a60565b60405180910390fd5b61135482868684036119e2565b60019250505092915050565b60008061136b6119da565b9050611378818585611c37565b600191505092915050565b600061138e82611619565b90507f000000000000000000000000000000000000000000000000000000000000000073ffffffffffffffffffffffffffffffffffffffff166323b872dd3330856040518463ffffffff1660e01b81526004016113ed939291906128e0565b6020604051808303816000875af115801561140c573d6000803e3d6000fd5b505050506040513d601f19601f820116820180604052508101906114309190612778565b507f000000000000000000000000000000000000000000000000000000000000000073ffffffffffffffffffffffffffffffffffffffff1663a9059cbb33836040518363ffffffff1660e01b815260040161148c929190612723565b6020604051808303816000875af11580156114ab573d6000803e3d6000fd5b505050506040513d601f19601f820116820180604052508101906114cf9190612778565b503373ffffffffffffffffffffffffffffffffffffffff167f17c5b36beecc08bb34c131595b72648615701863750cb5dd40952abd4128af7782844260405161151a93929190612347565b60405180910390a25050565b6000806000806000611536610594565b92509250925061154533611007565b86111580156115545750600086115b80156115605750808611155b61159f576040517f08c379a000000000000000000000000000000000000000000000000000000000815260040161159690612acc565b60405180910390fd5b6000816103e86115af9190612aec565b84600754896115be9190612aec565b6115c89190612aec565b6115d29190612b5d565b90506000826103e86115e49190612aec565b846007548a6115f39190612aec565b6115fd9190612aec565b6116079190612b5d565b90508181965096505050505050915091565b600080600080611627610594565b92509250925060008111611670576040517f08c379a000000000000000000000000000000000000000000000000000000000815260040161166790612bda565b60405180910390fd5b600061167d8685856121d0565b905080945050505050919050565b600080600080611699610594565b925092509250600081116116e2576040517f08c379a00000000000000000000000000000000000000000000000000000000081526004016116d990612bda565b60405180910390fd5b60006116ef8684866121d0565b905080945050505050919050565b600080600080600061170d610594565b92509250925060008103611726578593508594506117a8565b6000831180156117365750600082115b611775576040517f08c379a000000000000000000000000000000000000000000000000000000000815260040161176c90612c46565b60405180910390fd5b8282876117829190612aec565b61178c9190612b5d565b945082868261179b9190612aec565b6117a59190612b5d565b93505b505050915091565b60006117bb8261168b565b90507f000000000000000000000000000000000000000000000000000000000000000073ffffffffffffffffffffffffffffffffffffffff166323b872dd3330856040518463ffffffff1660e01b815260040161181a939291906128e0565b6020604051808303816000875af1158015611839573d6000803e3d6000fd5b505050506040513d601f19601f8201168201806040525081019061185d9190612778565b507f000000000000000000000000000000000000000000000000000000000000000073ffffffffffffffffffffffffffffffffffffffff1663a9059cbb33836040518363ffffffff1660e01b81526004016118b9929190612723565b6020604051808303816000875af11580156118d8573d6000803e3d6000fd5b505050506040513d601f19601f820116820180604052508101906118fc9190612778565b503373ffffffffffffffffffffffffffffffffffffffff167f17c5b36beecc08bb34c131595b72648615701863750cb5dd40952abd4128af7782844260405161194793929190612347565b60405180910390a25050565b6000600160008473ffffffffffffffffffffffffffffffffffffffff1673ffffffffffffffffffffffffffffffffffffffff16815260200190815260200160002060008373ffffffffffffffffffffffffffffffffffffffff1673ffffffffffffffffffffffffffffffffffffffff16815260200190815260200160002054905092915050565b600033905090565b600073ffffffffffffffffffffffffffffffffffffffff168373ffffffffffffffffffffffffffffffffffffffff1603611a51576040517f08c379a0000000000000000000000000000000000000000000000000000000008152600401611a4890612cd8565b60405180910390fd5b600073ffffffffffffffffffffffffffffffffffffffff168273ffffffffffffffffffffffffffffffffffffffff1603611ac0576040517f08c379a0000000000000000000000000000000000000000000000000000000008152600401611ab790612d6a565b60405180910390fd5b80600160008573ffffffffffffffffffffffffffffffffffffffff1673ffffffffffffffffffffffffffffffffffffffff16815260200190815260200160002060008473ffffffffffffffffffffffffffffffffffffffff1673ffffffffffffffffffffffffffffffffffffffff168152602001908152602001600020819055508173ffffffffffffffffffffffffffffffffffffffff168373ffffffffffffffffffffffffffffffffffffffff167f8c5be1e5ebec7d5bd14f71427d1e84f3dd0314c0f7b2291e5b200ac8c7c3b92583604051611b9e9190612483565b60405180910390a3505050565b6000611bb78484611953565b90507fffffffffffffffffffffffffffffffffffffffffffffffffffffffffffffffff8114611c315781811015611c23576040517f08c379a0000000000000000000000000000000000000000000000000000000008152600401611c1a90612dd6565b60405180910390fd5b611c3084848484036119e2565b5b50505050565b600073ffffffffffffffffffffffffffffffffffffffff168373ffffffffffffffffffffffffffffffffffffffff1603611ca6576040517f08c379a0000000000000000000000000000000000000000000000000000000008152600401611c9d90612e68565b60405180910390fd5b600073ffffffffffffffffffffffffffffffffffffffff168273ffffffffffffffffffffffffffffffffffffffff1603611d15576040517f08c379a0000000000000000000000000000000000000000000000000000000008152600401611d0c90612efa565b60405180910390fd5b611d20838383612272565b60008060008573ffffffffffffffffffffffffffffffffffffffff1673ffffffffffffffffffffffffffffffffffffffff16815260200190815260200160002054905081811015611da6576040517f08c379a0000000000000000000000000000000000000000000000000000000008152600401611d9d90612f8c565b60405180910390fd5b8181036000808673ffffffffffffffffffffffffffffffffffffffff1673ffffffffffffffffffffffffffffffffffffffff16815260200190815260200160002081905550816000808573ffffffffffffffffffffffffffffffffffffffff1673ffffffffffffffffffffffffffffffffffffffff168152602001908152602001600020600082825401925050819055508273ffffffffffffffffffffffffffffffffffffffff168473ffffffffffffffffffffffffffffffffffffffff167fddf252ad1be2c89b69c2b068fc378daa952ba7f163c4a11628f55a4df523b3ef84604051611e949190612483565b60405180910390a3611ea7848484612277565b50505050565b600073ffffffffffffffffffffffffffffffffffffffff168273ffffffffffffffffffffffffffffffffffffffff1603611f1c576040517f08c379a0000000000000000000000000000000000000000000000000000000008152600401611f1390612ff8565b60405180910390fd5b611f2860008383612272565b8060026000828254611f3a91906127d4565b92505081905550806000808473ffffffffffffffffffffffffffffffffffffffff1673ffffffffffffffffffffffffffffffffffffffff168152602001908152602001600020600082825401925050819055508173ffffffffffffffffffffffffffffffffffffffff16600073ffffffffffffffffffffffffffffffffffffffff167fddf252ad1be2c89b69c2b068fc378daa952ba7f163c4a11628f55a4df523b3ef83604051611feb9190612483565b60405180910390a3611fff60008383612277565b5050565b600073ffffffffffffffffffffffffffffffffffffffff168273ffffffffffffffffffffffffffffffffffffffff1603612072576040517f08c379a00000000000000000000000000000000000000000000000000000000081526004016120699061308a565b60405180910390fd5b61207e82600083612272565b60008060008473ffffffffffffffffffffffffffffffffffffffff1673ffffffffffffffffffffffffffffffffffffffff16815260200190815260200160002054905081811015612104576040517f08c379a00000000000000000000000000000000000000000000000000000000081526004016120fb9061311c565b60405180910390fd5b8181036000808573ffffffffffffffffffffffffffffffffffffffff1673ffffffffffffffffffffffffffffffffffffffff1681526020019081526020016000208190555081600260008282540392505081905550600073ffffffffffffffffffffffffffffffffffffffff168373ffffffffffffffffffffffffffffffffffffffff167fddf252ad1be2c89b69c2b068fc378daa952ba7f163c4a11628f55a4df523b3ef846040516121b79190612483565b60405180910390a36121cb83600084612277565b505050565b6000808411612214576040517f08c379a000000000000000000000000000000000000000000000000000000000815260040161220b90613188565b60405180910390fd5b600082600754866122259190612aec565b61222f9190612aec565b90506000600754866122419190612aec565b856103e861224f9190612aec565b61225991906127d4565b905080826122679190612b5d565b925050509392505050565b505050565b505050565b600081519050919050565b600082825260208201905092915050565b60005b838110156122b657808201518184015260208101905061229b565b60008484015250505050565b6000601f19601f8301169050919050565b60006122de8261227c565b6122e88185612287565b93506122f8818560208601612298565b612301816122c2565b840191505092915050565b6000602082019050818103600083015261232681846122d3565b905092915050565b6000819050919050565b6123418161232e565b82525050565b600060608201905061235c6000830186612338565b6123696020830185612338565b6123766040830184612338565b949350505050565b600080fd5b600073ffffffffffffffffffffffffffffffffffffffff82169050919050565b60006123ae82612383565b9050919050565b6123be816123a3565b81146123c957600080fd5b50565b6000813590506123db816123b5565b92915050565b6123ea8161232e565b81146123f557600080fd5b50565b600081359050612407816123e1565b92915050565b600080604083850312156124245761242361237e565b5b6000612432858286016123cc565b9250506020612443858286016123f8565b9150509250929050565b60008115159050919050565b6124628161244d565b82525050565b600060208201905061247d6000830184612459565b92915050565b60006020820190506124986000830184612338565b92915050565b6000806000606084860312156124b7576124b661237e565b5b60006124c5868287016123cc565b93505060206124d6868287016123cc565b92505060406124e7868287016123f8565b9150509250925092565b600060ff82169050919050565b612507816124f1565b82525050565b600060208201905061252260008301846124fe565b92915050565b60006020828403121561253e5761253d61237e565b5b600061254c848285016123f8565b91505092915050565b60006020828403121561256b5761256a61237e565b5b6000612579848285016123cc565b91505092915050565b61258b816123a3565b82525050565b60006020820190506125a66000830184612582565b92915050565b60006040820190506125c16000830185612338565b6125ce6020830184612338565b9392505050565b600080604083850312156125ec576125eb61237e565b5b60006125fa858286016123cc565b925050602061260b858286016123cc565b9150509250929050565b7f4e487b7100000000000000000000000000000000000000000000000000000000600052602260045260246000fd5b6000600282049050600182168061265c57607f821691505b60208210810361266f5761266e612615565b5b50919050565b600081519050612684816123e1565b92915050565b6000602082840312156126a05761269f61237e565b5b60006126ae84828501612675565b91505092915050565b7f4e6f7420666163746f7279000000000000000000000000000000000000000000600082015250565b60006126ed600b83612287565b91506126f8826126b7565b602082019050919050565b6000602082019050818103600083015261271c816126e0565b9050919050565b60006040820190506127386000830185612582565b6127456020830184612338565b9392505050565b6127558161244d565b811461276057600080fd5b50565b6000815190506127728161274c565b92915050565b60006020828403121561278e5761278d61237e565b5b600061279c84828501612763565b91505092915050565b7f4e487b7100000000000000000000000000000000000000000000000000000000600052601160045260246000fd5b60006127df8261232e565b91506127ea8361232e565b9250828201905080821115612802576128016127a5565b5b92915050565b7f4d75737420626520706f73697469766520616d6f756e74000000000000000000600082015250565b600061283e601783612287565b915061284982612808565b602082019050919050565b6000602082019050818103600083015261286d81612831565b9050919050565b7f496e73756666696369656e7420746f6b656e7300000000000000000000000000600082015250565b60006128aa601383612287565b91506128b582612874565b602082019050919050565b600060208201905081810360008301526128d98161289d565b9050919050565b60006060820190506128f56000830186612582565b6129026020830185612582565b61290f6040830184612338565b949350505050565b600060808201905061292c6000830187612338565b6129396020830186612338565b6129466040830185612338565b6129536060830184612338565b95945050505050565b7f4f6e6c79206265747765656e203930302028313025206665652920616e64203160008201527f3030302028302520666565290000000000000000000000000000000000000000602082015250565b60006129b8602c83612287565b91506129c38261295c565b604082019050919050565b600060208201905081810360008301526129e7816129ab565b9050919050565b7f45524332303a2064656372656173656420616c6c6f77616e63652062656c6f7760008201527f207a65726f000000000000000000000000000000000000000000000000000000602082015250565b6000612a4a602583612287565b9150612a55826129ee565b604082019050919050565b60006020820190508181036000830152612a7981612a3d565b9050919050565b7f496e76616c696420616d6f756e74000000000000000000000000000000000000600082015250565b6000612ab6600e83612287565b9150612ac182612a80565b602082019050919050565b60006020820190508181036000830152612ae581612aa9565b9050919050565b6000612af78261232e565b9150612b028361232e565b9250828202612b108161232e565b91508282048414831517612b2757612b266127a5565b5b5092915050565b7f4e487b7100000000000000000000000000000000000000000000000000000000600052601260045260246000fd5b6000612b688261232e565b9150612b738361232e565b925082612b8357612b82612b2e565b5b828204905092915050565b7f496e61637469766520706f6f6c00000000000000000000000000000000000000600082015250565b6000612bc4600d83612287565b9150612bcf82612b8e565b602082019050919050565b60006020820190508181036000830152612bf381612bb7565b9050919050565b7f496e73756666696369656e742072657365727665730000000000000000000000600082015250565b6000612c30601583612287565b9150612c3b82612bfa565b602082019050919050565b60006020820190508181036000830152612c5f81612c23565b9050919050565b7f45524332303a20617070726f76652066726f6d20746865207a65726f2061646460008201527f7265737300000000000000000000000000000000000000000000000000000000602082015250565b6000612cc2602483612287565b9150612ccd82612c66565b604082019050919050565b60006020820190508181036000830152612cf181612cb5565b9050919050565b7f45524332303a20617070726f766520746f20746865207a65726f20616464726560008201527f7373000000000000000000000000000000000000000000000000000000000000602082015250565b6000612d54602283612287565b9150612d5f82612cf8565b604082019050919050565b60006020820190508181036000830152612d8381612d47565b9050919050565b7f45524332303a20696e73756666696369656e7420616c6c6f77616e6365000000600082015250565b6000612dc0601d83612287565b9150612dcb82612d8a565b602082019050919050565b60006020820190508181036000830152612def81612db3565b9050919050565b7f45524332303a207472616e736665722066726f6d20746865207a65726f20616460008201527f6472657373000000000000000000000000000000000000000000000000000000602082015250565b6000612e52602583612287565b9150612e5d82612df6565b604082019050919050565b60006020820190508181036000830152612e8181612e45565b9050919050565b7f45524332303a207472616e7366657220746f20746865207a65726f206164647260008201527f6573730000000000000000000000000000000000000000000000000000000000602082015250565b6000612ee4602383612287565b9150612eef82612e88565b604082019050919050565b60006020820190508181036000830152612f1381612ed7565b9050919050565b7f45524332303a207472616e7366657220616d6f756e742065786365656473206260008201527f616c616e63650000000000000000000000000000000000000000000000000000602082015250565b6000612f76602683612287565b9150612f8182612f1a565b604082019050919050565b60006020820190508181036000830152612fa581612f69565b9050919050565b7f45524332303a206d696e7420746f20746865207a65726f206164647265737300600082015250565b6000612fe2601f83612287565b9150612fed82612fac565b602082019050919050565b6000602082019050818103600083015261301181612fd5565b9050919050565b7f45524332303a206275726e2066726f6d20746865207a65726f2061646472657360008201527f7300000000000000000000000000000000000000000000000000000000000000602082015250565b6000613074602183612287565b915061307f82613018565b604082019050919050565b600060208201905081810360008301526130a381613067565b9050919050565b7f45524332303a206275726e20616d6f756e7420657863656564732062616c616e60008201527f6365000000000000000000000000000000000000000000000000000000000000602082015250565b6000613106602283612287565b9150613111826130aa565b604082019050919050565b60006020820190508181036000830152613135816130f9565b9050919050565b7f4e6f7420706f73697469766520616d6f756e7400000000000000000000000000600082015250565b6000613172601383612287565b915061317d8261313c565b602082019050919050565b600060208201905081810360008301526131a181613165565b905091905056fea264697066735822122090cda4ca41e12568681a3e5753db471a2c8c1d3478b6f459a789e0a95eb9763c64736f6c63430008110033a264697066735822122077c5846a9c0aa1beea290351c9ddfd69891e6edaf411858460123f5bdf79441264736f6c63430008110033",
  "linkReferences": {},
  "deployedLinkReferences": {}
}