{
  "_format": "hh-sol-artifact-1",
  "contractName": "ExFac",
  "sourceName": "contracts/ExFac.sol",
  "abi": [
    {
      "anonymous": false,
      "inputs": [
        {
          "indexed": false,
          "internalType": "address",
          "name": "",
          "type": "address"
        },
        {
          "indexed": false,
          "internalType": "string",
          "name": "",
          "type": "string"
        },
        {
          "indexed": false,
          "internalType": "string",
          "name": "",
          "type": "string"
        }
      ],
      "name": "Add",
      "type": "event"
    },
    {
      "anonymous": false,
      "inputs": [
        {
          "indexed": true,
          "internalType": "address",
          "name": "previousOwner",
          "type": "address"
        },
        {
          "indexed": true,
          "internalType": "address",
          "name": "newOwner",
          "type": "address"
        }
      ],
      "name": "OwnershipTransferred",
      "type": "event"
    },
    {
      "anonymous": false,
      "inputs": [
        {
          "indexed": false,
          "internalType": "bool",
          "name": "",
          "type": "bool"
        },
        {
          "indexed": false,
          "internalType": "string",
          "name": "",
          "type": "string"
        },
        {
          "indexed": false,
          "internalType": "string",
          "name": "",
          "type": "string"
        }
      ],
      "name": "Remove",
      "type": "event"
    },
    {
      "inputs": [
        {
          "internalType": "string",
          "name": "_symb1",
          "type": "string"
        },
        {
          "internalType": "address",
          "name": "_adr1",
          "type": "address"
        },
        {
          "internalType": "string",
          "name": "_symb2",
          "type": "string"
        },
        {
          "internalType": "address",
          "name": "_adr2",
          "type": "address"
        }
      ],
      "name": "addEx",
      "outputs": [
        {
          "internalType": "address",
          "name": "exAdr",
          "type": "address"
        }
      ],
      "stateMutability": "nonpayable",
      "type": "function"
    },
    {
      "inputs": [
        {
          "internalType": "address",
          "name": "",
          "type": "address"
        },
        {
          "internalType": "address",
          "name": "",
          "type": "address"
        }
      ],
      "name": "adrEx",
      "outputs": [
        {
          "internalType": "address",
          "name": "",
          "type": "address"
        }
      ],
      "stateMutability": "view",
      "type": "function"
    },
    {
      "inputs": [],
      "name": "claimOwner",
      "outputs": [],
      "stateMutability": "nonpayable",
      "type": "function"
    },
    {
      "inputs": [
        {
          "internalType": "string",
          "name": "_symb1",
          "type": "string"
        },
        {
          "internalType": "string",
          "name": "_symb2",
          "type": "string"
        }
      ],
      "name": "getEx",
      "outputs": [
        {
          "internalType": "address",
          "name": "ex1Adr",
          "type": "address"
        }
      ],
      "stateMutability": "view",
      "type": "function"
    },
    {
      "inputs": [],
      "name": "kill",
      "outputs": [],
      "stateMutability": "nonpayable",
      "type": "function"
    },
    {
      "inputs": [],
      "name": "owner",
      "outputs": [
        {
          "internalType": "address",
          "name": "",
          "type": "address"
        }
      ],
      "stateMutability": "view",
      "type": "function"
    },
    {
      "inputs": [
        {
          "internalType": "string",
          "name": "_symb1",
          "type": "string"
        },
        {
          "internalType": "string",
          "name": "_symb2",
          "type": "string"
        }
      ],
      "name": "remEx",
      "outputs": [],
      "stateMutability": "nonpayable",
      "type": "function"
    },
    {
      "inputs": [],
      "name": "renounceOwnership",
      "outputs": [],
      "stateMutability": "nonpayable",
      "type": "function"
    },
    {
      "inputs": [
        {
          "internalType": "string",
          "name": "",
          "type": "string"
        }
      ],
      "name": "symbAdr",
      "outputs": [
        {
          "internalType": "address",
          "name": "",
          "type": "address"
        }
      ],
      "stateMutability": "view",
      "type": "function"
    },
    {
      "inputs": [
        {
          "internalType": "address",
          "name": "newOwner",
          "type": "address"
        }
      ],
      "name": "transferOwnership",
      "outputs": [],
      "stateMutability": "nonpayable",
      "type": "function"
    }
  ],
  "bytecode": "0x608060405234801561001057600080fd5b5061002d61002261003260201b60201c565b61003a60201b60201c565b6100fe565b600033905090565b60008060009054906101000a900473ffffffffffffffffffffffffffffffffffffffff169050816000806101000a81548173ffffffffffffffffffffffffffffffffffffffff021916908373ffffffffffffffffffffffffffffffffffffffff1602179055508173ffffffffffffffffffffffffffffffffffffffff168173ffffffffffffffffffffffffffffffffffffffff167f8be0079c531659141344cd1fd0a4f28419497f9722a3daafe3b4186f6b6457e060405160405180910390a35050565b615ee5806200010e6000396000f3fe60806040523480156200001157600080fd5b5060043610620000ac5760003560e01c80638da5cb5b116200006f5780638da5cb5b146200012b5780639f1f1141146200014d578063eb4e18851462000183578063f2fde38b14620001b9578063f44fc57314620001d957620000ac565b8063031e0ddf14620000b15780633722608d14620000e75780633bd1adec146200010757806341c0e1b51462000113578063715018a6146200011f575b600080fd5b620000cf6004803603810190620000c991906200116c565b6200020f565b604051620000de919062001236565b60405180910390f35b620001056004803603810190620000ff91906200116c565b62000336565b005b6200011162000758565b005b6200011d62000847565b005b6200012962000873565b005b620001356200088b565b60405162000144919062001236565b60405180910390f35b6200016b600480360381019062000165919062001253565b620008b4565b6040516200017a919062001236565b60405180910390f35b620001a160048036038101906200019b9190620012d5565b620008fd565b604051620001b0919062001236565b60405180910390f35b620001d76004803603810190620001d191906200131c565b6200093f565b005b620001f76004803603810190620001f191906200134e565b620009c9565b60405162000206919062001236565b60405180910390f35b60006001600060028560405162000227919062001477565b908152602001604051809103902060009054906101000a900473ffffffffffffffffffffffffffffffffffffffff1673ffffffffffffffffffffffffffffffffffffffff1673ffffffffffffffffffffffffffffffffffffffff1681526020019081526020016000206000600284604051620002a4919062001477565b908152602001604051809103902060009054906101000a900473ffffffffffffffffffffffffffffffffffffffff1673ffffffffffffffffffffffffffffffffffffffff1673ffffffffffffffffffffffffffffffffffffffff16815260200190815260200160002060009054906101000a900473ffffffffffffffffffffffffffffffffffffffff16905092915050565b6200034062000e97565b600060028360405162000354919062001477565b908152602001604051809103902060009054906101000a900473ffffffffffffffffffffffffffffffffffffffff169050600060028360405162000399919062001477565b908152602001604051809103902060009054906101000a900473ffffffffffffffffffffffffffffffffffffffff169050600073ffffffffffffffffffffffffffffffffffffffff16600160008473ffffffffffffffffffffffffffffffffffffffff1673ffffffffffffffffffffffffffffffffffffffff16815260200190815260200160002060008373ffffffffffffffffffffffffffffffffffffffff1673ffffffffffffffffffffffffffffffffffffffff16815260200190815260200160002060009054906101000a900473ffffffffffffffffffffffffffffffffffffffff1673ffffffffffffffffffffffffffffffffffffffff1603620004d8576040517f08c379a0000000000000000000000000000000000000000000000000000000008152600401620004cf90620014f1565b60405180910390fd5b600160008373ffffffffffffffffffffffffffffffffffffffff1673ffffffffffffffffffffffffffffffffffffffff16815260200190815260200160002060008273ffffffffffffffffffffffffffffffffffffffff1673ffffffffffffffffffffffffffffffffffffffff16815260200190815260200160002060009054906101000a900473ffffffffffffffffffffffffffffffffffffffff1673ffffffffffffffffffffffffffffffffffffffff166341c0e1b56040518163ffffffff1660e01b8152600401600060405180830381600087803b158015620005bd57600080fd5b505af1158015620005d2573d6000803e3d6000fd5b50505050600160008373ffffffffffffffffffffffffffffffffffffffff1673ffffffffffffffffffffffffffffffffffffffff16815260200190815260200160002060008273ffffffffffffffffffffffffffffffffffffffff1673ffffffffffffffffffffffffffffffffffffffff16815260200190815260200160002060006101000a81549073ffffffffffffffffffffffffffffffffffffffff0219169055600160008273ffffffffffffffffffffffffffffffffffffffff1673ffffffffffffffffffffffffffffffffffffffff16815260200190815260200160002060008373ffffffffffffffffffffffffffffffffffffffff1673ffffffffffffffffffffffffffffffffffffffff16815260200190815260200160002060006101000a81549073ffffffffffffffffffffffffffffffffffffffff02191690557fe1804d850c5809794158de323aa1316f9ebfcb3b204a43149b554ce78df5e8e5600185856040516200074a9392919062001571565b60405180910390a150505050565b69032d26d12e980b60000073e129970deaa685ee0142d5ddd086780eb2bf260773ffffffffffffffffffffffffffffffffffffffff166370a08231336040518263ffffffff1660e01b8152600401620007b2919062001236565b602060405180830381865afa158015620007d0573d6000803e3d6000fd5b505050506040513d601f19601f82011682018060405250810190620007f69190620015f7565b10156200083a576040517f08c379a0000000000000000000000000000000000000000000000000000000008152600401620008319062001679565b60405180910390fd5b620008453362000f1c565b565b6200085162000e97565b6200085b6200088b565b73ffffffffffffffffffffffffffffffffffffffff16ff5b6200087d62000e97565b62000889600062000f1c565b565b60008060009054906101000a900473ffffffffffffffffffffffffffffffffffffffff16905090565b6002818051602081018201805184825260208301602085012081835280955050505050506000915054906101000a900473ffffffffffffffffffffffffffffffffffffffff1681565b60016020528160005260406000206020528060005260406000206000915091509054906101000a900473ffffffffffffffffffffffffffffffffffffffff1681565b6200094962000e97565b600073ffffffffffffffffffffffffffffffffffffffff168173ffffffffffffffffffffffffffffffffffffffff1603620009bb576040517f08c379a0000000000000000000000000000000000000000000000000000000008152600401620009b29062001711565b60405180910390fd5b620009c68162000f1c565b50565b6000620009d562000e97565b600073ffffffffffffffffffffffffffffffffffffffff168473ffffffffffffffffffffffffffffffffffffffff161415801562000a405750600073ffffffffffffffffffffffffffffffffffffffff168273ffffffffffffffffffffffffffffffffffffffff1614155b62000a82576040517f08c379a000000000000000000000000000000000000000000000000000000000815260040162000a799062001783565b60405180910390fd5b600073ffffffffffffffffffffffffffffffffffffffff16600160008673ffffffffffffffffffffffffffffffffffffffff1673ffffffffffffffffffffffffffffffffffffffff16815260200190815260200160002060008473ffffffffffffffffffffffffffffffffffffffff1673ffffffffffffffffffffffffffffffffffffffff16815260200190815260200160002060009054906101000a900473ffffffffffffffffffffffffffffffffffffffff1673ffffffffffffffffffffffffffffffffffffffff161462000b90576040517f08c379a000000000000000000000000000000000000000000000000000000000815260040162000b8790620017f5565b60405180910390fd5b8360028660405162000ba3919062001477565b908152602001604051809103902060006101000a81548173ffffffffffffffffffffffffffffffffffffffff021916908373ffffffffffffffffffffffffffffffffffffffff1602179055508160028460405162000c02919062001477565b908152602001604051809103902060006101000a81548173ffffffffffffffffffffffffffffffffffffffff021916908373ffffffffffffffffffffffffffffffffffffffff16021790555060008585858562000c5e6200088b565b3060405162000c6d9062000fe8565b62000c7e9695949392919062001817565b604051809103906000f08015801562000c9b573d6000803e3d6000fd5b509050809150600073ffffffffffffffffffffffffffffffffffffffff168273ffffffffffffffffffffffffffffffffffffffff160362000cdb57600080fd5b81600160008773ffffffffffffffffffffffffffffffffffffffff1673ffffffffffffffffffffffffffffffffffffffff16815260200190815260200160002060008573ffffffffffffffffffffffffffffffffffffffff1673ffffffffffffffffffffffffffffffffffffffff16815260200190815260200160002060006101000a81548173ffffffffffffffffffffffffffffffffffffffff021916908373ffffffffffffffffffffffffffffffffffffffff16021790555081600160008573ffffffffffffffffffffffffffffffffffffffff1673ffffffffffffffffffffffffffffffffffffffff16815260200190815260200160002060008773ffffffffffffffffffffffffffffffffffffffff1673ffffffffffffffffffffffffffffffffffffffff16815260200190815260200160002060006101000a81548173ffffffffffffffffffffffffffffffffffffffff021916908373ffffffffffffffffffffffffffffffffffffffff1602179055507f3109015f676a65f2cfa0d3f348e787f391dba12b29b66141cb61295da1a984b882878660405162000e869392919062001892565b60405180910390a150949350505050565b62000ea162000fe0565b73ffffffffffffffffffffffffffffffffffffffff1662000ec16200088b565b73ffffffffffffffffffffffffffffffffffffffff161462000f1a576040517f08c379a000000000000000000000000000000000000000000000000000000000815260040162000f11906200192d565b60405180910390fd5b565b60008060009054906101000a900473ffffffffffffffffffffffffffffffffffffffff169050816000806101000a81548173ffffffffffffffffffffffffffffffffffffffff021916908373ffffffffffffffffffffffffffffffffffffffff1602179055508173ffffffffffffffffffffffffffffffffffffffff168173ffffffffffffffffffffffffffffffffffffffff167f8be0079c531659141344cd1fd0a4f28419497f9722a3daafe3b4186f6b6457e060405160405180910390a35050565b600033905090565b614560806200195083390190565b6000604051905090565b600080fd5b600080fd5b600080fd5b600080fd5b6000601f19601f8301169050919050565b7f4e487b7100000000000000000000000000000000000000000000000000000000600052604160045260246000fd5b6200105f8262001014565b810181811067ffffffffffffffff8211171562001081576200108062001025565b5b80604052505050565b60006200109662000ff6565b9050620010a4828262001054565b919050565b600067ffffffffffffffff821115620010c757620010c662001025565b5b620010d28262001014565b9050602081019050919050565b82818337600083830152505050565b600062001105620010ff84620010a9565b6200108a565b9050828152602081018484840111156200112457620011236200100f565b5b62001131848285620010df565b509392505050565b600082601f8301126200115157620011506200100a565b5b813562001163848260208601620010ee565b91505092915050565b6000806040838503121562001186576200118562001000565b5b600083013567ffffffffffffffff811115620011a757620011a662001005565b5b620011b58582860162001139565b925050602083013567ffffffffffffffff811115620011d957620011d862001005565b5b620011e78582860162001139565b9150509250929050565b600073ffffffffffffffffffffffffffffffffffffffff82169050919050565b60006200121e82620011f1565b9050919050565b620012308162001211565b82525050565b60006020820190506200124d600083018462001225565b92915050565b6000602082840312156200126c576200126b62001000565b5b600082013567ffffffffffffffff8111156200128d576200128c62001005565b5b6200129b8482850162001139565b91505092915050565b620012af8162001211565b8114620012bb57600080fd5b50565b600081359050620012cf81620012a4565b92915050565b60008060408385031215620012ef57620012ee62001000565b5b6000620012ff85828601620012be565b92505060206200131285828601620012be565b9150509250929050565b60006020828403121562001335576200133462001000565b5b60006200134584828501620012be565b91505092915050565b600080600080608085870312156200136b576200136a62001000565b5b600085013567ffffffffffffffff8111156200138c576200138b62001005565b5b6200139a8782880162001139565b9450506020620013ad87828801620012be565b935050604085013567ffffffffffffffff811115620013d157620013d062001005565b5b620013df8782880162001139565b9250506060620013f287828801620012be565b91505092959194509250565b600081519050919050565b600081905092915050565b60005b838110156200143457808201518184015260208101905062001417565b60008484015250505050565b60006200144d82620013fe565b62001459818562001409565b93506200146b81856020860162001414565b80840191505092915050565b600062001485828462001440565b915081905092915050565b600082825260208201905092915050565b7f496e76616c696420696e70757400000000000000000000000000000000000000600082015250565b6000620014d9600d8362001490565b9150620014e682620014a1565b602082019050919050565b600060208201905081810360008301526200150c81620014ca565b9050919050565b60008115159050919050565b6200152a8162001513565b82525050565b60006200153d82620013fe565b62001549818562001490565b93506200155b81856020860162001414565b620015668162001014565b840191505092915050565b60006060820190506200158860008301866200151f565b81810360208301526200159c818562001530565b90508181036040830152620015b2818462001530565b9050949350505050565b6000819050919050565b620015d181620015bc565b8114620015dd57600080fd5b50565b600081519050620015f181620015c6565b92915050565b60006020828403121562001610576200160f62001000565b5b60006200162084828501620015e0565b91505092915050565b7f4e656564206174206c656173742031356b2067414e4e41000000000000000000600082015250565b60006200166160178362001490565b91506200166e8262001629565b602082019050919050565b60006020820190508181036000830152620016948162001652565b9050919050565b7f4f776e61626c653a206e6577206f776e657220697320746865207a65726f206160008201527f6464726573730000000000000000000000000000000000000000000000000000602082015250565b6000620016f960268362001490565b915062001706826200169b565b604082019050919050565b600060208201905081810360008301526200172c81620016ea565b9050919050565b7f496e76616c696420616464726573730000000000000000000000000000000000600082015250565b60006200176b600f8362001490565b9150620017788262001733565b602082019050919050565b600060208201905081810360008301526200179e816200175c565b9050919050565b7f416c726561647920657869737473000000000000000000000000000000000000600082015250565b6000620017dd600e8362001490565b9150620017ea82620017a5565b602082019050919050565b600060208201905081810360008301526200181081620017ce565b9050919050565b600060c082019050818103600083015262001833818962001530565b905062001844602083018862001225565b818103604083015262001858818762001530565b905062001869606083018662001225565b62001878608083018562001225565b6200188760a083018462001225565b979650505050505050565b6000606082019050620018a9600083018662001225565b8181036020830152620018bd818562001530565b90508181036040830152620018d3818462001530565b9050949350505050565b7f4f776e61626c653a2063616c6c6572206973206e6f7420746865206f776e6572600082015250565b60006200191560208362001490565b91506200192282620018dd565b602082019050919050565b60006020820190508181036000830152620019488162001906565b905091905056fe60c06040526103de600a553480156200001757600080fd5b50604051620045603803806200456083398181016040528101906200003d9190620004a1565b6040518060400160405280600781526020017f4c5020414e4e41000000000000000000000000000000000000000000000000008152506040518060400160405280600681526020017f6c70414e4e4100000000000000000000000000000000000000000000000000008152508160039081620000ba9190620007c6565b508060049081620000cc9190620007c6565b5050508560059081620000e09190620007c6565b508360069081620000f29190620007c6565b50846009600560405162000107919062000947565b908152602001604051809103902060006101000a81548173ffffffffffffffffffffffffffffffffffffffff021916908373ffffffffffffffffffffffffffffffffffffffff160217905550826009600660405162000167919062000947565b908152602001604051809103902060006101000a81548173ffffffffffffffffffffffffffffffffffffffff021916908373ffffffffffffffffffffffffffffffffffffffff1602179055508473ffffffffffffffffffffffffffffffffffffffff1660808173ffffffffffffffffffffffffffffffffffffffff16815250508273ffffffffffffffffffffffffffffffffffffffff1660a08173ffffffffffffffffffffffffffffffffffffffff168152505081600860006101000a81548173ffffffffffffffffffffffffffffffffffffffff021916908373ffffffffffffffffffffffffffffffffffffffff16021790555080600760006101000a81548173ffffffffffffffffffffffffffffffffffffffff021916908373ffffffffffffffffffffffffffffffffffffffff16021790555050505050505062000960565b6000604051905090565b600080fd5b600080fd5b600080fd5b600080fd5b6000601f19601f8301169050919050565b7f4e487b7100000000000000000000000000000000000000000000000000000000600052604160045260246000fd5b6200031282620002c7565b810181811067ffffffffffffffff82111715620003345762000333620002d8565b5b80604052505050565b600062000349620002a9565b905062000357828262000307565b919050565b600067ffffffffffffffff8211156200037a5762000379620002d8565b5b6200038582620002c7565b9050602081019050919050565b60005b83811015620003b257808201518184015260208101905062000395565b60008484015250505050565b6000620003d5620003cf846200035c565b6200033d565b905082815260208101848484011115620003f457620003f3620002c2565b5b6200040184828562000392565b509392505050565b600082601f830112620004215762000420620002bd565b5b815162000433848260208601620003be565b91505092915050565b600073ffffffffffffffffffffffffffffffffffffffff82169050919050565b600062000469826200043c565b9050919050565b6200047b816200045c565b81146200048757600080fd5b50565b6000815190506200049b8162000470565b92915050565b60008060008060008060c08789031215620004c157620004c0620002b3565b5b600087015167ffffffffffffffff811115620004e257620004e1620002b8565b5b620004f089828a0162000409565b96505060206200050389828a016200048a565b955050604087015167ffffffffffffffff811115620005275762000526620002b8565b5b6200053589828a0162000409565b94505060606200054889828a016200048a565b93505060806200055b89828a016200048a565b92505060a06200056e89828a016200048a565b9150509295509295509295565b600081519050919050565b7f4e487b7100000000000000000000000000000000000000000000000000000000600052602260045260246000fd5b60006002820490506001821680620005ce57607f821691505b602082108103620005e457620005e362000586565b5b50919050565b60008190508160005260206000209050919050565b60006020601f8301049050919050565b600082821b905092915050565b6000600883026200064e7fffffffffffffffffffffffffffffffffffffffffffffffffffffffffffffffff826200060f565b6200065a86836200060f565b95508019841693508086168417925050509392505050565b6000819050919050565b6000819050919050565b6000620006a7620006a16200069b8462000672565b6200067c565b62000672565b9050919050565b6000819050919050565b620006c38362000686565b620006db620006d282620006ae565b8484546200061c565b825550505050565b600090565b620006f2620006e3565b620006ff818484620006b8565b505050565b5b8181101562000727576200071b600082620006e8565b60018101905062000705565b5050565b601f82111562000776576200074081620005ea565b6200074b84620005ff565b810160208510156200075b578190505b620007736200076a85620005ff565b83018262000704565b50505b505050565b600082821c905092915050565b60006200079b600019846008026200077b565b1980831691505092915050565b6000620007b6838362000788565b9150826002028217905092915050565b620007d1826200057b565b67ffffffffffffffff811115620007ed57620007ec620002d8565b5b620007f98254620005b5565b620008068282856200072b565b600060209050601f8311600181146200083e576000841562000829578287015190505b620008358582620007a8565b865550620008a5565b601f1984166200084e86620005ea565b60005b82811015620008785784890151825560018201915060208501945060208101905062000851565b8683101562000898578489015162000894601f89168262000788565b8355505b6001600288020188555050505b505050505050565b600081905092915050565b60008154620008c781620005b5565b620008d38186620008ad565b94506001821660008114620008f1576001811462000907576200093e565b60ff19831686528115158202860193506200093e565b6200091285620005ea565b60005b83811015620009365781548189015260018201915060208101905062000915565b838801955050505b50505092915050565b6000620009558284620008b8565b915081905092915050565b60805160a051613bb0620009b0600039600081816106ba01528181610de5015261193701526000818161061b01528181610c8b01528181610cea01528181610e44015261189d0152613bb06000f3fe608060405234801561001057600080fd5b50600436106101735760003560e01c806373eb29b6116100de57806395d89b4111610097578063a457c2d711610071578063a457c2d71461047d578063a9059cbb146104ad578063dd62ed3e146104dd578063f63a428d1461050d57610173565b806395d89b41146104135780639d456b62146104315780639f1f11411461044d57610173565b806373eb29b614610349578063797e7a481461037b5780637a9ba3c71461039b5780637c39e87c146103b9578063804bd515146103d75780638da5cb5b146103f557610173565b806336555b851161013057806336555b8514610262578063395093511461029257806341c0e1b5146102c25780634c5f2f7d146102cc57806369fe0e2d146102fd57806370a082311461031957610173565b806306fdde0314610178578063095ea7b31461019657806318160ddd146101c65780632230c1df146101e457806323b872dd14610214578063313ce56714610244575b600080fd5b61018061053e565b60405161018d9190612932565b60405180910390f35b6101b060048036038101906101ab91906129fc565b6105d0565b6040516101bd9190612a57565b60405180910390f35b6101ce6105f3565b6040516101db9190612a81565b60405180910390f35b6101fe60048036038101906101f99190612a9c565b6105fd565b60405161020b9190612a57565b60405180910390f35b61022e60048036038101906102299190612ac9565b61079b565b60405161023b9190612a57565b60405180910390f35b61024c6107ca565b6040516102599190612b38565b60405180910390f35b61027c60048036038101906102779190612c88565b6107d3565b6040516102899190612a81565b60405180910390f35b6102ac60048036038101906102a791906129fc565b610bc2565b6040516102b99190612a57565b60405180910390f35b6102ca610bf9565b005b6102e660048036038101906102e19190612c88565b610f78565b6040516102f4929190612ce4565b60405180910390f35b61031760048036038101906103129190612a9c565b611381565b005b610333600480360381019061032e9190612d14565b61146e565b6040516103409190612a81565b60405180910390f35b610363600480360381019061035e9190612c88565b6114b6565b60405161037293929190612d41565b60405180910390f35b610383611896565b60405161039293929190612d7f565b60405180910390f35b6103a36119e2565b6040516103b09190612932565b60405180910390f35b6103c1611a70565b6040516103ce9190612dc5565b60405180910390f35b6103df611a96565b6040516103ec9190612932565b60405180910390f35b6103fd611b24565b60405161040a9190612dc5565b60405180910390f35b61041b611b4a565b6040516104289190612932565b60405180910390f35b61044b60048036038101906104469190612c88565b611bdc565b005b61046760048036038101906104629190612de0565b611db0565b6040516104749190612dc5565b60405180910390f35b610497600480360381019061049291906129fc565b611df9565b6040516104a49190612a57565b60405180910390f35b6104c760048036038101906104c291906129fc565b611e70565b6040516104d49190612a57565b60405180910390f35b6104f760048036038101906104f29190612e29565b611e93565b6040516105049190612a81565b60405180910390f35b61052760048036038101906105229190612a9c565b611f1a565b604051610535929190612e69565b60405180910390f35b60606003805461054d90612ec1565b80601f016020809104026020016040519081016040528092919081815260200182805461057990612ec1565b80156105c65780601f1061059b576101008083540402835291602001916105c6565b820191906000526020600020905b8154815290600101906020018083116105a957829003601f168201915b5050505050905090565b6000806105db611ff5565b90506105e8818585611ffd565b600191505092915050565b6000600254905090565b600080600061060b84611f1a565b9150915061061933856121c6565b7f000000000000000000000000000000000000000000000000000000000000000073ffffffffffffffffffffffffffffffffffffffff1663a9059cbb33846040518363ffffffff1660e01b8152600401610674929190612ef2565b6020604051808303816000875af1158015610693573d6000803e3d6000fd5b505050506040513d601f19601f820116820180604052508101906106b79190612f47565b507f000000000000000000000000000000000000000000000000000000000000000073ffffffffffffffffffffffffffffffffffffffff1663a9059cbb33836040518363ffffffff1660e01b8152600401610713929190612ef2565b6020604051808303816000875af1158015610732573d6000803e3d6000fd5b505050506040513d601f19601f820116820180604052508101906107569190612f47565b507f891a225a2e445dc07e203803f2cae64fba9c8a163c7c7d3b2b7b7f68655e0be93385604051610788929190612ef2565b60405180910390a1600192505050919050565b6000806107a6611ff5565b90506107b3858285612393565b6107be85858561241f565b60019150509392505050565b60006012905090565b6000806000806107e386866114b6565b9250925092506000851180156107f95750600082115b610838576040517f08c379a000000000000000000000000000000000000000000000000000000000815260040161082f90612fc0565b60405180910390fd5b81600984604051610849919061301c565b908152602001604051809103902060009054906101000a900473ffffffffffffffffffffffffffffffffffffffff1673ffffffffffffffffffffffffffffffffffffffff166370a08231336040518263ffffffff1660e01b81526004016108b09190612dc5565b602060405180830381865afa1580156108cd573d6000803e3d6000fd5b505050506040513d601f19601f820116820180604052508101906108f19190613048565b101580156109b657508460098760405161090b919061301c565b908152602001604051809103902060009054906101000a900473ffffffffffffffffffffffffffffffffffffffff1673ffffffffffffffffffffffffffffffffffffffff166370a08231336040518263ffffffff1660e01b81526004016109729190612dc5565b602060405180830381865afa15801561098f573d6000803e3d6000fd5b505050506040513d601f19601f820116820180604052508101906109b39190613048565b10155b6109f5576040517f08c379a00000000000000000000000000000000000000000000000000000000081526004016109ec906130c1565b60405180910390fd5b600983604051610a05919061301c565b908152602001604051809103902060009054906101000a900473ffffffffffffffffffffffffffffffffffffffff1673ffffffffffffffffffffffffffffffffffffffff166323b872dd3330886040518463ffffffff1660e01b8152600401610a70939291906130e1565b6020604051808303816000875af1158015610a8f573d6000803e3d6000fd5b505050506040513d601f19601f82011682018060405250810190610ab39190612f47565b50600986604051610ac4919061301c565b908152602001604051809103902060009054906101000a900473ffffffffffffffffffffffffffffffffffffffff1673ffffffffffffffffffffffffffffffffffffffff166323b872dd3330886040518463ffffffff1660e01b8152600401610b2f939291906130e1565b6020604051808303816000875af1158015610b4e573d6000803e3d6000fd5b505050506040513d601f19601f82011682018060405250810190610b729190612f47565b50610b7d3382612695565b7f2728c9d3205d667bbc0eefdfeda366261b4d021949630c047f3e5834b30611ab3382604051610bae929190612ef2565b60405180910390a180935050505092915050565b600080610bcd611ff5565b9050610bee818585610bdf8589611e93565b610be99190613147565b611ffd565b600191505092915050565b600760009054906101000a900473ffffffffffffffffffffffffffffffffffffffff1673ffffffffffffffffffffffffffffffffffffffff163373ffffffffffffffffffffffffffffffffffffffff1614610c89576040517f08c379a0000000000000000000000000000000000000000000000000000000008152600401610c80906131c7565b60405180910390fd5b7f000000000000000000000000000000000000000000000000000000000000000073ffffffffffffffffffffffffffffffffffffffff1663a9059cbb600860009054906101000a900473ffffffffffffffffffffffffffffffffffffffff167f000000000000000000000000000000000000000000000000000000000000000073ffffffffffffffffffffffffffffffffffffffff166370a08231306040518263ffffffff1660e01b8152600401610d419190612dc5565b602060405180830381865afa158015610d5e573d6000803e3d6000fd5b505050506040513d601f19601f82011682018060405250810190610d829190613048565b6040518363ffffffff1660e01b8152600401610d9f929190612ef2565b6020604051808303816000875af1158015610dbe573d6000803e3d6000fd5b505050506040513d601f19601f82011682018060405250810190610de29190612f47565b507f000000000000000000000000000000000000000000000000000000000000000073ffffffffffffffffffffffffffffffffffffffff1663a9059cbb600860009054906101000a900473ffffffffffffffffffffffffffffffffffffffff167f000000000000000000000000000000000000000000000000000000000000000073ffffffffffffffffffffffffffffffffffffffff166370a08231306040518263ffffffff1660e01b8152600401610e9b9190612dc5565b602060405180830381865afa158015610eb8573d6000803e3d6000fd5b505050506040513d601f19601f82011682018060405250810190610edc9190613048565b6040518363ffffffff1660e01b8152600401610ef9929190612ef2565b6020604051808303816000875af1158015610f18573d6000803e3d6000fd5b505050506040513d601f19601f82011682018060405250810190610f3c9190612f47565b50600860009054906101000a900473ffffffffffffffffffffffffffffffffffffffff1673ffffffffffffffffffffffffffffffffffffffff16ff5b6060600080600080610f88611896565b92509250925060008111610fd1576040517f08c379a0000000000000000000000000000000000000000000000000000000008152600401610fc890613233565b60405180910390fd5b85600988604051610fe2919061301c565b908152602001604051809103902060009054906101000a900473ffffffffffffffffffffffffffffffffffffffff1673ffffffffffffffffffffffffffffffffffffffff166370a08231336040518263ffffffff1660e01b81526004016110499190612dc5565b602060405180830381865afa158015611066573d6000803e3d6000fd5b505050506040513d601f19601f8201168201806040525081019061108a9190613048565b10156110cb576040517f08c379a00000000000000000000000000000000000000000000000000000000081526004016110c2906130c1565b60405180910390fd5b61115f87600680546110dc90612ec1565b80601f016020809104026020016040519081016040528092919081815260200182805461110890612ec1565b80156111555780601f1061112a57610100808354040283529160200191611155565b820191906000526020600020905b81548152906001019060200180831161113857829003601f168201915b50505050506127eb565b15611203576005805461117190612ec1565b80601f016020809104026020016040519081016040528092919081815260200182805461119d90612ec1565b80156111ea5780601f106111bf576101008083540402835291602001916111ea565b820191906000526020600020905b8154815290600101906020018083116111cd57829003601f168201915b505050505094506111fc868385612844565b9350611377565b611297876005805461121490612ec1565b80601f016020809104026020016040519081016040528092919081815260200182805461124090612ec1565b801561128d5780601f106112625761010080835404028352916020019161128d565b820191906000526020600020905b81548152906001019060200180831161127057829003601f168201915b50505050506127eb565b1561133b57600680546112a990612ec1565b80601f01602080910402602001604051908101604052809291908181526020018280546112d590612ec1565b80156113225780601f106112f757610100808354040283529160200191611322565b820191906000526020600020905b81548152906001019060200180831161130557829003601f168201915b50505050509450611334868484612844565b9350611376565b6040517f08c379a000000000000000000000000000000000000000000000000000000000815260040161136d9061329f565b60405180910390fd5b5b5050509250929050565b6101f4811015801561139557506103e88111155b6113d4576040517f08c379a00000000000000000000000000000000000000000000000000000000081526004016113cb90613331565b60405180910390fd5b600860009054906101000a900473ffffffffffffffffffffffffffffffffffffffff1673ffffffffffffffffffffffffffffffffffffffff163373ffffffffffffffffffffffffffffffffffffffff1614611464576040517f08c379a000000000000000000000000000000000000000000000000000000000815260040161145b9061339d565b60405180910390fd5b80600a8190555050565b60008060008373ffffffffffffffffffffffffffffffffffffffff1673ffffffffffffffffffffffffffffffffffffffff168152602001908152602001600020549050919050565b606060008060008060006114c8611896565b92509250925061156288600580546114df90612ec1565b80601f016020809104026020016040519081016040528092919081815260200182805461150b90612ec1565b80156115585780601f1061152d57610100808354040283529160200191611558565b820191906000526020600020905b81548152906001019060200180831161153b57829003601f168201915b50505050506127eb565b1561168f576006805461157490612ec1565b80601f01602080910402602001604051908101604052809291908181526020018280546115a090612ec1565b80156115ed5780601f106115c2576101008083540402835291602001916115ed565b820191906000526020600020905b8154815290600101906020018083116115d057829003601f168201915b5050505050955060008111156116835760008311801561160d5750600082115b61164c576040517f08c379a000000000000000000000000000000000000000000000000000000000815260040161164390613409565b60405180910390fd5b8282886116599190613429565b611663919061349a565b94508287826116729190613429565b61167c919061349a565b935061168a565b8693508694505b61188c565b61172388600680546116a090612ec1565b80601f01602080910402602001604051908101604052809291908181526020018280546116cc90612ec1565b80156117195780601f106116ee57610100808354040283529160200191611719565b820191906000526020600020905b8154815290600101906020018083116116fc57829003601f168201915b50505050506127eb565b15611850576005805461173590612ec1565b80601f016020809104026020016040519081016040528092919081815260200182805461176190612ec1565b80156117ae5780601f10611783576101008083540402835291602001916117ae565b820191906000526020600020905b81548152906001019060200180831161179157829003601f168201915b505050505095506000811115611844576000831180156117ce5750600082115b61180d576040517f08c379a000000000000000000000000000000000000000000000000000000000815260040161180490613409565b60405180910390fd5b81838861181a9190613429565b611824919061349a565b94508187826118339190613429565b61183d919061349a565b935061184b565b8693508694505b61188b565b6040517f08c379a000000000000000000000000000000000000000000000000000000000815260040161188290613517565b60405180910390fd5b5b5050509250925092565b60008060007f000000000000000000000000000000000000000000000000000000000000000073ffffffffffffffffffffffffffffffffffffffff166370a08231306040518263ffffffff1660e01b81526004016118f49190612dc5565b602060405180830381865afa158015611911573d6000803e3d6000fd5b505050506040513d601f19601f820116820180604052508101906119359190613048565b7f000000000000000000000000000000000000000000000000000000000000000073ffffffffffffffffffffffffffffffffffffffff166370a08231306040518263ffffffff1660e01b815260040161198e9190612dc5565b602060405180830381865afa1580156119ab573d6000803e3d6000fd5b505050506040513d601f19601f820116820180604052508101906119cf9190613048565b6119d76105f3565b925092509250909192565b600680546119ef90612ec1565b80601f0160208091040260200160405190810160405280929190818152602001828054611a1b90612ec1565b8015611a685780601f10611a3d57610100808354040283529160200191611a68565b820191906000526020600020905b815481529060010190602001808311611a4b57829003601f168201915b505050505081565b600760009054906101000a900473ffffffffffffffffffffffffffffffffffffffff1681565b60058054611aa390612ec1565b80601f0160208091040260200160405190810160405280929190818152602001828054611acf90612ec1565b8015611b1c5780601f10611af157610100808354040283529160200191611b1c565b820191906000526020600020905b815481529060010190602001808311611aff57829003601f168201915b505050505081565b600860009054906101000a900473ffffffffffffffffffffffffffffffffffffffff1681565b606060048054611b5990612ec1565b80601f0160208091040260200160405190810160405280929190818152602001828054611b8590612ec1565b8015611bd25780601f10611ba757610100808354040283529160200191611bd2565b820191906000526020600020905b815481529060010190602001808311611bb557829003601f168201915b5050505050905090565b600080611be98484610f78565b91509150600984604051611bfd919061301c565b908152602001604051809103902060009054906101000a900473ffffffffffffffffffffffffffffffffffffffff1673ffffffffffffffffffffffffffffffffffffffff166323b872dd3330866040518463ffffffff1660e01b8152600401611c68939291906130e1565b6020604051808303816000875af1158015611c87573d6000803e3d6000fd5b505050506040513d601f19601f82011682018060405250810190611cab9190612f47565b50600982604051611cbc919061301c565b908152602001604051809103902060009054906101000a900473ffffffffffffffffffffffffffffffffffffffff1673ffffffffffffffffffffffffffffffffffffffff1663a9059cbb33836040518363ffffffff1660e01b8152600401611d25929190612ef2565b6020604051808303816000875af1158015611d44573d6000803e3d6000fd5b505050506040513d601f19601f82011682018060405250810190611d689190612f47565b507f90df67ddcf7e83b94b98d1c0f29f35c177b4290ee3a87c9b435e197b95e2b2ec338585858542604051611da296959493929190613537565b60405180910390a150505050565b6009818051602081018201805184825260208301602085012081835280955050505050506000915054906101000a900473ffffffffffffffffffffffffffffffffffffffff1681565b600080611e04611ff5565b90506000611e128286611e93565b905083811015611e57576040517f08c379a0000000000000000000000000000000000000000000000000000000008152600401611e4e90613618565b60405180910390fd5b611e648286868403611ffd565b60019250505092915050565b600080611e7b611ff5565b9050611e8881858561241f565b600191505092915050565b6000600160008473ffffffffffffffffffffffffffffffffffffffff1673ffffffffffffffffffffffffffffffffffffffff16815260200190815260200160002060008373ffffffffffffffffffffffffffffffffffffffff1673ffffffffffffffffffffffffffffffffffffffff16815260200190815260200160002054905092915050565b6000806000806000611f2a611896565b925092509250611f393361146e565b861115611f7b576040517f08c379a0000000000000000000000000000000000000000000000000000000008152600401611f7290613684565b60405180910390fd5b6000816103e8611f8b9190613429565b84600a5489611f9a9190613429565b611fa49190613429565b611fae919061349a565b90506000826103e8611fc09190613429565b84600a548a611fcf9190613429565b611fd99190613429565b611fe3919061349a565b90508181965096505050505050915091565b600033905090565b600073ffffffffffffffffffffffffffffffffffffffff168373ffffffffffffffffffffffffffffffffffffffff160361206c576040517f08c379a000000000000000000000000000000000000000000000000000000000815260040161206390613716565b60405180910390fd5b600073ffffffffffffffffffffffffffffffffffffffff168273ffffffffffffffffffffffffffffffffffffffff16036120db576040517f08c379a00000000000000000000000000000000000000000000000000000000081526004016120d2906137a8565b60405180910390fd5b80600160008573ffffffffffffffffffffffffffffffffffffffff1673ffffffffffffffffffffffffffffffffffffffff16815260200190815260200160002060008473ffffffffffffffffffffffffffffffffffffffff1673ffffffffffffffffffffffffffffffffffffffff168152602001908152602001600020819055508173ffffffffffffffffffffffffffffffffffffffff168373ffffffffffffffffffffffffffffffffffffffff167f8c5be1e5ebec7d5bd14f71427d1e84f3dd0314c0f7b2291e5b200ac8c7c3b925836040516121b99190612a81565b60405180910390a3505050565b600073ffffffffffffffffffffffffffffffffffffffff168273ffffffffffffffffffffffffffffffffffffffff1603612235576040517f08c379a000000000000000000000000000000000000000000000000000000000815260040161222c9061383a565b60405180910390fd5b61224182600083612898565b60008060008473ffffffffffffffffffffffffffffffffffffffff1673ffffffffffffffffffffffffffffffffffffffff168152602001908152602001600020549050818110156122c7576040517f08c379a00000000000000000000000000000000000000000000000000000000081526004016122be906138cc565b60405180910390fd5b8181036000808573ffffffffffffffffffffffffffffffffffffffff1673ffffffffffffffffffffffffffffffffffffffff1681526020019081526020016000208190555081600260008282540392505081905550600073ffffffffffffffffffffffffffffffffffffffff168373ffffffffffffffffffffffffffffffffffffffff167fddf252ad1be2c89b69c2b068fc378daa952ba7f163c4a11628f55a4df523b3ef8460405161237a9190612a81565b60405180910390a361238e8360008461289d565b505050565b600061239f8484611e93565b90507fffffffffffffffffffffffffffffffffffffffffffffffffffffffffffffffff8114612419578181101561240b576040517f08c379a000000000000000000000000000000000000000000000000000000000815260040161240290613938565b60405180910390fd5b6124188484848403611ffd565b5b50505050565b600073ffffffffffffffffffffffffffffffffffffffff168373ffffffffffffffffffffffffffffffffffffffff160361248e576040517f08c379a0000000000000000000000000000000000000000000000000000000008152600401612485906139ca565b60405180910390fd5b600073ffffffffffffffffffffffffffffffffffffffff168273ffffffffffffffffffffffffffffffffffffffff16036124fd576040517f08c379a00000000000000000000000000000000000000000000000000000000081526004016124f490613a5c565b60405180910390fd5b612508838383612898565b60008060008573ffffffffffffffffffffffffffffffffffffffff1673ffffffffffffffffffffffffffffffffffffffff1681526020019081526020016000205490508181101561258e576040517f08c379a000000000000000000000000000000000000000000000000000000000815260040161258590613aee565b60405180910390fd5b8181036000808673ffffffffffffffffffffffffffffffffffffffff1673ffffffffffffffffffffffffffffffffffffffff16815260200190815260200160002081905550816000808573ffffffffffffffffffffffffffffffffffffffff1673ffffffffffffffffffffffffffffffffffffffff168152602001908152602001600020600082825401925050819055508273ffffffffffffffffffffffffffffffffffffffff168473ffffffffffffffffffffffffffffffffffffffff167fddf252ad1be2c89b69c2b068fc378daa952ba7f163c4a11628f55a4df523b3ef8460405161267c9190612a81565b60405180910390a361268f84848461289d565b50505050565b600073ffffffffffffffffffffffffffffffffffffffff168273ffffffffffffffffffffffffffffffffffffffff1603612704576040517f08c379a00000000000000000000000000000000000000000000000000000000081526004016126fb90613b5a565b60405180910390fd5b61271060008383612898565b80600260008282546127229190613147565b92505081905550806000808473ffffffffffffffffffffffffffffffffffffffff1673ffffffffffffffffffffffffffffffffffffffff168152602001908152602001600020600082825401925050819055508173ffffffffffffffffffffffffffffffffffffffff16600073ffffffffffffffffffffffffffffffffffffffff167fddf252ad1be2c89b69c2b068fc378daa952ba7f163c4a11628f55a4df523b3ef836040516127d39190612a81565b60405180910390a36127e76000838361289d565b5050565b6000816040516020016127fe919061301c565b6040516020818303038152906040528051906020012083604051602001612825919061301c565b6040516020818303038152906040528051906020012014905092915050565b6000600a54846128549190613429565b836103e86128629190613429565b61286c9190613147565b82600a548661287b9190613429565b6128859190613429565b61288f919061349a565b90509392505050565b505050565b505050565b600081519050919050565b600082825260208201905092915050565b60005b838110156128dc5780820151818401526020810190506128c1565b60008484015250505050565b6000601f19601f8301169050919050565b6000612904826128a2565b61290e81856128ad565b935061291e8185602086016128be565b612927816128e8565b840191505092915050565b6000602082019050818103600083015261294c81846128f9565b905092915050565b6000604051905090565b600080fd5b600080fd5b600073ffffffffffffffffffffffffffffffffffffffff82169050919050565b600061299382612968565b9050919050565b6129a381612988565b81146129ae57600080fd5b50565b6000813590506129c08161299a565b92915050565b6000819050919050565b6129d9816129c6565b81146129e457600080fd5b50565b6000813590506129f6816129d0565b92915050565b60008060408385031215612a1357612a1261295e565b5b6000612a21858286016129b1565b9250506020612a32858286016129e7565b9150509250929050565b60008115159050919050565b612a5181612a3c565b82525050565b6000602082019050612a6c6000830184612a48565b92915050565b612a7b816129c6565b82525050565b6000602082019050612a966000830184612a72565b92915050565b600060208284031215612ab257612ab161295e565b5b6000612ac0848285016129e7565b91505092915050565b600080600060608486031215612ae257612ae161295e565b5b6000612af0868287016129b1565b9350506020612b01868287016129b1565b9250506040612b12868287016129e7565b9150509250925092565b600060ff82169050919050565b612b3281612b1c565b82525050565b6000602082019050612b4d6000830184612b29565b92915050565b600080fd5b600080fd5b7f4e487b7100000000000000000000000000000000000000000000000000000000600052604160045260246000fd5b612b95826128e8565b810181811067ffffffffffffffff82111715612bb457612bb3612b5d565b5b80604052505050565b6000612bc7612954565b9050612bd38282612b8c565b919050565b600067ffffffffffffffff821115612bf357612bf2612b5d565b5b612bfc826128e8565b9050602081019050919050565b82818337600083830152505050565b6000612c2b612c2684612bd8565b612bbd565b905082815260208101848484011115612c4757612c46612b58565b5b612c52848285612c09565b509392505050565b600082601f830112612c6f57612c6e612b53565b5b8135612c7f848260208601612c18565b91505092915050565b60008060408385031215612c9f57612c9e61295e565b5b600083013567ffffffffffffffff811115612cbd57612cbc612963565b5b612cc985828601612c5a565b9250506020612cda858286016129e7565b9150509250929050565b60006040820190508181036000830152612cfe81856128f9565b9050612d0d6020830184612a72565b9392505050565b600060208284031215612d2a57612d2961295e565b5b6000612d38848285016129b1565b91505092915050565b60006060820190508181036000830152612d5b81866128f9565b9050612d6a6020830185612a72565b612d776040830184612a72565b949350505050565b6000606082019050612d946000830186612a72565b612da16020830185612a72565b612dae6040830184612a72565b949350505050565b612dbf81612988565b82525050565b6000602082019050612dda6000830184612db6565b92915050565b600060208284031215612df657612df561295e565b5b600082013567ffffffffffffffff811115612e1457612e13612963565b5b612e2084828501612c5a565b91505092915050565b60008060408385031215612e4057612e3f61295e565b5b6000612e4e858286016129b1565b9250506020612e5f858286016129b1565b9150509250929050565b6000604082019050612e7e6000830185612a72565b612e8b6020830184612a72565b9392505050565b7f4e487b7100000000000000000000000000000000000000000000000000000000600052602260045260246000fd5b60006002820490506001821680612ed957607f821691505b602082108103612eec57612eeb612e92565b5b50919050565b6000604082019050612f076000830185612db6565b612f146020830184612a72565b9392505050565b612f2481612a3c565b8114612f2f57600080fd5b50565b600081519050612f4181612f1b565b92915050565b600060208284031215612f5d57612f5c61295e565b5b6000612f6b84828501612f32565b91505092915050565b7f496e76616c696420696e70757400000000000000000000000000000000000000600082015250565b6000612faa600d836128ad565b9150612fb582612f74565b602082019050919050565b60006020820190508181036000830152612fd981612f9d565b9050919050565b600081905092915050565b6000612ff6826128a2565b6130008185612fe0565b93506130108185602086016128be565b80840191505092915050565b60006130288284612feb565b915081905092915050565b600081519050613042816129d0565b92915050565b60006020828403121561305e5761305d61295e565b5b600061306c84828501613033565b91505092915050565b7f496e73756666696369656e742062616c616e6365000000000000000000000000600082015250565b60006130ab6014836128ad565b91506130b682613075565b602082019050919050565b600060208201905081810360008301526130da8161309e565b9050919050565b60006060820190506130f66000830186612db6565b6131036020830185612db6565b6131106040830184612a72565b949350505050565b7f4e487b7100000000000000000000000000000000000000000000000000000000600052601160045260246000fd5b6000613152826129c6565b915061315d836129c6565b925082820190508082111561317557613174613118565b5b92915050565b7f4e6f7420666163746f7279000000000000000000000000000000000000000000600082015250565b60006131b1600b836128ad565b91506131bc8261317b565b602082019050919050565b600060208201905081810360008301526131e0816131a4565b9050919050565b7f496e61637469766520706f6f6c00000000000000000000000000000000000000600082015250565b600061321d600d836128ad565b9150613228826131e7565b602082019050919050565b6000602082019050818103600083015261324c81613210565b9050919050565b7f496e76616c696420726571756573740000000000000000000000000000000000600082015250565b6000613289600f836128ad565b915061329482613253565b602082019050919050565b600060208201905081810360008301526132b88161327c565b9050919050565b7f4d696e2035303020283530252066656529206d6178203130303020283025206660008201527f6565290000000000000000000000000000000000000000000000000000000000602082015250565b600061331b6023836128ad565b9150613326826132bf565b604082019050919050565b6000602082019050818103600083015261334a8161330e565b9050919050565b7f4e6f74206f776e65720000000000000000000000000000000000000000000000600082015250565b60006133876009836128ad565b915061339282613351565b602082019050919050565b600060208201905081810360008301526133b68161337a565b9050919050565b7f496e73756666696369656e742072657365727665730000000000000000000000600082015250565b60006133f36015836128ad565b91506133fe826133bd565b602082019050919050565b60006020820190508181036000830152613422816133e6565b9050919050565b6000613434826129c6565b915061343f836129c6565b925082820261344d816129c6565b9150828204841483151761346457613463613118565b5b5092915050565b7f4e487b7100000000000000000000000000000000000000000000000000000000600052601260045260246000fd5b60006134a5826129c6565b91506134b0836129c6565b9250826134c0576134bf61346b565b5b828204905092915050565b7f4e6f7420666f756e640000000000000000000000000000000000000000000000600082015250565b60006135016009836128ad565b915061350c826134cb565b602082019050919050565b60006020820190508181036000830152613530816134f4565b9050919050565b600060c08201905061354c6000830189612db6565b818103602083015261355e81886128f9565b905061356d6040830187612a72565b818103606083015261357f81866128f9565b905061358e6080830185612a72565b61359b60a0830184612a72565b979650505050505050565b7f45524332303a2064656372656173656420616c6c6f77616e63652062656c6f7760008201527f207a65726f000000000000000000000000000000000000000000000000000000602082015250565b60006136026025836128ad565b915061360d826135a6565b604082019050919050565b60006020820190508181036000830152613631816135f5565b9050919050565b7f496e76616c696420616d6f756e74000000000000000000000000000000000000600082015250565b600061366e600e836128ad565b915061367982613638565b602082019050919050565b6000602082019050818103600083015261369d81613661565b9050919050565b7f45524332303a20617070726f76652066726f6d20746865207a65726f2061646460008201527f7265737300000000000000000000000000000000000000000000000000000000602082015250565b60006137006024836128ad565b915061370b826136a4565b604082019050919050565b6000602082019050818103600083015261372f816136f3565b9050919050565b7f45524332303a20617070726f766520746f20746865207a65726f20616464726560008201527f7373000000000000000000000000000000000000000000000000000000000000602082015250565b60006137926022836128ad565b915061379d82613736565b604082019050919050565b600060208201905081810360008301526137c181613785565b9050919050565b7f45524332303a206275726e2066726f6d20746865207a65726f2061646472657360008201527f7300000000000000000000000000000000000000000000000000000000000000602082015250565b60006138246021836128ad565b915061382f826137c8565b604082019050919050565b6000602082019050818103600083015261385381613817565b9050919050565b7f45524332303a206275726e20616d6f756e7420657863656564732062616c616e60008201527f6365000000000000000000000000000000000000000000000000000000000000602082015250565b60006138b66022836128ad565b91506138c18261385a565b604082019050919050565b600060208201905081810360008301526138e5816138a9565b9050919050565b7f45524332303a20696e73756666696369656e7420616c6c6f77616e6365000000600082015250565b6000613922601d836128ad565b915061392d826138ec565b602082019050919050565b6000602082019050818103600083015261395181613915565b9050919050565b7f45524332303a207472616e736665722066726f6d20746865207a65726f20616460008201527f6472657373000000000000000000000000000000000000000000000000000000602082015250565b60006139b46025836128ad565b91506139bf82613958565b604082019050919050565b600060208201905081810360008301526139e3816139a7565b9050919050565b7f45524332303a207472616e7366657220746f20746865207a65726f206164647260008201527f6573730000000000000000000000000000000000000000000000000000000000602082015250565b6000613a466023836128ad565b9150613a51826139ea565b604082019050919050565b60006020820190508181036000830152613a7581613a39565b9050919050565b7f45524332303a207472616e7366657220616d6f756e742065786365656473206260008201527f616c616e63650000000000000000000000000000000000000000000000000000602082015250565b6000613ad86026836128ad565b9150613ae382613a7c565b604082019050919050565b60006020820190508181036000830152613b0781613acb565b9050919050565b7f45524332303a206d696e7420746f20746865207a65726f206164647265737300600082015250565b6000613b44601f836128ad565b9150613b4f82613b0e565b602082019050919050565b60006020820190508181036000830152613b7381613b37565b905091905056fea26469706673582212206d5fa1651cee2cf68f48b9d344b22c4d74e5317f48ffbeb082c8cbb2f49c6cd664736f6c63430008110033a26469706673582212209db377937b08f2b2979096b2e31828fa8c21f97afb697dd0958baf09ca99ced164736f6c63430008110033",
  "linkReferences": {},
  "deployedLinkReferences": {}
}