{
  "_format": "hh-sol-artifact-1",
  "contractName": "Investments",
  "sourceName": "contracts/Investments.sol",
  "abi": [
    {
      "inputs": [
        {
          "internalType": "address",
          "name": "_annaAddress",
          "type": "address"
        },
        {
          "internalType": "address",
          "name": "_loveAddress",
          "type": "address"
        }
      ],
      "stateMutability": "nonpayable",
      "type": "constructor"
    },
    {
      "anonymous": false,
      "inputs": [
        {
          "indexed": false,
          "internalType": "address",
          "name": "",
          "type": "address"
        },
        {
          "indexed": false,
          "internalType": "uint256",
          "name": "",
          "type": "uint256"
        },
        {
          "indexed": false,
          "internalType": "uint256",
          "name": "",
          "type": "uint256"
        }
      ],
      "name": "Bought",
      "type": "event"
    },
    {
      "anonymous": false,
      "inputs": [
        {
          "indexed": false,
          "internalType": "address",
          "name": "",
          "type": "address"
        },
        {
          "indexed": false,
          "internalType": "uint256",
          "name": "",
          "type": "uint256"
        },
        {
          "indexed": false,
          "internalType": "uint256",
          "name": "",
          "type": "uint256"
        }
      ],
      "name": "Claimed",
      "type": "event"
    },
    {
      "anonymous": false,
      "inputs": [
        {
          "indexed": true,
          "internalType": "address",
          "name": "previousOwner",
          "type": "address"
        },
        {
          "indexed": true,
          "internalType": "address",
          "name": "newOwner",
          "type": "address"
        }
      ],
      "name": "OwnershipTransferred",
      "type": "event"
    },
    {
      "anonymous": false,
      "inputs": [
        {
          "indexed": false,
          "internalType": "address",
          "name": "",
          "type": "address"
        },
        {
          "indexed": false,
          "internalType": "uint256",
          "name": "",
          "type": "uint256"
        },
        {
          "indexed": false,
          "internalType": "uint256",
          "name": "",
          "type": "uint256"
        }
      ],
      "name": "Sold",
      "type": "event"
    },
    {
      "inputs": [],
      "name": "Anna",
      "outputs": [
        {
          "internalType": "contract IERC20",
          "name": "",
          "type": "address"
        }
      ],
      "stateMutability": "view",
      "type": "function"
    },
    {
      "inputs": [],
      "name": "Love",
      "outputs": [
        {
          "internalType": "contract IERC20",
          "name": "",
          "type": "address"
        }
      ],
      "stateMutability": "view",
      "type": "function"
    },
    {
      "inputs": [
        {
          "internalType": "uint256",
          "name": "_amount",
          "type": "uint256"
        }
      ],
      "name": "addFunds",
      "outputs": [],
      "stateMutability": "nonpayable",
      "type": "function"
    },
    {
      "inputs": [
        {
          "internalType": "uint256",
          "name": "_pid",
          "type": "uint256"
        },
        {
          "internalType": "uint256",
          "name": "_amount",
          "type": "uint256"
        }
      ],
      "name": "buyPool",
      "outputs": [
        {
          "internalType": "bool",
          "name": "",
          "type": "bool"
        }
      ],
      "stateMutability": "nonpayable",
      "type": "function"
    },
    {
      "inputs": [
        {
          "internalType": "uint256",
          "name": "_pid",
          "type": "uint256"
        },
        {
          "internalType": "uint256",
          "name": "_price",
          "type": "uint256"
        },
        {
          "internalType": "uint256",
          "name": "_rewardRate",
          "type": "uint256"
        }
      ],
      "name": "changePool",
      "outputs": [],
      "stateMutability": "nonpayable",
      "type": "function"
    },
    {
      "inputs": [
        {
          "internalType": "uint256",
          "name": "_pid",
          "type": "uint256"
        }
      ],
      "name": "claim",
      "outputs": [
        {
          "internalType": "bool",
          "name": "",
          "type": "bool"
        }
      ],
      "stateMutability": "nonpayable",
      "type": "function"
    },
    {
      "inputs": [],
      "name": "claimOwner",
      "outputs": [],
      "stateMutability": "nonpayable",
      "type": "function"
    },
    {
      "inputs": [],
      "name": "getReserves",
      "outputs": [
        {
          "internalType": "uint256",
          "name": "",
          "type": "uint256"
        }
      ],
      "stateMutability": "view",
      "type": "function"
    },
    {
      "inputs": [
        {
          "internalType": "uint256",
          "name": "_pid",
          "type": "uint256"
        }
      ],
      "name": "getTotalEarnedPerPoolPerAdrl",
      "outputs": [
        {
          "internalType": "uint256",
          "name": "earned",
          "type": "uint256"
        }
      ],
      "stateMutability": "view",
      "type": "function"
    },
    {
      "inputs": [
        {
          "internalType": "uint256",
          "name": "_pid",
          "type": "uint256"
        }
      ],
      "name": "getTotalStakedPerPoolPerAdrl",
      "outputs": [
        {
          "internalType": "uint256",
          "name": "",
          "type": "uint256"
        }
      ],
      "stateMutability": "view",
      "type": "function"
    },
    {
      "inputs": [],
      "name": "kill",
      "outputs": [],
      "stateMutability": "nonpayable",
      "type": "function"
    },
    {
      "inputs": [],
      "name": "owner",
      "outputs": [
        {
          "internalType": "address",
          "name": "",
          "type": "address"
        }
      ],
      "stateMutability": "view",
      "type": "function"
    },
    {
      "inputs": [
        {
          "internalType": "uint256",
          "name": "",
          "type": "uint256"
        }
      ],
      "name": "pools",
      "outputs": [
        {
          "internalType": "uint256",
          "name": "id",
          "type": "uint256"
        },
        {
          "internalType": "uint256",
          "name": "price",
          "type": "uint256"
        },
        {
          "internalType": "uint256",
          "name": "rewardRate",
          "type": "uint256"
        },
        {
          "internalType": "uint256",
          "name": "totalIssued",
          "type": "uint256"
        }
      ],
      "stateMutability": "view",
      "type": "function"
    },
    {
      "inputs": [
        {
          "internalType": "uint256",
          "name": "_amount",
          "type": "uint256"
        }
      ],
      "name": "removeFunds",
      "outputs": [],
      "stateMutability": "nonpayable",
      "type": "function"
    },
    {
      "inputs": [],
      "name": "renounceOwnership",
      "outputs": [],
      "stateMutability": "nonpayable",
      "type": "function"
    },
    {
      "inputs": [
        {
          "internalType": "uint256",
          "name": "_pid",
          "type": "uint256"
        },
        {
          "internalType": "uint256",
          "name": "_amount",
          "type": "uint256"
        }
      ],
      "name": "sellPool",
      "outputs": [
        {
          "internalType": "bool",
          "name": "",
          "type": "bool"
        }
      ],
      "stateMutability": "nonpayable",
      "type": "function"
    },
    {
      "inputs": [
        {
          "internalType": "address",
          "name": "newOwner",
          "type": "address"
        }
      ],
      "name": "transferOwnership",
      "outputs": [],
      "stateMutability": "nonpayable",
      "type": "function"
    }
  ],
  "bytecode": "0x60806040523480156200001157600080fd5b506040516200296238038062002962833981810160405281019062000037919062000472565b620000576200004b6200033c60201b60201c565b6200034460201b60201c565b6001808190555081600260006101000a81548173ffffffffffffffffffffffffffffffffffffffff021916908373ffffffffffffffffffffffffffffffffffffffff16021790555080600360006101000a81548173ffffffffffffffffffffffffffffffffffffffff021916908373ffffffffffffffffffffffffffffffffffffffff16021790555060006004600060058110620000fa57620000f9620004b9565b5b6007020160000181905550670de0b6b3a76400006004600060058110620001265762000125620004b9565b5b60070201600101819055506103e860046000600581106200014c576200014b620004b9565b5b600702016002018190555060016004600160058110620001715762000170620004b9565b5b6007020160000181905550678ac7230489e8000060046001600581106200019d576200019c620004b9565b5b60070201600101819055506109c46004600160058110620001c357620001c2620004b9565b5b600702016002018190555060026004600260058110620001e857620001e7620004b9565b5b600702016000018190555068056bc75e2d631000006004600260058110620002155762000214620004b9565b5b600702016001018190555061138860046002600581106200023b576200023a620004b9565b5b60070201600201819055506003600460036005811062000260576200025f620004b9565b5b6007020160000181905550683635c9adc5dea0000060046003600581106200028d576200028c620004b9565b5b6007020160010181905550611d4c6004600360058110620002b357620002b2620004b9565b5b6007020160020181905550600480600460058110620002d757620002d6620004b9565b5b600702016000018190555069021e19e0c9bab240000060048060058110620003045762000303620004b9565b5b600702016001018190555061271060048060058110620003295762000328620004b9565b5b60070201600201819055505050620004e8565b600033905090565b60008060009054906101000a900473ffffffffffffffffffffffffffffffffffffffff169050816000806101000a81548173ffffffffffffffffffffffffffffffffffffffff021916908373ffffffffffffffffffffffffffffffffffffffff1602179055508173ffffffffffffffffffffffffffffffffffffffff168173ffffffffffffffffffffffffffffffffffffffff167f8be0079c531659141344cd1fd0a4f28419497f9722a3daafe3b4186f6b6457e060405160405180910390a35050565b600080fd5b600073ffffffffffffffffffffffffffffffffffffffff82169050919050565b60006200043a826200040d565b9050919050565b6200044c816200042d565b81146200045857600080fd5b50565b6000815190506200046c8162000441565b92915050565b600080604083850312156200048c576200048b62000408565b5b60006200049c858286016200045b565b9250506020620004af858286016200045b565b9150509250929050565b7f4e487b7100000000000000000000000000000000000000000000000000000000600052603260045260246000fd5b61246a80620004f86000396000f3fe608060405234801561001057600080fd5b506004361061010b5760003560e01c80638da5cb5b116100a2578063be99970511610071578063be99970514610297578063c3551746146102b3578063cf67aa67146102d1578063e33973c214610301578063f2fde38b1461031d5761010b565b80638da5cb5b146101e6578063a10a638914610204578063a8b70f0914610234578063ac4afa38146102645761010b565b80633bd1adec116100de5780633bd1adec146101aa57806341c0e1b5146101b4578063715018a6146101be57806386fd3925146101c85761010b565b8063019104e4146101105780630902f1ac146101405780632f3845231461015e578063379607f51461017a575b600080fd5b61012a60048036038101906101259190611b49565b610339565b6040516101379190611ba4565b60405180910390f35b6101486107ca565b6040516101559190611bce565b60405180910390f35b61017860048036038101906101739190611be9565b61086d565b005b610194600480360381019061018f9190611be9565b610a42565b6040516101a19190611ba4565b60405180910390f35b6101b2610ce4565b005b6101bc610dd7565b005b6101c6610f42565b005b6101d0610f56565b6040516101dd9190611c95565b60405180910390f35b6101ee610f7c565b6040516101fb9190611cd1565b60405180910390f35b61021e60048036038101906102199190611be9565b610fa5565b60405161022b9190611bce565b60405180910390f35b61024e60048036038101906102499190611be9565b6110ab565b60405161025b9190611bce565b60405180910390f35b61027e60048036038101906102799190611be9565b61110d565b60405161028e9493929190611cec565b60405180910390f35b6102b160048036038101906102ac9190611be9565b611143565b005b6102bb611236565b6040516102c89190611c95565b60405180910390f35b6102eb60048036038101906102e69190611b49565b61125c565b6040516102f89190611ba4565b60405180910390f35b61031b60048036038101906103169190611d31565b611672565b005b61033760048036038101906103329190611db0565b61172f565b005b6000816000811161037f576040517f08c379a000000000000000000000000000000000000000000000000000000000815260040161037690611e3a565b60405180910390fd5b6103876117b2565b600084101580156103985750600584105b6103d7576040517f08c379a00000000000000000000000000000000000000000000000000000000081526004016103ce90611ea6565b60405180910390fd5b82600485600581106103ec576103eb611ec6565b5b6007020160050160003373ffffffffffffffffffffffffffffffffffffffff1673ffffffffffffffffffffffffffffffffffffffff168152602001908152602001600020541015610472576040517f08c379a000000000000000000000000000000000000000000000000000000000815260040161046990611f41565b60405180910390fd5b6000606460326004876005811061048c5761048b611ec6565b5b60070201600101548661049f9190611f90565b6104a99190611f90565b6104b39190612001565b90506104bf8533611801565b6000600486600581106104d5576104d4611ec6565b5b6007020160060160003373ffffffffffffffffffffffffffffffffffffffff1673ffffffffffffffffffffffffffffffffffffffff16815260200190815260200160002054905060006004876005811061053257610531611ec6565b5b6007020160060160003373ffffffffffffffffffffffffffffffffffffffff1673ffffffffffffffffffffffffffffffffffffffff168152602001908152602001600020819055506105826107ca565b818361058e9190612032565b11156105cf576040517f08c379a00000000000000000000000000000000000000000000000000000000081526004016105c690611f41565b60405180910390fd5b600260009054906101000a900473ffffffffffffffffffffffffffffffffffffffff1673ffffffffffffffffffffffffffffffffffffffff1663a9059cbb33838561061a9190612032565b6040518363ffffffff1660e01b8152600401610637929190612066565b6020604051808303816000875af1158015610656573d6000803e3d6000fd5b505050506040513d601f19601f8201168201806040525081019061067a91906120bb565b5084600487600581106106905761068f611ec6565b5b6007020160030160008282546106a691906120e8565b9250508190555084600487600581106106c2576106c1611ec6565b5b6007020160050160003373ffffffffffffffffffffffffffffffffffffffff1673ffffffffffffffffffffffffffffffffffffffff168152602001908152602001600020600082825461071591906120e8565b9250508190555060006004876005811061073257610731611ec6565b5b6007020160060160003373ffffffffffffffffffffffffffffffffffffffff1673ffffffffffffffffffffffffffffffffffffffff168152602001908152602001600020819055507fbac9694ac0daa55169abd117086fe32c89401d9a3b15dd1d34e55e0aa4e47a9d3387876040516107ad9392919061211c565b60405180910390a16001935050506107c36119bb565b5092915050565b6000600260009054906101000a900473ffffffffffffffffffffffffffffffffffffffff1673ffffffffffffffffffffffffffffffffffffffff166370a08231306040518263ffffffff1660e01b81526004016108279190611cd1565b602060405180830381865afa158015610844573d6000803e3d6000fd5b505050506040513d601f19601f820116820180604052508101906108689190612168565b905090565b6108756119c4565b80600081116108b9576040517f08c379a00000000000000000000000000000000000000000000000000000000081526004016108b090611e3a565b60405180910390fd5b600260009054906101000a900473ffffffffffffffffffffffffffffffffffffffff1673ffffffffffffffffffffffffffffffffffffffff166370a08231306040518263ffffffff1660e01b81526004016109149190611cd1565b602060405180830381865afa158015610931573d6000803e3d6000fd5b505050506040513d601f19601f820116820180604052508101906109559190612168565b8210610996576040517f08c379a000000000000000000000000000000000000000000000000000000000815260040161098d90611e3a565b60405180910390fd5b600260009054906101000a900473ffffffffffffffffffffffffffffffffffffffff1673ffffffffffffffffffffffffffffffffffffffff1663a9059cbb6109dc610f7c565b846040518363ffffffff1660e01b81526004016109fa929190612066565b6020604051808303816000875af1158015610a19573d6000803e3d6000fd5b505050506040513d601f19601f82011682018060405250810190610a3d91906120bb565b505050565b6000610a4c6117b2565b600060048360058110610a6257610a61611ec6565b5b6007020160050160003373ffffffffffffffffffffffffffffffffffffffff1673ffffffffffffffffffffffffffffffffffffffff1681526020019081526020016000205411610ae7576040517f08c379a0000000000000000000000000000000000000000000000000000000008152600401610ade906121e1565b60405180910390fd5b610af18233611801565b600060048360058110610b0757610b06611ec6565b5b6007020160060160003373ffffffffffffffffffffffffffffffffffffffff1673ffffffffffffffffffffffffffffffffffffffff168152602001908152602001600020549050600060048460058110610b6457610b63611ec6565b5b6007020160060160003373ffffffffffffffffffffffffffffffffffffffff1673ffffffffffffffffffffffffffffffffffffffff16815260200190815260200160002081905550610bb46107ca565b811115610bf6576040517f08c379a0000000000000000000000000000000000000000000000000000000008152600401610bed90611f41565b60405180910390fd5b600260009054906101000a900473ffffffffffffffffffffffffffffffffffffffff1673ffffffffffffffffffffffffffffffffffffffff1663a9059cbb33836040518363ffffffff1660e01b8152600401610c53929190612066565b6020604051808303816000875af1158015610c72573d6000803e3d6000fd5b505050506040513d601f19601f82011682018060405250810190610c9691906120bb565b507f987d620f307ff6b94d58743cb7a7509f24071586a77759b77c2d4e29f75a2f9a338483604051610cca9392919061211c565b60405180910390a16001915050610cdf6119bb565b919050565b69021e19e0c9bab2400000600360009054906101000a900473ffffffffffffffffffffffffffffffffffffffff1673ffffffffffffffffffffffffffffffffffffffff166370a08231336040518263ffffffff1660e01b8152600401610d4a9190611cd1565b602060405180830381865afa158015610d67573d6000803e3d6000fd5b505050506040513d601f19601f82011682018060405250810190610d8b9190612168565b1015610dcc576040517f08c379a0000000000000000000000000000000000000000000000000000000008152600401610dc390612273565b60405180910390fd5b610dd533611a42565b565b610ddf6119c4565b600260009054906101000a900473ffffffffffffffffffffffffffffffffffffffff1673ffffffffffffffffffffffffffffffffffffffff1663a9059cbb610e25610f7c565b600260009054906101000a900473ffffffffffffffffffffffffffffffffffffffff1673ffffffffffffffffffffffffffffffffffffffff166370a08231306040518263ffffffff1660e01b8152600401610e809190611cd1565b602060405180830381865afa158015610e9d573d6000803e3d6000fd5b505050506040513d601f19601f82011682018060405250810190610ec19190612168565b6040518363ffffffff1660e01b8152600401610ede929190612066565b6020604051808303816000875af1158015610efd573d6000803e3d6000fd5b505050506040513d601f19601f82011682018060405250810190610f2191906120bb565b50610f2a610f7c565b73ffffffffffffffffffffffffffffffffffffffff16ff5b610f4a6119c4565b610f546000611a42565b565b600360009054906101000a900473ffffffffffffffffffffffffffffffffffffffff1681565b60008060009054906101000a900473ffffffffffffffffffffffffffffffffffffffff16905090565b600064496f4e120060048360058110610fc157610fc0611ec6565b5b6007020160040160003373ffffffffffffffffffffffffffffffffffffffff1673ffffffffffffffffffffffffffffffffffffffff168152602001908152602001600020544261101191906120e8565b6004846005811061102557611024611ec6565b5b60070201600201546004856005811061104157611040611ec6565b5b6007020160050160003373ffffffffffffffffffffffffffffffffffffffff1673ffffffffffffffffffffffffffffffffffffffff168152602001908152602001600020546110909190611f90565b61109a9190611f90565b6110a49190612001565b9050919050565b6000600482600581106110c1576110c0611ec6565b5b6007020160050160003373ffffffffffffffffffffffffffffffffffffffff1673ffffffffffffffffffffffffffffffffffffffff168152602001908152602001600020549050919050565b6004816005811061111d57600080fd5b600702016000915090508060000154908060010154908060020154908060030154905084565b61114b6119c4565b806000811161118f576040517f08c379a000000000000000000000000000000000000000000000000000000000815260040161118690611e3a565b60405180910390fd5b600260009054906101000a900473ffffffffffffffffffffffffffffffffffffffff1673ffffffffffffffffffffffffffffffffffffffff166323b872dd3330856040518463ffffffff1660e01b81526004016111ee93929190612293565b6020604051808303816000875af115801561120d573d6000803e3d6000fd5b505050506040513d601f19601f8201168201806040525081019061123191906120bb565b505050565b600260009054906101000a900473ffffffffffffffffffffffffffffffffffffffff1681565b600081600081116112a2576040517f08c379a000000000000000000000000000000000000000000000000000000000815260040161129990611e3a565b60405180910390fd5b6112aa6117b2565b600084101580156112bb5750600584105b6112fa576040517f08c379a00000000000000000000000000000000000000000000000000000000081526004016112f190611ea6565b60405180910390fd5b6000600485600581106113105761130f611ec6565b5b6007020160010154846113239190611f90565b905080600260009054906101000a900473ffffffffffffffffffffffffffffffffffffffff1673ffffffffffffffffffffffffffffffffffffffff166370a08231336040518263ffffffff1660e01b81526004016113819190611cd1565b602060405180830381865afa15801561139e573d6000803e3d6000fd5b505050506040513d601f19601f820116820180604052508101906113c29190612168565b1015611403576040517f08c379a00000000000000000000000000000000000000000000000000000000081526004016113fa90611f41565b60405180910390fd5b600260009054906101000a900473ffffffffffffffffffffffffffffffffffffffff1673ffffffffffffffffffffffffffffffffffffffff166323b872dd3330846040518463ffffffff1660e01b815260040161146293929190612293565b6020604051808303816000875af1158015611481573d6000803e3d6000fd5b505050506040513d601f19601f820116820180604052508101906114a591906120bb565b506114b08533611801565b6000600486600581106114c6576114c5611ec6565b5b6007020160060160003373ffffffffffffffffffffffffffffffffffffffff1673ffffffffffffffffffffffffffffffffffffffff16815260200190815260200160002054905060006004876005811061152357611522611ec6565b5b6007020160060160003373ffffffffffffffffffffffffffffffffffffffff1673ffffffffffffffffffffffffffffffffffffffff1681526020019081526020016000208190555080856115779190612032565b6004876005811061158b5761158a611ec6565b5b6007020160050160003373ffffffffffffffffffffffffffffffffffffffff1673ffffffffffffffffffffffffffffffffffffffff16815260200190815260200160002060008282546115de9190612032565b9250508190555080856115f19190612032565b6004876005811061160557611604611ec6565b5b60070201600301600082825461161b9190612032565b925050819055507fa9a40dec7a304e5915d11358b968c1e8d365992abf20f82285d1df1b30c8e24c3387876040516116559392919061211c565b60405180910390a160019350505061166b6119bb565b5092915050565b61167a6119c4565b6000831015801561168b5750600583105b6116ca576040517f08c379a00000000000000000000000000000000000000000000000000000000081526004016116c190611ea6565b60405180910390fd5b82600484600581106116df576116de611ec6565b5b600702016000018190555081600484600581106116ff576116fe611ec6565b5b6007020160010181905550806004846005811061171f5761171e611ec6565b5b6007020160020181905550505050565b6117376119c4565b600073ffffffffffffffffffffffffffffffffffffffff168173ffffffffffffffffffffffffffffffffffffffff16036117a6576040517f08c379a000000000000000000000000000000000000000000000000000000000815260040161179d9061233c565b60405180910390fd5b6117af81611a42565b50565b6002600154036117f7576040517f08c379a00000000000000000000000000000000000000000000000000000000081526004016117ee906123a8565b60405180910390fd5b6002600181905550565b64496f4e12006004836005811061181b5761181a611ec6565b5b6007020160040160008373ffffffffffffffffffffffffffffffffffffffff1673ffffffffffffffffffffffffffffffffffffffff168152602001908152602001600020544261186b91906120e8565b6004846005811061187f5761187e611ec6565b5b60070201600201546004856005811061189b5761189a611ec6565b5b6007020160050160008573ffffffffffffffffffffffffffffffffffffffff1673ffffffffffffffffffffffffffffffffffffffff168152602001908152602001600020546118ea9190611f90565b6118f49190611f90565b6118fe9190612001565b6004836005811061191257611911611ec6565b5b6007020160060160008373ffffffffffffffffffffffffffffffffffffffff1673ffffffffffffffffffffffffffffffffffffffff16815260200190815260200160002081905550426004836005811061196f5761196e611ec6565b5b6007020160040160008373ffffffffffffffffffffffffffffffffffffffff1673ffffffffffffffffffffffffffffffffffffffff168152602001908152602001600020819055505050565b60018081905550565b6119cc611b06565b73ffffffffffffffffffffffffffffffffffffffff166119ea610f7c565b73ffffffffffffffffffffffffffffffffffffffff1614611a40576040517f08c379a0000000000000000000000000000000000000000000000000000000008152600401611a3790612414565b60405180910390fd5b565b60008060009054906101000a900473ffffffffffffffffffffffffffffffffffffffff169050816000806101000a81548173ffffffffffffffffffffffffffffffffffffffff021916908373ffffffffffffffffffffffffffffffffffffffff1602179055508173ffffffffffffffffffffffffffffffffffffffff168173ffffffffffffffffffffffffffffffffffffffff167f8be0079c531659141344cd1fd0a4f28419497f9722a3daafe3b4186f6b6457e060405160405180910390a35050565b600033905090565b600080fd5b6000819050919050565b611b2681611b13565b8114611b3157600080fd5b50565b600081359050611b4381611b1d565b92915050565b60008060408385031215611b6057611b5f611b0e565b5b6000611b6e85828601611b34565b9250506020611b7f85828601611b34565b9150509250929050565b60008115159050919050565b611b9e81611b89565b82525050565b6000602082019050611bb96000830184611b95565b92915050565b611bc881611b13565b82525050565b6000602082019050611be36000830184611bbf565b92915050565b600060208284031215611bff57611bfe611b0e565b5b6000611c0d84828501611b34565b91505092915050565b600073ffffffffffffffffffffffffffffffffffffffff82169050919050565b6000819050919050565b6000611c5b611c56611c5184611c16565b611c36565b611c16565b9050919050565b6000611c6d82611c40565b9050919050565b6000611c7f82611c62565b9050919050565b611c8f81611c74565b82525050565b6000602082019050611caa6000830184611c86565b92915050565b6000611cbb82611c16565b9050919050565b611ccb81611cb0565b82525050565b6000602082019050611ce66000830184611cc2565b92915050565b6000608082019050611d016000830187611bbf565b611d0e6020830186611bbf565b611d1b6040830185611bbf565b611d286060830184611bbf565b95945050505050565b600080600060608486031215611d4a57611d49611b0e565b5b6000611d5886828701611b34565b9350506020611d6986828701611b34565b9250506040611d7a86828701611b34565b9150509250925092565b611d8d81611cb0565b8114611d9857600080fd5b50565b600081359050611daa81611d84565b92915050565b600060208284031215611dc657611dc5611b0e565b5b6000611dd484828501611d9b565b91505092915050565b600082825260208201905092915050565b7f496e76616c696420616d6f756e74000000000000000000000000000000000000600082015250565b6000611e24600e83611ddd565b9150611e2f82611dee565b602082019050919050565b60006020820190508181036000830152611e5381611e17565b9050919050565b7f496e76616c696420706f6f6c0000000000000000000000000000000000000000600082015250565b6000611e90600c83611ddd565b9150611e9b82611e5a565b602082019050919050565b60006020820190508181036000830152611ebf81611e83565b9050919050565b7f4e487b7100000000000000000000000000000000000000000000000000000000600052603260045260246000fd5b7f496e73756666696369656e742066756e64730000000000000000000000000000600082015250565b6000611f2b601283611ddd565b9150611f3682611ef5565b602082019050919050565b60006020820190508181036000830152611f5a81611f1e565b9050919050565b7f4e487b7100000000000000000000000000000000000000000000000000000000600052601160045260246000fd5b6000611f9b82611b13565b9150611fa683611b13565b9250828202611fb481611b13565b91508282048414831517611fcb57611fca611f61565b5b5092915050565b7f4e487b7100000000000000000000000000000000000000000000000000000000600052601260045260246000fd5b600061200c82611b13565b915061201783611b13565b92508261202757612026611fd2565b5b828204905092915050565b600061203d82611b13565b915061204883611b13565b92508282019050808211156120605761205f611f61565b5b92915050565b600060408201905061207b6000830185611cc2565b6120886020830184611bbf565b9392505050565b61209881611b89565b81146120a357600080fd5b50565b6000815190506120b58161208f565b92915050565b6000602082840312156120d1576120d0611b0e565b5b60006120df848285016120a6565b91505092915050565b60006120f382611b13565b91506120fe83611b13565b925082820390508181111561211657612115611f61565b5b92915050565b60006060820190506121316000830186611cc2565b61213e6020830185611bbf565b61214b6040830184611bbf565b949350505050565b60008151905061216281611b1d565b92915050565b60006020828403121561217e5761217d611b0e565b5b600061218c84828501612153565b91505092915050565b7f4e6f7468696e67207374616b6564000000000000000000000000000000000000600082015250565b60006121cb600e83611ddd565b91506121d682612195565b602082019050919050565b600060208201905081810360008301526121fa816121be565b9050919050565b7f596f75206e656564206174206c656173742031306b204c4f564520746f20646f60008201527f2074686973000000000000000000000000000000000000000000000000000000602082015250565b600061225d602583611ddd565b915061226882612201565b604082019050919050565b6000602082019050818103600083015261228c81612250565b9050919050565b60006060820190506122a86000830186611cc2565b6122b56020830185611cc2565b6122c26040830184611bbf565b949350505050565b7f4f776e61626c653a206e6577206f776e657220697320746865207a65726f206160008201527f6464726573730000000000000000000000000000000000000000000000000000602082015250565b6000612326602683611ddd565b9150612331826122ca565b604082019050919050565b6000602082019050818103600083015261235581612319565b9050919050565b7f5265656e7472616e637947756172643a207265656e7472616e742063616c6c00600082015250565b6000612392601f83611ddd565b915061239d8261235c565b602082019050919050565b600060208201905081810360008301526123c181612385565b9050919050565b7f4f776e61626c653a2063616c6c6572206973206e6f7420746865206f776e6572600082015250565b60006123fe602083611ddd565b9150612409826123c8565b602082019050919050565b6000602082019050818103600083015261242d816123f1565b905091905056fea2646970667358221220ea55873a2c434d9e14200b7c52d938ed521476a6bb2f817a907867aea982f3f464736f6c63430008110033",
  "linkReferences": {},
  "deployedLinkReferences": {}
}