{
  "_format": "hh-sol-artifact-1",
  "contractName": "Investments",
  "sourceName": "contracts/Investments.sol",
  "abi": [
    {
      "inputs": [
        {
          "internalType": "address",
          "name": "_annaAddress",
          "type": "address"
        },
        {
          "internalType": "address",
          "name": "_loveAddress",
          "type": "address"
        }
      ],
      "stateMutability": "nonpayable",
      "type": "constructor"
    },
    {
      "anonymous": false,
      "inputs": [
        {
          "indexed": false,
          "internalType": "address",
          "name": "",
          "type": "address"
        },
        {
          "indexed": false,
          "internalType": "uint256",
          "name": "",
          "type": "uint256"
        },
        {
          "indexed": false,
          "internalType": "uint256",
          "name": "",
          "type": "uint256"
        }
      ],
      "name": "Bought",
      "type": "event"
    },
    {
      "anonymous": false,
      "inputs": [
        {
          "indexed": false,
          "internalType": "address",
          "name": "",
          "type": "address"
        },
        {
          "indexed": false,
          "internalType": "uint256",
          "name": "",
          "type": "uint256"
        },
        {
          "indexed": false,
          "internalType": "uint256",
          "name": "",
          "type": "uint256"
        }
      ],
      "name": "Claimed",
      "type": "event"
    },
    {
      "anonymous": false,
      "inputs": [
        {
          "indexed": true,
          "internalType": "address",
          "name": "previousOwner",
          "type": "address"
        },
        {
          "indexed": true,
          "internalType": "address",
          "name": "newOwner",
          "type": "address"
        }
      ],
      "name": "OwnershipTransferred",
      "type": "event"
    },
    {
      "anonymous": false,
      "inputs": [
        {
          "indexed": false,
          "internalType": "address",
          "name": "",
          "type": "address"
        },
        {
          "indexed": false,
          "internalType": "uint256",
          "name": "",
          "type": "uint256"
        },
        {
          "indexed": false,
          "internalType": "uint256",
          "name": "",
          "type": "uint256"
        }
      ],
      "name": "Sold",
      "type": "event"
    },
    {
      "inputs": [],
      "name": "Anna",
      "outputs": [
        {
          "internalType": "contract IERC20",
          "name": "",
          "type": "address"
        }
      ],
      "stateMutability": "view",
      "type": "function"
    },
    {
      "inputs": [],
      "name": "Love",
      "outputs": [
        {
          "internalType": "contract IERC20",
          "name": "",
          "type": "address"
        }
      ],
      "stateMutability": "view",
      "type": "function"
    },
    {
      "inputs": [
        {
          "internalType": "uint256",
          "name": "_amount",
          "type": "uint256"
        }
      ],
      "name": "addFunds",
      "outputs": [],
      "stateMutability": "nonpayable",
      "type": "function"
    },
    {
      "inputs": [
        {
          "internalType": "uint256",
          "name": "_pid",
          "type": "uint256"
        },
        {
          "internalType": "uint256",
          "name": "_amount",
          "type": "uint256"
        }
      ],
      "name": "buyPool",
      "outputs": [
        {
          "internalType": "bool",
          "name": "",
          "type": "bool"
        }
      ],
      "stateMutability": "nonpayable",
      "type": "function"
    },
    {
      "inputs": [
        {
          "internalType": "uint256",
          "name": "_pid",
          "type": "uint256"
        },
        {
          "internalType": "uint256",
          "name": "_price",
          "type": "uint256"
        },
        {
          "internalType": "uint256",
          "name": "_rewardRate",
          "type": "uint256"
        }
      ],
      "name": "changePool",
      "outputs": [],
      "stateMutability": "nonpayable",
      "type": "function"
    },
    {
      "inputs": [
        {
          "internalType": "uint256",
          "name": "_pid",
          "type": "uint256"
        }
      ],
      "name": "claim",
      "outputs": [
        {
          "internalType": "bool",
          "name": "",
          "type": "bool"
        }
      ],
      "stateMutability": "nonpayable",
      "type": "function"
    },
    {
      "inputs": [],
      "name": "claimOwner",
      "outputs": [],
      "stateMutability": "nonpayable",
      "type": "function"
    },
    {
      "inputs": [],
      "name": "getReserves",
      "outputs": [
        {
          "internalType": "uint256",
          "name": "",
          "type": "uint256"
        }
      ],
      "stateMutability": "view",
      "type": "function"
    },
    {
      "inputs": [
        {
          "internalType": "uint256",
          "name": "_pid",
          "type": "uint256"
        }
      ],
      "name": "getTotalEarnedPerPoolPerAdrl",
      "outputs": [
        {
          "internalType": "uint256",
          "name": "earned",
          "type": "uint256"
        }
      ],
      "stateMutability": "view",
      "type": "function"
    },
    {
      "inputs": [
        {
          "internalType": "uint256",
          "name": "_pid",
          "type": "uint256"
        }
      ],
      "name": "getTotalStakedPerPoolPerAdrl",
      "outputs": [
        {
          "internalType": "uint256",
          "name": "",
          "type": "uint256"
        }
      ],
      "stateMutability": "view",
      "type": "function"
    },
    {
      "inputs": [],
      "name": "kill",
      "outputs": [],
      "stateMutability": "nonpayable",
      "type": "function"
    },
    {
      "inputs": [],
      "name": "owner",
      "outputs": [
        {
          "internalType": "address",
          "name": "",
          "type": "address"
        }
      ],
      "stateMutability": "view",
      "type": "function"
    },
    {
      "inputs": [
        {
          "internalType": "uint256",
          "name": "",
          "type": "uint256"
        }
      ],
      "name": "pools",
      "outputs": [
        {
          "internalType": "uint256",
          "name": "id",
          "type": "uint256"
        },
        {
          "internalType": "uint256",
          "name": "price",
          "type": "uint256"
        },
        {
          "internalType": "uint256",
          "name": "rewardRate",
          "type": "uint256"
        },
        {
          "internalType": "uint256",
          "name": "totalIssued",
          "type": "uint256"
        }
      ],
      "stateMutability": "view",
      "type": "function"
    },
    {
      "inputs": [
        {
          "internalType": "uint256",
          "name": "_amount",
          "type": "uint256"
        }
      ],
      "name": "removeFunds",
      "outputs": [],
      "stateMutability": "nonpayable",
      "type": "function"
    },
    {
      "inputs": [],
      "name": "renounceOwnership",
      "outputs": [],
      "stateMutability": "nonpayable",
      "type": "function"
    },
    {
      "inputs": [
        {
          "internalType": "uint256",
          "name": "_pid",
          "type": "uint256"
        },
        {
          "internalType": "uint256",
          "name": "_amount",
          "type": "uint256"
        }
      ],
      "name": "sellPool",
      "outputs": [
        {
          "internalType": "bool",
          "name": "",
          "type": "bool"
        }
      ],
      "stateMutability": "nonpayable",
      "type": "function"
    },
    {
      "inputs": [
        {
          "internalType": "address",
          "name": "newOwner",
          "type": "address"
        }
      ],
      "name": "transferOwnership",
      "outputs": [],
      "stateMutability": "nonpayable",
      "type": "function"
    }
  ],
  "bytecode": "0x60806040523480156200001157600080fd5b50604051620028d9380380620028d983398181016040528101906200003791906200044d565b620000576200004b6200031760201b60201c565b6200031f60201b60201c565b6001808190555081600260006101000a81548173ffffffffffffffffffffffffffffffffffffffff021916908373ffffffffffffffffffffffffffffffffffffffff16021790555080600360006101000a81548173ffffffffffffffffffffffffffffffffffffffff021916908373ffffffffffffffffffffffffffffffffffffffff16021790555060006004600060058110620000fa57620000f962000494565b5b6007020160000181905550600160046000600581106200011f576200011e62000494565b5b60070201600101819055506103e8600460006005811062000145576200014462000494565b5b6007020160020181905550600160046001600581106200016a576200016962000494565b5b6007020160000181905550600a60046001600581106200018f576200018e62000494565b5b60070201600101819055506109c46004600160058110620001b557620001b462000494565b5b600702016002018190555060026004600260058110620001da57620001d962000494565b5b600702016000018190555060646004600260058110620001ff57620001fe62000494565b5b6007020160010181905550611388600460026005811062000225576200022462000494565b5b6007020160020181905550600360046003600581106200024a576200024962000494565b5b60070201600001819055506103e8600460036005811062000270576200026f62000494565b5b6007020160010181905550611d4c600460036005811062000296576200029562000494565b5b6007020160020181905550600480600460058110620002ba57620002b962000494565b5b600702016000018190555061271060048060058110620002df57620002de62000494565b5b60070201600101819055506127106004806005811062000304576200030362000494565b5b60070201600201819055505050620004c3565b600033905090565b60008060009054906101000a900473ffffffffffffffffffffffffffffffffffffffff169050816000806101000a81548173ffffffffffffffffffffffffffffffffffffffff021916908373ffffffffffffffffffffffffffffffffffffffff1602179055508173ffffffffffffffffffffffffffffffffffffffff168173ffffffffffffffffffffffffffffffffffffffff167f8be0079c531659141344cd1fd0a4f28419497f9722a3daafe3b4186f6b6457e060405160405180910390a35050565b600080fd5b600073ffffffffffffffffffffffffffffffffffffffff82169050919050565b60006200041582620003e8565b9050919050565b620004278162000408565b81146200043357600080fd5b50565b60008151905062000447816200041c565b92915050565b60008060408385031215620004675762000466620003e3565b5b6000620004778582860162000436565b92505060206200048a8582860162000436565b9150509250929050565b7f4e487b7100000000000000000000000000000000000000000000000000000000600052603260045260246000fd5b61240680620004d36000396000f3fe608060405234801561001057600080fd5b506004361061010b5760003560e01c80638da5cb5b116100a2578063be99970511610071578063be99970514610297578063c3551746146102b3578063cf67aa67146102d1578063e33973c214610301578063f2fde38b1461031d5761010b565b80638da5cb5b146101e6578063a10a638914610204578063a8b70f0914610234578063ac4afa38146102645761010b565b80633bd1adec116100de5780633bd1adec146101aa57806341c0e1b5146101b4578063715018a6146101be57806386fd3925146101c85761010b565b8063019104e4146101105780630902f1ac146101405780632f3845231461015e578063379607f51461017a575b600080fd5b61012a60048036038101906101259190611ae5565b610339565b6040516101379190611b40565b60405180910390f35b610148610766565b6040516101559190611b6a565b60405180910390f35b61017860048036038101906101739190611b85565b610809565b005b610194600480360381019061018f9190611b85565b6109de565b6040516101a19190611b40565b60405180910390f35b6101b2610c80565b005b6101bc610d73565b005b6101c6610ede565b005b6101d0610ef2565b6040516101dd9190611c31565b60405180910390f35b6101ee610f18565b6040516101fb9190611c6d565b60405180910390f35b61021e60048036038101906102199190611b85565b610f41565b60405161022b9190611b6a565b60405180910390f35b61024e60048036038101906102499190611b85565b611047565b60405161025b9190611b6a565b60405180910390f35b61027e60048036038101906102799190611b85565b6110a9565b60405161028e9493929190611c88565b60405180910390f35b6102b160048036038101906102ac9190611b85565b6110df565b005b6102bb6111d2565b6040516102c89190611c31565b60405180910390f35b6102eb60048036038101906102e69190611ae5565b6111f8565b6040516102f89190611b40565b60405180910390f35b61031b60048036038101906103169190611ccd565b61160e565b005b61033760048036038101906103329190611d4c565b6116cb565b005b6000816000811161037f576040517f08c379a000000000000000000000000000000000000000000000000000000000815260040161037690611dd6565b60405180910390fd5b61038761174e565b600084101580156103985750600584105b6103d7576040517f08c379a00000000000000000000000000000000000000000000000000000000081526004016103ce90611e42565b60405180910390fd5b82600485600581106103ec576103eb611e62565b5b6007020160050160003373ffffffffffffffffffffffffffffffffffffffff1673ffffffffffffffffffffffffffffffffffffffff168152602001908152602001600020541015610472576040517f08c379a000000000000000000000000000000000000000000000000000000000815260040161046990611edd565b60405180910390fd5b6000606460326004876005811061048c5761048b611e62565b5b60070201600101548661049f9190611f2c565b6104a99190611f2c565b6104b39190611f9d565b90506104bf853361179d565b6000600486600581106104d5576104d4611e62565b5b6007020160060160003373ffffffffffffffffffffffffffffffffffffffff1673ffffffffffffffffffffffffffffffffffffffff16815260200190815260200160002054905060006004876005811061053257610531611e62565b5b6007020160060160003373ffffffffffffffffffffffffffffffffffffffff1673ffffffffffffffffffffffffffffffffffffffff16815260200190815260200160002081905550610582610766565b818361058e9190611fce565b11156105cf576040517f08c379a00000000000000000000000000000000000000000000000000000000081526004016105c690611edd565b60405180910390fd5b600260009054906101000a900473ffffffffffffffffffffffffffffffffffffffff1673ffffffffffffffffffffffffffffffffffffffff1663a9059cbb33838561061a9190611fce565b6040518363ffffffff1660e01b8152600401610637929190612002565b6020604051808303816000875af1158015610656573d6000803e3d6000fd5b505050506040513d601f19601f8201168201806040525081019061067a9190612057565b5080856106879190611fce565b6004876005811061069b5761069a611e62565b5b6007020160030160008282546106b19190611fce565b925050819055506000600487600581106106ce576106cd611e62565b5b6007020160060160003373ffffffffffffffffffffffffffffffffffffffff1673ffffffffffffffffffffffffffffffffffffffff168152602001908152602001600020819055507fbac9694ac0daa55169abd117086fe32c89401d9a3b15dd1d34e55e0aa4e47a9d33878760405161074993929190612084565b60405180910390a160019350505061075f611957565b5092915050565b6000600260009054906101000a900473ffffffffffffffffffffffffffffffffffffffff1673ffffffffffffffffffffffffffffffffffffffff166370a08231306040518263ffffffff1660e01b81526004016107c39190611c6d565b602060405180830381865afa1580156107e0573d6000803e3d6000fd5b505050506040513d601f19601f8201168201806040525081019061080491906120d0565b905090565b610811611960565b8060008111610855576040517f08c379a000000000000000000000000000000000000000000000000000000000815260040161084c90611dd6565b60405180910390fd5b600260009054906101000a900473ffffffffffffffffffffffffffffffffffffffff1673ffffffffffffffffffffffffffffffffffffffff166370a08231306040518263ffffffff1660e01b81526004016108b09190611c6d565b602060405180830381865afa1580156108cd573d6000803e3d6000fd5b505050506040513d601f19601f820116820180604052508101906108f191906120d0565b8210610932576040517f08c379a000000000000000000000000000000000000000000000000000000000815260040161092990611dd6565b60405180910390fd5b600260009054906101000a900473ffffffffffffffffffffffffffffffffffffffff1673ffffffffffffffffffffffffffffffffffffffff1663a9059cbb610978610f18565b846040518363ffffffff1660e01b8152600401610996929190612002565b6020604051808303816000875af11580156109b5573d6000803e3d6000fd5b505050506040513d601f19601f820116820180604052508101906109d99190612057565b505050565b60006109e861174e565b6000600483600581106109fe576109fd611e62565b5b6007020160050160003373ffffffffffffffffffffffffffffffffffffffff1673ffffffffffffffffffffffffffffffffffffffff1681526020019081526020016000205411610a83576040517f08c379a0000000000000000000000000000000000000000000000000000000008152600401610a7a90612149565b60405180910390fd5b610a8d823361179d565b600060048360058110610aa357610aa2611e62565b5b6007020160060160003373ffffffffffffffffffffffffffffffffffffffff1673ffffffffffffffffffffffffffffffffffffffff168152602001908152602001600020549050600060048460058110610b0057610aff611e62565b5b6007020160060160003373ffffffffffffffffffffffffffffffffffffffff1673ffffffffffffffffffffffffffffffffffffffff16815260200190815260200160002081905550610b50610766565b811115610b92576040517f08c379a0000000000000000000000000000000000000000000000000000000008152600401610b8990611edd565b60405180910390fd5b600260009054906101000a900473ffffffffffffffffffffffffffffffffffffffff1673ffffffffffffffffffffffffffffffffffffffff1663a9059cbb33836040518363ffffffff1660e01b8152600401610bef929190612002565b6020604051808303816000875af1158015610c0e573d6000803e3d6000fd5b505050506040513d601f19601f82011682018060405250810190610c329190612057565b507f987d620f307ff6b94d58743cb7a7509f24071586a77759b77c2d4e29f75a2f9a338483604051610c6693929190612084565b60405180910390a16001915050610c7b611957565b919050565b69021e19e0c9bab2400000600360009054906101000a900473ffffffffffffffffffffffffffffffffffffffff1673ffffffffffffffffffffffffffffffffffffffff166370a08231336040518263ffffffff1660e01b8152600401610ce69190611c6d565b602060405180830381865afa158015610d03573d6000803e3d6000fd5b505050506040513d601f19601f82011682018060405250810190610d2791906120d0565b1015610d68576040517f08c379a0000000000000000000000000000000000000000000000000000000008152600401610d5f906121db565b60405180910390fd5b610d71336119de565b565b610d7b611960565b600260009054906101000a900473ffffffffffffffffffffffffffffffffffffffff1673ffffffffffffffffffffffffffffffffffffffff1663a9059cbb610dc1610f18565b600260009054906101000a900473ffffffffffffffffffffffffffffffffffffffff1673ffffffffffffffffffffffffffffffffffffffff166370a08231306040518263ffffffff1660e01b8152600401610e1c9190611c6d565b602060405180830381865afa158015610e39573d6000803e3d6000fd5b505050506040513d601f19601f82011682018060405250810190610e5d91906120d0565b6040518363ffffffff1660e01b8152600401610e7a929190612002565b6020604051808303816000875af1158015610e99573d6000803e3d6000fd5b505050506040513d601f19601f82011682018060405250810190610ebd9190612057565b50610ec6610f18565b73ffffffffffffffffffffffffffffffffffffffff16ff5b610ee6611960565b610ef060006119de565b565b600360009054906101000a900473ffffffffffffffffffffffffffffffffffffffff1681565b60008060009054906101000a900473ffffffffffffffffffffffffffffffffffffffff16905090565b600064496f4e120060048360058110610f5d57610f5c611e62565b5b6007020160040160003373ffffffffffffffffffffffffffffffffffffffff1673ffffffffffffffffffffffffffffffffffffffff1681526020019081526020016000205442610fad91906121fb565b60048460058110610fc157610fc0611e62565b5b600702016002015460048560058110610fdd57610fdc611e62565b5b6007020160050160003373ffffffffffffffffffffffffffffffffffffffff1673ffffffffffffffffffffffffffffffffffffffff1681526020019081526020016000205461102c9190611f2c565b6110369190611f2c565b6110409190611f9d565b9050919050565b60006004826005811061105d5761105c611e62565b5b6007020160050160003373ffffffffffffffffffffffffffffffffffffffff1673ffffffffffffffffffffffffffffffffffffffff168152602001908152602001600020549050919050565b600481600581106110b957600080fd5b600702016000915090508060000154908060010154908060020154908060030154905084565b6110e7611960565b806000811161112b576040517f08c379a000000000000000000000000000000000000000000000000000000000815260040161112290611dd6565b60405180910390fd5b600260009054906101000a900473ffffffffffffffffffffffffffffffffffffffff1673ffffffffffffffffffffffffffffffffffffffff166323b872dd3330856040518463ffffffff1660e01b815260040161118a9392919061222f565b6020604051808303816000875af11580156111a9573d6000803e3d6000fd5b505050506040513d601f19601f820116820180604052508101906111cd9190612057565b505050565b600260009054906101000a900473ffffffffffffffffffffffffffffffffffffffff1681565b6000816000811161123e576040517f08c379a000000000000000000000000000000000000000000000000000000000815260040161123590611dd6565b60405180910390fd5b61124661174e565b600084101580156112575750600584105b611296576040517f08c379a000000000000000000000000000000000000000000000000000000000815260040161128d90611e42565b60405180910390fd5b6000600485600581106112ac576112ab611e62565b5b6007020160010154846112bf9190611f2c565b905080600260009054906101000a900473ffffffffffffffffffffffffffffffffffffffff1673ffffffffffffffffffffffffffffffffffffffff166370a08231336040518263ffffffff1660e01b815260040161131d9190611c6d565b602060405180830381865afa15801561133a573d6000803e3d6000fd5b505050506040513d601f19601f8201168201806040525081019061135e91906120d0565b101561139f576040517f08c379a000000000000000000000000000000000000000000000000000000000815260040161139690611edd565b60405180910390fd5b600260009054906101000a900473ffffffffffffffffffffffffffffffffffffffff1673ffffffffffffffffffffffffffffffffffffffff166323b872dd3330846040518463ffffffff1660e01b81526004016113fe9392919061222f565b6020604051808303816000875af115801561141d573d6000803e3d6000fd5b505050506040513d601f19601f820116820180604052508101906114419190612057565b5061144c853361179d565b60006004866005811061146257611461611e62565b5b6007020160060160003373ffffffffffffffffffffffffffffffffffffffff1673ffffffffffffffffffffffffffffffffffffffff1681526020019081526020016000205490506000600487600581106114bf576114be611e62565b5b6007020160060160003373ffffffffffffffffffffffffffffffffffffffff1673ffffffffffffffffffffffffffffffffffffffff1681526020019081526020016000208190555080856115139190611fce565b6004876005811061152757611526611e62565b5b6007020160050160003373ffffffffffffffffffffffffffffffffffffffff1673ffffffffffffffffffffffffffffffffffffffff168152602001908152602001600020600082825461157a9190611fce565b92505081905550808561158d9190611fce565b600487600581106115a1576115a0611e62565b5b6007020160030160008282546115b79190611fce565b925050819055507fa9a40dec7a304e5915d11358b968c1e8d365992abf20f82285d1df1b30c8e24c3387876040516115f193929190612084565b60405180910390a1600193505050611607611957565b5092915050565b611616611960565b600083101580156116275750600583105b611666576040517f08c379a000000000000000000000000000000000000000000000000000000000815260040161165d90611e42565b60405180910390fd5b826004846005811061167b5761167a611e62565b5b6007020160000181905550816004846005811061169b5761169a611e62565b5b600702016001018190555080600484600581106116bb576116ba611e62565b5b6007020160020181905550505050565b6116d3611960565b600073ffffffffffffffffffffffffffffffffffffffff168173ffffffffffffffffffffffffffffffffffffffff1603611742576040517f08c379a0000000000000000000000000000000000000000000000000000000008152600401611739906122d8565b60405180910390fd5b61174b816119de565b50565b600260015403611793576040517f08c379a000000000000000000000000000000000000000000000000000000000815260040161178a90612344565b60405180910390fd5b6002600181905550565b64496f4e1200600483600581106117b7576117b6611e62565b5b6007020160040160008373ffffffffffffffffffffffffffffffffffffffff1673ffffffffffffffffffffffffffffffffffffffff168152602001908152602001600020544261180791906121fb565b6004846005811061181b5761181a611e62565b5b60070201600201546004856005811061183757611836611e62565b5b6007020160050160008573ffffffffffffffffffffffffffffffffffffffff1673ffffffffffffffffffffffffffffffffffffffff168152602001908152602001600020546118869190611f2c565b6118909190611f2c565b61189a9190611f9d565b600483600581106118ae576118ad611e62565b5b6007020160060160008373ffffffffffffffffffffffffffffffffffffffff1673ffffffffffffffffffffffffffffffffffffffff16815260200190815260200160002081905550426004836005811061190b5761190a611e62565b5b6007020160040160008373ffffffffffffffffffffffffffffffffffffffff1673ffffffffffffffffffffffffffffffffffffffff168152602001908152602001600020819055505050565b60018081905550565b611968611aa2565b73ffffffffffffffffffffffffffffffffffffffff16611986610f18565b73ffffffffffffffffffffffffffffffffffffffff16146119dc576040517f08c379a00000000000000000000000000000000000000000000000000000000081526004016119d3906123b0565b60405180910390fd5b565b60008060009054906101000a900473ffffffffffffffffffffffffffffffffffffffff169050816000806101000a81548173ffffffffffffffffffffffffffffffffffffffff021916908373ffffffffffffffffffffffffffffffffffffffff1602179055508173ffffffffffffffffffffffffffffffffffffffff168173ffffffffffffffffffffffffffffffffffffffff167f8be0079c531659141344cd1fd0a4f28419497f9722a3daafe3b4186f6b6457e060405160405180910390a35050565b600033905090565b600080fd5b6000819050919050565b611ac281611aaf565b8114611acd57600080fd5b50565b600081359050611adf81611ab9565b92915050565b60008060408385031215611afc57611afb611aaa565b5b6000611b0a85828601611ad0565b9250506020611b1b85828601611ad0565b9150509250929050565b60008115159050919050565b611b3a81611b25565b82525050565b6000602082019050611b556000830184611b31565b92915050565b611b6481611aaf565b82525050565b6000602082019050611b7f6000830184611b5b565b92915050565b600060208284031215611b9b57611b9a611aaa565b5b6000611ba984828501611ad0565b91505092915050565b600073ffffffffffffffffffffffffffffffffffffffff82169050919050565b6000819050919050565b6000611bf7611bf2611bed84611bb2565b611bd2565b611bb2565b9050919050565b6000611c0982611bdc565b9050919050565b6000611c1b82611bfe565b9050919050565b611c2b81611c10565b82525050565b6000602082019050611c466000830184611c22565b92915050565b6000611c5782611bb2565b9050919050565b611c6781611c4c565b82525050565b6000602082019050611c826000830184611c5e565b92915050565b6000608082019050611c9d6000830187611b5b565b611caa6020830186611b5b565b611cb76040830185611b5b565b611cc46060830184611b5b565b95945050505050565b600080600060608486031215611ce657611ce5611aaa565b5b6000611cf486828701611ad0565b9350506020611d0586828701611ad0565b9250506040611d1686828701611ad0565b9150509250925092565b611d2981611c4c565b8114611d3457600080fd5b50565b600081359050611d4681611d20565b92915050565b600060208284031215611d6257611d61611aaa565b5b6000611d7084828501611d37565b91505092915050565b600082825260208201905092915050565b7f496e76616c696420616d6f756e74000000000000000000000000000000000000600082015250565b6000611dc0600e83611d79565b9150611dcb82611d8a565b602082019050919050565b60006020820190508181036000830152611def81611db3565b9050919050565b7f496e76616c696420706f6f6c0000000000000000000000000000000000000000600082015250565b6000611e2c600c83611d79565b9150611e3782611df6565b602082019050919050565b60006020820190508181036000830152611e5b81611e1f565b9050919050565b7f4e487b7100000000000000000000000000000000000000000000000000000000600052603260045260246000fd5b7f496e73756666696369656e742066756e64730000000000000000000000000000600082015250565b6000611ec7601283611d79565b9150611ed282611e91565b602082019050919050565b60006020820190508181036000830152611ef681611eba565b9050919050565b7f4e487b7100000000000000000000000000000000000000000000000000000000600052601160045260246000fd5b6000611f3782611aaf565b9150611f4283611aaf565b9250828202611f5081611aaf565b91508282048414831517611f6757611f66611efd565b5b5092915050565b7f4e487b7100000000000000000000000000000000000000000000000000000000600052601260045260246000fd5b6000611fa882611aaf565b9150611fb383611aaf565b925082611fc357611fc2611f6e565b5b828204905092915050565b6000611fd982611aaf565b9150611fe483611aaf565b9250828201905080821115611ffc57611ffb611efd565b5b92915050565b60006040820190506120176000830185611c5e565b6120246020830184611b5b565b9392505050565b61203481611b25565b811461203f57600080fd5b50565b6000815190506120518161202b565b92915050565b60006020828403121561206d5761206c611aaa565b5b600061207b84828501612042565b91505092915050565b60006060820190506120996000830186611c5e565b6120a66020830185611b5b565b6120b36040830184611b5b565b949350505050565b6000815190506120ca81611ab9565b92915050565b6000602082840312156120e6576120e5611aaa565b5b60006120f4848285016120bb565b91505092915050565b7f4e6f7468696e67207374616b6564000000000000000000000000000000000000600082015250565b6000612133600e83611d79565b915061213e826120fd565b602082019050919050565b6000602082019050818103600083015261216281612126565b9050919050565b7f596f75206e656564206174206c656173742031306b204c4f564520746f20646f60008201527f2074686973000000000000000000000000000000000000000000000000000000602082015250565b60006121c5602583611d79565b91506121d082612169565b604082019050919050565b600060208201905081810360008301526121f4816121b8565b9050919050565b600061220682611aaf565b915061221183611aaf565b925082820390508181111561222957612228611efd565b5b92915050565b60006060820190506122446000830186611c5e565b6122516020830185611c5e565b61225e6040830184611b5b565b949350505050565b7f4f776e61626c653a206e6577206f776e657220697320746865207a65726f206160008201527f6464726573730000000000000000000000000000000000000000000000000000602082015250565b60006122c2602683611d79565b91506122cd82612266565b604082019050919050565b600060208201905081810360008301526122f1816122b5565b9050919050565b7f5265656e7472616e637947756172643a207265656e7472616e742063616c6c00600082015250565b600061232e601f83611d79565b9150612339826122f8565b602082019050919050565b6000602082019050818103600083015261235d81612321565b9050919050565b7f4f776e61626c653a2063616c6c6572206973206e6f7420746865206f776e6572600082015250565b600061239a602083611d79565b91506123a582612364565b602082019050919050565b600060208201905081810360008301526123c98161238d565b905091905056fea2646970667358221220fa073936076ba000f114ae379a39e3edf1c9a8221d3f4734fde4992006af8c4564736f6c63430008110033",
  "linkReferences": {},
  "deployedLinkReferences": {}
}