{
  "_format": "hh-sol-artifact-1",
  "contractName": "Love",
  "sourceName": "contracts/Love.sol",
  "abi": [
    {
      "inputs": [],
      "stateMutability": "nonpayable",
      "type": "constructor"
    },
    {
      "anonymous": false,
      "inputs": [
        {
          "indexed": true,
          "internalType": "address",
          "name": "owner",
          "type": "address"
        },
        {
          "indexed": true,
          "internalType": "address",
          "name": "spender",
          "type": "address"
        },
        {
          "indexed": false,
          "internalType": "uint256",
          "name": "value",
          "type": "uint256"
        }
      ],
      "name": "Approval",
      "type": "event"
    },
    {
      "anonymous": false,
      "inputs": [
        {
          "indexed": true,
          "internalType": "address",
          "name": "to",
          "type": "address"
        },
        {
          "indexed": false,
          "internalType": "uint256",
          "name": "amount",
          "type": "uint256"
        },
        {
          "indexed": false,
          "internalType": "uint256",
          "name": "time",
          "type": "uint256"
        }
      ],
      "name": "BuyOut",
      "type": "event"
    },
    {
      "anonymous": false,
      "inputs": [
        {
          "indexed": true,
          "internalType": "address",
          "name": "to",
          "type": "address"
        },
        {
          "indexed": false,
          "internalType": "uint256",
          "name": "time",
          "type": "uint256"
        }
      ],
      "name": "OwnerChanged",
      "type": "event"
    },
    {
      "anonymous": false,
      "inputs": [
        {
          "indexed": true,
          "internalType": "address",
          "name": "previousOwner",
          "type": "address"
        },
        {
          "indexed": true,
          "internalType": "address",
          "name": "newOwner",
          "type": "address"
        }
      ],
      "name": "OwnershipTransferred",
      "type": "event"
    },
    {
      "anonymous": false,
      "inputs": [
        {
          "indexed": true,
          "internalType": "address",
          "name": "from",
          "type": "address"
        },
        {
          "indexed": true,
          "internalType": "address",
          "name": "to",
          "type": "address"
        },
        {
          "indexed": false,
          "internalType": "uint256",
          "name": "value",
          "type": "uint256"
        }
      ],
      "name": "Transfer",
      "type": "event"
    },
    {
      "anonymous": false,
      "inputs": [
        {
          "indexed": true,
          "internalType": "address",
          "name": "to",
          "type": "address"
        },
        {
          "indexed": false,
          "internalType": "uint256",
          "name": "amount",
          "type": "uint256"
        },
        {
          "indexed": false,
          "internalType": "uint256",
          "name": "time",
          "type": "uint256"
        }
      ],
      "name": "WithdrawalDone",
      "type": "event"
    },
    {
      "stateMutability": "payable",
      "type": "fallback"
    },
    {
      "inputs": [
        {
          "internalType": "address",
          "name": "owner",
          "type": "address"
        },
        {
          "internalType": "address",
          "name": "spender",
          "type": "address"
        }
      ],
      "name": "allowance",
      "outputs": [
        {
          "internalType": "uint256",
          "name": "",
          "type": "uint256"
        }
      ],
      "stateMutability": "view",
      "type": "function"
    },
    {
      "inputs": [
        {
          "internalType": "address",
          "name": "spender",
          "type": "address"
        },
        {
          "internalType": "uint256",
          "name": "amount",
          "type": "uint256"
        }
      ],
      "name": "approve",
      "outputs": [
        {
          "internalType": "bool",
          "name": "",
          "type": "bool"
        }
      ],
      "stateMutability": "nonpayable",
      "type": "function"
    },
    {
      "inputs": [
        {
          "internalType": "address",
          "name": "account",
          "type": "address"
        }
      ],
      "name": "balanceOf",
      "outputs": [
        {
          "internalType": "uint256",
          "name": "",
          "type": "uint256"
        }
      ],
      "stateMutability": "view",
      "type": "function"
    },
    {
      "inputs": [],
      "name": "buyOut",
      "outputs": [],
      "stateMutability": "payable",
      "type": "function"
    },
    {
      "inputs": [],
      "name": "claimOwner",
      "outputs": [],
      "stateMutability": "nonpayable",
      "type": "function"
    },
    {
      "inputs": [],
      "name": "decimals",
      "outputs": [
        {
          "internalType": "uint8",
          "name": "",
          "type": "uint8"
        }
      ],
      "stateMutability": "view",
      "type": "function"
    },
    {
      "inputs": [
        {
          "internalType": "address",
          "name": "spender",
          "type": "address"
        },
        {
          "internalType": "uint256",
          "name": "subtractedValue",
          "type": "uint256"
        }
      ],
      "name": "decreaseAllowance",
      "outputs": [
        {
          "internalType": "bool",
          "name": "",
          "type": "bool"
        }
      ],
      "stateMutability": "nonpayable",
      "type": "function"
    },
    {
      "inputs": [],
      "name": "destruct",
      "outputs": [],
      "stateMutability": "nonpayable",
      "type": "function"
    },
    {
      "inputs": [],
      "name": "getMaxSupply",
      "outputs": [
        {
          "internalType": "uint256",
          "name": "",
          "type": "uint256"
        }
      ],
      "stateMutability": "view",
      "type": "function"
    },
    {
      "inputs": [
        {
          "internalType": "address",
          "name": "spender",
          "type": "address"
        },
        {
          "internalType": "uint256",
          "name": "addedValue",
          "type": "uint256"
        }
      ],
      "name": "increaseAllowance",
      "outputs": [
        {
          "internalType": "bool",
          "name": "",
          "type": "bool"
        }
      ],
      "stateMutability": "nonpayable",
      "type": "function"
    },
    {
      "inputs": [],
      "name": "isLocked",
      "outputs": [
        {
          "internalType": "bool",
          "name": "",
          "type": "bool"
        }
      ],
      "stateMutability": "view",
      "type": "function"
    },
    {
      "inputs": [],
      "name": "maxSupply",
      "outputs": [
        {
          "internalType": "uint256",
          "name": "",
          "type": "uint256"
        }
      ],
      "stateMutability": "view",
      "type": "function"
    },
    {
      "inputs": [],
      "name": "name",
      "outputs": [
        {
          "internalType": "string",
          "name": "",
          "type": "string"
        }
      ],
      "stateMutability": "view",
      "type": "function"
    },
    {
      "inputs": [],
      "name": "owner",
      "outputs": [
        {
          "internalType": "address",
          "name": "",
          "type": "address"
        }
      ],
      "stateMutability": "view",
      "type": "function"
    },
    {
      "inputs": [],
      "name": "price",
      "outputs": [
        {
          "internalType": "uint256",
          "name": "",
          "type": "uint256"
        }
      ],
      "stateMutability": "view",
      "type": "function"
    },
    {
      "inputs": [],
      "name": "renounceOwnership",
      "outputs": [],
      "stateMutability": "nonpayable",
      "type": "function"
    },
    {
      "inputs": [
        {
          "internalType": "uint256",
          "name": "_price",
          "type": "uint256"
        }
      ],
      "name": "setPrice",
      "outputs": [],
      "stateMutability": "nonpayable",
      "type": "function"
    },
    {
      "inputs": [],
      "name": "symbol",
      "outputs": [
        {
          "internalType": "string",
          "name": "",
          "type": "string"
        }
      ],
      "stateMutability": "view",
      "type": "function"
    },
    {
      "inputs": [],
      "name": "totalSupply",
      "outputs": [
        {
          "internalType": "uint256",
          "name": "",
          "type": "uint256"
        }
      ],
      "stateMutability": "view",
      "type": "function"
    },
    {
      "inputs": [
        {
          "internalType": "address",
          "name": "to",
          "type": "address"
        },
        {
          "internalType": "uint256",
          "name": "amount",
          "type": "uint256"
        }
      ],
      "name": "transfer",
      "outputs": [
        {
          "internalType": "bool",
          "name": "",
          "type": "bool"
        }
      ],
      "stateMutability": "nonpayable",
      "type": "function"
    },
    {
      "inputs": [
        {
          "internalType": "address",
          "name": "from",
          "type": "address"
        },
        {
          "internalType": "address",
          "name": "to",
          "type": "address"
        },
        {
          "internalType": "uint256",
          "name": "amount",
          "type": "uint256"
        }
      ],
      "name": "transferFrom",
      "outputs": [
        {
          "internalType": "bool",
          "name": "",
          "type": "bool"
        }
      ],
      "stateMutability": "nonpayable",
      "type": "function"
    },
    {
      "inputs": [
        {
          "internalType": "address",
          "name": "newOwner",
          "type": "address"
        }
      ],
      "name": "transferOwnership",
      "outputs": [],
      "stateMutability": "nonpayable",
      "type": "function"
    },
    {
      "inputs": [],
      "name": "unlock",
      "outputs": [],
      "stateMutability": "nonpayable",
      "type": "function"
    },
    {
      "inputs": [],
      "name": "withdraw",
      "outputs": [],
      "stateMutability": "nonpayable",
      "type": "function"
    },
    {
      "stateMutability": "payable",
      "type": "receive"
    }
  ],
  "bytecode": "0x608060405269065a3fc1a67c6f5c0000600655670de0b6b3a76400006007556000600860006101000a81548160ff0219169083151502179055503480156200004657600080fd5b506040518060400160405280600481526020017f4c6f7665000000000000000000000000000000000000000000000000000000008152506040518060400160405280600481526020017f4c4f5645000000000000000000000000000000000000000000000000000000008152508160039081620000c491906200063e565b508060049081620000d691906200063e565b505050620000f9620000ed6200014c60201b60201c565b6200015460201b60201c565b620001466200010d6200021a60201b60201c565b6200011d6200024460201b60201c565b600a6200012b9190620008b5565b61752f6200013a919062000906565b6200024d60201b60201c565b62000a3d565b600033905090565b6000600560009054906101000a900473ffffffffffffffffffffffffffffffffffffffff16905081600560006101000a81548173ffffffffffffffffffffffffffffffffffffffff021916908373ffffffffffffffffffffffffffffffffffffffff1602179055508173ffffffffffffffffffffffffffffffffffffffff168173ffffffffffffffffffffffffffffffffffffffff167f8be0079c531659141344cd1fd0a4f28419497f9722a3daafe3b4186f6b6457e060405160405180910390a35050565b6000600560009054906101000a900473ffffffffffffffffffffffffffffffffffffffff16905090565b60006012905090565b600073ffffffffffffffffffffffffffffffffffffffff168273ffffffffffffffffffffffffffffffffffffffff1603620002bf576040517f08c379a0000000000000000000000000000000000000000000000000000000008152600401620002b690620009b2565b60405180910390fd5b620002d360008383620003ba60201b60201c565b8060026000828254620002e79190620009d4565b92505081905550806000808473ffffffffffffffffffffffffffffffffffffffff1673ffffffffffffffffffffffffffffffffffffffff168152602001908152602001600020600082825401925050819055508173ffffffffffffffffffffffffffffffffffffffff16600073ffffffffffffffffffffffffffffffffffffffff167fddf252ad1be2c89b69c2b068fc378daa952ba7f163c4a11628f55a4df523b3ef836040516200039a919062000a20565b60405180910390a3620003b660008383620003bf60201b60201c565b5050565b505050565b505050565b600081519050919050565b7f4e487b7100000000000000000000000000000000000000000000000000000000600052604160045260246000fd5b7f4e487b7100000000000000000000000000000000000000000000000000000000600052602260045260246000fd5b600060028204905060018216806200044657607f821691505b6020821081036200045c576200045b620003fe565b5b50919050565b60008190508160005260206000209050919050565b60006020601f8301049050919050565b600082821b905092915050565b600060088302620004c67fffffffffffffffffffffffffffffffffffffffffffffffffffffffffffffffff8262000487565b620004d2868362000487565b95508019841693508086168417925050509392505050565b6000819050919050565b6000819050919050565b60006200051f620005196200051384620004ea565b620004f4565b620004ea565b9050919050565b6000819050919050565b6200053b83620004fe565b620005536200054a8262000526565b84845462000494565b825550505050565b600090565b6200056a6200055b565b6200057781848462000530565b505050565b5b818110156200059f576200059360008262000560565b6001810190506200057d565b5050565b601f821115620005ee57620005b88162000462565b620005c38462000477565b81016020851015620005d3578190505b620005eb620005e28562000477565b8301826200057c565b50505b505050565b600082821c905092915050565b60006200061360001984600802620005f3565b1980831691505092915050565b60006200062e838362000600565b9150826002028217905092915050565b6200064982620003c4565b67ffffffffffffffff811115620006655762000664620003cf565b5b6200067182546200042d565b6200067e828285620005a3565b600060209050601f831160018114620006b65760008415620006a1578287015190505b620006ad858262000620565b8655506200071d565b601f198416620006c68662000462565b60005b82811015620006f057848901518255600182019150602085019450602081019050620006c9565b868310156200071057848901516200070c601f89168262000600565b8355505b6001600288020188555050505b505050505050565b7f4e487b7100000000000000000000000000000000000000000000000000000000600052601160045260246000fd5b60008160011c9050919050565b6000808291508390505b6001851115620007b3578086048111156200078b576200078a62000725565b5b60018516156200079b5780820291505b8081029050620007ab8562000754565b94506200076b565b94509492505050565b600082620007ce5760019050620008a1565b81620007de5760009050620008a1565b8160018114620007f75760028114620008025762000838565b6001915050620008a1565b60ff84111562000817576200081662000725565b5b8360020a91508482111562000831576200083062000725565b5b50620008a1565b5060208310610133831016604e8410600b8410161715620008725782820a9050838111156200086c576200086b62000725565b5b620008a1565b62000881848484600162000761565b925090508184048111156200089b576200089a62000725565b5b81810290505b9392505050565b600060ff82169050919050565b6000620008c282620004ea565b9150620008cf83620008a8565b9250620008fe7fffffffffffffffffffffffffffffffffffffffffffffffffffffffffffffffff8484620007bc565b905092915050565b60006200091382620004ea565b91506200092083620004ea565b92508282026200093081620004ea565b915082820484148315176200094a576200094962000725565b5b5092915050565b600082825260208201905092915050565b7f45524332303a206d696e7420746f20746865207a65726f206164647265737300600082015250565b60006200099a601f8362000951565b9150620009a78262000962565b602082019050919050565b60006020820190508181036000830152620009cd816200098b565b9050919050565b6000620009e182620004ea565b9150620009ee83620004ea565b925082820190508082111562000a095762000a0862000725565b5b92915050565b62000a1a81620004ea565b82525050565b600060208201905062000a37600083018462000a0f565b92915050565b61245c8062000a4d6000396000f3fe60806040526004361061014f5760003560e01c80638da5cb5b116100b6578063a4e2d6341161006f578063a4e2d63414610445578063a69df4b514610470578063a9059cbb14610487578063d5abeb01146104c4578063dd62ed3e146104ef578063f2fde38b1461052c57610156565b80638da5cb5b1461035457806391b7f5ed1461037f57806395d89b41146103a8578063a035b1fe146103d3578063a11f161a146103fe578063a457c2d71461040857610156565b80633950935111610108578063395093511461026a5780633bd1adec146102a75780633ccfd60b146102be5780634c0f38c2146102d557806370a0823114610300578063715018a61461033d57610156565b806306fdde0314610158578063095ea7b31461018357806318160ddd146101c057806323b872dd146101eb5780632b68b9c614610228578063313ce5671461023f57610156565b3661015657005b005b34801561016457600080fd5b5061016d610555565b60405161017a9190611661565b60405180910390f35b34801561018f57600080fd5b506101aa60048036038101906101a5919061171c565b6105e7565b6040516101b79190611777565b60405180910390f35b3480156101cc57600080fd5b506101d561060a565b6040516101e291906117a1565b60405180910390f35b3480156101f757600080fd5b50610212600480360381019061020d91906117bc565b610614565b60405161021f9190611777565b60405180910390f35b34801561023457600080fd5b5061023d610643565b005b34801561024b57600080fd5b5061025461066b565b604051610261919061182b565b60405180910390f35b34801561027657600080fd5b50610291600480360381019061028c919061171c565b610674565b60405161029e9190611777565b60405180910390f35b3480156102b357600080fd5b506102bc6106ab565b005b3480156102ca57600080fd5b506102d36107ca565b005b3480156102e157600080fd5b506102ea61091a565b6040516102f791906117a1565b60405180910390f35b34801561030c57600080fd5b5061032760048036038101906103229190611846565b610924565b60405161033491906117a1565b60405180910390f35b34801561034957600080fd5b5061035261096c565b005b34801561036057600080fd5b50610369610980565b6040516103769190611882565b60405180910390f35b34801561038b57600080fd5b506103a660048036038101906103a1919061189d565b6109aa565b005b3480156103b457600080fd5b506103bd6109bc565b6040516103ca9190611661565b60405180910390f35b3480156103df57600080fd5b506103e8610a4e565b6040516103f591906117a1565b60405180910390f35b610406610a54565b005b34801561041457600080fd5b5061042f600480360381019061042a919061171c565b610c1c565b60405161043c9190611777565b60405180910390f35b34801561045157600080fd5b5061045a610c93565b6040516104679190611777565b60405180910390f35b34801561047c57600080fd5b50610485610ca6565b005b34801561049357600080fd5b506104ae60048036038101906104a9919061171c565b610d27565b6040516104bb9190611777565b60405180910390f35b3480156104d057600080fd5b506104d9610d4a565b6040516104e691906117a1565b60405180910390f35b3480156104fb57600080fd5b50610516600480360381019061051191906118ca565b610d50565b60405161052391906117a1565b60405180910390f35b34801561053857600080fd5b50610553600480360381019061054e9190611846565b610dd7565b005b60606003805461056490611939565b80601f016020809104026020016040519081016040528092919081815260200182805461059090611939565b80156105dd5780601f106105b2576101008083540402835291602001916105dd565b820191906000526020600020905b8154815290600101906020018083116105c057829003601f168201915b5050505050905090565b6000806105f2610e5a565b90506105ff818585610e62565b600191505092915050565b6000600254905090565b60008061061f610e5a565b905061062c85828561102b565b6106378585856110b7565b60019150509392505050565b61064b61132d565b610653610980565b73ffffffffffffffffffffffffffffffffffffffff16ff5b60006012905090565b60008061067f610e5a565b90506106a08185856106918589610d50565b61069b9190611999565b610e62565b600191505092915050565b69021e19e0c9bab24000006106bf33610924565b1015610700576040517f08c379a00000000000000000000000000000000000000000000000000000000081526004016106f790611a3f565b60405180910390fd5b60001515600860009054906101000a900460ff16151514610756576040517f08c379a000000000000000000000000000000000000000000000000000000000815260040161074d90611ad1565b60405180910390fd5b61075f336113ab565b6001600860006101000a81548160ff0219169083151502179055503373ffffffffffffffffffffffffffffffffffffffff167f0f17057c058227955304580e8ad3305c4fff882badabd5340cdc5eb55933f301426040516107c091906117a1565b60405180910390a2565b6107d261132d565b60004790506000811161081a576040517f08c379a000000000000000000000000000000000000000000000000000000000815260040161081190611b63565b60405180910390fd5b60003373ffffffffffffffffffffffffffffffffffffffff168260405161084090611bb4565b60006040518083038185875af1925050503d806000811461087d576040519150601f19603f3d011682016040523d82523d6000602084013e610882565b606091505b50509050806108c6576040517f08c379a00000000000000000000000000000000000000000000000000000000081526004016108bd90611c15565b60405180910390fd5b3373ffffffffffffffffffffffffffffffffffffffff167f05de6288c7d47933a7195ba55a4ebbbdeb6c7ddbc12c83e70d2842254db165c2834260405161090e929190611c35565b60405180910390a25050565b6000600654905090565b60008060008373ffffffffffffffffffffffffffffffffffffffff1673ffffffffffffffffffffffffffffffffffffffff168152602001908152602001600020549050919050565b61097461132d565b61097e60006113ab565b565b6000600560009054906101000a900473ffffffffffffffffffffffffffffffffffffffff16905090565b6109b261132d565b8060078190555050565b6060600480546109cb90611939565b80601f01602080910402602001604051908101604052809291908181526020018280546109f790611939565b8015610a445780601f10610a1957610100808354040283529160200191610a44565b820191906000526020600020905b815481529060010190602001808311610a2757829003601f168201915b5050505050905090565b60075481565b6000600754612710610a669190611c5e565b905080341015610aab576040517f08c379a0000000000000000000000000000000000000000000000000000000008152600401610aa290611d12565b60405180910390fd5b600069021e19e0c9bab240000090506000610ac4610980565b73ffffffffffffffffffffffffffffffffffffffff1667016345785d8a000084610aee9190611d32565b604051610afa90611bb4565b60006040518083038185875af1925050503d8060008114610b37576040519150601f19603f3d011682016040523d82523d6000602084013e610b3c565b606091505b5050905080610b80576040517f08c379a0000000000000000000000000000000000000000000000000000000008152600401610b7790611db2565b60405180910390fd5b610b9c33836fffffffffffffffffffffffffffffffff16611471565b816fffffffffffffffffffffffffffffffff1660066000828254610bc09190611999565b925050819055503373ffffffffffffffffffffffffffffffffffffffff167f9823c61ba42e817a0ba73273d875528a549abe0ba50bc8ce0f7ed5a9fb86c6878342604051610c0f929190611e29565b60405180910390a2505050565b600080610c27610e5a565b90506000610c358286610d50565b905083811015610c7a576040517f08c379a0000000000000000000000000000000000000000000000000000000008152600401610c7190611ec4565b60405180910390fd5b610c878286868403610e62565b60019250505092915050565b600860009054906101000a900460ff1681565b69032d26d12e980b600000610cba33610924565b1015610cfb576040517f08c379a0000000000000000000000000000000000000000000000000000000008152600401610cf290611f56565b60405180910390fd5b600860009054906101000a900460ff1615600860006101000a81548160ff021916908315150217905550565b600080610d32610e5a565b9050610d3f8185856110b7565b600191505092915050565b60065481565b6000600160008473ffffffffffffffffffffffffffffffffffffffff1673ffffffffffffffffffffffffffffffffffffffff16815260200190815260200160002060008373ffffffffffffffffffffffffffffffffffffffff1673ffffffffffffffffffffffffffffffffffffffff16815260200190815260200160002054905092915050565b610ddf61132d565b600073ffffffffffffffffffffffffffffffffffffffff168173ffffffffffffffffffffffffffffffffffffffff1603610e4e576040517f08c379a0000000000000000000000000000000000000000000000000000000008152600401610e4590611fe8565b60405180910390fd5b610e57816113ab565b50565b600033905090565b600073ffffffffffffffffffffffffffffffffffffffff168373ffffffffffffffffffffffffffffffffffffffff1603610ed1576040517f08c379a0000000000000000000000000000000000000000000000000000000008152600401610ec89061207a565b60405180910390fd5b600073ffffffffffffffffffffffffffffffffffffffff168273ffffffffffffffffffffffffffffffffffffffff1603610f40576040517f08c379a0000000000000000000000000000000000000000000000000000000008152600401610f379061210c565b60405180910390fd5b80600160008573ffffffffffffffffffffffffffffffffffffffff1673ffffffffffffffffffffffffffffffffffffffff16815260200190815260200160002060008473ffffffffffffffffffffffffffffffffffffffff1673ffffffffffffffffffffffffffffffffffffffff168152602001908152602001600020819055508173ffffffffffffffffffffffffffffffffffffffff168373ffffffffffffffffffffffffffffffffffffffff167f8c5be1e5ebec7d5bd14f71427d1e84f3dd0314c0f7b2291e5b200ac8c7c3b9258360405161101e91906117a1565b60405180910390a3505050565b60006110378484610d50565b90507fffffffffffffffffffffffffffffffffffffffffffffffffffffffffffffffff81146110b157818110156110a3576040517f08c379a000000000000000000000000000000000000000000000000000000000815260040161109a90612178565b60405180910390fd5b6110b08484848403610e62565b5b50505050565b600073ffffffffffffffffffffffffffffffffffffffff168373ffffffffffffffffffffffffffffffffffffffff1603611126576040517f08c379a000000000000000000000000000000000000000000000000000000000815260040161111d9061220a565b60405180910390fd5b600073ffffffffffffffffffffffffffffffffffffffff168273ffffffffffffffffffffffffffffffffffffffff1603611195576040517f08c379a000000000000000000000000000000000000000000000000000000000815260040161118c9061229c565b60405180910390fd5b6111a08383836115c7565b60008060008573ffffffffffffffffffffffffffffffffffffffff1673ffffffffffffffffffffffffffffffffffffffff16815260200190815260200160002054905081811015611226576040517f08c379a000000000000000000000000000000000000000000000000000000000815260040161121d9061232e565b60405180910390fd5b8181036000808673ffffffffffffffffffffffffffffffffffffffff1673ffffffffffffffffffffffffffffffffffffffff16815260200190815260200160002081905550816000808573ffffffffffffffffffffffffffffffffffffffff1673ffffffffffffffffffffffffffffffffffffffff168152602001908152602001600020600082825401925050819055508273ffffffffffffffffffffffffffffffffffffffff168473ffffffffffffffffffffffffffffffffffffffff167fddf252ad1be2c89b69c2b068fc378daa952ba7f163c4a11628f55a4df523b3ef8460405161131491906117a1565b60405180910390a36113278484846115cc565b50505050565b611335610e5a565b73ffffffffffffffffffffffffffffffffffffffff16611353610980565b73ffffffffffffffffffffffffffffffffffffffff16146113a9576040517f08c379a00000000000000000000000000000000000000000000000000000000081526004016113a09061239a565b60405180910390fd5b565b6000600560009054906101000a900473ffffffffffffffffffffffffffffffffffffffff16905081600560006101000a81548173ffffffffffffffffffffffffffffffffffffffff021916908373ffffffffffffffffffffffffffffffffffffffff1602179055508173ffffffffffffffffffffffffffffffffffffffff168173ffffffffffffffffffffffffffffffffffffffff167f8be0079c531659141344cd1fd0a4f28419497f9722a3daafe3b4186f6b6457e060405160405180910390a35050565b600073ffffffffffffffffffffffffffffffffffffffff168273ffffffffffffffffffffffffffffffffffffffff16036114e0576040517f08c379a00000000000000000000000000000000000000000000000000000000081526004016114d790612406565b60405180910390fd5b6114ec600083836115c7565b80600260008282546114fe9190611999565b92505081905550806000808473ffffffffffffffffffffffffffffffffffffffff1673ffffffffffffffffffffffffffffffffffffffff168152602001908152602001600020600082825401925050819055508173ffffffffffffffffffffffffffffffffffffffff16600073ffffffffffffffffffffffffffffffffffffffff167fddf252ad1be2c89b69c2b068fc378daa952ba7f163c4a11628f55a4df523b3ef836040516115af91906117a1565b60405180910390a36115c3600083836115cc565b5050565b505050565b505050565b600081519050919050565b600082825260208201905092915050565b60005b8381101561160b5780820151818401526020810190506115f0565b60008484015250505050565b6000601f19601f8301169050919050565b6000611633826115d1565b61163d81856115dc565b935061164d8185602086016115ed565b61165681611617565b840191505092915050565b6000602082019050818103600083015261167b8184611628565b905092915050565b600080fd5b600073ffffffffffffffffffffffffffffffffffffffff82169050919050565b60006116b382611688565b9050919050565b6116c3816116a8565b81146116ce57600080fd5b50565b6000813590506116e0816116ba565b92915050565b6000819050919050565b6116f9816116e6565b811461170457600080fd5b50565b600081359050611716816116f0565b92915050565b6000806040838503121561173357611732611683565b5b6000611741858286016116d1565b925050602061175285828601611707565b9150509250929050565b60008115159050919050565b6117718161175c565b82525050565b600060208201905061178c6000830184611768565b92915050565b61179b816116e6565b82525050565b60006020820190506117b66000830184611792565b92915050565b6000806000606084860312156117d5576117d4611683565b5b60006117e3868287016116d1565b93505060206117f4868287016116d1565b925050604061180586828701611707565b9150509250925092565b600060ff82169050919050565b6118258161180f565b82525050565b6000602082019050611840600083018461181c565b92915050565b60006020828403121561185c5761185b611683565b5b600061186a848285016116d1565b91505092915050565b61187c816116a8565b82525050565b60006020820190506118976000830184611873565b92915050565b6000602082840312156118b3576118b2611683565b5b60006118c184828501611707565b91505092915050565b600080604083850312156118e1576118e0611683565b5b60006118ef858286016116d1565b9250506020611900858286016116d1565b9150509250929050565b7f4e487b7100000000000000000000000000000000000000000000000000000000600052602260045260246000fd5b6000600282049050600182168061195157607f821691505b6020821081036119645761196361190a565b5b50919050565b7f4e487b7100000000000000000000000000000000000000000000000000000000600052601160045260246000fd5b60006119a4826116e6565b91506119af836116e6565b92508282019050808211156119c7576119c661196a565b5b92915050565b7f596f75206e656564206174206c656173742031306b204c4f564520746f20646f60008201527f2074686973000000000000000000000000000000000000000000000000000000602082015250565b6000611a296025836115dc565b9150611a34826119cd565b604082019050919050565b60006020820190508181036000830152611a5881611a1c565b9050919050565b7f54686520636f6e7472616374206973206c6f636b65642c20706c65617365207560008201527f6e6c6f636b000000000000000000000000000000000000000000000000000000602082015250565b6000611abb6025836115dc565b9150611ac682611a5f565b604082019050919050565b60006020820190508181036000830152611aea81611aae565b9050919050565b7f4e6f7468696e6720746f2077697468647261773a2074686520636f6e7472616360008201527f742062616c616e636520697320656d7074790000000000000000000000000000602082015250565b6000611b4d6032836115dc565b9150611b5882611af1565b604082019050919050565b60006020820190508181036000830152611b7c81611b40565b9050919050565b600081905092915050565b50565b6000611b9e600083611b83565b9150611ba982611b8e565b600082019050919050565b6000611bbf82611b91565b9150819050919050565b7f4661696c656420746f2077697468647261772066756e64730000000000000000600082015250565b6000611bff6018836115dc565b9150611c0a82611bc9565b602082019050919050565b60006020820190508181036000830152611c2e81611bf2565b9050919050565b6000604082019050611c4a6000830185611792565b611c576020830184611792565b9392505050565b6000611c69826116e6565b9150611c74836116e6565b9250828202611c82816116e6565b91508282048414831517611c9957611c9861196a565b5b5092915050565b7f596f75206e65656420746f2073656e64206174206c656173742031306b20657460008201527f68657220746f20646f2074686973000000000000000000000000000000000000602082015250565b6000611cfc602e836115dc565b9150611d0782611ca0565b604082019050919050565b60006020820190508181036000830152611d2b81611cef565b9050919050565b6000611d3d826116e6565b9150611d48836116e6565b9250828203905081811115611d6057611d5f61196a565b5b92915050565b7f457468207472616e73666572206661696c656400000000000000000000000000600082015250565b6000611d9c6013836115dc565b9150611da782611d66565b602082019050919050565b60006020820190508181036000830152611dcb81611d8f565b9050919050565b60006fffffffffffffffffffffffffffffffff82169050919050565b6000819050919050565b6000611e13611e0e611e0984611dd2565b611dee565b6116e6565b9050919050565b611e2381611df8565b82525050565b6000604082019050611e3e6000830185611e1a565b611e4b6020830184611792565b9392505050565b7f45524332303a2064656372656173656420616c6c6f77616e63652062656c6f7760008201527f207a65726f000000000000000000000000000000000000000000000000000000602082015250565b6000611eae6025836115dc565b9150611eb982611e52565b604082019050919050565b60006020820190508181036000830152611edd81611ea1565b9050919050565b7f596f75206e656564206174206c656173742031356b204c4f564520746f20646f60008201527f2074686973000000000000000000000000000000000000000000000000000000602082015250565b6000611f406025836115dc565b9150611f4b82611ee4565b604082019050919050565b60006020820190508181036000830152611f6f81611f33565b9050919050565b7f4f776e61626c653a206e6577206f776e657220697320746865207a65726f206160008201527f6464726573730000000000000000000000000000000000000000000000000000602082015250565b6000611fd26026836115dc565b9150611fdd82611f76565b604082019050919050565b6000602082019050818103600083015261200181611fc5565b9050919050565b7f45524332303a20617070726f76652066726f6d20746865207a65726f2061646460008201527f7265737300000000000000000000000000000000000000000000000000000000602082015250565b60006120646024836115dc565b915061206f82612008565b604082019050919050565b6000602082019050818103600083015261209381612057565b9050919050565b7f45524332303a20617070726f766520746f20746865207a65726f20616464726560008201527f7373000000000000000000000000000000000000000000000000000000000000602082015250565b60006120f66022836115dc565b91506121018261209a565b604082019050919050565b60006020820190508181036000830152612125816120e9565b9050919050565b7f45524332303a20696e73756666696369656e7420616c6c6f77616e6365000000600082015250565b6000612162601d836115dc565b915061216d8261212c565b602082019050919050565b6000602082019050818103600083015261219181612155565b9050919050565b7f45524332303a207472616e736665722066726f6d20746865207a65726f20616460008201527f6472657373000000000000000000000000000000000000000000000000000000602082015250565b60006121f46025836115dc565b91506121ff82612198565b604082019050919050565b60006020820190508181036000830152612223816121e7565b9050919050565b7f45524332303a207472616e7366657220746f20746865207a65726f206164647260008201527f6573730000000000000000000000000000000000000000000000000000000000602082015250565b60006122866023836115dc565b91506122918261222a565b604082019050919050565b600060208201905081810360008301526122b581612279565b9050919050565b7f45524332303a207472616e7366657220616d6f756e742065786365656473206260008201527f616c616e63650000000000000000000000000000000000000000000000000000602082015250565b60006123186026836115dc565b9150612323826122bc565b604082019050919050565b600060208201905081810360008301526123478161230b565b9050919050565b7f4f776e61626c653a2063616c6c6572206973206e6f7420746865206f776e6572600082015250565b60006123846020836115dc565b915061238f8261234e565b602082019050919050565b600060208201905081810360008301526123b381612377565b9050919050565b7f45524332303a206d696e7420746f20746865207a65726f206164647265737300600082015250565b60006123f0601f836115dc565b91506123fb826123ba565b602082019050919050565b6000602082019050818103600083015261241f816123e3565b905091905056fea2646970667358221220a0adaea418ce4ff1cd73ee08f606948e532d23d290ca2f2cdf99929a306c2af364736f6c63430008110033",
  "linkReferences": {},
  "deployedLinkReferences": {}
}