{
  "_format": "hh-sol-artifact-1",
  "contractName": "Love",
  "sourceName": "contracts/Love.sol",
  "abi": [
    {
      "inputs": [],
      "stateMutability": "nonpayable",
      "type": "constructor"
    },
    {
      "anonymous": false,
      "inputs": [
        {
          "indexed": true,
          "internalType": "address",
          "name": "owner",
          "type": "address"
        },
        {
          "indexed": true,
          "internalType": "address",
          "name": "spender",
          "type": "address"
        },
        {
          "indexed": false,
          "internalType": "uint256",
          "name": "value",
          "type": "uint256"
        }
      ],
      "name": "Approval",
      "type": "event"
    },
    {
      "anonymous": false,
      "inputs": [
        {
          "indexed": true,
          "internalType": "address",
          "name": "to",
          "type": "address"
        },
        {
          "indexed": false,
          "internalType": "uint256",
          "name": "amount",
          "type": "uint256"
        },
        {
          "indexed": false,
          "internalType": "uint256",
          "name": "time",
          "type": "uint256"
        }
      ],
      "name": "BuyOut",
      "type": "event"
    },
    {
      "anonymous": false,
      "inputs": [
        {
          "indexed": true,
          "internalType": "address",
          "name": "to",
          "type": "address"
        },
        {
          "indexed": false,
          "internalType": "uint256",
          "name": "time",
          "type": "uint256"
        }
      ],
      "name": "OwnerChanged",
      "type": "event"
    },
    {
      "anonymous": false,
      "inputs": [
        {
          "indexed": true,
          "internalType": "address",
          "name": "previousOwner",
          "type": "address"
        },
        {
          "indexed": true,
          "internalType": "address",
          "name": "newOwner",
          "type": "address"
        }
      ],
      "name": "OwnershipTransferred",
      "type": "event"
    },
    {
      "anonymous": false,
      "inputs": [
        {
          "indexed": true,
          "internalType": "address",
          "name": "from",
          "type": "address"
        },
        {
          "indexed": true,
          "internalType": "address",
          "name": "to",
          "type": "address"
        },
        {
          "indexed": false,
          "internalType": "uint256",
          "name": "value",
          "type": "uint256"
        }
      ],
      "name": "Transfer",
      "type": "event"
    },
    {
      "anonymous": false,
      "inputs": [
        {
          "indexed": true,
          "internalType": "address",
          "name": "to",
          "type": "address"
        },
        {
          "indexed": false,
          "internalType": "uint256",
          "name": "amount",
          "type": "uint256"
        },
        {
          "indexed": false,
          "internalType": "uint256",
          "name": "time",
          "type": "uint256"
        }
      ],
      "name": "WithdrawalDone",
      "type": "event"
    },
    {
      "stateMutability": "payable",
      "type": "fallback"
    },
    {
      "inputs": [
        {
          "internalType": "address",
          "name": "owner",
          "type": "address"
        },
        {
          "internalType": "address",
          "name": "spender",
          "type": "address"
        }
      ],
      "name": "allowance",
      "outputs": [
        {
          "internalType": "uint256",
          "name": "",
          "type": "uint256"
        }
      ],
      "stateMutability": "view",
      "type": "function"
    },
    {
      "inputs": [
        {
          "internalType": "address",
          "name": "spender",
          "type": "address"
        },
        {
          "internalType": "uint256",
          "name": "amount",
          "type": "uint256"
        }
      ],
      "name": "approve",
      "outputs": [
        {
          "internalType": "bool",
          "name": "",
          "type": "bool"
        }
      ],
      "stateMutability": "nonpayable",
      "type": "function"
    },
    {
      "inputs": [
        {
          "internalType": "address",
          "name": "account",
          "type": "address"
        }
      ],
      "name": "balanceOf",
      "outputs": [
        {
          "internalType": "uint256",
          "name": "",
          "type": "uint256"
        }
      ],
      "stateMutability": "view",
      "type": "function"
    },
    {
      "inputs": [],
      "name": "buyOut",
      "outputs": [],
      "stateMutability": "payable",
      "type": "function"
    },
    {
      "inputs": [],
      "name": "claimOwner",
      "outputs": [],
      "stateMutability": "nonpayable",
      "type": "function"
    },
    {
      "inputs": [],
      "name": "decimals",
      "outputs": [
        {
          "internalType": "uint8",
          "name": "",
          "type": "uint8"
        }
      ],
      "stateMutability": "view",
      "type": "function"
    },
    {
      "inputs": [
        {
          "internalType": "address",
          "name": "spender",
          "type": "address"
        },
        {
          "internalType": "uint256",
          "name": "subtractedValue",
          "type": "uint256"
        }
      ],
      "name": "decreaseAllowance",
      "outputs": [
        {
          "internalType": "bool",
          "name": "",
          "type": "bool"
        }
      ],
      "stateMutability": "nonpayable",
      "type": "function"
    },
    {
      "inputs": [],
      "name": "destruct",
      "outputs": [],
      "stateMutability": "nonpayable",
      "type": "function"
    },
    {
      "inputs": [],
      "name": "getMaxSupply",
      "outputs": [
        {
          "internalType": "uint256",
          "name": "",
          "type": "uint256"
        }
      ],
      "stateMutability": "view",
      "type": "function"
    },
    {
      "inputs": [
        {
          "internalType": "address",
          "name": "spender",
          "type": "address"
        },
        {
          "internalType": "uint256",
          "name": "addedValue",
          "type": "uint256"
        }
      ],
      "name": "increaseAllowance",
      "outputs": [
        {
          "internalType": "bool",
          "name": "",
          "type": "bool"
        }
      ],
      "stateMutability": "nonpayable",
      "type": "function"
    },
    {
      "inputs": [],
      "name": "isLocked",
      "outputs": [
        {
          "internalType": "bool",
          "name": "",
          "type": "bool"
        }
      ],
      "stateMutability": "view",
      "type": "function"
    },
    {
      "inputs": [],
      "name": "maxSupply",
      "outputs": [
        {
          "internalType": "uint256",
          "name": "",
          "type": "uint256"
        }
      ],
      "stateMutability": "view",
      "type": "function"
    },
    {
      "inputs": [],
      "name": "name",
      "outputs": [
        {
          "internalType": "string",
          "name": "",
          "type": "string"
        }
      ],
      "stateMutability": "view",
      "type": "function"
    },
    {
      "inputs": [],
      "name": "owner",
      "outputs": [
        {
          "internalType": "address",
          "name": "",
          "type": "address"
        }
      ],
      "stateMutability": "view",
      "type": "function"
    },
    {
      "inputs": [],
      "name": "price",
      "outputs": [
        {
          "internalType": "uint256",
          "name": "",
          "type": "uint256"
        }
      ],
      "stateMutability": "view",
      "type": "function"
    },
    {
      "inputs": [],
      "name": "renounceOwnership",
      "outputs": [],
      "stateMutability": "nonpayable",
      "type": "function"
    },
    {
      "inputs": [
        {
          "internalType": "uint256",
          "name": "_price",
          "type": "uint256"
        }
      ],
      "name": "setPrice",
      "outputs": [],
      "stateMutability": "nonpayable",
      "type": "function"
    },
    {
      "inputs": [],
      "name": "symbol",
      "outputs": [
        {
          "internalType": "string",
          "name": "",
          "type": "string"
        }
      ],
      "stateMutability": "view",
      "type": "function"
    },
    {
      "inputs": [],
      "name": "totalSupply",
      "outputs": [
        {
          "internalType": "uint256",
          "name": "",
          "type": "uint256"
        }
      ],
      "stateMutability": "view",
      "type": "function"
    },
    {
      "inputs": [
        {
          "internalType": "address",
          "name": "to",
          "type": "address"
        },
        {
          "internalType": "uint256",
          "name": "amount",
          "type": "uint256"
        }
      ],
      "name": "transfer",
      "outputs": [
        {
          "internalType": "bool",
          "name": "",
          "type": "bool"
        }
      ],
      "stateMutability": "nonpayable",
      "type": "function"
    },
    {
      "inputs": [
        {
          "internalType": "address",
          "name": "from",
          "type": "address"
        },
        {
          "internalType": "address",
          "name": "to",
          "type": "address"
        },
        {
          "internalType": "uint256",
          "name": "amount",
          "type": "uint256"
        }
      ],
      "name": "transferFrom",
      "outputs": [
        {
          "internalType": "bool",
          "name": "",
          "type": "bool"
        }
      ],
      "stateMutability": "nonpayable",
      "type": "function"
    },
    {
      "inputs": [
        {
          "internalType": "address",
          "name": "newOwner",
          "type": "address"
        }
      ],
      "name": "transferOwnership",
      "outputs": [],
      "stateMutability": "nonpayable",
      "type": "function"
    },
    {
      "inputs": [],
      "name": "unlock",
      "outputs": [],
      "stateMutability": "nonpayable",
      "type": "function"
    },
    {
      "inputs": [],
      "name": "withdraw",
      "outputs": [],
      "stateMutability": "nonpayable",
      "type": "function"
    },
    {
      "stateMutability": "payable",
      "type": "receive"
    }
  ],
  "bytecode": "0x608060405269065a3fc1a67c6f5c000060065560646007556000600860006101000a81548160ff0219169083151502179055503480156200003f57600080fd5b506040518060400160405280600481526020017f4c6f7665000000000000000000000000000000000000000000000000000000008152506040518060400160405280600481526020017f4c4f5645000000000000000000000000000000000000000000000000000000008152508160039081620000bd919062000637565b508060049081620000cf919062000637565b505050620000f2620000e66200014560201b60201c565b6200014d60201b60201c565b6200013f620001066200021360201b60201c565b620001166200023d60201b60201c565b600a620001249190620008ae565b61752f620001339190620008ff565b6200024660201b60201c565b62000a36565b600033905090565b6000600560009054906101000a900473ffffffffffffffffffffffffffffffffffffffff16905081600560006101000a81548173ffffffffffffffffffffffffffffffffffffffff021916908373ffffffffffffffffffffffffffffffffffffffff1602179055508173ffffffffffffffffffffffffffffffffffffffff168173ffffffffffffffffffffffffffffffffffffffff167f8be0079c531659141344cd1fd0a4f28419497f9722a3daafe3b4186f6b6457e060405160405180910390a35050565b6000600560009054906101000a900473ffffffffffffffffffffffffffffffffffffffff16905090565b60006012905090565b600073ffffffffffffffffffffffffffffffffffffffff168273ffffffffffffffffffffffffffffffffffffffff1603620002b8576040517f08c379a0000000000000000000000000000000000000000000000000000000008152600401620002af90620009ab565b60405180910390fd5b620002cc60008383620003b360201b60201c565b8060026000828254620002e09190620009cd565b92505081905550806000808473ffffffffffffffffffffffffffffffffffffffff1673ffffffffffffffffffffffffffffffffffffffff168152602001908152602001600020600082825401925050819055508173ffffffffffffffffffffffffffffffffffffffff16600073ffffffffffffffffffffffffffffffffffffffff167fddf252ad1be2c89b69c2b068fc378daa952ba7f163c4a11628f55a4df523b3ef8360405162000393919062000a19565b60405180910390a3620003af60008383620003b860201b60201c565b5050565b505050565b505050565b600081519050919050565b7f4e487b7100000000000000000000000000000000000000000000000000000000600052604160045260246000fd5b7f4e487b7100000000000000000000000000000000000000000000000000000000600052602260045260246000fd5b600060028204905060018216806200043f57607f821691505b602082108103620004555762000454620003f7565b5b50919050565b60008190508160005260206000209050919050565b60006020601f8301049050919050565b600082821b905092915050565b600060088302620004bf7fffffffffffffffffffffffffffffffffffffffffffffffffffffffffffffffff8262000480565b620004cb868362000480565b95508019841693508086168417925050509392505050565b6000819050919050565b6000819050919050565b600062000518620005126200050c84620004e3565b620004ed565b620004e3565b9050919050565b6000819050919050565b6200053483620004f7565b6200054c62000543826200051f565b8484546200048d565b825550505050565b600090565b6200056362000554565b6200057081848462000529565b505050565b5b8181101562000598576200058c60008262000559565b60018101905062000576565b5050565b601f821115620005e757620005b1816200045b565b620005bc8462000470565b81016020851015620005cc578190505b620005e4620005db8562000470565b83018262000575565b50505b505050565b600082821c905092915050565b60006200060c60001984600802620005ec565b1980831691505092915050565b6000620006278383620005f9565b9150826002028217905092915050565b6200064282620003bd565b67ffffffffffffffff8111156200065e576200065d620003c8565b5b6200066a825462000426565b620006778282856200059c565b600060209050601f831160018114620006af57600084156200069a578287015190505b620006a6858262000619565b86555062000716565b601f198416620006bf866200045b565b60005b82811015620006e957848901518255600182019150602085019450602081019050620006c2565b8683101562000709578489015162000705601f891682620005f9565b8355505b6001600288020188555050505b505050505050565b7f4e487b7100000000000000000000000000000000000000000000000000000000600052601160045260246000fd5b60008160011c9050919050565b6000808291508390505b6001851115620007ac578086048111156200078457620007836200071e565b5b6001851615620007945780820291505b8081029050620007a4856200074d565b945062000764565b94509492505050565b600082620007c757600190506200089a565b81620007d757600090506200089a565b8160018114620007f05760028114620007fb5762000831565b60019150506200089a565b60ff84111562000810576200080f6200071e565b5b8360020a9150848211156200082a57620008296200071e565b5b506200089a565b5060208310610133831016604e8410600b84101617156200086b5782820a9050838111156200086557620008646200071e565b5b6200089a565b6200087a84848460016200075a565b925090508184048111156200089457620008936200071e565b5b81810290505b9392505050565b600060ff82169050919050565b6000620008bb82620004e3565b9150620008c883620008a1565b9250620008f77fffffffffffffffffffffffffffffffffffffffffffffffffffffffffffffffff8484620007b5565b905092915050565b60006200090c82620004e3565b91506200091983620004e3565b92508282026200092981620004e3565b915082820484148315176200094357620009426200071e565b5b5092915050565b600082825260208201905092915050565b7f45524332303a206d696e7420746f20746865207a65726f206164647265737300600082015250565b600062000993601f836200094a565b9150620009a0826200095b565b602082019050919050565b60006020820190508181036000830152620009c68162000984565b9050919050565b6000620009da82620004e3565b9150620009e783620004e3565b925082820190508082111562000a025762000a016200071e565b5b92915050565b62000a1381620004e3565b82525050565b600060208201905062000a30600083018462000a08565b92915050565b6124db8062000a466000396000f3fe60806040526004361061014f5760003560e01c80638da5cb5b116100b6578063a4e2d6341161006f578063a4e2d63414610445578063a69df4b514610470578063a9059cbb14610487578063d5abeb01146104c4578063dd62ed3e146104ef578063f2fde38b1461052c57610156565b80638da5cb5b1461035457806391b7f5ed1461037f57806395d89b41146103a8578063a035b1fe146103d3578063a11f161a146103fe578063a457c2d71461040857610156565b80633950935111610108578063395093511461026a5780633bd1adec146102a75780633ccfd60b146102be5780634c0f38c2146102d557806370a0823114610300578063715018a61461033d57610156565b806306fdde0314610158578063095ea7b31461018357806318160ddd146101c057806323b872dd146101eb5780632b68b9c614610228578063313ce5671461023f57610156565b3661015657005b005b34801561016457600080fd5b5061016d610555565b60405161017a9190611680565b60405180910390f35b34801561018f57600080fd5b506101aa60048036038101906101a5919061173b565b6105e7565b6040516101b79190611796565b60405180910390f35b3480156101cc57600080fd5b506101d561060a565b6040516101e291906117c0565b60405180910390f35b3480156101f757600080fd5b50610212600480360381019061020d91906117db565b610614565b60405161021f9190611796565b60405180910390f35b34801561023457600080fd5b5061023d610643565b005b34801561024b57600080fd5b5061025461066b565b604051610261919061184a565b60405180910390f35b34801561027657600080fd5b50610291600480360381019061028c919061173b565b610674565b60405161029e9190611796565b60405180910390f35b3480156102b357600080fd5b506102bc6106ab565b005b3480156102ca57600080fd5b506102d36107ca565b005b3480156102e157600080fd5b506102ea61091a565b6040516102f791906117c0565b60405180910390f35b34801561030c57600080fd5b5061032760048036038101906103229190611865565b610924565b60405161033491906117c0565b60405180910390f35b34801561034957600080fd5b5061035261096c565b005b34801561036057600080fd5b50610369610980565b60405161037691906118a1565b60405180910390f35b34801561038b57600080fd5b506103a660048036038101906103a191906118bc565b6109aa565b005b3480156103b457600080fd5b506103bd6109bc565b6040516103ca9190611680565b60405180910390f35b3480156103df57600080fd5b506103e8610a4e565b6040516103f591906117c0565b60405180910390f35b610406610a54565b005b34801561041457600080fd5b5061042f600480360381019061042a919061173b565b610c3b565b60405161043c9190611796565b60405180910390f35b34801561045157600080fd5b5061045a610cb2565b6040516104679190611796565b60405180910390f35b34801561047c57600080fd5b50610485610cc5565b005b34801561049357600080fd5b506104ae60048036038101906104a9919061173b565b610d46565b6040516104bb9190611796565b60405180910390f35b3480156104d057600080fd5b506104d9610d69565b6040516104e691906117c0565b60405180910390f35b3480156104fb57600080fd5b50610516600480360381019061051191906118e9565b610d6f565b60405161052391906117c0565b60405180910390f35b34801561053857600080fd5b50610553600480360381019061054e9190611865565b610df6565b005b60606003805461056490611958565b80601f016020809104026020016040519081016040528092919081815260200182805461059090611958565b80156105dd5780601f106105b2576101008083540402835291602001916105dd565b820191906000526020600020905b8154815290600101906020018083116105c057829003601f168201915b5050505050905090565b6000806105f2610e79565b90506105ff818585610e81565b600191505092915050565b6000600254905090565b60008061061f610e79565b905061062c85828561104a565b6106378585856110d6565b60019150509392505050565b61064b61134c565b610653610980565b73ffffffffffffffffffffffffffffffffffffffff16ff5b60006012905090565b60008061067f610e79565b90506106a08185856106918589610d6f565b61069b91906119b8565b610e81565b600191505092915050565b69021e19e0c9bab24000006106bf33610924565b1015610700576040517f08c379a00000000000000000000000000000000000000000000000000000000081526004016106f790611a5e565b60405180910390fd5b60001515600860009054906101000a900460ff16151514610756576040517f08c379a000000000000000000000000000000000000000000000000000000000815260040161074d90611af0565b60405180910390fd5b61075f336113ca565b6001600860006101000a81548160ff0219169083151502179055503373ffffffffffffffffffffffffffffffffffffffff167f0f17057c058227955304580e8ad3305c4fff882badabd5340cdc5eb55933f301426040516107c091906117c0565b60405180910390a2565b6107d261134c565b60004790506000811161081a576040517f08c379a000000000000000000000000000000000000000000000000000000000815260040161081190611b82565b60405180910390fd5b60003373ffffffffffffffffffffffffffffffffffffffff168260405161084090611bd3565b60006040518083038185875af1925050503d806000811461087d576040519150601f19603f3d011682016040523d82523d6000602084013e610882565b606091505b50509050806108c6576040517f08c379a00000000000000000000000000000000000000000000000000000000081526004016108bd90611c34565b60405180910390fd5b3373ffffffffffffffffffffffffffffffffffffffff167f05de6288c7d47933a7195ba55a4ebbbdeb6c7ddbc12c83e70d2842254db165c2834260405161090e929190611c54565b60405180910390a25050565b6000600654905090565b60008060008373ffffffffffffffffffffffffffffffffffffffff1673ffffffffffffffffffffffffffffffffffffffff168152602001908152602001600020549050919050565b61097461134c565b61097e60006113ca565b565b6000600560009054906101000a900473ffffffffffffffffffffffffffffffffffffffff16905090565b6109b261134c565b8060078190555050565b6060600480546109cb90611958565b80601f01602080910402602001604051908101604052809291908181526020018280546109f790611958565b8015610a445780601f10610a1957610100808354040283529160200191610a44565b820191906000526020600020905b815481529060010190602001808311610a2757829003601f168201915b5050505050905090565b60075481565b60006064670de0b6b3a7640000600754612710610a719190611c7d565b610a7b9190611c7d565b610a859190611cee565b905080341015610aca576040517f08c379a0000000000000000000000000000000000000000000000000000000008152600401610ac190611d91565b60405180910390fd5b600069021e19e0c9bab240000090506000610ae3610980565b73ffffffffffffffffffffffffffffffffffffffff1667016345785d8a000084610b0d9190611db1565b604051610b1990611bd3565b60006040518083038185875af1925050503d8060008114610b56576040519150601f19603f3d011682016040523d82523d6000602084013e610b5b565b606091505b5050905080610b9f576040517f08c379a0000000000000000000000000000000000000000000000000000000008152600401610b9690611e31565b60405180910390fd5b610bbb33836fffffffffffffffffffffffffffffffff16611490565b816fffffffffffffffffffffffffffffffff1660066000828254610bdf91906119b8565b925050819055503373ffffffffffffffffffffffffffffffffffffffff167f9823c61ba42e817a0ba73273d875528a549abe0ba50bc8ce0f7ed5a9fb86c6878342604051610c2e929190611ea8565b60405180910390a2505050565b600080610c46610e79565b90506000610c548286610d6f565b905083811015610c99576040517f08c379a0000000000000000000000000000000000000000000000000000000008152600401610c9090611f43565b60405180910390fd5b610ca68286868403610e81565b60019250505092915050565b600860009054906101000a900460ff1681565b69032d26d12e980b600000610cd933610924565b1015610d1a576040517f08c379a0000000000000000000000000000000000000000000000000000000008152600401610d1190611fd5565b60405180910390fd5b600860009054906101000a900460ff1615600860006101000a81548160ff021916908315150217905550565b600080610d51610e79565b9050610d5e8185856110d6565b600191505092915050565b60065481565b6000600160008473ffffffffffffffffffffffffffffffffffffffff1673ffffffffffffffffffffffffffffffffffffffff16815260200190815260200160002060008373ffffffffffffffffffffffffffffffffffffffff1673ffffffffffffffffffffffffffffffffffffffff16815260200190815260200160002054905092915050565b610dfe61134c565b600073ffffffffffffffffffffffffffffffffffffffff168173ffffffffffffffffffffffffffffffffffffffff1603610e6d576040517f08c379a0000000000000000000000000000000000000000000000000000000008152600401610e6490612067565b60405180910390fd5b610e76816113ca565b50565b600033905090565b600073ffffffffffffffffffffffffffffffffffffffff168373ffffffffffffffffffffffffffffffffffffffff1603610ef0576040517f08c379a0000000000000000000000000000000000000000000000000000000008152600401610ee7906120f9565b60405180910390fd5b600073ffffffffffffffffffffffffffffffffffffffff168273ffffffffffffffffffffffffffffffffffffffff1603610f5f576040517f08c379a0000000000000000000000000000000000000000000000000000000008152600401610f569061218b565b60405180910390fd5b80600160008573ffffffffffffffffffffffffffffffffffffffff1673ffffffffffffffffffffffffffffffffffffffff16815260200190815260200160002060008473ffffffffffffffffffffffffffffffffffffffff1673ffffffffffffffffffffffffffffffffffffffff168152602001908152602001600020819055508173ffffffffffffffffffffffffffffffffffffffff168373ffffffffffffffffffffffffffffffffffffffff167f8c5be1e5ebec7d5bd14f71427d1e84f3dd0314c0f7b2291e5b200ac8c7c3b9258360405161103d91906117c0565b60405180910390a3505050565b60006110568484610d6f565b90507fffffffffffffffffffffffffffffffffffffffffffffffffffffffffffffffff81146110d057818110156110c2576040517f08c379a00000000000000000000000000000000000000000000000000000000081526004016110b9906121f7565b60405180910390fd5b6110cf8484848403610e81565b5b50505050565b600073ffffffffffffffffffffffffffffffffffffffff168373ffffffffffffffffffffffffffffffffffffffff1603611145576040517f08c379a000000000000000000000000000000000000000000000000000000000815260040161113c90612289565b60405180910390fd5b600073ffffffffffffffffffffffffffffffffffffffff168273ffffffffffffffffffffffffffffffffffffffff16036111b4576040517f08c379a00000000000000000000000000000000000000000000000000000000081526004016111ab9061231b565b60405180910390fd5b6111bf8383836115e6565b60008060008573ffffffffffffffffffffffffffffffffffffffff1673ffffffffffffffffffffffffffffffffffffffff16815260200190815260200160002054905081811015611245576040517f08c379a000000000000000000000000000000000000000000000000000000000815260040161123c906123ad565b60405180910390fd5b8181036000808673ffffffffffffffffffffffffffffffffffffffff1673ffffffffffffffffffffffffffffffffffffffff16815260200190815260200160002081905550816000808573ffffffffffffffffffffffffffffffffffffffff1673ffffffffffffffffffffffffffffffffffffffff168152602001908152602001600020600082825401925050819055508273ffffffffffffffffffffffffffffffffffffffff168473ffffffffffffffffffffffffffffffffffffffff167fddf252ad1be2c89b69c2b068fc378daa952ba7f163c4a11628f55a4df523b3ef8460405161133391906117c0565b60405180910390a36113468484846115eb565b50505050565b611354610e79565b73ffffffffffffffffffffffffffffffffffffffff16611372610980565b73ffffffffffffffffffffffffffffffffffffffff16146113c8576040517f08c379a00000000000000000000000000000000000000000000000000000000081526004016113bf90612419565b60405180910390fd5b565b6000600560009054906101000a900473ffffffffffffffffffffffffffffffffffffffff16905081600560006101000a81548173ffffffffffffffffffffffffffffffffffffffff021916908373ffffffffffffffffffffffffffffffffffffffff1602179055508173ffffffffffffffffffffffffffffffffffffffff168173ffffffffffffffffffffffffffffffffffffffff167f8be0079c531659141344cd1fd0a4f28419497f9722a3daafe3b4186f6b6457e060405160405180910390a35050565b600073ffffffffffffffffffffffffffffffffffffffff168273ffffffffffffffffffffffffffffffffffffffff16036114ff576040517f08c379a00000000000000000000000000000000000000000000000000000000081526004016114f690612485565b60405180910390fd5b61150b600083836115e6565b806002600082825461151d91906119b8565b92505081905550806000808473ffffffffffffffffffffffffffffffffffffffff1673ffffffffffffffffffffffffffffffffffffffff168152602001908152602001600020600082825401925050819055508173ffffffffffffffffffffffffffffffffffffffff16600073ffffffffffffffffffffffffffffffffffffffff167fddf252ad1be2c89b69c2b068fc378daa952ba7f163c4a11628f55a4df523b3ef836040516115ce91906117c0565b60405180910390a36115e2600083836115eb565b5050565b505050565b505050565b600081519050919050565b600082825260208201905092915050565b60005b8381101561162a57808201518184015260208101905061160f565b60008484015250505050565b6000601f19601f8301169050919050565b6000611652826115f0565b61165c81856115fb565b935061166c81856020860161160c565b61167581611636565b840191505092915050565b6000602082019050818103600083015261169a8184611647565b905092915050565b600080fd5b600073ffffffffffffffffffffffffffffffffffffffff82169050919050565b60006116d2826116a7565b9050919050565b6116e2816116c7565b81146116ed57600080fd5b50565b6000813590506116ff816116d9565b92915050565b6000819050919050565b61171881611705565b811461172357600080fd5b50565b6000813590506117358161170f565b92915050565b60008060408385031215611752576117516116a2565b5b6000611760858286016116f0565b925050602061177185828601611726565b9150509250929050565b60008115159050919050565b6117908161177b565b82525050565b60006020820190506117ab6000830184611787565b92915050565b6117ba81611705565b82525050565b60006020820190506117d560008301846117b1565b92915050565b6000806000606084860312156117f4576117f36116a2565b5b6000611802868287016116f0565b9350506020611813868287016116f0565b925050604061182486828701611726565b9150509250925092565b600060ff82169050919050565b6118448161182e565b82525050565b600060208201905061185f600083018461183b565b92915050565b60006020828403121561187b5761187a6116a2565b5b6000611889848285016116f0565b91505092915050565b61189b816116c7565b82525050565b60006020820190506118b66000830184611892565b92915050565b6000602082840312156118d2576118d16116a2565b5b60006118e084828501611726565b91505092915050565b60008060408385031215611900576118ff6116a2565b5b600061190e858286016116f0565b925050602061191f858286016116f0565b9150509250929050565b7f4e487b7100000000000000000000000000000000000000000000000000000000600052602260045260246000fd5b6000600282049050600182168061197057607f821691505b60208210810361198357611982611929565b5b50919050565b7f4e487b7100000000000000000000000000000000000000000000000000000000600052601160045260246000fd5b60006119c382611705565b91506119ce83611705565b92508282019050808211156119e6576119e5611989565b5b92915050565b7f596f75206e656564206174206c656173742031306b204c4f564520746f20646f60008201527f2074686973000000000000000000000000000000000000000000000000000000602082015250565b6000611a486025836115fb565b9150611a53826119ec565b604082019050919050565b60006020820190508181036000830152611a7781611a3b565b9050919050565b7f54686520636f6e7472616374206973206c6f636b65642c20706c65617365207560008201527f6e6c6f636b000000000000000000000000000000000000000000000000000000602082015250565b6000611ada6025836115fb565b9150611ae582611a7e565b604082019050919050565b60006020820190508181036000830152611b0981611acd565b9050919050565b7f4e6f7468696e6720746f2077697468647261773a2074686520636f6e7472616360008201527f742062616c616e636520697320656d7074790000000000000000000000000000602082015250565b6000611b6c6032836115fb565b9150611b7782611b10565b604082019050919050565b60006020820190508181036000830152611b9b81611b5f565b9050919050565b600081905092915050565b50565b6000611bbd600083611ba2565b9150611bc882611bad565b600082019050919050565b6000611bde82611bb0565b9150819050919050565b7f4661696c656420746f2077697468647261772066756e64730000000000000000600082015250565b6000611c1e6018836115fb565b9150611c2982611be8565b602082019050919050565b60006020820190508181036000830152611c4d81611c11565b9050919050565b6000604082019050611c6960008301856117b1565b611c7660208301846117b1565b9392505050565b6000611c8882611705565b9150611c9383611705565b9250828202611ca181611705565b91508282048414831517611cb857611cb7611989565b5b5092915050565b7f4e487b7100000000000000000000000000000000000000000000000000000000600052601260045260246000fd5b6000611cf982611705565b9150611d0483611705565b925082611d1457611d13611cbf565b5b828204905092915050565b7f596f75206e65656420746f2073656e64206174206c656173742031306b20657460008201527f68657220746f20646f2074686973000000000000000000000000000000000000602082015250565b6000611d7b602e836115fb565b9150611d8682611d1f565b604082019050919050565b60006020820190508181036000830152611daa81611d6e565b9050919050565b6000611dbc82611705565b9150611dc783611705565b9250828203905081811115611ddf57611dde611989565b5b92915050565b7f457468207472616e73666572206661696c656400000000000000000000000000600082015250565b6000611e1b6013836115fb565b9150611e2682611de5565b602082019050919050565b60006020820190508181036000830152611e4a81611e0e565b9050919050565b60006fffffffffffffffffffffffffffffffff82169050919050565b6000819050919050565b6000611e92611e8d611e8884611e51565b611e6d565b611705565b9050919050565b611ea281611e77565b82525050565b6000604082019050611ebd6000830185611e99565b611eca60208301846117b1565b9392505050565b7f45524332303a2064656372656173656420616c6c6f77616e63652062656c6f7760008201527f207a65726f000000000000000000000000000000000000000000000000000000602082015250565b6000611f2d6025836115fb565b9150611f3882611ed1565b604082019050919050565b60006020820190508181036000830152611f5c81611f20565b9050919050565b7f596f75206e656564206174206c656173742031356b204c4f564520746f20646f60008201527f2074686973000000000000000000000000000000000000000000000000000000602082015250565b6000611fbf6025836115fb565b9150611fca82611f63565b604082019050919050565b60006020820190508181036000830152611fee81611fb2565b9050919050565b7f4f776e61626c653a206e6577206f776e657220697320746865207a65726f206160008201527f6464726573730000000000000000000000000000000000000000000000000000602082015250565b60006120516026836115fb565b915061205c82611ff5565b604082019050919050565b6000602082019050818103600083015261208081612044565b9050919050565b7f45524332303a20617070726f76652066726f6d20746865207a65726f2061646460008201527f7265737300000000000000000000000000000000000000000000000000000000602082015250565b60006120e36024836115fb565b91506120ee82612087565b604082019050919050565b60006020820190508181036000830152612112816120d6565b9050919050565b7f45524332303a20617070726f766520746f20746865207a65726f20616464726560008201527f7373000000000000000000000000000000000000000000000000000000000000602082015250565b60006121756022836115fb565b915061218082612119565b604082019050919050565b600060208201905081810360008301526121a481612168565b9050919050565b7f45524332303a20696e73756666696369656e7420616c6c6f77616e6365000000600082015250565b60006121e1601d836115fb565b91506121ec826121ab565b602082019050919050565b60006020820190508181036000830152612210816121d4565b9050919050565b7f45524332303a207472616e736665722066726f6d20746865207a65726f20616460008201527f6472657373000000000000000000000000000000000000000000000000000000602082015250565b60006122736025836115fb565b915061227e82612217565b604082019050919050565b600060208201905081810360008301526122a281612266565b9050919050565b7f45524332303a207472616e7366657220746f20746865207a65726f206164647260008201527f6573730000000000000000000000000000000000000000000000000000000000602082015250565b60006123056023836115fb565b9150612310826122a9565b604082019050919050565b60006020820190508181036000830152612334816122f8565b9050919050565b7f45524332303a207472616e7366657220616d6f756e742065786365656473206260008201527f616c616e63650000000000000000000000000000000000000000000000000000602082015250565b60006123976026836115fb565b91506123a28261233b565b604082019050919050565b600060208201905081810360008301526123c68161238a565b9050919050565b7f4f776e61626c653a2063616c6c6572206973206e6f7420746865206f776e6572600082015250565b60006124036020836115fb565b915061240e826123cd565b602082019050919050565b60006020820190508181036000830152612432816123f6565b9050919050565b7f45524332303a206d696e7420746f20746865207a65726f206164647265737300600082015250565b600061246f601f836115fb565b915061247a82612439565b602082019050919050565b6000602082019050818103600083015261249e81612462565b905091905056fea2646970667358221220ac3cfe320294626021751d59123334357156bb5b6b28715933cf13421c364b2164736f6c63430008110033",
  "linkReferences": {},
  "deployedLinkReferences": {}
}