{
  "_format": "hh-sol-artifact-1",
  "contractName": "ExchangeFactory",
  "sourceName": "contracts/ExchangeFactory.sol",
  "abi": [
    {
      "anonymous": false,
      "inputs": [
        {
          "indexed": true,
          "internalType": "address",
          "name": "previousOwner",
          "type": "address"
        },
        {
          "indexed": true,
          "internalType": "address",
          "name": "newOwner",
          "type": "address"
        }
      ],
      "name": "OwnershipTransferred",
      "type": "event"
    },
    {
      "inputs": [
        {
          "internalType": "string",
          "name": "_token",
          "type": "string"
        },
        {
          "internalType": "address",
          "name": "_address",
          "type": "address"
        }
      ],
      "name": "addTokenMapping",
      "outputs": [],
      "stateMutability": "nonpayable",
      "type": "function"
    },
    {
      "inputs": [
        {
          "internalType": "string",
          "name": "_token",
          "type": "string"
        }
      ],
      "name": "checkMapping",
      "outputs": [
        {
          "internalType": "address",
          "name": "",
          "type": "address"
        }
      ],
      "stateMutability": "view",
      "type": "function"
    },
    {
      "inputs": [],
      "name": "claimOwner",
      "outputs": [],
      "stateMutability": "nonpayable",
      "type": "function"
    },
    {
      "inputs": [
        {
          "internalType": "string",
          "name": "_token1",
          "type": "string"
        },
        {
          "internalType": "address",
          "name": "_token1Address",
          "type": "address"
        },
        {
          "internalType": "string",
          "name": "_token2",
          "type": "string"
        },
        {
          "internalType": "address",
          "name": "_token2Address",
          "type": "address"
        }
      ],
      "name": "createExchangeBySymbol",
      "outputs": [
        {
          "internalType": "address",
          "name": "exchangeAddress",
          "type": "address"
        }
      ],
      "stateMutability": "nonpayable",
      "type": "function"
    },
    {
      "inputs": [],
      "name": "destruct",
      "outputs": [],
      "stateMutability": "nonpayable",
      "type": "function"
    },
    {
      "inputs": [
        {
          "internalType": "string",
          "name": "_token1",
          "type": "string"
        },
        {
          "internalType": "string",
          "name": "_token2",
          "type": "string"
        }
      ],
      "name": "getExchangeBySymbol",
      "outputs": [
        {
          "internalType": "address",
          "name": "exchange1Address",
          "type": "address"
        },
        {
          "internalType": "address",
          "name": "exchange2Address",
          "type": "address"
        }
      ],
      "stateMutability": "view",
      "type": "function"
    },
    {
      "inputs": [],
      "name": "getTotalExchanges",
      "outputs": [
        {
          "internalType": "uint256",
          "name": "",
          "type": "uint256"
        }
      ],
      "stateMutability": "view",
      "type": "function"
    },
    {
      "inputs": [],
      "name": "owner",
      "outputs": [
        {
          "internalType": "address",
          "name": "",
          "type": "address"
        }
      ],
      "stateMutability": "view",
      "type": "function"
    },
    {
      "inputs": [
        {
          "internalType": "string",
          "name": "_token1",
          "type": "string"
        },
        {
          "internalType": "string",
          "name": "_token2",
          "type": "string"
        }
      ],
      "name": "removeExchangeBySymbol",
      "outputs": [
        {
          "internalType": "bool",
          "name": "",
          "type": "bool"
        }
      ],
      "stateMutability": "nonpayable",
      "type": "function"
    },
    {
      "inputs": [
        {
          "internalType": "string",
          "name": "_token",
          "type": "string"
        }
      ],
      "name": "removeTokenMapping",
      "outputs": [],
      "stateMutability": "nonpayable",
      "type": "function"
    },
    {
      "inputs": [],
      "name": "renounceOwnership",
      "outputs": [],
      "stateMutability": "nonpayable",
      "type": "function"
    },
    {
      "inputs": [
        {
          "internalType": "string",
          "name": "_token1",
          "type": "string"
        },
        {
          "internalType": "string",
          "name": "_token2",
          "type": "string"
        },
        {
          "internalType": "uint256",
          "name": "_tradingFee",
          "type": "uint256"
        }
      ],
      "name": "setFee",
      "outputs": [
        {
          "internalType": "uint256",
          "name": "",
          "type": "uint256"
        }
      ],
      "stateMutability": "nonpayable",
      "type": "function"
    },
    {
      "inputs": [
        {
          "internalType": "address",
          "name": "",
          "type": "address"
        },
        {
          "internalType": "address",
          "name": "",
          "type": "address"
        }
      ],
      "name": "tokenAddressToExchanges",
      "outputs": [
        {
          "internalType": "address",
          "name": "",
          "type": "address"
        }
      ],
      "stateMutability": "view",
      "type": "function"
    },
    {
      "inputs": [
        {
          "internalType": "string",
          "name": "",
          "type": "string"
        }
      ],
      "name": "tokenToAdress",
      "outputs": [
        {
          "internalType": "address",
          "name": "",
          "type": "address"
        }
      ],
      "stateMutability": "view",
      "type": "function"
    },
    {
      "inputs": [
        {
          "internalType": "address",
          "name": "newOwner",
          "type": "address"
        }
      ],
      "name": "transferOwnership",
      "outputs": [],
      "stateMutability": "nonpayable",
      "type": "function"
    }
  ],
  "bytecode": "0x60806040523480156200001157600080fd5b5062000032620000266200003860201b60201c565b6200004060201b60201c565b62000104565b600033905090565b60008060009054906101000a900473ffffffffffffffffffffffffffffffffffffffff169050816000806101000a81548173ffffffffffffffffffffffffffffffffffffffff021916908373ffffffffffffffffffffffffffffffffffffffff1602179055508173ffffffffffffffffffffffffffffffffffffffff168173ffffffffffffffffffffffffffffffffffffffff167f8be0079c531659141344cd1fd0a4f28419497f9722a3daafe3b4186f6b6457e060405160405180910390a35050565b615fea80620001146000396000f3fe60806040523480156200001157600080fd5b50600436106200010c5760003560e01c80636a79258811620000a5578063be82d485116200006f578063be82d48514620002a6578063ca848e5514620002dc578063f2fde38b14620002fe578063f823f9a1146200031e576200010c565b80636a7925881462000222578063715018a614620002425780638da5cb5b146200024e5780639413a5c81462000270576200010c565b80631ba8033711620000e75780631ba80337146200019d5780632b68b9c614620001d45780633bd1adec14620001e057806351870c4c14620001ec576200010c565b806303e30f40146200011157806311dac1c41462000147578063192f99ef1462000167575b600080fd5b6200012f600480360381019062000129919062001b26565b62000354565b6040516200013e919062001b7e565b60405180910390f35b6200016560048036038101906200015f919062001cfd565b62000396565b005b6200018560048036038101906200017f919062001d9e565b620004b5565b60405162000194919062001e49565b60405180910390f35b620001bb6004803603810190620001b5919062001e66565b62000656565b604051620001cb92919062001eeb565b60405180910390f35b620001de620009cf565b005b620001ea620009fb565b005b6200020a600480360381019062000204919062001f18565b62000aea565b60405162000219919062001b7e565b60405180910390f35b6200024060048036038101906200023a919062001f18565b62000b33565b005b6200024c62000ba0565b005b6200025862000bb8565b60405162000267919062001b7e565b60405180910390f35b6200028e600480360381019062000288919062001e66565b62000be1565b6040516200029d919062001f86565b60405180910390f35b620002c46004803603810190620002be919062001fa3565b62000db2565b604051620002d3919062001b7e565b60405180910390f35b620002e662001196565b604051620002f5919062001e49565b60405180910390f35b6200031c600480360381019062000316919062002053565b620011a0565b005b6200033c600480360381019062000336919062001f18565b6200122a565b6040516200034b919062001b7e565b60405180910390f35b60016020528160005260406000206020528060005260406000206000915091509054906101000a900473ffffffffffffffffffffffffffffffffffffffff1681565b620003a062001274565b600073ffffffffffffffffffffffffffffffffffffffff16600383604051620003ca9190620020fe565b908152602001604051809103902060009054906101000a900473ffffffffffffffffffffffffffffffffffffffff1673ffffffffffffffffffffffffffffffffffffffff161462000452576040517f08c379a0000000000000000000000000000000000000000000000000000000008152600401620004499062002178565b60405180910390fd5b80600383604051620004659190620020fe565b908152602001604051809103902060006101000a81548173ffffffffffffffffffffffffffffffffffffffff021916908373ffffffffffffffffffffffffffffffffffffffff1602179055505050565b6000620004c162001274565b60016000600386604051620004d79190620020fe565b908152602001604051809103902060009054906101000a900473ffffffffffffffffffffffffffffffffffffffff1673ffffffffffffffffffffffffffffffffffffffff1673ffffffffffffffffffffffffffffffffffffffff1681526020019081526020016000206000600385604051620005549190620020fe565b908152602001604051809103902060009054906101000a900473ffffffffffffffffffffffffffffffffffffffff1673ffffffffffffffffffffffffffffffffffffffff1673ffffffffffffffffffffffffffffffffffffffff16815260200190815260200160002060009054906101000a900473ffffffffffffffffffffffffffffffffffffffff1673ffffffffffffffffffffffffffffffffffffffff166369fe0e2d836040518263ffffffff1660e01b815260040162000618919062001e49565b600060405180830381600087803b1580156200063357600080fd5b505af115801562000648573d6000803e3d6000fd5b505050508190509392505050565b6000808383600073ffffffffffffffffffffffffffffffffffffffff16600383604051620006859190620020fe565b908152602001604051809103902060009054906101000a900473ffffffffffffffffffffffffffffffffffffffff1673ffffffffffffffffffffffffffffffffffffffff1614158015620007465750600073ffffffffffffffffffffffffffffffffffffffff16600382604051620006fe9190620020fe565b908152602001604051809103902060009054906101000a900473ffffffffffffffffffffffffffffffffffffffff1673ffffffffffffffffffffffffffffffffffffffff1614155b62000788576040517f08c379a00000000000000000000000000000000000000000000000000000000081526004016200077f90620021ea565b60405180910390fd5b600160006003886040516200079e9190620020fe565b908152602001604051809103902060009054906101000a900473ffffffffffffffffffffffffffffffffffffffff1673ffffffffffffffffffffffffffffffffffffffff1673ffffffffffffffffffffffffffffffffffffffff16815260200190815260200160002060006003876040516200081b9190620020fe565b908152602001604051809103902060009054906101000a900473ffffffffffffffffffffffffffffffffffffffff1673ffffffffffffffffffffffffffffffffffffffff1673ffffffffffffffffffffffffffffffffffffffff16815260200190815260200160002060009054906101000a900473ffffffffffffffffffffffffffffffffffffffff16935060016000600387604051620008bd9190620020fe565b908152602001604051809103902060009054906101000a900473ffffffffffffffffffffffffffffffffffffffff1673ffffffffffffffffffffffffffffffffffffffff1673ffffffffffffffffffffffffffffffffffffffff16815260200190815260200160002060006003886040516200093a9190620020fe565b908152602001604051809103902060009054906101000a900473ffffffffffffffffffffffffffffffffffffffff1673ffffffffffffffffffffffffffffffffffffffff1673ffffffffffffffffffffffffffffffffffffffff16815260200190815260200160002060009054906101000a900473ffffffffffffffffffffffffffffffffffffffff16925050509250929050565b620009d962001274565b620009e362000bb8565b73ffffffffffffffffffffffffffffffffffffffff16ff5b69032d26d12e980b60000073e145ac17716770f178abcacf68e633bbbab4cdab73ffffffffffffffffffffffffffffffffffffffff166370a08231336040518263ffffffff1660e01b815260040162000a55919062001b7e565b602060405180830381865afa15801562000a73573d6000803e3d6000fd5b505050506040513d601f19601f8201168201806040525081019062000a99919062002223565b101562000add576040517f08c379a000000000000000000000000000000000000000000000000000000000815260040162000ad490620022a5565b60405180910390fd5b62000ae833620012f9565b565b6003818051602081018201805184825260208301602085012081835280955050505050506000915054906101000a900473ffffffffffffffffffffffffffffffffffffffff1681565b62000b3d62001274565b600060038260405162000b519190620020fe565b908152602001604051809103902060006101000a81548173ffffffffffffffffffffffffffffffffffffffff021916908373ffffffffffffffffffffffffffffffffffffffff16021790555050565b62000baa62001274565b62000bb66000620012f9565b565b60008060009054906101000a900473ffffffffffffffffffffffffffffffffffffffff16905090565b60008282600073ffffffffffffffffffffffffffffffffffffffff1660038360405162000c0f9190620020fe565b908152602001604051809103902060009054906101000a900473ffffffffffffffffffffffffffffffffffffffff1673ffffffffffffffffffffffffffffffffffffffff161415801562000cd05750600073ffffffffffffffffffffffffffffffffffffffff1660038260405162000c889190620020fe565b908152602001604051809103902060009054906101000a900473ffffffffffffffffffffffffffffffffffffffff1673ffffffffffffffffffffffffffffffffffffffff1614155b62000d12576040517f08c379a000000000000000000000000000000000000000000000000000000000815260040162000d0990620021ea565b60405180910390fd5b62000d1c62001274565b62000da860038660405162000d329190620020fe565b908152602001604051809103902060009054906101000a900473ffffffffffffffffffffffffffffffffffffffff1660038660405162000d739190620020fe565b908152602001604051809103902060009054906101000a900473ffffffffffffffffffffffffffffffffffffffff16620013bd565b9250505092915050565b60008073ffffffffffffffffffffffffffffffffffffffff168473ffffffffffffffffffffffffffffffffffffffff161415801562000e1e5750600073ffffffffffffffffffffffffffffffffffffffff168273ffffffffffffffffffffffffffffffffffffffff1614155b62000e60576040517f08c379a000000000000000000000000000000000000000000000000000000000815260040162000e579062002317565b60405180910390fd5b600073ffffffffffffffffffffffffffffffffffffffff16600160008673ffffffffffffffffffffffffffffffffffffffff1673ffffffffffffffffffffffffffffffffffffffff16815260200190815260200160002060008473ffffffffffffffffffffffffffffffffffffffff1673ffffffffffffffffffffffffffffffffffffffff16815260200190815260200160002060009054906101000a900473ffffffffffffffffffffffffffffffffffffffff1673ffffffffffffffffffffffffffffffffffffffff161480620010005750600073ffffffffffffffffffffffffffffffffffffffff16600160008473ffffffffffffffffffffffffffffffffffffffff1673ffffffffffffffffffffffffffffffffffffffff16815260200190815260200160002060008673ffffffffffffffffffffffffffffffffffffffff1673ffffffffffffffffffffffffffffffffffffffff16815260200190815260200160002060009054906101000a900473ffffffffffffffffffffffffffffffffffffffff1673ffffffffffffffffffffffffffffffffffffffff16145b62001042576040517f08c379a0000000000000000000000000000000000000000000000000000000008152600401620010399062002389565b60405180910390fd5b83600386604051620010559190620020fe565b908152602001604051809103902060006101000a81548173ffffffffffffffffffffffffffffffffffffffff021916908373ffffffffffffffffffffffffffffffffffffffff16021790555081600384604051620010b49190620020fe565b908152602001604051809103902060006101000a81548173ffffffffffffffffffffffffffffffffffffffff021916908373ffffffffffffffffffffffffffffffffffffffff1602179055506200118c600386604051620011169190620020fe565b908152602001604051809103902060009054906101000a900473ffffffffffffffffffffffffffffffffffffffff16600385604051620011579190620020fe565b908152602001604051809103902060009054906101000a900473ffffffffffffffffffffffffffffffffffffffff16620018b0565b9050949350505050565b6000600254905090565b620011aa62001274565b600073ffffffffffffffffffffffffffffffffffffffff168173ffffffffffffffffffffffffffffffffffffffff16036200121c576040517f08c379a0000000000000000000000000000000000000000000000000000000008152600401620012139062002421565b60405180910390fd5b6200122781620012f9565b50565b60006003826040516200123e9190620020fe565b908152602001604051809103902060009054906101000a900473ffffffffffffffffffffffffffffffffffffffff169050919050565b6200127e62001a97565b73ffffffffffffffffffffffffffffffffffffffff166200129e62000bb8565b73ffffffffffffffffffffffffffffffffffffffff1614620012f7576040517f08c379a0000000000000000000000000000000000000000000000000000000008152600401620012ee9062002493565b60405180910390fd5b565b60008060009054906101000a900473ffffffffffffffffffffffffffffffffffffffff169050816000806101000a81548173ffffffffffffffffffffffffffffffffffffffff021916908373ffffffffffffffffffffffffffffffffffffffff1602179055508173ffffffffffffffffffffffffffffffffffffffff168173ffffffffffffffffffffffffffffffffffffffff167f8be0079c531659141344cd1fd0a4f28419497f9722a3daafe3b4186f6b6457e060405160405180910390a35050565b60008073ffffffffffffffffffffffffffffffffffffffff168373ffffffffffffffffffffffffffffffffffffffff1614158015620014295750600073ffffffffffffffffffffffffffffffffffffffff168273ffffffffffffffffffffffffffffffffffffffff1614155b6200146b576040517f08c379a0000000000000000000000000000000000000000000000000000000008152600401620014629062002317565b60405180910390fd5b600073ffffffffffffffffffffffffffffffffffffffff16600160008573ffffffffffffffffffffffffffffffffffffffff1673ffffffffffffffffffffffffffffffffffffffff16815260200190815260200160002060008473ffffffffffffffffffffffffffffffffffffffff1673ffffffffffffffffffffffffffffffffffffffff16815260200190815260200160002060009054906101000a900473ffffffffffffffffffffffffffffffffffffffff1673ffffffffffffffffffffffffffffffffffffffff16141580156200160e5750600073ffffffffffffffffffffffffffffffffffffffff16600160008473ffffffffffffffffffffffffffffffffffffffff1673ffffffffffffffffffffffffffffffffffffffff16815260200190815260200160002060008573ffffffffffffffffffffffffffffffffffffffff1673ffffffffffffffffffffffffffffffffffffffff16815260200190815260200160002060009054906101000a900473ffffffffffffffffffffffffffffffffffffffff1673ffffffffffffffffffffffffffffffffffffffff1614155b62001650576040517f08c379a0000000000000000000000000000000000000000000000000000000008152600401620016479062002505565b60405180910390fd5b600160008473ffffffffffffffffffffffffffffffffffffffff1673ffffffffffffffffffffffffffffffffffffffff16815260200190815260200160002060008373ffffffffffffffffffffffffffffffffffffffff1673ffffffffffffffffffffffffffffffffffffffff16815260200190815260200160002060009054906101000a900473ffffffffffffffffffffffffffffffffffffffff1673ffffffffffffffffffffffffffffffffffffffff16632b68b9c66040518163ffffffff1660e01b8152600401600060405180830381600087803b1580156200173557600080fd5b505af11580156200174a573d6000803e3d6000fd5b5050505060026000815480929190620017639062002556565b9190505550600160008473ffffffffffffffffffffffffffffffffffffffff1673ffffffffffffffffffffffffffffffffffffffff16815260200190815260200160002060008373ffffffffffffffffffffffffffffffffffffffff1673ffffffffffffffffffffffffffffffffffffffff16815260200190815260200160002060006101000a81549073ffffffffffffffffffffffffffffffffffffffff0219169055600160008373ffffffffffffffffffffffffffffffffffffffff1673ffffffffffffffffffffffffffffffffffffffff16815260200190815260200160002060008473ffffffffffffffffffffffffffffffffffffffff1673ffffffffffffffffffffffffffffffffffffffff16815260200190815260200160002060006101000a81549073ffffffffffffffffffffffffffffffffffffffff02191690556001905092915050565b6000808383620018bf62000bb8565b30604051620018ce9062001a9f565b620018dd949392919062002584565b604051809103906000f080158015620018fa573d6000803e3d6000fd5b50905080915081600160008673ffffffffffffffffffffffffffffffffffffffff1673ffffffffffffffffffffffffffffffffffffffff16815260200190815260200160002060008573ffffffffffffffffffffffffffffffffffffffff1673ffffffffffffffffffffffffffffffffffffffff16815260200190815260200160002060006101000a81548173ffffffffffffffffffffffffffffffffffffffff021916908373ffffffffffffffffffffffffffffffffffffffff16021790555081600160008573ffffffffffffffffffffffffffffffffffffffff1673ffffffffffffffffffffffffffffffffffffffff16815260200190815260200160002060008673ffffffffffffffffffffffffffffffffffffffff1673ffffffffffffffffffffffffffffffffffffffff16815260200190815260200160002060006101000a81548173ffffffffffffffffffffffffffffffffffffffff021916908373ffffffffffffffffffffffffffffffffffffffff1602179055506002600081548092919062001a8b90620025d1565b91905055505092915050565b600033905090565b613996806200261f83390190565b6000604051905090565b600080fd5b600080fd5b600073ffffffffffffffffffffffffffffffffffffffff82169050919050565b600062001aee8262001ac1565b9050919050565b62001b008162001ae1565b811462001b0c57600080fd5b50565b60008135905062001b208162001af5565b92915050565b6000806040838503121562001b405762001b3f62001ab7565b5b600062001b508582860162001b0f565b925050602062001b638582860162001b0f565b9150509250929050565b62001b788162001ae1565b82525050565b600060208201905062001b95600083018462001b6d565b92915050565b600080fd5b600080fd5b6000601f19601f8301169050919050565b7f4e487b7100000000000000000000000000000000000000000000000000000000600052604160045260246000fd5b62001bf08262001ba5565b810181811067ffffffffffffffff8211171562001c125762001c1162001bb6565b5b80604052505050565b600062001c2762001aad565b905062001c35828262001be5565b919050565b600067ffffffffffffffff82111562001c585762001c5762001bb6565b5b62001c638262001ba5565b9050602081019050919050565b82818337600083830152505050565b600062001c9662001c908462001c3a565b62001c1b565b90508281526020810184848401111562001cb55762001cb462001ba0565b5b62001cc284828562001c70565b509392505050565b600082601f83011262001ce25762001ce162001b9b565b5b813562001cf484826020860162001c7f565b91505092915050565b6000806040838503121562001d175762001d1662001ab7565b5b600083013567ffffffffffffffff81111562001d385762001d3762001abc565b5b62001d468582860162001cca565b925050602062001d598582860162001b0f565b9150509250929050565b6000819050919050565b62001d788162001d63565b811462001d8457600080fd5b50565b60008135905062001d988162001d6d565b92915050565b60008060006060848603121562001dba5762001db962001ab7565b5b600084013567ffffffffffffffff81111562001ddb5762001dda62001abc565b5b62001de98682870162001cca565b935050602084013567ffffffffffffffff81111562001e0d5762001e0c62001abc565b5b62001e1b8682870162001cca565b925050604062001e2e8682870162001d87565b9150509250925092565b62001e438162001d63565b82525050565b600060208201905062001e60600083018462001e38565b92915050565b6000806040838503121562001e805762001e7f62001ab7565b5b600083013567ffffffffffffffff81111562001ea15762001ea062001abc565b5b62001eaf8582860162001cca565b925050602083013567ffffffffffffffff81111562001ed35762001ed262001abc565b5b62001ee18582860162001cca565b9150509250929050565b600060408201905062001f02600083018562001b6d565b62001f11602083018462001b6d565b9392505050565b60006020828403121562001f315762001f3062001ab7565b5b600082013567ffffffffffffffff81111562001f525762001f5162001abc565b5b62001f608482850162001cca565b91505092915050565b60008115159050919050565b62001f808162001f69565b82525050565b600060208201905062001f9d600083018462001f75565b92915050565b6000806000806080858703121562001fc05762001fbf62001ab7565b5b600085013567ffffffffffffffff81111562001fe15762001fe062001abc565b5b62001fef8782880162001cca565b9450506020620020028782880162001b0f565b935050604085013567ffffffffffffffff81111562002026576200202562001abc565b5b620020348782880162001cca565b9250506060620020478782880162001b0f565b91505092959194509250565b6000602082840312156200206c576200206b62001ab7565b5b60006200207c8482850162001b0f565b91505092915050565b600081519050919050565b600081905092915050565b60005b83811015620020bb5780820151818401526020810190506200209e565b60008484015250505050565b6000620020d48262002085565b620020e0818562002090565b9350620020f28185602086016200209b565b80840191505092915050565b60006200210c8284620020c7565b915081905092915050565b600082825260208201905092915050565b7f4d617070696e6720657869737473000000000000000000000000000000000000600082015250565b600062002160600e8362002117565b91506200216d8262002128565b602082019050919050565b60006020820190508181036000830152620021938162002151565b9050919050565b7f496e76616c6964206d617070696e670000000000000000000000000000000000600082015250565b6000620021d2600f8362002117565b9150620021df826200219a565b602082019050919050565b600060208201905081810360008301526200220581620021c3565b9050919050565b6000815190506200221d8162001d6d565b92915050565b6000602082840312156200223c576200223b62001ab7565b5b60006200224c848285016200220c565b91505092915050565b7f4e656564206174206c656173742031356b2067414e4e41000000000000000000600082015250565b60006200228d60178362002117565b91506200229a8262002255565b602082019050919050565b60006020820190508181036000830152620022c0816200227e565b9050919050565b7f496e76616c696420616464726573730000000000000000000000000000000000600082015250565b6000620022ff600f8362002117565b91506200230c82620022c7565b602082019050919050565b600060208201905081810360008301526200233281620022f0565b9050919050565b7f5468652070616972206578697374730000000000000000000000000000000000600082015250565b600062002371600f8362002117565b91506200237e8262002339565b602082019050919050565b60006020820190508181036000830152620023a48162002362565b9050919050565b7f4f776e61626c653a206e6577206f776e657220697320746865207a65726f206160008201527f6464726573730000000000000000000000000000000000000000000000000000602082015250565b60006200240960268362002117565b91506200241682620023ab565b604082019050919050565b600060208201905081810360008301526200243c81620023fa565b9050919050565b7f4f776e61626c653a2063616c6c6572206973206e6f7420746865206f776e6572600082015250565b60006200247b60208362002117565b9150620024888262002443565b602082019050919050565b60006020820190508181036000830152620024ae816200246c565b9050919050565b7f496e76616c69642065786368616e676500000000000000000000000000000000600082015250565b6000620024ed60108362002117565b9150620024fa82620024b5565b602082019050919050565b600060208201905081810360008301526200252081620024de565b9050919050565b7f4e487b7100000000000000000000000000000000000000000000000000000000600052601160045260246000fd5b6000620025638262001d63565b91506000820362002579576200257862002527565b5b600182039050919050565b60006080820190506200259b600083018762001b6d565b620025aa602083018662001b6d565b620025b9604083018562001b6d565b620025c8606083018462001b6d565b95945050505050565b6000620025de8262001d63565b91507fffffffffffffffffffffffffffffffffffffffffffffffffffffffffffffffff820362002613576200261262002527565b5b60018201905091905056fe60c06040526103de6007553480156200001757600080fd5b50604051620039963803806200399683398181016040528101906200003d9190620002da565b6040518060400160405280600781526020017f4c5020414e4e41000000000000000000000000000000000000000000000000008152506040518060400160405280600681526020017f6c70414e4e4100000000000000000000000000000000000000000000000000008152508160039081620000ba9190620005c6565b508060049081620000cc9190620005c6565b505050600073ffffffffffffffffffffffffffffffffffffffff168473ffffffffffffffffffffffffffffffffffffffff16141580156200013a5750600073ffffffffffffffffffffffffffffffffffffffff168373ffffffffffffffffffffffffffffffffffffffff1614155b6200017c576040517f08c379a000000000000000000000000000000000000000000000000000000000815260040162000173906200070e565b60405180910390fd5b8373ffffffffffffffffffffffffffffffffffffffff1660808173ffffffffffffffffffffffffffffffffffffffff16815250508273ffffffffffffffffffffffffffffffffffffffff1660a08173ffffffffffffffffffffffffffffffffffffffff168152505081600660006101000a81548173ffffffffffffffffffffffffffffffffffffffff021916908373ffffffffffffffffffffffffffffffffffffffff16021790555080600560006101000a81548173ffffffffffffffffffffffffffffffffffffffff021916908373ffffffffffffffffffffffffffffffffffffffff1602179055505050505062000730565b600080fd5b600073ffffffffffffffffffffffffffffffffffffffff82169050919050565b6000620002a28262000275565b9050919050565b620002b48162000295565b8114620002c057600080fd5b50565b600081519050620002d481620002a9565b92915050565b60008060008060808587031215620002f757620002f662000270565b5b60006200030787828801620002c3565b94505060206200031a87828801620002c3565b93505060406200032d87828801620002c3565b92505060606200034087828801620002c3565b91505092959194509250565b600081519050919050565b7f4e487b7100000000000000000000000000000000000000000000000000000000600052604160045260246000fd5b7f4e487b7100000000000000000000000000000000000000000000000000000000600052602260045260246000fd5b60006002820490506001821680620003ce57607f821691505b602082108103620003e457620003e362000386565b5b50919050565b60008190508160005260206000209050919050565b60006020601f8301049050919050565b600082821b905092915050565b6000600883026200044e7fffffffffffffffffffffffffffffffffffffffffffffffffffffffffffffffff826200040f565b6200045a86836200040f565b95508019841693508086168417925050509392505050565b6000819050919050565b6000819050919050565b6000620004a7620004a16200049b8462000472565b6200047c565b62000472565b9050919050565b6000819050919050565b620004c38362000486565b620004db620004d282620004ae565b8484546200041c565b825550505050565b600090565b620004f2620004e3565b620004ff818484620004b8565b505050565b5b8181101562000527576200051b600082620004e8565b60018101905062000505565b5050565b601f82111562000576576200054081620003ea565b6200054b84620003ff565b810160208510156200055b578190505b620005736200056a85620003ff565b83018262000504565b50505b505050565b600082821c905092915050565b60006200059b600019846008026200057b565b1980831691505092915050565b6000620005b6838362000588565b9150826002028217905092915050565b620005d1826200034c565b67ffffffffffffffff811115620005ed57620005ec62000357565b5b620005f98254620003b5565b620006068282856200052b565b600060209050601f8311600181146200063e576000841562000629578287015190505b620006358582620005a8565b865550620006a5565b601f1984166200064e86620003ea565b60005b82811015620006785784890151825560018201915060208501945060208101905062000651565b8683101562000698578489015162000694601f89168262000588565b8355505b6001600288020188555050505b505050505050565b600082825260208201905092915050565b7f496e76616c696420616464726573736573000000000000000000000000000000600082015250565b6000620006f6601183620006ad565b91506200070382620006be565b602082019050919050565b600060208201905081810360008301526200072981620006e7565b9050919050565b60805160a0516131de620007b860003960008181610635015281816109280152818161098701528181610b5f01528181610d80015281816111eb0152818161143301526117bf01526000818161059b015281816107ce0152818161082d01528181610c0301528181610cdf0152818161114c01528181611392015261186001526131de6000f3fe608060405234801561001057600080fd5b50600436106101585760003560e01c806395d89b41116100c3578063b32440411161007c578063b3244041146103f4578063b34cb6f614610425578063ca90777514610455578063d778d42614610485578063dc805b17146104b6578063dd62ed3e146104d257610158565b806395d89b411461030b578063966dae0e146103295780639c8f9f2314610347578063a457c2d714610378578063a9059cbb146103a8578063ab7e2058146103d857610158565b8063313ce56711610115578063313ce56714610223578063395093511461024157806351c6590a1461027157806369fe0e2d146102a157806370a08231146102bd5780638da5cb5b146102ed57610158565b806306fdde031461015d5780630902f1ac1461017b578063095ea7b31461019b57806318160ddd146101cb57806323b872dd146101e95780632b68b9c614610219575b600080fd5b610165610502565b604051610172919061230c565b60405180910390f35b610183610594565b60405161019293929190612347565b60405180910390f35b6101b560048036038101906101b0919061240d565b6106e0565b6040516101c29190612468565b60405180910390f35b6101d3610703565b6040516101e09190612483565b60405180910390f35b61020360048036038101906101fe919061249e565b61070d565b6040516102109190612468565b60405180910390f35b61022161073c565b005b61022b610abb565b604051610238919061250d565b60405180910390f35b61025b6004803603810190610256919061240d565b610ac4565b6040516102689190612468565b60405180910390f35b61028b60048036038101906102869190612528565b610afb565b6040516102989190612483565b60405180910390f35b6102bb60048036038101906102b69190612528565b610eca565b005b6102d760048036038101906102d29190612555565b611007565b6040516102e49190612483565b60405180910390f35b6102f561104f565b6040516103029190612591565b60405180910390f35b610313611075565b604051610320919061230c565b60405180910390f35b610331611107565b60405161033e9190612591565b60405180910390f35b610361600480360381019061035c9190612528565b61112d565b60405161036f9291906125ac565b60405180910390f35b610392600480360381019061038d919061240d565b6112e9565b60405161039f9190612468565b60405180910390f35b6103c260048036038101906103bd919061240d565b611360565b6040516103cf9190612468565b60405180910390f35b6103f260048036038101906103ed9190612528565b611383565b005b61040e60048036038101906104099190612528565b611526565b60405161041c9291906125ac565b60405180910390f35b61043f600480360381019061043a9190612528565b611619565b60405161044c9190612483565b60405180910390f35b61046f600480360381019061046a9190612528565b61168b565b60405161047c9190612483565b60405180910390f35b61049f600480360381019061049a9190612528565b6116fd565b6040516104ad9291906125ac565b60405180910390f35b6104d060048036038101906104cb9190612528565b6117b0565b005b6104ec60048036038101906104e791906125d5565b611953565b6040516104f99190612483565b60405180910390f35b60606003805461051190612644565b80601f016020809104026020016040519081016040528092919081815260200182805461053d90612644565b801561058a5780601f1061055f5761010080835404028352916020019161058a565b820191906000526020600020905b81548152906001019060200180831161056d57829003601f168201915b5050505050905090565b60008060007f000000000000000000000000000000000000000000000000000000000000000073ffffffffffffffffffffffffffffffffffffffff166370a08231306040518263ffffffff1660e01b81526004016105f29190612591565b602060405180830381865afa15801561060f573d6000803e3d6000fd5b505050506040513d601f19601f82011682018060405250810190610633919061268a565b7f000000000000000000000000000000000000000000000000000000000000000073ffffffffffffffffffffffffffffffffffffffff166370a08231306040518263ffffffff1660e01b815260040161068c9190612591565b602060405180830381865afa1580156106a9573d6000803e3d6000fd5b505050506040513d601f19601f820116820180604052508101906106cd919061268a565b6106d5610703565b925092509250909192565b6000806106eb6119da565b90506106f88185856119e2565b600191505092915050565b6000600254905090565b6000806107186119da565b9050610725858285611bab565b610730858585611c37565b60019150509392505050565b600560009054906101000a900473ffffffffffffffffffffffffffffffffffffffff1673ffffffffffffffffffffffffffffffffffffffff163373ffffffffffffffffffffffffffffffffffffffff16146107cc576040517f08c379a00000000000000000000000000000000000000000000000000000000081526004016107c390612703565b60405180910390fd5b7f000000000000000000000000000000000000000000000000000000000000000073ffffffffffffffffffffffffffffffffffffffff1663a9059cbb600660009054906101000a900473ffffffffffffffffffffffffffffffffffffffff167f000000000000000000000000000000000000000000000000000000000000000073ffffffffffffffffffffffffffffffffffffffff166370a08231306040518263ffffffff1660e01b81526004016108849190612591565b602060405180830381865afa1580156108a1573d6000803e3d6000fd5b505050506040513d601f19601f820116820180604052508101906108c5919061268a565b6040518363ffffffff1660e01b81526004016108e2929190612723565b6020604051808303816000875af1158015610901573d6000803e3d6000fd5b505050506040513d601f19601f820116820180604052508101906109259190612778565b507f000000000000000000000000000000000000000000000000000000000000000073ffffffffffffffffffffffffffffffffffffffff1663a9059cbb600660009054906101000a900473ffffffffffffffffffffffffffffffffffffffff167f000000000000000000000000000000000000000000000000000000000000000073ffffffffffffffffffffffffffffffffffffffff166370a08231306040518263ffffffff1660e01b81526004016109de9190612591565b602060405180830381865afa1580156109fb573d6000803e3d6000fd5b505050506040513d601f19601f82011682018060405250810190610a1f919061268a565b6040518363ffffffff1660e01b8152600401610a3c929190612723565b6020604051808303816000875af1158015610a5b573d6000803e3d6000fd5b505050506040513d601f19601f82011682018060405250810190610a7f9190612778565b50600660009054906101000a900473ffffffffffffffffffffffffffffffffffffffff1673ffffffffffffffffffffffffffffffffffffffff16ff5b60006012905090565b600080610acf6119da565b9050610af0818585610ae18589611953565b610aeb91906127d4565b6119e2565b600191505092915050565b6000806000610b09846116fd565b91509150600084118015610b1d5750600082115b610b5c576040517f08c379a0000000000000000000000000000000000000000000000000000000008152600401610b5390612854565b60405180910390fd5b817f000000000000000000000000000000000000000000000000000000000000000073ffffffffffffffffffffffffffffffffffffffff166370a08231336040518263ffffffff1660e01b8152600401610bb69190612591565b602060405180830381865afa158015610bd3573d6000803e3d6000fd5b505050506040513d601f19601f82011682018060405250810190610bf7919061268a565b10158015610c9e5750837f000000000000000000000000000000000000000000000000000000000000000073ffffffffffffffffffffffffffffffffffffffff166370a08231336040518263ffffffff1660e01b8152600401610c5a9190612591565b602060405180830381865afa158015610c77573d6000803e3d6000fd5b505050506040513d601f19601f82011682018060405250810190610c9b919061268a565b10155b610cdd576040517f08c379a0000000000000000000000000000000000000000000000000000000008152600401610cd4906128c0565b60405180910390fd5b7f000000000000000000000000000000000000000000000000000000000000000073ffffffffffffffffffffffffffffffffffffffff166323b872dd3330876040518463ffffffff1660e01b8152600401610d3a939291906128e0565b6020604051808303816000875af1158015610d59573d6000803e3d6000fd5b505050506040513d601f19601f82011682018060405250810190610d7d9190612778565b507f000000000000000000000000000000000000000000000000000000000000000073ffffffffffffffffffffffffffffffffffffffff166323b872dd3330856040518463ffffffff1660e01b8152600401610ddb939291906128e0565b6020604051808303816000875af1158015610dfa573d6000803e3d6000fd5b505050506040513d601f19601f82011682018060405250810190610e1e9190612778565b5060008111610e62576040517f08c379a0000000000000000000000000000000000000000000000000000000008152600401610e5990612854565b60405180910390fd5b610e6c3382611ead565b3373ffffffffffffffffffffffffffffffffffffffff167fcafc425af80b5c3cc42df3bcd7a80be8864e530e91080220b0927a2e8738633785848442604051610eb89493929190612917565b60405180910390a28092505050919050565b6103848110158015610ede57506103e88111155b610f1d576040517f08c379a0000000000000000000000000000000000000000000000000000000008152600401610f14906129ce565b60405180910390fd5b600560009054906101000a900473ffffffffffffffffffffffffffffffffffffffff1673ffffffffffffffffffffffffffffffffffffffff163373ffffffffffffffffffffffffffffffffffffffff1614610fad576040517f08c379a0000000000000000000000000000000000000000000000000000000008152600401610fa490612703565b60405180910390fd5b806007819055503373ffffffffffffffffffffffffffffffffffffffff167ff98c81ad0a5eb3551c3561de8dc9d1512e8680fb77425ea138ebfe9a9c0065ff8242604051610ffc9291906125ac565b60405180910390a250565b60008060008373ffffffffffffffffffffffffffffffffffffffff1673ffffffffffffffffffffffffffffffffffffffff168152602001908152602001600020549050919050565b600660009054906101000a900473ffffffffffffffffffffffffffffffffffffffff1681565b60606004805461108490612644565b80601f01602080910402602001604051908101604052809291908181526020018280546110b090612644565b80156110fd5780601f106110d2576101008083540402835291602001916110fd565b820191906000526020600020905b8154815290600101906020018083116110e057829003601f168201915b5050505050905090565b600560009054906101000a900473ffffffffffffffffffffffffffffffffffffffff1681565b60008060008061113c85611526565b9150915061114a3386612003565b7f000000000000000000000000000000000000000000000000000000000000000073ffffffffffffffffffffffffffffffffffffffff1663a9059cbb33846040518363ffffffff1660e01b81526004016111a5929190612723565b6020604051808303816000875af11580156111c4573d6000803e3d6000fd5b505050506040513d601f19601f820116820180604052508101906111e89190612778565b507f000000000000000000000000000000000000000000000000000000000000000073ffffffffffffffffffffffffffffffffffffffff1663a9059cbb33836040518363ffffffff1660e01b8152600401611244929190612723565b6020604051808303816000875af1158015611263573d6000803e3d6000fd5b505050506040513d601f19601f820116820180604052508101906112879190612778565b503373ffffffffffffffffffffffffffffffffffffffff167fb4b85360dd062bff16e260f0f39a75d05d0a80b492dd7dad17efe99a862a250c838388426040516112d49493929190612917565b60405180910390a28181935093505050915091565b6000806112f46119da565b905060006113028286611953565b905083811015611347576040517f08c379a000000000000000000000000000000000000000000000000000000000815260040161133e90612a60565b60405180910390fd5b61135482868684036119e2565b60019250505092915050565b60008061136b6119da565b9050611378818585611c37565b600191505092915050565b600061138e82611619565b90507f000000000000000000000000000000000000000000000000000000000000000073ffffffffffffffffffffffffffffffffffffffff166323b872dd3330856040518463ffffffff1660e01b81526004016113ed939291906128e0565b6020604051808303816000875af115801561140c573d6000803e3d6000fd5b505050506040513d601f19601f820116820180604052508101906114309190612778565b507f000000000000000000000000000000000000000000000000000000000000000073ffffffffffffffffffffffffffffffffffffffff1663a9059cbb33836040518363ffffffff1660e01b815260040161148c929190612723565b6020604051808303816000875af11580156114ab573d6000803e3d6000fd5b505050506040513d601f19601f820116820180604052508101906114cf9190612778565b503373ffffffffffffffffffffffffffffffffffffffff167f17c5b36beecc08bb34c131595b72648615701863750cb5dd40952abd4128af7782844260405161151a93929190612347565b60405180910390a25050565b6000806000806000611536610594565b92509250925061154533611007565b86111580156115545750600086115b80156115605750808611155b61159f576040517f08c379a000000000000000000000000000000000000000000000000000000000815260040161159690612acc565b60405180910390fd5b6000816103e86115af9190612aec565b84600754896115be9190612aec565b6115c89190612aec565b6115d29190612b5d565b90506000826103e86115e49190612aec565b846007548a6115f39190612aec565b6115fd9190612aec565b6116079190612b5d565b90508181965096505050505050915091565b600080600080611627610594565b92509250925060008111611670576040517f08c379a000000000000000000000000000000000000000000000000000000000815260040161166790612bda565b60405180910390fd5b600061167d8685856121d0565b905080945050505050919050565b600080600080611699610594565b925092509250600081116116e2576040517f08c379a00000000000000000000000000000000000000000000000000000000081526004016116d990612bda565b60405180910390fd5b60006116ef8684866121d0565b905080945050505050919050565b600080600080600061170d610594565b92509250925060008103611726578593508594506117a8565b6000831180156117365750600082115b611775576040517f08c379a000000000000000000000000000000000000000000000000000000000815260040161176c90612c46565b60405180910390fd5b8282876117829190612aec565b61178c9190612b5d565b945082868261179b9190612aec565b6117a59190612b5d565b93505b505050915091565b60006117bb8261168b565b90507f000000000000000000000000000000000000000000000000000000000000000073ffffffffffffffffffffffffffffffffffffffff166323b872dd3330856040518463ffffffff1660e01b815260040161181a939291906128e0565b6020604051808303816000875af1158015611839573d6000803e3d6000fd5b505050506040513d601f19601f8201168201806040525081019061185d9190612778565b507f000000000000000000000000000000000000000000000000000000000000000073ffffffffffffffffffffffffffffffffffffffff1663a9059cbb33836040518363ffffffff1660e01b81526004016118b9929190612723565b6020604051808303816000875af11580156118d8573d6000803e3d6000fd5b505050506040513d601f19601f820116820180604052508101906118fc9190612778565b503373ffffffffffffffffffffffffffffffffffffffff167f17c5b36beecc08bb34c131595b72648615701863750cb5dd40952abd4128af7782844260405161194793929190612347565b60405180910390a25050565b6000600160008473ffffffffffffffffffffffffffffffffffffffff1673ffffffffffffffffffffffffffffffffffffffff16815260200190815260200160002060008373ffffffffffffffffffffffffffffffffffffffff1673ffffffffffffffffffffffffffffffffffffffff16815260200190815260200160002054905092915050565b600033905090565b600073ffffffffffffffffffffffffffffffffffffffff168373ffffffffffffffffffffffffffffffffffffffff1603611a51576040517f08c379a0000000000000000000000000000000000000000000000000000000008152600401611a4890612cd8565b60405180910390fd5b600073ffffffffffffffffffffffffffffffffffffffff168273ffffffffffffffffffffffffffffffffffffffff1603611ac0576040517f08c379a0000000000000000000000000000000000000000000000000000000008152600401611ab790612d6a565b60405180910390fd5b80600160008573ffffffffffffffffffffffffffffffffffffffff1673ffffffffffffffffffffffffffffffffffffffff16815260200190815260200160002060008473ffffffffffffffffffffffffffffffffffffffff1673ffffffffffffffffffffffffffffffffffffffff168152602001908152602001600020819055508173ffffffffffffffffffffffffffffffffffffffff168373ffffffffffffffffffffffffffffffffffffffff167f8c5be1e5ebec7d5bd14f71427d1e84f3dd0314c0f7b2291e5b200ac8c7c3b92583604051611b9e9190612483565b60405180910390a3505050565b6000611bb78484611953565b90507fffffffffffffffffffffffffffffffffffffffffffffffffffffffffffffffff8114611c315781811015611c23576040517f08c379a0000000000000000000000000000000000000000000000000000000008152600401611c1a90612dd6565b60405180910390fd5b611c3084848484036119e2565b5b50505050565b600073ffffffffffffffffffffffffffffffffffffffff168373ffffffffffffffffffffffffffffffffffffffff1603611ca6576040517f08c379a0000000000000000000000000000000000000000000000000000000008152600401611c9d90612e68565b60405180910390fd5b600073ffffffffffffffffffffffffffffffffffffffff168273ffffffffffffffffffffffffffffffffffffffff1603611d15576040517f08c379a0000000000000000000000000000000000000000000000000000000008152600401611d0c90612efa565b60405180910390fd5b611d20838383612272565b60008060008573ffffffffffffffffffffffffffffffffffffffff1673ffffffffffffffffffffffffffffffffffffffff16815260200190815260200160002054905081811015611da6576040517f08c379a0000000000000000000000000000000000000000000000000000000008152600401611d9d90612f8c565b60405180910390fd5b8181036000808673ffffffffffffffffffffffffffffffffffffffff1673ffffffffffffffffffffffffffffffffffffffff16815260200190815260200160002081905550816000808573ffffffffffffffffffffffffffffffffffffffff1673ffffffffffffffffffffffffffffffffffffffff168152602001908152602001600020600082825401925050819055508273ffffffffffffffffffffffffffffffffffffffff168473ffffffffffffffffffffffffffffffffffffffff167fddf252ad1be2c89b69c2b068fc378daa952ba7f163c4a11628f55a4df523b3ef84604051611e949190612483565b60405180910390a3611ea7848484612277565b50505050565b600073ffffffffffffffffffffffffffffffffffffffff168273ffffffffffffffffffffffffffffffffffffffff1603611f1c576040517f08c379a0000000000000000000000000000000000000000000000000000000008152600401611f1390612ff8565b60405180910390fd5b611f2860008383612272565b8060026000828254611f3a91906127d4565b92505081905550806000808473ffffffffffffffffffffffffffffffffffffffff1673ffffffffffffffffffffffffffffffffffffffff168152602001908152602001600020600082825401925050819055508173ffffffffffffffffffffffffffffffffffffffff16600073ffffffffffffffffffffffffffffffffffffffff167fddf252ad1be2c89b69c2b068fc378daa952ba7f163c4a11628f55a4df523b3ef83604051611feb9190612483565b60405180910390a3611fff60008383612277565b5050565b600073ffffffffffffffffffffffffffffffffffffffff168273ffffffffffffffffffffffffffffffffffffffff1603612072576040517f08c379a00000000000000000000000000000000000000000000000000000000081526004016120699061308a565b60405180910390fd5b61207e82600083612272565b60008060008473ffffffffffffffffffffffffffffffffffffffff1673ffffffffffffffffffffffffffffffffffffffff16815260200190815260200160002054905081811015612104576040517f08c379a00000000000000000000000000000000000000000000000000000000081526004016120fb9061311c565b60405180910390fd5b8181036000808573ffffffffffffffffffffffffffffffffffffffff1673ffffffffffffffffffffffffffffffffffffffff1681526020019081526020016000208190555081600260008282540392505081905550600073ffffffffffffffffffffffffffffffffffffffff168373ffffffffffffffffffffffffffffffffffffffff167fddf252ad1be2c89b69c2b068fc378daa952ba7f163c4a11628f55a4df523b3ef846040516121b79190612483565b60405180910390a36121cb83600084612277565b505050565b6000808411612214576040517f08c379a000000000000000000000000000000000000000000000000000000000815260040161220b90613188565b60405180910390fd5b600082600754866122259190612aec565b61222f9190612aec565b90506000600754866122419190612aec565b856103e861224f9190612aec565b61225991906127d4565b905080826122679190612b5d565b925050509392505050565b505050565b505050565b600081519050919050565b600082825260208201905092915050565b60005b838110156122b657808201518184015260208101905061229b565b60008484015250505050565b6000601f19601f8301169050919050565b60006122de8261227c565b6122e88185612287565b93506122f8818560208601612298565b612301816122c2565b840191505092915050565b6000602082019050818103600083015261232681846122d3565b905092915050565b6000819050919050565b6123418161232e565b82525050565b600060608201905061235c6000830186612338565b6123696020830185612338565b6123766040830184612338565b949350505050565b600080fd5b600073ffffffffffffffffffffffffffffffffffffffff82169050919050565b60006123ae82612383565b9050919050565b6123be816123a3565b81146123c957600080fd5b50565b6000813590506123db816123b5565b92915050565b6123ea8161232e565b81146123f557600080fd5b50565b600081359050612407816123e1565b92915050565b600080604083850312156124245761242361237e565b5b6000612432858286016123cc565b9250506020612443858286016123f8565b9150509250929050565b60008115159050919050565b6124628161244d565b82525050565b600060208201905061247d6000830184612459565b92915050565b60006020820190506124986000830184612338565b92915050565b6000806000606084860312156124b7576124b661237e565b5b60006124c5868287016123cc565b93505060206124d6868287016123cc565b92505060406124e7868287016123f8565b9150509250925092565b600060ff82169050919050565b612507816124f1565b82525050565b600060208201905061252260008301846124fe565b92915050565b60006020828403121561253e5761253d61237e565b5b600061254c848285016123f8565b91505092915050565b60006020828403121561256b5761256a61237e565b5b6000612579848285016123cc565b91505092915050565b61258b816123a3565b82525050565b60006020820190506125a66000830184612582565b92915050565b60006040820190506125c16000830185612338565b6125ce6020830184612338565b9392505050565b600080604083850312156125ec576125eb61237e565b5b60006125fa858286016123cc565b925050602061260b858286016123cc565b9150509250929050565b7f4e487b7100000000000000000000000000000000000000000000000000000000600052602260045260246000fd5b6000600282049050600182168061265c57607f821691505b60208210810361266f5761266e612615565b5b50919050565b600081519050612684816123e1565b92915050565b6000602082840312156126a05761269f61237e565b5b60006126ae84828501612675565b91505092915050565b7f4e6f7420666163746f7279000000000000000000000000000000000000000000600082015250565b60006126ed600b83612287565b91506126f8826126b7565b602082019050919050565b6000602082019050818103600083015261271c816126e0565b9050919050565b60006040820190506127386000830185612582565b6127456020830184612338565b9392505050565b6127558161244d565b811461276057600080fd5b50565b6000815190506127728161274c565b92915050565b60006020828403121561278e5761278d61237e565b5b600061279c84828501612763565b91505092915050565b7f4e487b7100000000000000000000000000000000000000000000000000000000600052601160045260246000fd5b60006127df8261232e565b91506127ea8361232e565b9250828201905080821115612802576128016127a5565b5b92915050565b7f4d75737420626520706f73697469766520616d6f756e74000000000000000000600082015250565b600061283e601783612287565b915061284982612808565b602082019050919050565b6000602082019050818103600083015261286d81612831565b9050919050565b7f496e73756666696369656e7420746f6b656e7300000000000000000000000000600082015250565b60006128aa601383612287565b91506128b582612874565b602082019050919050565b600060208201905081810360008301526128d98161289d565b9050919050565b60006060820190506128f56000830186612582565b6129026020830185612582565b61290f6040830184612338565b949350505050565b600060808201905061292c6000830187612338565b6129396020830186612338565b6129466040830185612338565b6129536060830184612338565b95945050505050565b7f4f6e6c79206265747765656e203930302028313025206665652920616e64203160008201527f3030302028302520666565290000000000000000000000000000000000000000602082015250565b60006129b8602c83612287565b91506129c38261295c565b604082019050919050565b600060208201905081810360008301526129e7816129ab565b9050919050565b7f45524332303a2064656372656173656420616c6c6f77616e63652062656c6f7760008201527f207a65726f000000000000000000000000000000000000000000000000000000602082015250565b6000612a4a602583612287565b9150612a55826129ee565b604082019050919050565b60006020820190508181036000830152612a7981612a3d565b9050919050565b7f496e76616c696420616d6f756e74000000000000000000000000000000000000600082015250565b6000612ab6600e83612287565b9150612ac182612a80565b602082019050919050565b60006020820190508181036000830152612ae581612aa9565b9050919050565b6000612af78261232e565b9150612b028361232e565b9250828202612b108161232e565b91508282048414831517612b2757612b266127a5565b5b5092915050565b7f4e487b7100000000000000000000000000000000000000000000000000000000600052601260045260246000fd5b6000612b688261232e565b9150612b738361232e565b925082612b8357612b82612b2e565b5b828204905092915050565b7f496e61637469766520706f6f6c00000000000000000000000000000000000000600082015250565b6000612bc4600d83612287565b9150612bcf82612b8e565b602082019050919050565b60006020820190508181036000830152612bf381612bb7565b9050919050565b7f496e73756666696369656e742072657365727665730000000000000000000000600082015250565b6000612c30601583612287565b9150612c3b82612bfa565b602082019050919050565b60006020820190508181036000830152612c5f81612c23565b9050919050565b7f45524332303a20617070726f76652066726f6d20746865207a65726f2061646460008201527f7265737300000000000000000000000000000000000000000000000000000000602082015250565b6000612cc2602483612287565b9150612ccd82612c66565b604082019050919050565b60006020820190508181036000830152612cf181612cb5565b9050919050565b7f45524332303a20617070726f766520746f20746865207a65726f20616464726560008201527f7373000000000000000000000000000000000000000000000000000000000000602082015250565b6000612d54602283612287565b9150612d5f82612cf8565b604082019050919050565b60006020820190508181036000830152612d8381612d47565b9050919050565b7f45524332303a20696e73756666696369656e7420616c6c6f77616e6365000000600082015250565b6000612dc0601d83612287565b9150612dcb82612d8a565b602082019050919050565b60006020820190508181036000830152612def81612db3565b9050919050565b7f45524332303a207472616e736665722066726f6d20746865207a65726f20616460008201527f6472657373000000000000000000000000000000000000000000000000000000602082015250565b6000612e52602583612287565b9150612e5d82612df6565b604082019050919050565b60006020820190508181036000830152612e8181612e45565b9050919050565b7f45524332303a207472616e7366657220746f20746865207a65726f206164647260008201527f6573730000000000000000000000000000000000000000000000000000000000602082015250565b6000612ee4602383612287565b9150612eef82612e88565b604082019050919050565b60006020820190508181036000830152612f1381612ed7565b9050919050565b7f45524332303a207472616e7366657220616d6f756e742065786365656473206260008201527f616c616e63650000000000000000000000000000000000000000000000000000602082015250565b6000612f76602683612287565b9150612f8182612f1a565b604082019050919050565b60006020820190508181036000830152612fa581612f69565b9050919050565b7f45524332303a206d696e7420746f20746865207a65726f206164647265737300600082015250565b6000612fe2601f83612287565b9150612fed82612fac565b602082019050919050565b6000602082019050818103600083015261301181612fd5565b9050919050565b7f45524332303a206275726e2066726f6d20746865207a65726f2061646472657360008201527f7300000000000000000000000000000000000000000000000000000000000000602082015250565b6000613074602183612287565b915061307f82613018565b604082019050919050565b600060208201905081810360008301526130a381613067565b9050919050565b7f45524332303a206275726e20616d6f756e7420657863656564732062616c616e60008201527f6365000000000000000000000000000000000000000000000000000000000000602082015250565b6000613106602283612287565b9150613111826130aa565b604082019050919050565b60006020820190508181036000830152613135816130f9565b9050919050565b7f4e6f7420706f73697469766520616d6f756e7400000000000000000000000000600082015250565b6000613172601383612287565b915061317d8261313c565b602082019050919050565b600060208201905081810360008301526131a181613165565b905091905056fea2646970667358221220711c0336d51bcbc12177a1d4e609a786ee69c9bcbd23b9914cf6cce410ed317b64736f6c63430008110033a26469706673582212203420cf66d3d82bc6dd69de62a02b6a71cf66b3af6ad087d07e1932e000e68d9064736f6c63430008110033",
  "linkReferences": {},
  "deployedLinkReferences": {}
}