{
    "_format": "hh-sol-artifact-1",
    "contractName": "ExchangeFactory",
    "sourceName": "contracts/ExchangeFactory.sol",
    "abi": [
        {
            "anonymous": false,
            "inputs": [
                {
                    "indexed": true,
                    "internalType": "address",
                    "name": "previousOwner",
                    "type": "address"
                },
                {
                    "indexed": true,
                    "internalType": "address",
                    "name": "newOwner",
                    "type": "address"
                }
            ],
            "name": "OwnershipTransferred",
            "type": "event"
        },
        {
            "inputs": [
                {
                    "internalType": "string",
                    "name": "_token",
                    "type": "string"
                },
                {
                    "internalType": "address",
                    "name": "_address",
                    "type": "address"
                }
            ],
            "name": "addTokenMapping",
            "outputs": [],
            "stateMutability": "nonpayable",
            "type": "function"
        },
        {
            "inputs": [
                {
                    "internalType": "string",
                    "name": "_token",
                    "type": "string"
                }
            ],
            "name": "checkMapping",
            "outputs": [
                {
                    "internalType": "address",
                    "name": "",
                    "type": "address"
                }
            ],
            "stateMutability": "view",
            "type": "function"
        },
        {
            "inputs": [],
            "name": "claimOwner",
            "outputs": [],
            "stateMutability": "nonpayable",
            "type": "function"
        },
        {
            "inputs": [
                {
                    "internalType": "string",
                    "name": "_token1",
                    "type": "string"
                },
                {
                    "internalType": "address",
                    "name": "_token1Address",
                    "type": "address"
                },
                {
                    "internalType": "string",
                    "name": "_token2",
                    "type": "string"
                },
                {
                    "internalType": "address",
                    "name": "_token2Address",
                    "type": "address"
                }
            ],
            "name": "createExchangeBySymbol",
            "outputs": [],
            "stateMutability": "nonpayable",
            "type": "function"
        },
        {
            "inputs": [],
            "name": "destruct",
            "outputs": [],
            "stateMutability": "nonpayable",
            "type": "function"
        },
        {
            "inputs": [
                {
                    "internalType": "string",
                    "name": "_token1",
                    "type": "string"
                },
                {
                    "internalType": "string",
                    "name": "_token2",
                    "type": "string"
                }
            ],
            "name": "getExchangeBySymbol",
            "outputs": [
                {
                    "internalType": "address",
                    "name": "exchange1Address",
                    "type": "address"
                },
                {
                    "internalType": "address",
                    "name": "exchange2Address",
                    "type": "address"
                }
            ],
            "stateMutability": "view",
            "type": "function"
        },
        {
            "inputs": [],
            "name": "owner",
            "outputs": [
                {
                    "internalType": "address",
                    "name": "",
                    "type": "address"
                }
            ],
            "stateMutability": "view",
            "type": "function"
        },
        {
            "inputs": [
                {
                    "internalType": "string",
                    "name": "_token1",
                    "type": "string"
                },
                {
                    "internalType": "string",
                    "name": "_token2",
                    "type": "string"
                }
            ],
            "name": "removeExchangeBySymbol",
            "outputs": [],
            "stateMutability": "nonpayable",
            "type": "function"
        },
        {
            "inputs": [
                {
                    "internalType": "string",
                    "name": "_token",
                    "type": "string"
                }
            ],
            "name": "removeTokenMapping",
            "outputs": [],
            "stateMutability": "nonpayable",
            "type": "function"
        },
        {
            "inputs": [],
            "name": "renounceOwnership",
            "outputs": [],
            "stateMutability": "nonpayable",
            "type": "function"
        },
        {
            "inputs": [
                {
                    "internalType": "string",
                    "name": "_token1",
                    "type": "string"
                },
                {
                    "internalType": "string",
                    "name": "_token2",
                    "type": "string"
                },
                {
                    "internalType": "uint256",
                    "name": "_tradingFee",
                    "type": "uint256"
                }
            ],
            "name": "setFee",
            "outputs": [],
            "stateMutability": "nonpayable",
            "type": "function"
        },
        {
            "inputs": [
                {
                    "internalType": "address",
                    "name": "",
                    "type": "address"
                },
                {
                    "internalType": "address",
                    "name": "",
                    "type": "address"
                }
            ],
            "name": "tokenAddressToExchanges",
            "outputs": [
                {
                    "internalType": "address",
                    "name": "",
                    "type": "address"
                }
            ],
            "stateMutability": "view",
            "type": "function"
        },
        {
            "inputs": [
                {
                    "internalType": "string",
                    "name": "",
                    "type": "string"
                }
            ],
            "name": "tokenToAdress",
            "outputs": [
                {
                    "internalType": "address",
                    "name": "",
                    "type": "address"
                }
            ],
            "stateMutability": "view",
            "type": "function"
        },
        {
            "inputs": [
                {
                    "internalType": "address",
                    "name": "newOwner",
                    "type": "address"
                }
            ],
            "name": "transferOwnership",
            "outputs": [],
            "stateMutability": "nonpayable",
            "type": "function"
        }
    ],
    "bytecode": "0x608060405234801561001057600080fd5b5061002d61002261003260201b60201c565b61003a60201b60201c565b6100fe565b600033905090565b60008060009054906101000a900473ffffffffffffffffffffffffffffffffffffffff169050816000806101000a81548173ffffffffffffffffffffffffffffffffffffffff021916908373ffffffffffffffffffffffffffffffffffffffff1602179055508173ffffffffffffffffffffffffffffffffffffffff168173ffffffffffffffffffffffffffffffffffffffff167f8be0079c531659141344cd1fd0a4f28419497f9722a3daafe3b4186f6b6457e060405160405180910390a35050565b615f88806200010e6000396000f3fe60806040523480156200001157600080fd5b5060043610620001005760003560e01c80636a79258811620000995780639413a5c8116200006f5780639413a5c8146200024e578063be82d485146200026e578063f2fde38b146200028e578063f823f9a114620002ae5762000100565b80636a7925881462000200578063715018a614620002205780638da5cb5b146200022c5762000100565b80631ba8033711620000db5780631ba80337146200017b5780632b68b9c614620001b25780633bd1adec14620001be57806351870c4c14620001ca5762000100565b806303e30f40146200010557806311dac1c4146200013b578063192f99ef146200015b575b600080fd5b6200012360048036038101906200011d919062001a60565b620002e4565b60405162000132919062001ab8565b60405180910390f35b62000159600480360381019062000153919062001c37565b62000326565b005b62000179600480360381019062000173919062001cd8565b62000445565b005b62000199600480360381019062000193919062001d72565b620005df565b604051620001a992919062001df7565b60405180910390f35b620001bc62000958565b005b620001c862000984565b005b620001e86004803603810190620001e2919062001e24565b62000a73565b604051620001f7919062001ab8565b60405180910390f35b6200021e600480360381019062000218919062001e24565b62000abc565b005b6200022a62000b29565b005b6200023662000b41565b60405162000245919062001ab8565b60405180910390f35b6200026c600480360381019062000266919062001d72565b62000b6a565b005b6200028c600480360381019062000286919062001e75565b62000d35565b005b620002ac6004803603810190620002a6919062001f25565b62001115565b005b620002cc6004803603810190620002c6919062001e24565b6200119f565b604051620002db919062001ab8565b60405180910390f35b60016020528160005260406000206020528060005260406000206000915091509054906101000a900473ffffffffffffffffffffffffffffffffffffffff1681565b62000330620011e9565b600073ffffffffffffffffffffffffffffffffffffffff166002836040516200035a919062001fd0565b908152602001604051809103902060009054906101000a900473ffffffffffffffffffffffffffffffffffffffff1673ffffffffffffffffffffffffffffffffffffffff1614620003e2576040517f08c379a0000000000000000000000000000000000000000000000000000000008152600401620003d9906200204a565b60405180910390fd5b80600283604051620003f5919062001fd0565b908152602001604051809103902060006101000a81548173ffffffffffffffffffffffffffffffffffffffff021916908373ffffffffffffffffffffffffffffffffffffffff1602179055505050565b6200044f620011e9565b6001600060028560405162000465919062001fd0565b908152602001604051809103902060009054906101000a900473ffffffffffffffffffffffffffffffffffffffff1673ffffffffffffffffffffffffffffffffffffffff1673ffffffffffffffffffffffffffffffffffffffff1681526020019081526020016000206000600284604051620004e2919062001fd0565b908152602001604051809103902060009054906101000a900473ffffffffffffffffffffffffffffffffffffffff1673ffffffffffffffffffffffffffffffffffffffff1673ffffffffffffffffffffffffffffffffffffffff16815260200190815260200160002060009054906101000a900473ffffffffffffffffffffffffffffffffffffffff1673ffffffffffffffffffffffffffffffffffffffff166369fe0e2d826040518263ffffffff1660e01b8152600401620005a691906200207d565b600060405180830381600087803b158015620005c157600080fd5b505af1158015620005d6573d6000803e3d6000fd5b50505050505050565b6000808383600073ffffffffffffffffffffffffffffffffffffffff166002836040516200060e919062001fd0565b908152602001604051809103902060009054906101000a900473ffffffffffffffffffffffffffffffffffffffff1673ffffffffffffffffffffffffffffffffffffffff1614158015620006cf5750600073ffffffffffffffffffffffffffffffffffffffff1660028260405162000687919062001fd0565b908152602001604051809103902060009054906101000a900473ffffffffffffffffffffffffffffffffffffffff1673ffffffffffffffffffffffffffffffffffffffff1614155b62000711576040517f08c379a00000000000000000000000000000000000000000000000000000000081526004016200070890620020ea565b60405180910390fd5b6001600060028860405162000727919062001fd0565b908152602001604051809103902060009054906101000a900473ffffffffffffffffffffffffffffffffffffffff1673ffffffffffffffffffffffffffffffffffffffff1673ffffffffffffffffffffffffffffffffffffffff1681526020019081526020016000206000600287604051620007a4919062001fd0565b908152602001604051809103902060009054906101000a900473ffffffffffffffffffffffffffffffffffffffff1673ffffffffffffffffffffffffffffffffffffffff1673ffffffffffffffffffffffffffffffffffffffff16815260200190815260200160002060009054906101000a900473ffffffffffffffffffffffffffffffffffffffff1693506001600060028760405162000846919062001fd0565b908152602001604051809103902060009054906101000a900473ffffffffffffffffffffffffffffffffffffffff1673ffffffffffffffffffffffffffffffffffffffff1673ffffffffffffffffffffffffffffffffffffffff1681526020019081526020016000206000600288604051620008c3919062001fd0565b908152602001604051809103902060009054906101000a900473ffffffffffffffffffffffffffffffffffffffff1673ffffffffffffffffffffffffffffffffffffffff1673ffffffffffffffffffffffffffffffffffffffff16815260200190815260200160002060009054906101000a900473ffffffffffffffffffffffffffffffffffffffff16925050509250929050565b62000962620011e9565b6200096c62000b41565b73ffffffffffffffffffffffffffffffffffffffff16ff5b69032d26d12e980b60000073d9145cce52d386f254917e481eb44e9943f3913873ffffffffffffffffffffffffffffffffffffffff166370a08231336040518263ffffffff1660e01b8152600401620009de919062001ab8565b602060405180830381865afa158015620009fc573d6000803e3d6000fd5b505050506040513d601f19601f8201168201806040525081019062000a22919062002123565b101562000a66576040517f08c379a000000000000000000000000000000000000000000000000000000000815260040162000a5d90620021a5565b60405180910390fd5b62000a71336200126e565b565b6002818051602081018201805184825260208301602085012081835280955050505050506000915054906101000a900473ffffffffffffffffffffffffffffffffffffffff1681565b62000ac6620011e9565b600060028260405162000ada919062001fd0565b908152602001604051809103902060006101000a81548173ffffffffffffffffffffffffffffffffffffffff021916908373ffffffffffffffffffffffffffffffffffffffff16021790555050565b62000b33620011e9565b62000b3f60006200126e565b565b60008060009054906101000a900473ffffffffffffffffffffffffffffffffffffffff16905090565b8181600073ffffffffffffffffffffffffffffffffffffffff1660028360405162000b96919062001fd0565b908152602001604051809103902060009054906101000a900473ffffffffffffffffffffffffffffffffffffffff1673ffffffffffffffffffffffffffffffffffffffff161415801562000c575750600073ffffffffffffffffffffffffffffffffffffffff1660028260405162000c0f919062001fd0565b908152602001604051809103902060009054906101000a900473ffffffffffffffffffffffffffffffffffffffff1673ffffffffffffffffffffffffffffffffffffffff1614155b62000c99576040517f08c379a000000000000000000000000000000000000000000000000000000000815260040162000c9090620020ea565b60405180910390fd5b62000ca3620011e9565b62000d2f60028560405162000cb9919062001fd0565b908152602001604051809103902060009054906101000a900473ffffffffffffffffffffffffffffffffffffffff1660028560405162000cfa919062001fd0565b908152602001604051809103902060009054906101000a900473ffffffffffffffffffffffffffffffffffffffff1662001332565b50505050565b600073ffffffffffffffffffffffffffffffffffffffff168373ffffffffffffffffffffffffffffffffffffffff161415801562000da05750600073ffffffffffffffffffffffffffffffffffffffff168173ffffffffffffffffffffffffffffffffffffffff1614155b62000de2576040517f08c379a000000000000000000000000000000000000000000000000000000000815260040162000dd99062002217565b60405180910390fd5b600073ffffffffffffffffffffffffffffffffffffffff16600160008573ffffffffffffffffffffffffffffffffffffffff1673ffffffffffffffffffffffffffffffffffffffff16815260200190815260200160002060008373ffffffffffffffffffffffffffffffffffffffff1673ffffffffffffffffffffffffffffffffffffffff16815260200190815260200160002060009054906101000a900473ffffffffffffffffffffffffffffffffffffffff1673ffffffffffffffffffffffffffffffffffffffff16148062000f825750600073ffffffffffffffffffffffffffffffffffffffff16600160008373ffffffffffffffffffffffffffffffffffffffff1673ffffffffffffffffffffffffffffffffffffffff16815260200190815260200160002060008573ffffffffffffffffffffffffffffffffffffffff1673ffffffffffffffffffffffffffffffffffffffff16815260200190815260200160002060009054906101000a900473ffffffffffffffffffffffffffffffffffffffff1673ffffffffffffffffffffffffffffffffffffffff16145b62000fc4576040517f08c379a000000000000000000000000000000000000000000000000000000000815260040162000fbb9062002289565b60405180910390fd5b8260028560405162000fd7919062001fd0565b908152602001604051809103902060006101000a81548173ffffffffffffffffffffffffffffffffffffffff021916908373ffffffffffffffffffffffffffffffffffffffff1602179055508060028360405162001036919062001fd0565b908152602001604051809103902060006101000a81548173ffffffffffffffffffffffffffffffffffffffff021916908373ffffffffffffffffffffffffffffffffffffffff1602179055506200110e60028560405162001098919062001fd0565b908152602001604051809103902060009054906101000a900473ffffffffffffffffffffffffffffffffffffffff16600284604051620010d9919062001fd0565b908152602001604051809103902060009054906101000a900473ffffffffffffffffffffffffffffffffffffffff1662001804565b5050505050565b6200111f620011e9565b600073ffffffffffffffffffffffffffffffffffffffff168173ffffffffffffffffffffffffffffffffffffffff160362001191576040517f08c379a0000000000000000000000000000000000000000000000000000000008152600401620011889062002321565b60405180910390fd5b6200119c816200126e565b50565b6000600282604051620011b3919062001fd0565b908152602001604051809103902060009054906101000a900473ffffffffffffffffffffffffffffffffffffffff169050919050565b620011f3620019d1565b73ffffffffffffffffffffffffffffffffffffffff166200121362000b41565b73ffffffffffffffffffffffffffffffffffffffff16146200126c576040517f08c379a0000000000000000000000000000000000000000000000000000000008152600401620012639062002393565b60405180910390fd5b565b60008060009054906101000a900473ffffffffffffffffffffffffffffffffffffffff169050816000806101000a81548173ffffffffffffffffffffffffffffffffffffffff021916908373ffffffffffffffffffffffffffffffffffffffff1602179055508173ffffffffffffffffffffffffffffffffffffffff168173ffffffffffffffffffffffffffffffffffffffff167f8be0079c531659141344cd1fd0a4f28419497f9722a3daafe3b4186f6b6457e060405160405180910390a35050565b600073ffffffffffffffffffffffffffffffffffffffff168273ffffffffffffffffffffffffffffffffffffffff16141580156200139d5750600073ffffffffffffffffffffffffffffffffffffffff168173ffffffffffffffffffffffffffffffffffffffff1614155b620013df576040517f08c379a0000000000000000000000000000000000000000000000000000000008152600401620013d69062002217565b60405180910390fd5b600073ffffffffffffffffffffffffffffffffffffffff16600160008473ffffffffffffffffffffffffffffffffffffffff1673ffffffffffffffffffffffffffffffffffffffff16815260200190815260200160002060008373ffffffffffffffffffffffffffffffffffffffff1673ffffffffffffffffffffffffffffffffffffffff16815260200190815260200160002060009054906101000a900473ffffffffffffffffffffffffffffffffffffffff1673ffffffffffffffffffffffffffffffffffffffff1614158015620015825750600073ffffffffffffffffffffffffffffffffffffffff16600160008373ffffffffffffffffffffffffffffffffffffffff1673ffffffffffffffffffffffffffffffffffffffff16815260200190815260200160002060008473ffffffffffffffffffffffffffffffffffffffff1673ffffffffffffffffffffffffffffffffffffffff16815260200190815260200160002060009054906101000a900473ffffffffffffffffffffffffffffffffffffffff1673ffffffffffffffffffffffffffffffffffffffff1614155b620015c4576040517f08c379a0000000000000000000000000000000000000000000000000000000008152600401620015bb9062002405565b60405180910390fd5b600160008373ffffffffffffffffffffffffffffffffffffffff1673ffffffffffffffffffffffffffffffffffffffff16815260200190815260200160002060008273ffffffffffffffffffffffffffffffffffffffff1673ffffffffffffffffffffffffffffffffffffffff16815260200190815260200160002060009054906101000a900473ffffffffffffffffffffffffffffffffffffffff1673ffffffffffffffffffffffffffffffffffffffff16632b68b9c66040518163ffffffff1660e01b8152600401600060405180830381600087803b158015620016a957600080fd5b505af1158015620016be573d6000803e3d6000fd5b50505050600160008373ffffffffffffffffffffffffffffffffffffffff1673ffffffffffffffffffffffffffffffffffffffff16815260200190815260200160002060008273ffffffffffffffffffffffffffffffffffffffff1673ffffffffffffffffffffffffffffffffffffffff16815260200190815260200160002060006101000a81549073ffffffffffffffffffffffffffffffffffffffff0219169055600160008273ffffffffffffffffffffffffffffffffffffffff1673ffffffffffffffffffffffffffffffffffffffff16815260200190815260200160002060008373ffffffffffffffffffffffffffffffffffffffff1673ffffffffffffffffffffffffffffffffffffffff16815260200190815260200160002060006101000a81549073ffffffffffffffffffffffffffffffffffffffff02191690555050565b60008083836200181362000b41565b306040516200182290620019d9565b62001831949392919062002427565b604051809103906000f0801580156200184e573d6000803e3d6000fd5b50905080915081600160008673ffffffffffffffffffffffffffffffffffffffff1673ffffffffffffffffffffffffffffffffffffffff16815260200190815260200160002060008573ffffffffffffffffffffffffffffffffffffffff1673ffffffffffffffffffffffffffffffffffffffff16815260200190815260200160002060006101000a81548173ffffffffffffffffffffffffffffffffffffffff021916908373ffffffffffffffffffffffffffffffffffffffff16021790555081600160008573ffffffffffffffffffffffffffffffffffffffff1673ffffffffffffffffffffffffffffffffffffffff16815260200190815260200160002060008673ffffffffffffffffffffffffffffffffffffffff1673ffffffffffffffffffffffffffffffffffffffff16815260200190815260200160002060006101000a81548173ffffffffffffffffffffffffffffffffffffffff021916908373ffffffffffffffffffffffffffffffffffffffff1602179055505092915050565b600033905090565b613ade806200247583390190565b6000604051905090565b600080fd5b600080fd5b600073ffffffffffffffffffffffffffffffffffffffff82169050919050565b600062001a2882620019fb565b9050919050565b62001a3a8162001a1b565b811462001a4657600080fd5b50565b60008135905062001a5a8162001a2f565b92915050565b6000806040838503121562001a7a5762001a79620019f1565b5b600062001a8a8582860162001a49565b925050602062001a9d8582860162001a49565b9150509250929050565b62001ab28162001a1b565b82525050565b600060208201905062001acf600083018462001aa7565b92915050565b600080fd5b600080fd5b6000601f19601f8301169050919050565b7f4e487b7100000000000000000000000000000000000000000000000000000000600052604160045260246000fd5b62001b2a8262001adf565b810181811067ffffffffffffffff8211171562001b4c5762001b4b62001af0565b5b80604052505050565b600062001b61620019e7565b905062001b6f828262001b1f565b919050565b600067ffffffffffffffff82111562001b925762001b9162001af0565b5b62001b9d8262001adf565b9050602081019050919050565b82818337600083830152505050565b600062001bd062001bca8462001b74565b62001b55565b90508281526020810184848401111562001bef5762001bee62001ada565b5b62001bfc84828562001baa565b509392505050565b600082601f83011262001c1c5762001c1b62001ad5565b5b813562001c2e84826020860162001bb9565b91505092915050565b6000806040838503121562001c515762001c50620019f1565b5b600083013567ffffffffffffffff81111562001c725762001c71620019f6565b5b62001c808582860162001c04565b925050602062001c938582860162001a49565b9150509250929050565b6000819050919050565b62001cb28162001c9d565b811462001cbe57600080fd5b50565b60008135905062001cd28162001ca7565b92915050565b60008060006060848603121562001cf45762001cf3620019f1565b5b600084013567ffffffffffffffff81111562001d155762001d14620019f6565b5b62001d238682870162001c04565b935050602084013567ffffffffffffffff81111562001d475762001d46620019f6565b5b62001d558682870162001c04565b925050604062001d688682870162001cc1565b9150509250925092565b6000806040838503121562001d8c5762001d8b620019f1565b5b600083013567ffffffffffffffff81111562001dad5762001dac620019f6565b5b62001dbb8582860162001c04565b925050602083013567ffffffffffffffff81111562001ddf5762001dde620019f6565b5b62001ded8582860162001c04565b9150509250929050565b600060408201905062001e0e600083018562001aa7565b62001e1d602083018462001aa7565b9392505050565b60006020828403121562001e3d5762001e3c620019f1565b5b600082013567ffffffffffffffff81111562001e5e5762001e5d620019f6565b5b62001e6c8482850162001c04565b91505092915050565b6000806000806080858703121562001e925762001e91620019f1565b5b600085013567ffffffffffffffff81111562001eb35762001eb2620019f6565b5b62001ec18782880162001c04565b945050602062001ed48782880162001a49565b935050604085013567ffffffffffffffff81111562001ef85762001ef7620019f6565b5b62001f068782880162001c04565b925050606062001f198782880162001a49565b91505092959194509250565b60006020828403121562001f3e5762001f3d620019f1565b5b600062001f4e8482850162001a49565b91505092915050565b600081519050919050565b600081905092915050565b60005b8381101562001f8d57808201518184015260208101905062001f70565b60008484015250505050565b600062001fa68262001f57565b62001fb2818562001f62565b935062001fc481856020860162001f6d565b80840191505092915050565b600062001fde828462001f99565b915081905092915050565b600082825260208201905092915050565b7f4d617070696e6720657869737473000000000000000000000000000000000000600082015250565b600062002032600e8362001fe9565b91506200203f8262001ffa565b602082019050919050565b60006020820190508181036000830152620020658162002023565b9050919050565b620020778162001c9d565b82525050565b60006020820190506200209460008301846200206c565b92915050565b7f496e76616c6964206d617070696e670000000000000000000000000000000000600082015250565b6000620020d2600f8362001fe9565b9150620020df826200209a565b602082019050919050565b600060208201905081810360008301526200210581620020c3565b9050919050565b6000815190506200211d8162001ca7565b92915050565b6000602082840312156200213c576200213b620019f1565b5b60006200214c848285016200210c565b91505092915050565b7f4e656564206174206c656173742031356b2067414e4e41000000000000000000600082015250565b60006200218d60178362001fe9565b91506200219a8262002155565b602082019050919050565b60006020820190508181036000830152620021c0816200217e565b9050919050565b7f496e76616c696420616464726573730000000000000000000000000000000000600082015250565b6000620021ff600f8362001fe9565b91506200220c82620021c7565b602082019050919050565b600060208201905081810360008301526200223281620021f0565b9050919050565b7f5468652070616972206578697374730000000000000000000000000000000000600082015250565b600062002271600f8362001fe9565b91506200227e8262002239565b602082019050919050565b60006020820190508181036000830152620022a48162002262565b9050919050565b7f4f776e61626c653a206e6577206f776e657220697320746865207a65726f206160008201527f6464726573730000000000000000000000000000000000000000000000000000602082015250565b60006200230960268362001fe9565b91506200231682620022ab565b604082019050919050565b600060208201905081810360008301526200233c81620022fa565b9050919050565b7f4f776e61626c653a2063616c6c6572206973206e6f7420746865206f776e6572600082015250565b60006200237b60208362001fe9565b9150620023888262002343565b602082019050919050565b60006020820190508181036000830152620023ae816200236c565b9050919050565b7f496e76616c69642065786368616e676500000000000000000000000000000000600082015250565b6000620023ed60108362001fe9565b9150620023fa82620023b5565b602082019050919050565b600060208201905081810360008301526200242081620023de565b9050919050565b60006080820190506200243e600083018762001aa7565b6200244d602083018662001aa7565b6200245c604083018562001aa7565b6200246b606083018462001aa7565b9594505050505056fe60c06040526103de6007553480156200001757600080fd5b5060405162003ade38038062003ade83398181016040528101906200003d9190620002da565b6040518060400160405280600781526020017f4c5020414e4e41000000000000000000000000000000000000000000000000008152506040518060400160405280600681526020017f6c70414e4e4100000000000000000000000000000000000000000000000000008152508160039081620000ba9190620005c6565b508060049081620000cc9190620005c6565b505050600073ffffffffffffffffffffffffffffffffffffffff168473ffffffffffffffffffffffffffffffffffffffff16141580156200013a5750600073ffffffffffffffffffffffffffffffffffffffff168373ffffffffffffffffffffffffffffffffffffffff1614155b6200017c576040517f08c379a000000000000000000000000000000000000000000000000000000000815260040162000173906200070e565b60405180910390fd5b8373ffffffffffffffffffffffffffffffffffffffff1660808173ffffffffffffffffffffffffffffffffffffffff16815250508273ffffffffffffffffffffffffffffffffffffffff1660a08173ffffffffffffffffffffffffffffffffffffffff168152505081600660006101000a81548173ffffffffffffffffffffffffffffffffffffffff021916908373ffffffffffffffffffffffffffffffffffffffff16021790555080600560006101000a81548173ffffffffffffffffffffffffffffffffffffffff021916908373ffffffffffffffffffffffffffffffffffffffff1602179055505050505062000730565b600080fd5b600073ffffffffffffffffffffffffffffffffffffffff82169050919050565b6000620002a28262000275565b9050919050565b620002b48162000295565b8114620002c057600080fd5b50565b600081519050620002d481620002a9565b92915050565b60008060008060808587031215620002f757620002f662000270565b5b60006200030787828801620002c3565b94505060206200031a87828801620002c3565b93505060406200032d87828801620002c3565b92505060606200034087828801620002c3565b91505092959194509250565b600081519050919050565b7f4e487b7100000000000000000000000000000000000000000000000000000000600052604160045260246000fd5b7f4e487b7100000000000000000000000000000000000000000000000000000000600052602260045260246000fd5b60006002820490506001821680620003ce57607f821691505b602082108103620003e457620003e362000386565b5b50919050565b60008190508160005260206000209050919050565b60006020601f8301049050919050565b600082821b905092915050565b6000600883026200044e7fffffffffffffffffffffffffffffffffffffffffffffffffffffffffffffffff826200040f565b6200045a86836200040f565b95508019841693508086168417925050509392505050565b6000819050919050565b6000819050919050565b6000620004a7620004a16200049b8462000472565b6200047c565b62000472565b9050919050565b6000819050919050565b620004c38362000486565b620004db620004d282620004ae565b8484546200041c565b825550505050565b600090565b620004f2620004e3565b620004ff818484620004b8565b505050565b5b8181101562000527576200051b600082620004e8565b60018101905062000505565b5050565b601f82111562000576576200054081620003ea565b6200054b84620003ff565b810160208510156200055b578190505b620005736200056a85620003ff565b83018262000504565b50505b505050565b600082821c905092915050565b60006200059b600019846008026200057b565b1980831691505092915050565b6000620005b6838362000588565b9150826002028217905092915050565b620005d1826200034c565b67ffffffffffffffff811115620005ed57620005ec62000357565b5b620005f98254620003b5565b620006068282856200052b565b600060209050601f8311600181146200063e576000841562000629578287015190505b620006358582620005a8565b865550620006a5565b601f1984166200064e86620003ea565b60005b82811015620006785784890151825560018201915060208501945060208101905062000651565b8683101562000698578489015162000694601f89168262000588565b8355505b6001600288020188555050505b505050505050565b600082825260208201905092915050565b7f496e76616c696420616464726573736573000000000000000000000000000000600082015250565b6000620006f6601183620006ad565b91506200070382620006be565b602082019050919050565b600060208201905081810360008301526200072981620006e7565b9050919050565b60805160a051613326620007b8600039600081816105f9015281816108ec0152818161094b01528181610bbb01528181610ddc015281816112e801528181611531015261185101526000818161055f01528181610792015281816107f101528181610c5f01528181610d3b015281816112490152818161149001526118f201526133266000f3fe608060405234801561001057600080fd5b506004361061014d5760003560e01c80638da5cb5b116100c3578063ab7e20581161007c578063ab7e2058146103cd578063b3244041146103e9578063b34cb6f61461041a578063ca9077751461044a578063dc805b171461047a578063dd62ed3e146104965761014d565b80638da5cb5b146102e257806395d89b4114610300578063966dae0e1461031e5780639c8f9f231461033c578063a457c2d71461036d578063a9059cbb1461039d5761014d565b80632b68b9c6116101155780632b68b9c61461020e578063313ce56714610218578063395093511461023657806351c6590a1461026657806369fe0e2d1461029657806370a08231146102b25761014d565b806306fdde03146101525780630902f1ac14610170578063095ea7b31461019057806318160ddd146101c057806323b872dd146101de575b600080fd5b61015a6104c6565b60405161016791906123e8565b60405180910390f35b610178610558565b60405161018793929190612423565b60405180910390f35b6101aa60048036038101906101a591906124e9565b6106a4565b6040516101b79190612544565b60405180910390f35b6101c86106c7565b6040516101d5919061255f565b60405180910390f35b6101f860048036038101906101f3919061257a565b6106d1565b6040516102059190612544565b60405180910390f35b610216610700565b005b610220610a7f565b60405161022d91906125e9565b60405180910390f35b610250600480360381019061024b91906124e9565b610a88565b60405161025d9190612544565b60405180910390f35b610280600480360381019061027b9190612604565b610abf565b60405161028d919061255f565b60405180910390f35b6102b060048036038101906102ab9190612604565b610f25565b005b6102cc60048036038101906102c79190612631565b611062565b6040516102d9919061255f565b60405180910390f35b6102ea6110aa565b6040516102f7919061266d565b60405180910390f35b6103086110d0565b60405161031591906123e8565b60405180910390f35b610326611162565b604051610333919061266d565b60405180910390f35b61035660048036038101906103519190612604565b611188565b604051610364929190612688565b60405180910390f35b610387600480360381019061038291906124e9565b6113e7565b6040516103949190612544565b60405180910390f35b6103b760048036038101906103b291906124e9565b61145e565b6040516103c49190612544565b60405180910390f35b6103e760048036038101906103e29190612604565b611481565b005b61040360048036038101906103fe9190612604565b611624565b604051610411929190612688565b60405180910390f35b610434600480360381019061042f9190612604565b611750565b604051610441919061255f565b60405180910390f35b610464600480360381019061045f9190612604565b6117c9565b604051610471919061255f565b60405180910390f35b610494600480360381019061048f9190612604565b611842565b005b6104b060048036038101906104ab91906126b1565b6119e5565b6040516104bd919061255f565b60405180910390f35b6060600380546104d590612720565b80601f016020809104026020016040519081016040528092919081815260200182805461050190612720565b801561054e5780601f106105235761010080835404028352916020019161054e565b820191906000526020600020905b81548152906001019060200180831161053157829003601f168201915b5050505050905090565b60008060007f000000000000000000000000000000000000000000000000000000000000000073ffffffffffffffffffffffffffffffffffffffff166370a08231306040518263ffffffff1660e01b81526004016105b6919061266d565b602060405180830381865afa1580156105d3573d6000803e3d6000fd5b505050506040513d601f19601f820116820180604052508101906105f79190612766565b7f000000000000000000000000000000000000000000000000000000000000000073ffffffffffffffffffffffffffffffffffffffff166370a08231306040518263ffffffff1660e01b8152600401610650919061266d565b602060405180830381865afa15801561066d573d6000803e3d6000fd5b505050506040513d601f19601f820116820180604052508101906106919190612766565b6106996106c7565b925092509250909192565b6000806106af611a6c565b90506106bc818585611a74565b600191505092915050565b6000600254905090565b6000806106dc611a6c565b90506106e9858285611c3d565b6106f4858585611cc9565b60019150509392505050565b600560009054906101000a900473ffffffffffffffffffffffffffffffffffffffff1673ffffffffffffffffffffffffffffffffffffffff163373ffffffffffffffffffffffffffffffffffffffff1614610790576040517f08c379a0000000000000000000000000000000000000000000000000000000008152600401610787906127df565b60405180910390fd5b7f000000000000000000000000000000000000000000000000000000000000000073ffffffffffffffffffffffffffffffffffffffff1663a9059cbb600660009054906101000a900473ffffffffffffffffffffffffffffffffffffffff167f000000000000000000000000000000000000000000000000000000000000000073ffffffffffffffffffffffffffffffffffffffff166370a08231306040518263ffffffff1660e01b8152600401610848919061266d565b602060405180830381865afa158015610865573d6000803e3d6000fd5b505050506040513d601f19601f820116820180604052508101906108899190612766565b6040518363ffffffff1660e01b81526004016108a69291906127ff565b6020604051808303816000875af11580156108c5573d6000803e3d6000fd5b505050506040513d601f19601f820116820180604052508101906108e99190612854565b507f000000000000000000000000000000000000000000000000000000000000000073ffffffffffffffffffffffffffffffffffffffff1663a9059cbb600660009054906101000a900473ffffffffffffffffffffffffffffffffffffffff167f000000000000000000000000000000000000000000000000000000000000000073ffffffffffffffffffffffffffffffffffffffff166370a08231306040518263ffffffff1660e01b81526004016109a2919061266d565b602060405180830381865afa1580156109bf573d6000803e3d6000fd5b505050506040513d601f19601f820116820180604052508101906109e39190612766565b6040518363ffffffff1660e01b8152600401610a009291906127ff565b6020604051808303816000875af1158015610a1f573d6000803e3d6000fd5b505050506040513d601f19601f82011682018060405250810190610a439190612854565b50600660009054906101000a900473ffffffffffffffffffffffffffffffffffffffff1673ffffffffffffffffffffffffffffffffffffffff16ff5b60006012905090565b600080610a93611a6c565b9050610ab4818585610aa585896119e5565b610aaf91906128b0565b611a74565b600191505092915050565b600080600080610acd610558565b9250925092506000808203610ae757859450859050610b69565b600084118015610af75750600083115b610b36576040517f08c379a0000000000000000000000000000000000000000000000000000000008152600401610b2d90612930565b60405180910390fd5b838387610b439190612950565b610b4d91906129c1565b9050838683610b5c9190612950565b610b6691906129c1565b94505b600086118015610b795750600081115b610bb8576040517f08c379a0000000000000000000000000000000000000000000000000000000008152600401610baf90612a3e565b60405180910390fd5b807f000000000000000000000000000000000000000000000000000000000000000073ffffffffffffffffffffffffffffffffffffffff166370a08231336040518263ffffffff1660e01b8152600401610c12919061266d565b602060405180830381865afa158015610c2f573d6000803e3d6000fd5b505050506040513d601f19601f82011682018060405250810190610c539190612766565b10158015610cfa5750857f000000000000000000000000000000000000000000000000000000000000000073ffffffffffffffffffffffffffffffffffffffff166370a08231336040518263ffffffff1660e01b8152600401610cb6919061266d565b602060405180830381865afa158015610cd3573d6000803e3d6000fd5b505050506040513d601f19601f82011682018060405250810190610cf79190612766565b10155b610d39576040517f08c379a0000000000000000000000000000000000000000000000000000000008152600401610d3090612aaa565b60405180910390fd5b7f000000000000000000000000000000000000000000000000000000000000000073ffffffffffffffffffffffffffffffffffffffff166323b872dd3330896040518463ffffffff1660e01b8152600401610d9693929190612aca565b6020604051808303816000875af1158015610db5573d6000803e3d6000fd5b505050506040513d601f19601f82011682018060405250810190610dd99190612854565b507f000000000000000000000000000000000000000000000000000000000000000073ffffffffffffffffffffffffffffffffffffffff166323b872dd3330846040518463ffffffff1660e01b8152600401610e3793929190612aca565b6020604051808303816000875af1158015610e56573d6000803e3d6000fd5b505050506040513d601f19601f82011682018060405250810190610e7a9190612854565b5060008511610ebe576040517f08c379a0000000000000000000000000000000000000000000000000000000008152600401610eb590612a3e565b60405180910390fd5b610ec83386611f3f565b3373ffffffffffffffffffffffffffffffffffffffff167fcafc425af80b5c3cc42df3bcd7a80be8864e530e91080220b0927a2e8738633787838842604051610f149493929190612b01565b60405180910390a250505050919050565b600560009054906101000a900473ffffffffffffffffffffffffffffffffffffffff1673ffffffffffffffffffffffffffffffffffffffff163373ffffffffffffffffffffffffffffffffffffffff1614610fb5576040517f08c379a0000000000000000000000000000000000000000000000000000000008152600401610fac906127df565b60405180910390fd5b6103848110158015610fc957506103e88111155b611008576040517f08c379a0000000000000000000000000000000000000000000000000000000008152600401610fff90612bb8565b60405180910390fd5b806007819055503373ffffffffffffffffffffffffffffffffffffffff167ff98c81ad0a5eb3551c3561de8dc9d1512e8680fb77425ea138ebfe9a9c0065ff8242604051611057929190612688565b60405180910390a250565b60008060008373ffffffffffffffffffffffffffffffffffffffff1673ffffffffffffffffffffffffffffffffffffffff168152602001908152602001600020549050919050565b600660009054906101000a900473ffffffffffffffffffffffffffffffffffffffff1681565b6060600480546110df90612720565b80601f016020809104026020016040519081016040528092919081815260200182805461110b90612720565b80156111585780601f1061112d57610100808354040283529160200191611158565b820191906000526020600020905b81548152906001019060200180831161113b57829003601f168201915b5050505050905090565b600560009054906101000a900473ffffffffffffffffffffffffffffffffffffffff1681565b60008060006111956106c7565b116111d5576040517f08c379a00000000000000000000000000000000000000000000000000000000081526004016111cc90612c24565b60405180910390fd5b826111df33611062565b81111580156111ee5750600081115b61122d576040517f08c379a000000000000000000000000000000000000000000000000000000000815260040161122490612c90565b60405180910390fd5b60008061123986611624565b915091506112473387612095565b7f000000000000000000000000000000000000000000000000000000000000000073ffffffffffffffffffffffffffffffffffffffff1663a9059cbb33846040518363ffffffff1660e01b81526004016112a29291906127ff565b6020604051808303816000875af11580156112c1573d6000803e3d6000fd5b505050506040513d601f19601f820116820180604052508101906112e59190612854565b507f000000000000000000000000000000000000000000000000000000000000000073ffffffffffffffffffffffffffffffffffffffff1663a9059cbb33836040518363ffffffff1660e01b81526004016113419291906127ff565b6020604051808303816000875af1158015611360573d6000803e3d6000fd5b505050506040513d601f19601f820116820180604052508101906113849190612854565b503373ffffffffffffffffffffffffffffffffffffffff167fb4b85360dd062bff16e260f0f39a75d05d0a80b492dd7dad17efe99a862a250c838389426040516113d19493929190612b01565b60405180910390a2818194509450505050915091565b6000806113f2611a6c565b9050600061140082866119e5565b905083811015611445576040517f08c379a000000000000000000000000000000000000000000000000000000000815260040161143c90612d22565b60405180910390fd5b6114528286868403611a74565b60019250505092915050565b600080611469611a6c565b9050611476818585611cc9565b600191505092915050565b600061148c82611750565b90507f000000000000000000000000000000000000000000000000000000000000000073ffffffffffffffffffffffffffffffffffffffff166323b872dd3330856040518463ffffffff1660e01b81526004016114eb93929190612aca565b6020604051808303816000875af115801561150a573d6000803e3d6000fd5b505050506040513d601f19601f8201168201806040525081019061152e9190612854565b507f000000000000000000000000000000000000000000000000000000000000000073ffffffffffffffffffffffffffffffffffffffff1663a9059cbb33836040518363ffffffff1660e01b815260040161158a9291906127ff565b6020604051808303816000875af11580156115a9573d6000803e3d6000fd5b505050506040513d601f19601f820116820180604052508101906115cd9190612854565b503373ffffffffffffffffffffffffffffffffffffffff167f17c5b36beecc08bb34c131595b72648615701863750cb5dd40952abd4128af7782844260405161161893929190612423565b60405180910390a25050565b6000808261163133611062565b81111580156116405750600081115b61167f576040517f08c379a000000000000000000000000000000000000000000000000000000000815260040161167690612c90565b60405180910390fd5b600080600061168c610558565b925092509250808711156116d5576040517f08c379a00000000000000000000000000000000000000000000000000000000081526004016116cc90612d8e565b60405180910390fd5b6000816103e86116e59190612950565b846007548a6116f49190612950565b6116fe9190612950565b61170891906129c1565b90506000826103e861171a9190612950565b846007548b6117299190612950565b6117339190612950565b61173d91906129c1565b9050818197509750505050505050915091565b60008061175b6106c7565b1161179b576040517f08c379a000000000000000000000000000000000000000000000000000000000815260040161179290612c24565b60405180910390fd5b60008060006117a8610558565b92509250925060006117bb868585612262565b905080945050505050919050565b6000806117d46106c7565b11611814576040517f08c379a000000000000000000000000000000000000000000000000000000000815260040161180b90612c24565b60405180910390fd5b6000806000611821610558565b9250925092506000611834868486612262565b905080945050505050919050565b600061184d826117c9565b90507f000000000000000000000000000000000000000000000000000000000000000073ffffffffffffffffffffffffffffffffffffffff166323b872dd3330856040518463ffffffff1660e01b81526004016118ac93929190612aca565b6020604051808303816000875af11580156118cb573d6000803e3d6000fd5b505050506040513d601f19601f820116820180604052508101906118ef9190612854565b507f000000000000000000000000000000000000000000000000000000000000000073ffffffffffffffffffffffffffffffffffffffff1663a9059cbb33836040518363ffffffff1660e01b815260040161194b9291906127ff565b6020604051808303816000875af115801561196a573d6000803e3d6000fd5b505050506040513d601f19601f8201168201806040525081019061198e9190612854565b503373ffffffffffffffffffffffffffffffffffffffff167f17c5b36beecc08bb34c131595b72648615701863750cb5dd40952abd4128af778284426040516119d993929190612423565b60405180910390a25050565b6000600160008473ffffffffffffffffffffffffffffffffffffffff1673ffffffffffffffffffffffffffffffffffffffff16815260200190815260200160002060008373ffffffffffffffffffffffffffffffffffffffff1673ffffffffffffffffffffffffffffffffffffffff16815260200190815260200160002054905092915050565b600033905090565b600073ffffffffffffffffffffffffffffffffffffffff168373ffffffffffffffffffffffffffffffffffffffff1603611ae3576040517f08c379a0000000000000000000000000000000000000000000000000000000008152600401611ada90612e20565b60405180910390fd5b600073ffffffffffffffffffffffffffffffffffffffff168273ffffffffffffffffffffffffffffffffffffffff1603611b52576040517f08c379a0000000000000000000000000000000000000000000000000000000008152600401611b4990612eb2565b60405180910390fd5b80600160008573ffffffffffffffffffffffffffffffffffffffff1673ffffffffffffffffffffffffffffffffffffffff16815260200190815260200160002060008473ffffffffffffffffffffffffffffffffffffffff1673ffffffffffffffffffffffffffffffffffffffff168152602001908152602001600020819055508173ffffffffffffffffffffffffffffffffffffffff168373ffffffffffffffffffffffffffffffffffffffff167f8c5be1e5ebec7d5bd14f71427d1e84f3dd0314c0f7b2291e5b200ac8c7c3b92583604051611c30919061255f565b60405180910390a3505050565b6000611c4984846119e5565b90507fffffffffffffffffffffffffffffffffffffffffffffffffffffffffffffffff8114611cc35781811015611cb5576040517f08c379a0000000000000000000000000000000000000000000000000000000008152600401611cac90612f1e565b60405180910390fd5b611cc28484848403611a74565b5b50505050565b600073ffffffffffffffffffffffffffffffffffffffff168373ffffffffffffffffffffffffffffffffffffffff1603611d38576040517f08c379a0000000000000000000000000000000000000000000000000000000008152600401611d2f90612fb0565b60405180910390fd5b600073ffffffffffffffffffffffffffffffffffffffff168273ffffffffffffffffffffffffffffffffffffffff1603611da7576040517f08c379a0000000000000000000000000000000000000000000000000000000008152600401611d9e90613042565b60405180910390fd5b611db283838361234e565b60008060008573ffffffffffffffffffffffffffffffffffffffff1673ffffffffffffffffffffffffffffffffffffffff16815260200190815260200160002054905081811015611e38576040517f08c379a0000000000000000000000000000000000000000000000000000000008152600401611e2f906130d4565b60405180910390fd5b8181036000808673ffffffffffffffffffffffffffffffffffffffff1673ffffffffffffffffffffffffffffffffffffffff16815260200190815260200160002081905550816000808573ffffffffffffffffffffffffffffffffffffffff1673ffffffffffffffffffffffffffffffffffffffff168152602001908152602001600020600082825401925050819055508273ffffffffffffffffffffffffffffffffffffffff168473ffffffffffffffffffffffffffffffffffffffff167fddf252ad1be2c89b69c2b068fc378daa952ba7f163c4a11628f55a4df523b3ef84604051611f26919061255f565b60405180910390a3611f39848484612353565b50505050565b600073ffffffffffffffffffffffffffffffffffffffff168273ffffffffffffffffffffffffffffffffffffffff1603611fae576040517f08c379a0000000000000000000000000000000000000000000000000000000008152600401611fa590613140565b60405180910390fd5b611fba6000838361234e565b8060026000828254611fcc91906128b0565b92505081905550806000808473ffffffffffffffffffffffffffffffffffffffff1673ffffffffffffffffffffffffffffffffffffffff168152602001908152602001600020600082825401925050819055508173ffffffffffffffffffffffffffffffffffffffff16600073ffffffffffffffffffffffffffffffffffffffff167fddf252ad1be2c89b69c2b068fc378daa952ba7f163c4a11628f55a4df523b3ef8360405161207d919061255f565b60405180910390a361209160008383612353565b5050565b600073ffffffffffffffffffffffffffffffffffffffff168273ffffffffffffffffffffffffffffffffffffffff1603612104576040517f08c379a00000000000000000000000000000000000000000000000000000000081526004016120fb906131d2565b60405180910390fd5b6121108260008361234e565b60008060008473ffffffffffffffffffffffffffffffffffffffff1673ffffffffffffffffffffffffffffffffffffffff16815260200190815260200160002054905081811015612196576040517f08c379a000000000000000000000000000000000000000000000000000000000815260040161218d90613264565b60405180910390fd5b8181036000808573ffffffffffffffffffffffffffffffffffffffff1673ffffffffffffffffffffffffffffffffffffffff1681526020019081526020016000208190555081600260008282540392505081905550600073ffffffffffffffffffffffffffffffffffffffff168373ffffffffffffffffffffffffffffffffffffffff167fddf252ad1be2c89b69c2b068fc378daa952ba7f163c4a11628f55a4df523b3ef84604051612249919061255f565b60405180910390a361225d83600084612353565b505050565b60008061226d6106c7565b116122ad576040517f08c379a00000000000000000000000000000000000000000000000000000000081526004016122a490612c24565b60405180910390fd5b600084116122f0576040517f08c379a00000000000000000000000000000000000000000000000000000000081526004016122e7906132d0565b60405180910390fd5b600082600754866123019190612950565b61230b9190612950565b905060006007548661231d9190612950565b856103e861232b9190612950565b61233591906128b0565b9050808261234391906129c1565b925050509392505050565b505050565b505050565b600081519050919050565b600082825260208201905092915050565b60005b83811015612392578082015181840152602081019050612377565b60008484015250505050565b6000601f19601f8301169050919050565b60006123ba82612358565b6123c48185612363565b93506123d4818560208601612374565b6123dd8161239e565b840191505092915050565b6000602082019050818103600083015261240281846123af565b905092915050565b6000819050919050565b61241d8161240a565b82525050565b60006060820190506124386000830186612414565b6124456020830185612414565b6124526040830184612414565b949350505050565b600080fd5b600073ffffffffffffffffffffffffffffffffffffffff82169050919050565b600061248a8261245f565b9050919050565b61249a8161247f565b81146124a557600080fd5b50565b6000813590506124b781612491565b92915050565b6124c68161240a565b81146124d157600080fd5b50565b6000813590506124e3816124bd565b92915050565b60008060408385031215612500576124ff61245a565b5b600061250e858286016124a8565b925050602061251f858286016124d4565b9150509250929050565b60008115159050919050565b61253e81612529565b82525050565b60006020820190506125596000830184612535565b92915050565b60006020820190506125746000830184612414565b92915050565b6000806000606084860312156125935761259261245a565b5b60006125a1868287016124a8565b93505060206125b2868287016124a8565b92505060406125c3868287016124d4565b9150509250925092565b600060ff82169050919050565b6125e3816125cd565b82525050565b60006020820190506125fe60008301846125da565b92915050565b60006020828403121561261a5761261961245a565b5b6000612628848285016124d4565b91505092915050565b6000602082840312156126475761264661245a565b5b6000612655848285016124a8565b91505092915050565b6126678161247f565b82525050565b6000602082019050612682600083018461265e565b92915050565b600060408201905061269d6000830185612414565b6126aa6020830184612414565b9392505050565b600080604083850312156126c8576126c761245a565b5b60006126d6858286016124a8565b92505060206126e7858286016124a8565b9150509250929050565b7f4e487b7100000000000000000000000000000000000000000000000000000000600052602260045260246000fd5b6000600282049050600182168061273857607f821691505b60208210810361274b5761274a6126f1565b5b50919050565b600081519050612760816124bd565b92915050565b60006020828403121561277c5761277b61245a565b5b600061278a84828501612751565b91505092915050565b7f4e6f7420666163746f7279000000000000000000000000000000000000000000600082015250565b60006127c9600b83612363565b91506127d482612793565b602082019050919050565b600060208201905081810360008301526127f8816127bc565b9050919050565b6000604082019050612814600083018561265e565b6128216020830184612414565b9392505050565b61283181612529565b811461283c57600080fd5b50565b60008151905061284e81612828565b92915050565b60006020828403121561286a5761286961245a565b5b60006128788482850161283f565b91505092915050565b7f4e487b7100000000000000000000000000000000000000000000000000000000600052601160045260246000fd5b60006128bb8261240a565b91506128c68361240a565b92508282019050808211156128de576128dd612881565b5b92915050565b7f496e73756666696369656e742072657365727665730000000000000000000000600082015250565b600061291a601583612363565b9150612925826128e4565b602082019050919050565b600060208201905081810360008301526129498161290d565b9050919050565b600061295b8261240a565b91506129668361240a565b92508282026129748161240a565b9150828204841483151761298b5761298a612881565b5b5092915050565b7f4e487b7100000000000000000000000000000000000000000000000000000000600052601260045260246000fd5b60006129cc8261240a565b91506129d78361240a565b9250826129e7576129e6612992565b5b828204905092915050565b7f4d75737420626520706f73697469766520616d6f756e74000000000000000000600082015250565b6000612a28601783612363565b9150612a33826129f2565b602082019050919050565b60006020820190508181036000830152612a5781612a1b565b9050919050565b7f496e73756666696369656e7420746f6b656e7300000000000000000000000000600082015250565b6000612a94601383612363565b9150612a9f82612a5e565b602082019050919050565b60006020820190508181036000830152612ac381612a87565b9050919050565b6000606082019050612adf600083018661265e565b612aec602083018561265e565b612af96040830184612414565b949350505050565b6000608082019050612b166000830187612414565b612b236020830186612414565b612b306040830185612414565b612b3d6060830184612414565b95945050505050565b7f4f6e6c79206265747765656e203930302028313025206665652920616e64203160008201527f3030302028302520666565290000000000000000000000000000000000000000602082015250565b6000612ba2602c83612363565b9150612bad82612b46565b604082019050919050565b60006020820190508181036000830152612bd181612b95565b9050919050565b7f5a65726f204c6971756964697479000000000000000000000000000000000000600082015250565b6000612c0e600e83612363565b9150612c1982612bd8565b602082019050919050565b60006020820190508181036000830152612c3d81612c01565b9050919050565b7f496e76616c696420736861726520616d6f756e74000000000000000000000000600082015250565b6000612c7a601483612363565b9150612c8582612c44565b602082019050919050565b60006020820190508181036000830152612ca981612c6d565b9050919050565b7f45524332303a2064656372656173656420616c6c6f77616e63652062656c6f7760008201527f207a65726f000000000000000000000000000000000000000000000000000000602082015250565b6000612d0c602583612363565b9150612d1782612cb0565b604082019050919050565b60006020820190508181036000830152612d3b81612cff565b9050919050565b7f496e76616c696420616d6f756e74000000000000000000000000000000000000600082015250565b6000612d78600e83612363565b9150612d8382612d42565b602082019050919050565b60006020820190508181036000830152612da781612d6b565b9050919050565b7f45524332303a20617070726f76652066726f6d20746865207a65726f2061646460008201527f7265737300000000000000000000000000000000000000000000000000000000602082015250565b6000612e0a602483612363565b9150612e1582612dae565b604082019050919050565b60006020820190508181036000830152612e3981612dfd565b9050919050565b7f45524332303a20617070726f766520746f20746865207a65726f20616464726560008201527f7373000000000000000000000000000000000000000000000000000000000000602082015250565b6000612e9c602283612363565b9150612ea782612e40565b604082019050919050565b60006020820190508181036000830152612ecb81612e8f565b9050919050565b7f45524332303a20696e73756666696369656e7420616c6c6f77616e6365000000600082015250565b6000612f08601d83612363565b9150612f1382612ed2565b602082019050919050565b60006020820190508181036000830152612f3781612efb565b9050919050565b7f45524332303a207472616e736665722066726f6d20746865207a65726f20616460008201527f6472657373000000000000000000000000000000000000000000000000000000602082015250565b6000612f9a602583612363565b9150612fa582612f3e565b604082019050919050565b60006020820190508181036000830152612fc981612f8d565b9050919050565b7f45524332303a207472616e7366657220746f20746865207a65726f206164647260008201527f6573730000000000000000000000000000000000000000000000000000000000602082015250565b600061302c602383612363565b915061303782612fd0565b604082019050919050565b6000602082019050818103600083015261305b8161301f565b9050919050565b7f45524332303a207472616e7366657220616d6f756e742065786365656473206260008201527f616c616e63650000000000000000000000000000000000000000000000000000602082015250565b60006130be602683612363565b91506130c982613062565b604082019050919050565b600060208201905081810360008301526130ed816130b1565b9050919050565b7f45524332303a206d696e7420746f20746865207a65726f206164647265737300600082015250565b600061312a601f83612363565b9150613135826130f4565b602082019050919050565b600060208201905081810360008301526131598161311d565b9050919050565b7f45524332303a206275726e2066726f6d20746865207a65726f2061646472657360008201527f7300000000000000000000000000000000000000000000000000000000000000602082015250565b60006131bc602183612363565b91506131c782613160565b604082019050919050565b600060208201905081810360008301526131eb816131af565b9050919050565b7f45524332303a206275726e20616d6f756e7420657863656564732062616c616e60008201527f6365000000000000000000000000000000000000000000000000000000000000602082015250565b600061324e602283612363565b9150613259826131f2565b604082019050919050565b6000602082019050818103600083015261327d81613241565b9050919050565b7f4e6f7420706f73697469766520616d6f756e7400000000000000000000000000600082015250565b60006132ba601383612363565b91506132c582613284565b602082019050919050565b600060208201905081810360008301526132e9816132ad565b905091905056fea2646970667358221220b8ebf86335e31055714e0708f597a12f454a665d92996b0efa4a282e699de7a764736f6c63430008110033a2646970667358221220e5324914eca91a8ca8502f7651ac585fbd10f138541182fb13bc70037733a46864736f6c63430008110033",
    "linkReferences": {},
    "deployedLinkReferences": {}
}